:0A00000002014E0208030100000097
:07000B0002080BE4FFC11F16
:070013000208137F01C11F69
:03001B0002081BBD
:03002300020823AD
:03002B0002082B9D
:030033000208338D
:03003B0002083B7D
:0B004300A119E59620E7FB2202084B04
:030053000208534D
:03005B0002085B3D
:030063000208632D
:03006B0002086B1D
:030073000208730D
:10007B0002087B1201100100000040A01120DB5090
:10008B0000010200010902120001010040320904C3
:10009B00000000FFFFFF0004030904160343006880
:1000AB00006900700063006F006E00200041005378
:1000BB00001203430043003200340033003000448D
:1000CB00004200BB010689828A83E0225002E722AC
:1000DB00BBFE02E32289828A83E49322BB010CE5F7
:1000EB008229F582E5833AF583E0225006E92582E1
:1000FB00F8E622BBFE06E92582F8E222E58229F525
:10010B0082E5833AF583E49322BB010689828A83D5
:10011B00F0225002F722BBFE01F322F8BB010DE5E2
:10012B008229F582E5833AF583E8F0225006E9252A
:10013B0082C8F622BBFE05E92582C8F2228A838992
:10014B0082E473787FE4F6D8FD75812A02015A5355
:10015B00D9BF75E10775E2C17580F875A0F775A475
:10016B001D75A59075A6B975F2BB75F3FD75D4C059
:10017B0075D54C75D602F1D95102D2AF2093073009
:10018B0095047F0180027F008F2AE52A6005E4F544
:10019B0022801C900846E493B4E110A3E493B48C42
:1001AB000AA3E493B464047F0180027F008F22E5ED
:1001BB0022601AE5EF7F0020E4027F018F23900875
:1001CB0049918D740493FE7405B1FC8007E4F5230B
:1001DB00F520F52143E60243E602E5C930E613E5D7
:1001EB002A70FC30930C209509E5237005E5C92096
:1001FB00E6EDD18E0208007D087F0151397D0F7F1E
:10020B000751391D7F0951397D047F0B513975D742
:10021B00C043D7207D807F0F5139E4FD7F01800ED5
:10022B007F0E51397D847F1251397D807F15C2AF8E
:10023B008F968D971145D2AF22E51564026014E5B8
:10024B000D450C700EE50F450E7008E50B54FE4581
:10025B000A600475160422E50B6027751504E4FF8C
:10026B0051927D017F0E51397D047F125139E4FD8E
:10027B007F1551397D02512B7D03512BE4FD7F0EF0
:10028B0080AC7515037F038F178F188F198F1A8FFB
:10029B001B8F1C22E4FD7F0E51397F11B1B48F25CA
:1002AB00E52530E4047D809182E52530E204E4FD10
:1002BB009182E516640270497F16B1B48F26B11294
:1002CB00AD267F20B1DCAF267E00C3E5149FF5146D
:1002DB00E5139EF513EF2512F512EE3511F511E529
:1002EB001445137010E509243F7005123D19800267
:1002FB009165E4F516E51445137D4860027D408158
:10030B0059E516B405028162E51660028112E525F6
:10031B0020E00281127B007A0079087D087F20B1F2
:10032B00DCE50BFE7C00E4250AF50BEC3EF50AE55B
:10033B000DFEE4250CF50DEC3EF50CE50FFEE4256A
:10034B000EF50FEC3EF50EE50854E024E07002616B
:10035B00F224E0606224C0603924E0700261F22470
:10036B00E0606F24C0600261F6E50914601824FE9A
:10037B00601024FA601424FE60142406706DF10DD5
:10038B00806C11168068110E806451448060F1BE40
:10039B00805CE50924FA601024FE601124FE6011D4
:1003AB00240A7011F1428046123C018041D1D28067
:1003BB003DD1A480398034E509243D600C14600DD7
:1003CB0024037023123D198025D18E8021123CCB42
:1003DB00801CE5092440600924FE7009123CF6805C
:1003EB000D91988009800091658003751604E516C0
:1003FB0064056065E5166406605FE5167D40B40430
:10040B00027D607F115139E5166401704575250237
:10041B00C3E5149440E5139400500585142680031E
:10042B00752640C3E5149526F514E5139400F513D2
:10043B0045147005432508F516B112AD267F20D162
:10044B0002E5262512F512E43511F511AD257F11C4
:10045B004139E516B40602916522E5226015E523C4
:10046B006011431F01918A740893FE740993AA06C5
:10047B00F92148751604227F115139E4F5162290A3
:10048B000849E493FE740193F5828E8322E50D45B2
:10049B000C7072F510751100751208F513751408B0
:1004AB00751601B112E5213114B112900001E5204E
:1004BB003126E5226008918A740193FF80027F0048
:1004CB00900002B1C96007918AE493FF80027F001C
:1004DB00900003B1C96008918A740393FF80027F77
:1004EB0000900004B1C96008918A740293FF8002E6
:1004FB007F00900005EF3126900006E52331269012
:10050B000007E421268165AB10AA11A91222C0E0D5
:10051B00C0F0C083C082C0D075D000C000C001C085
:10052B0002C003C004C005C006C0077F06B1C2608D
:10053B001730E202B1CFE524421DE5226050918ACB
:10054B00740693FE740780447F02B1C2602230E0D0
:10055B00055324FE519FE524421FE51F6030E52221
:10056B00602CE5236028918A740A93FE740B801C1F
:10057B007F04B1C26018421EE51E6012E522600EB8
:10058B00E523600A918A740C93FE740DB1FCD007BD
:10059B00D006D005D004D003D002D001D000D0D0EB
:1005AB00D082D083D0F0D0E032C2AFEF4480F5964A
:1005BB001145AF97D2AF22B1B48F24E52422EF318E
:1005CB0026E52222751502E4FD7F0191847F03410C
:1005DB0092D186601B430780E4FEEEC39D5011C28F
:1005EB00AF8F961145D198E5973126D2AF0E80EAA1
:1005FB002293AA06F92148D1866018E4FEEEC39D2A
:10060B005011C2AF8F96D19811E7F5971145D2AF24
:10061B000E80EA22AE07E50F450E705BE51564020E
:10062B006055E515B40308E50D450C60028048E5FF
:10063B0008541F24FE7040E50B703FAC0DEC5403C7
:10064B00FD7F0E5139EC30E710547F2403FCEE7D17
:10065B004060027D107F118009EE7D8060027D205D
:10066B007F145139EE7F0060027F0374162CF8A6BD
:10067B0007E4FD7F0E4139751604228B278A2889E2
:10068B0029ED22E5237005C2AF75230122AB27AA02
:10069B0028A9298E8275830022E515B40419E50873
:1006AB00B48114E50B450A700EE50D450C7008E599
:1006BB000F6401450E600475160422F103751300D7
:1006CB0075140175160122E50B450A700EE50D45F3
:1006DB000C7008E50F6401450E600475160422E5E5
:1006EB0015B4040B7510FF7511007512068007E524
:1006FB0015B40302F10380C57510FF751100751257
:10070B000822E50D450C700FE50F450E7009E50A43
:10071B007005E50B30E70475160422AD0BE4FF51B1
:10072B0039E50B6009E515B4020C75150322E515C7
:10073B00B4030375150222E50B450A700CE50C702A
:10074B0008E50F6402450E600475160422E50824C3
:10075B007F600D14601924027046E50D600D80401A
:10076B00E515B40404E50D60028035F1038034E532
:10077B0015640460028029E50D547FFFE50D30E719
:10078B00030F0F0F74162FF8E67BFFB403067A00E6
:10079B00790680047A0079088B108A1189128003FC
:1007AB00751604E51664046009751300751402755B
:1007BB00160122E508B40112E50F450E700CE50B8E
:1007CB00450A7006E50D450C60037516042275B9D4
:1007DB0080E4FFFE0FBF00010EEF64144E70F54373
:0E07EB00B9C0E5B930E5FB75A90275B28322ED
:103C0100E50A24FE601914606B2402600281AD751F
:103C110010FF75110075127E90007EE49381A6E578
:103C2100226031900849E493FE740193FF240EFD54
:103C3100E43EA9057510FFF51189128F828E8374F8
:103C41001193FE900849E493FC740193F5828C83EF
:103C5100741080137510FF75110075129090009308
:103C6100E493FE900092E4937C002400F514EC3E72
:103C7100F513803BE50B14601214601A2402701FC7
:103C81007510FF7511007512A280147510FF751162
:103C9100007512A680097510FF7511007512BC120E
:103CA10005121200CE751300F5148003751604E594
:103CB1001664046014D3E514950FE513950E4006C0
:103CC100850E13850F1475160122C2AF53D77FE5F8
:103CD1000B450A601C7FD07E070000EF1F70011E9C
:103CE100144E70F5E50B150B7002150A14450A7098
:103CF100E475EF1022E50F7004E50E64027F0160A8
:103D0100027F048F16E50D25E07510FFF511751280
:103D11000075130275140022E516702EE523600864
:103D2100E50D641D450C700AE50F7004E50E640293
:103D310060047F0480027F028F16751302751400E0
:103D410075100175110075120022E5166402705597
:103D5100E50D7F0025E0FE43EF02C2AF758F0375CD
:103D6100B7A575B7F18F82F583E4F0758F017C00FB
:103D71007D00752702F528E5281528AA2770021568
:103D8100274A601C75B7A575B7F18D828C83E08FCA
:103D9100828E83F00FBF00010E0DBD00010C80D794
:063DA100E4F58FD2AF2211
:00000001FF
