:0A0000000201540208030100000091
:07000B0002080BE4FFC1260F
:070013000208137F01C12662
:03001B0002081BBD
:03002300020823AD
:03002B0002082B9D
:030033000208338D
:03003B0002083B7D
:0B004300A120E59620E7FB2202084BFD
:030053000208534D
:03005B0002085B3D
:030063000208632D
:03006B0002086B1D
:030073000208730D
:10007B0002087B1201100100000040A01120EB5080
:10008B0000010200010902120001010040320904C3
:10009B00000000FFFFFF0004030904160343006880
:1000AB00006900700063006F006E00200041005378
:1000BB0000180353006D006100720074005200467B
:1000CB00003000340045004200BB010689828A8360
:1000DB00E0225002E722BBFE02E32289828A83E4FC
:1000EB009322BB010CE58229F582E5833AF583E087
:1000FB00225006E92582F8E622BBFE06E92582F8A6
:10010B00E222E58229F582E5833AF583E49322BB6B
:10011B00010689828A83F0225002F722BBFE01F38B
:10012B0022F8BB010DE58229F582E5833AF583E8D8
:10013B00F0225006E92582C8F622BBFE05E925828E
:10014B00C8F2228A838982E473787FE4F6D8FD753E
:10015B00812A02016053D9BF75E10775E2C1758031
:10016B00F875A0F775A41D75A59075A6B975F2BBAA
:10017B0075F3FD75D4C075D54C75D602123C015183
:10018B0009D2AF2093073095047F0180027F008F47
:10019B002AE52A6005E4F522801C900846E493B416
:1001AB00E110A3E493B48C0AA3E493B464047F0139
:1001BB0080027F008F22E522601AE5EF7F0020E4AA
:1001CB00027F018F239008499194740493FE740568
:1001DB00D1038007E4F523F520F52143E60243E63E
:1001EB0002E5C930E613E52A70FC30930C20950923
:1001FB00E5237005E5C920E6EDD1950208007D08E1
:10020B007F0151407D0F7F0751401D7F0951407D7C
:10021B00047F0B514075D7C043D7207D807F0F5192
:10022B0040E4FD7F01800E7F0E51407D847F125193
:10023B00407D807F15C2AF8F968D971145D2AF222F
:10024B00E51564026014E50D450C700EE50F450EC7
:10025B007008E50B54FE450A600475160422E50B85
:10026B006027751504E4FF51997D017F0E51407D88
:10027B00047F125140E4FD7F1551407D0251327DC8
:10028B00035132E4FD7F0E80AC7515037F038F178E
:10029B008F188F198F1A8F1B8F1C22E4FD7F0E5125
:1002AB00407F11B1BB8F25E52530E4047D8091891A
:1002BB00E52530E204E4FD9189E516640270497F7F
:1002CB0016B1BB8F26B119AD267F20B1E3AF267EC9
:1002DB0000C3E5149FF514E5139EF513EF2512F5F6
:1002EB0012EE3511F511E51445137010E509243F95
:1002FB007005123D398002916CE4F516E514451337
:10030B007D4860027D408160E516B405028169E598
:10031B001660028119E52520E00281197B007A0025
:10032B0079087D087F20B1E3E50BFE7C00E4250A0C
:10033B00F50BEC3EF50AE50DFEE4250CF50DEC3E58
:10034B00F50CE50FFEE4250EF50FEC3EF50EE5087A
:10035B0054E024E0700261F924E0606224C060394B
:10036B0024E0700261F924E0606F24C0600261FD3B
:10037B00E50914601824FE601024FA601424FE6052
:10038B00142406706DF114806C11168068110E80A8
:10039B0064514B8060F1C5805CE50924FA60102440
:1003AB00FE601124FE6011240A7011F1498046127F
:1003BB003C218041D1D9803DD1AB80398034E509D6
:1003CB00243D600C14600D24037023123D398025ED
:1003DB00D1958021123CEB801CE509244060092457
:1003EB00FE7009123D16800D919F80098000916C63
:1003FB008003751604E51664056065E516640660F2
:10040B005FE5167D40B404027D607F115140E51617
:10041B0064017045752502C3E5149440E5139400FF
:10042B0050058514268003752640C3E5149526F5E3
:10043B0014E5139400F51345147005432508F516C0
:10044B00B119AD267F20D109E5262512F512E43529
:10045B0011F511AD257F114140E516B40602916CE3
:10046B0022E5226015E5236011431F019191740869
:10047B0093FE740993AA06F9214E751604227F1177
:10048B005140E4F51622900849E493FE740193F56C
:10049B00828E8322E50D450C7072F5107511007577
:1004AB001208F513751408751601B119E521311AE7
:1004BB00B119900001E520312CE52260089191746F
:1004CB000193FF80027F00900002B1D060079191F1
:1004DB00E493FF80027F00900003B1D060089191FC
:1004EB00740393FF80027F00900004B1D0600891E9
:1004FB0091740293FF80027F00900005EF312C90E6
:10050B000006E523312C900007E4212C816CAB1005
:10051B00AA11A91222C0E0C0F0C083C082C0D0755E
:10052B00D000C000C001C002C003C004C005C0069B
:10053B00C0077F06B1C9601730E202B1D6E524428D
:10054B001DE52260509191740693FE740780447FE1
:10055B0002B1C9602230E0055324FE51A6E52442C6
:10056B001FE51F6030E522602CE523602891917414
:10057B000A93FE740B801C7F04B1C96018421EE500
:10058B001E6012E522600EE523600A9191740C93B4
:10059B00FE740DD103D007D006D005D004D003D004
:1005AB0002D001D000D0D0D082D083D0F0D0E032B6
:1005BB00C2AFEF4480F5961145AF97D2AF22B1BBD6
:1005CB008F24E52422EF312CE52222751502E4FD60
:1005DB007F01918B7F034199D18D601B430780E491
:1005EB00FEEEC39D5011C2AF8F961145D19FE5977B
:1005FB00312CD2AF0E80EA2293AA06F9214ED18D6F
:10060B006018E4FEEEC39D5011C2AF8F96D19F11BF
:10061B00EDF5971145D2AF0E80EA22AE07E50F45F7
:10062B000E705BE51564026055E515B40308E50D26
:10063B00450C60028048E508541F24FE7040E50B12
:10064B00703FAC0DEC5403FD7F0E5140EC30E710C6
:10065B00547F2403FCEE7D4060027D107F118009E6
:10066B00EE7D8060027D207F145140EE7F006002A2
:10067B007F0374162CF8A607E4FD7F0E4140751618
:10068B0004228B278A288929ED22E5237005C2AF26
:10069B0075230122AB27AA28A9298E8275830022F4
:1006AB00E515B40419E508B48114E50B450A700E81
:1006BB00E50D450C7008E50F6401450E60047516D9
:1006CB000422F10A75130075140175160122E50B4E
:1006DB00450A700EE50D450C7008E50F6401450EDB
:1006EB00600475160422E515B4040B7510FF751123
:1006FB00007512068007E515B40302F10A80C57573
:10070B0010FF75110075120822E50D450C700FE5F1
:10071B000F450E7009E50A7005E50B30E7047516F9
:10072B000422AD0BE4FF5140E50B6009E515B40263
:10073B000C75150322E515B4030375150222E50BA1
:10074B00450A700CE50C7008E50F6402450E600459
:10075B0075160422E508247F600D146019240270BD
:10076B0046E50D600D8040E515B40404E50D60020F
:10077B008035F10A8034E515640460028029E50DAB
:10078B00547FFFE50D30E7030F0F0F74162FF8E6BC
:10079B007BFFB403067A00790680047A0079088B14
:1007AB00108A1189128003751604E516640460091A
:1007BB0075130075140275160122E508B40112E5D4
:1007CB000F450E700CE50B450A7006E50D450C60E8
:0507DB00037516042265
:103C010075B980E4FFFE0FBF00010EEF64144E7022
:103C1100F543B9C0E5B930E5FB75A90275B2832258
:103C2100E50A24FE601914606B2402600281CD75DF
:103C310010FF75110075127E90007EE49381C6E538
:103C4100226031900849E493FE740193FF240EFD34
:103C5100E43EA9057510FFF51189128F828E8374D8
:103C61001193FE900849E493FC740193F5828C83CF
:103C7100741080137510FF751100751290900093E8
:103C8100E493FE900092E4937C002400F514EC3E52
:103C9100F513803BE50B14601214601A2402701FA7
:103CA1007510FF7511007512A280147510FF751142
:103CB100007512A680097510FF7511007512BC12EE
:103CC10005191200D4751300F5148003751604E567
:103CD1001664046014D3E514950FE513950E4006A0
:103CE100850E13850F1475160122C2AF53D77FE5D8
:103CF1000B450A601C7FD07E070000EF1F70011E7C
:103D0100144E70F5E50B150B7002150A14450A7077
:103D1100E475EF1022E50F7004E50E64027F016087
:103D2100027F048F16E50D25E07510FFF511751260
:103D31000075130275140022E516702EE523600844
:103D4100E50D641D450C700AE50F7004E50E640273
:103D510060047F0480027F028F16751302751400C0
:103D610075100175110075120022E5166402705577
:103D7100E50D7F0025E0FE43EF02C2AF758F0375AD
:103D8100B7A575B7F18F82F583E4F0758F017C00DB
:103D91007D00752702F528E5281528AA2770021548
:103DA100274A601C75B7A575B7F18D828C83E08FAA
:103DB100828E83F00FBF00010E0DBD00010C80D774
:063DC100E4F58FD2AF22F1
:00000001FF
