:020000040000FA
:0318000002189833
:0318430002286216
:03184B0002330A5B
:03186B00022EE664
:03187B0002301325
:10189300E18C64DA1F75D00075819075142075157D
:1018A300F10218AC00000080FB121910B90003020A
:1018B300190AE479167804B800028004F709D8FC01
:1018C300E4796F780CB800028004F709D8FCE4903F
:1018D300F120786779038002F0A3D8FCD9FA90F35A
:1018E30086AA82AB83901913781F79018015E4933C
:1018F300A3AC82AD838A828B83F0A3AA82AB838C51
:10190300828D83D8E9D9E71228F51218A779012225
:101913000300000101000000010101010107FFFFB5
:10192300E1F2030000FA00000000FFFFFFFF740173
:1019330022C56C703BC56C33D2919297C29133D25E
:10194300919297C29133D2919297C29133D291924D
:1019530097C29133D2919297C29133D2919297C207
:101963009133D2919297C29133D2919297C291229D
:10197300C56C7A0831DF31DF33D29131DA92973196
:10198300DAC291DAEF22E56C7039D291C291A29753
:1019930033D291C291A29733D291C291A29733D2FB
:1019A30091C291A29733D291C291A29733D291C29D
:1019B30091A29733D291C291A29733D291C291A2AD
:1019C3009733227A0831DF31DFD29131DA31DAC24B
:1019D30091A29733DAEF220000000000000000001C
:1019E300000000000000000022FAE56AB40704EAE0
:1019F300510C222463056AF8EAF622E56A2463059A
:101A03006AF8E62290DE28E02290DE28F022D90A46
:101A1300D05FD0608C618D6261152253FE7FE56DCE
:101A23007002C296D2977A1030970EE56E6008EA7C
:101A3300C0E03189D0E0FADAEF002243FE80D2968B
:101A43002231317003C28122D281227B087A0012B3
:101A530032A131317004D2818002C2817B087A00C5
:101A63001232A122896C22896D22896E22755F1B35
:101A730075601FD296C291C29743FE8253F6FD2230
:101A8300121A70514E51447B087A001232A1E96058
:101A9300065401603280057825E6602B31DAD29155
:101AA30031DAC29131DAD29131DAC29131DA514E5F
:101AB300513EC06C756C0174553134E43134511EA0
:101AC3003189513ED06C2231DA514E122CAB22E9CE
:101AD3003134223189F922C2AF740490DE0EF090C2
:101AE300DE14E030E03390DE16E493F9602B855F7B
:101AF30083856082AD62AC61E47343FE80D296E578
:101B03006B600790DE11E04401F0D910755F1B751F
:101B1300601F90DE14E4F080C6D2AF225107F56B4C
:101B2300536B0103F56A536A070303541E901B3476
:101B3300736176619061B06152618A61AA61646187
:101B43008461A461C2617E619E61BC61D861F2510E
:101B53001151073134511E318931EC318931EC4156
:101B6300FD51115107313451115107313451115184
:101B730007313451115107313441FD5111510731AE
:101B8300345111510731345111510731345111512D
:101B9300073134511E318931EC41FD511151073167
:101BA300345111510731345111510731345111510D
:101BB300073134511E318941FD51115107313451DF
:101BC300115107313451115107313431FE31345140
:101BD3001E318941FD5111510731345111510731E2
:101BE3003431FE313431FE3134511E318941FD51DE
:101BF300115107FD313451115107FC3134ED5407B4
:101C0300FD4C70027D08EC60010D51115107313418
:101C1300DCF8DDF6511E318941FDE066701008A342
:101C2300E066700A08A3E066700408A3E06622BBBE
:101C33000102E722C082C08389828A83BB0003E05A
:101C43008002E493D083D08222BB000EC082C08383
:101C53008A838982F0D083D08222BB0101F722607C
:101C630016080808C6C313C618C613C618C613C673
:101C730018C613C6D5E0EA22E026F008A3E036F042
:101C830008A3E036F008A3E036F022E0F608A3E06C
:101C9300F608A3E0F608A3E0F622E6F008A3E6F0D0
:101CA30008A3E6F008A3E6F022CAC0E0E6F0A30822
:101CB300DAFAD0E0FA22CAC0E0E0A3C582CCC5823A
:101CC300C583CDC583F0A3C582CCC582C583CDC5ED
:101CD30083DAE6D0E0CA22C58224FDC582C58334F7
:101CE300FFC58322B90010BB0008E88AF084F8AA74
:101CF300F022E4FBC8FA22EB70227B10C833C8C978
:101D030033C9335007C39AC3DBF280069A50012AC2
:101D1300DBEAC833F4C8C933F4C9FA2275F008E41E
:101D2300C833C8C933C933C99AC99B5004C92AC91E
:101D33003BD5F0ECFBC833F4C8E4C9FA22600C08C5
:101D4300C6C313C618C613C6D5E0F42270042260B6
:101D53000D18C6C333C608C633C6D5E0F41822250A
:101D63001410AF08F514400215158008F51440024D
:101D73001515D2AF22C0D0251410AF08F5145002A8
:101D830005158008F51450020515D2AFD0D02225D1
:101D930014F58210AF08F514400215158008F514E8
:101DA30040021515D2AF851583222514F582E4353B
:101DB30015F58322E4732514C582C0E0E51534FFCD
:101DC300C583C0E0E514C3958224F9F8E4C5A8856A
:101DD3008315858214C5A8E8CEF0A3E520F0A37887
:101DE30008E608F0A3DEFAEFF0A3E58124FBF8E6AA
:101DF30008F0A3E608F0A30808E608F0A3E608F055
:101E0300A315811581D0E0FED0E0F815811581E896
:101E1300C0E0EEC0E022851583851482E0A3FEE0D6
:101E2300A3F5207808E0A3F608DFFAE0A3FFE0A318
:101E3300C0E0E0A3C0E0E0A3C0E0E0A3C0E0E4C5ED
:101E4300A8858214858315C5A8D083D08222740304
:101E5300800474028000C0E0F404121D92D0E012EA
:101E63001CAC22CCC0E0EDC0E0E514C39CCCAD15A6
:101E730050011D10AF068C148D1580068C148D1522
:101E8300D2AF121CB9D0E0FDD0E0FC22D083D082C7
:101E9300C5F0E493A3C5F0C395F0F5F0E493A3C3B1
:101EA30095F04005E5F0048001E475F002A4258275
:101EB300F582E5F03583F583E493A3C0E0E493C0B2
:101EC300E022D083D082CCC0E0E493A36006121E4C
:101ED300EF1470FAE493A36006121F0E1470FAD085
:101EE300E0FCE493A3C0E0E493C0E022C0E0E49309
:101EF300A3D39C5010E493A3C39C400AD0E0D0E04A
:101F0300D0E0021EE2A3A3A3D0E022C0E0E493A3A7
:101F13006C7009D0E0D0E0D0E0021EE2A3A3D0E0D1
:101F230022D083D082ECC0E0EDC0E0E493A3FCE4D4
:101F330093A3FDED4C600D121F70EC24FFFCED34F8
:101F4300FFFD80EFE493A3FCE493A3FDED4C600D50
:101F5300121FAFEC24FFFCED34FFFD80EFD0E0FD5A
:101F6300D0E0FCE493A3C0E0E493C0E022C0E0C36C
:101F7300E49396087401939618400FE493667008EF
:101F830008740193661870007019A3A3C3E49396B1
:101F9300087401939618A3A3400DD0E0D0E0D0E0DD
:101FA300021F60A3A3A3A3A3A3D0E022C0E0C0F0B9
:101FB30088F0E4936670080874019366187000A8AB
:101FC300F0A3A3700BD0F0D0E0D0E0D0E0021F600C
:101FD300A3A3D0F0D0E022000544002F2B742B08DC
:101FE3002C0C2C102C142C182C3B2C54657861735E
:101FF300496E737472756D656E7473002020536D32
:102003006172745246303520454220200020202042
:102013002020434378787878202020202000284E01
:102023006F20454D2064657465637465642900748D
:10203300F7121DB9782079F17A04E488828983F054
:10204300A3F0E824020808E93400F91AEA70EB1255
:102053002276EA7001EB70491223A6EA7001EB7055
:1020630040122436EA7001EB7037122194EA7001B2
:10207300EB702E122C92121A707901121A677901E1
:10208300121A6A1220A9EA7001EB70157900121A6C
:102093006A1220A9EA7001EB7007122CAB7A007B5D
:1020A300007F02021E19C082C08374FF121D627971
:1020B30001121A6D7981121A837A327B001232A1CE
:1020C3007968121AD2121A1E121AD6E98514828559
:1020D3001583F0121AD6121A3E7900121A6DE01205
:1020E3001EC501414262210E011721111D213450E9
:1020F30021436B21447421457D21812121852B219D
:102103008931218D5921912721954721A53521B564
:102113003E2186217A107B11806D7A1180F87A1026
:102123007B2580637A1180F87A307B2480597A3159
:1021330080F87901121A6D7A3080E57901121A6DEF
:102143007A3180DC7901121A6D7A3380D3790112E6
:102153001A6D7A3480CA7901121A6D7A4080C17976
:1021630001121A6D7A4180B87901121A6D7A43808F
:10217300AF7901121A6D7A4480A67901121A6D7A29
:1021830045809D7A007B007401121D78D083D08234
:102193002274F8121DB974FE121D6212238AC282C0
:1021A3007EC8A285500B7A057B001232A11EEE7009
:1021B300F1C2F975F9F0A2F950FCC2F975F900A260
:1021C300F950FCE5F9C0E07401121DADD0E0F0C296
:1021D300F975F9F1A2F950FCC2F975F900A2F950A9
:1021E300FCE5F9851482851583F0D2827401121DF2
:1021F300ADE0121EC50004000822025A22806C22A0
:102203008272221122851482851583E070077A0079
:102213007B0002242CE0C3940450067A007B1180D7
:10222300F1E0640570047A0280F3E054EFFA740479
:102233006A70047A0180E674076A70047A0780DDA5
:1022430074086A70047A0880D474096A70047A097D
:1022530080CB122CAB80B7851482851583E0C41321
:102263005407F8745028FA80B47A007B2580A37A47
:102273005080F874F8121DB974FE121D6274025571
:1022830080FF12238AD2817A057B001232A1C28198
:10229300C2827EC8A285500B7A057B001232A11E32
:1022A300EE70F1C2F975F9EFA2F950FCC2F975F9B4
:1022B3008FA2F950FCC2F975F900A2F950FC122360
:1022C30097A2F950FCE5F9C0E07401121DADD0E00E
:1022D30012237F121EC50008201C23211623221C53
:1022E30023232023400E2348F52258FC225A12238D
:1022F30024237A207B1102237C7401121DADE06438
:10230300F070047A2680ED7A2580E97A2180E57AD7
:102313007580E17A017B1280607A0080F87A03800D
:10232300F4C2827EC8A285500B7A057B001232A1CB
:102333001EEE70F1C2F975F9C0A2F950FCC2F9752D
:10234300F964A2F950FCC2F975F900A2F950FC1224
:102353002397A2F950FCE5F9C0E07401121DADD03A
:10236300E012237F642870047A6080A9EF6004D2AE
:10237300818002C2817A007B0002242CF0D2828504
:102383001482851583E02212241A53F4FD53FEFDB3
:1023930043F60222E5F9851482851583F0C2F975A7
:1023A300F9002274F8121DB974FF121D62740255EC
:1023B30080FED28153F4BFD29643FE4053F47FD2C2
:1023C3009743FE807A887B131232A1C2817AD07B35
:1023D300071225DD75F910A2F950FCC2F975F94011
:1023E300A2F950FCC2F975F900A2F950FCE5F98590
:1023F3001482851583F0D282E0648470067A207B90
:1024030025801012241AEE6004D2818002C2817AE0
:10241300007B007401801453F4BFC29643FE405303
:10242300F47F53FE7F43F680227402121D787F01EE
:10243300021E1974F7121DB974FD121D6274011284
:102443001DADE4F0A3F074025580851482851583D5
:10245300F0D282D2817A027B001232C6C28153F358
:10246300EFC28443FD10C2827A647B001232A1D290
:102473008253F3EF53FDEF538FEF53F7DF43F31023
:10248300C282C2F975F9C0A2F950FCC2F975F90408
:10249300A2F950FCC2F975F925A2F950FCC2F975ED
:1024A300F905A2F950FCC2F975F9B0A2F950FCC2C2
:1024B300F975F907A2F950FC1225D775F9DFA2F9CE
:1024C30050FCC2F975F902A2F950FCC2F975F90082
:1024D300A2F950FCC2F975F9ACA2F950FC1225D748
:1024E30075F990A2F950FCC2F975F91AA2F950FCDA
:1024F300C2F975F900A2F950FCE5F9F97401121D4E
:10250300ADE4F0A3E912239FA2F950FCE5F9F50825
:102513007401121DADE04508F0A3E0F07401121D33
:10252300ADE064057004A3E064256018D2828514CD
:1025330082851583E06004D2818002C2817A007BA8
:10254300000225CFC2F975F900A2F950FCE5F99014
:10255300F12112239FA2F950FCE5F990F120F07AC2
:1025630010C2F975F900A2F950FCE5F91AEA70F105
:10257300C2F975F900A2F950FCE5F990F12512238F
:102583009FA2F950FCE5F990F12412239FA2F95080
:10259300FCE5F990F12312239FA2F950FCE5F99091
:1025A300F12212239FA2F950FCE5F990F12712239F
:1025B3009FA2F950FCE5F990F126F0D282D2817AFC
:1025C300147B001232A1C2817A057B257403121D8C
:1025D300780220A4D2827A327B001232A1C282C254
:1025E300F92274F7121DB9E5357038E5277002E555
:1025F300286005753504802B53F3FBD28243FD0419
:10260300122C3C53F3FDD28143FD02122CAB12205A
:10261300328A518B521259BAE990F395F01228F489
:102623007535020220A4E5357021C3E5279408E53A
:10263300289400500475350422752920752AF175F4
:102643002B00752C08752D007535012274F1121DB0
:10265300B9E535FA7015752950752AF1752B008582
:10266300272C85282D75350202275774026A6003CB
:10267300022757AA23AB2474C05AF50874FF5BF5ED
:10268300097808121F2400000200000097260001A9
:1026930097265727EA5403F50DEA543C1313543F86
:1026A300FE7F00A827A9287001E4700B850D08E8B8
:1026B3009508FEE99400FF880A890B75085075098F
:1026C300F1850D8285820EE87001E97003022757B8
:1026D300C282742065517004742565526014750CB0
:1026E300C8A285500D7A057B001232A1150CE50CAA
:1026F30070EFC3E50A950EF50AE50B9400F50BAAF6
:102703000DEA601A1AC2F9850882850983E0F5F992
:10271300A3858208858309A2F950FCEA70E6C3E524
:102723000A9EF50AE50B9FF50BEEFA601A1AC2F939
:10273300850882850983E0F5F9A3858208858309E5
:10274300A2F950FCEA70E6D282E50A7002E50B605A
:10275300030226D37F08021E1974F3121DB9E5354F
:10276300600302285DAA23AB2474C05AF50874FFE2
:102773005BF5097808121F24000002000000892776
:10278300000189274B28EA5403F50CEA543C131340
:10279300543FFE7F00A827A9287001E47004E8FED7
:1027A300E9FF88088909750A50750BF1E87001E99A
:1027B300706502284BC2F9A924E9F5F9A2F950FC86
:1027C300C2F9A926E9F5F9A2F950FCC2F9A825E84E
:1027D300F5F9A2F950FC7825E62401F608E6340061
:1027E300F6C3E5089EF508E5099FF509EEFA601DB5
:1027F3001AC2F975F900A2F950FCE5F9850A828538
:102803000B83F0A385820A85830BEA70E3D282E50A
:10281300087002E5096031C2827420655170047446
:102823002565526014750DC8A285500D7A057B008D
:102833001232A1150DE50D70EFE50C121E8F01028A
:10284300D927CE27C327B827752950752AF1752BA9
:102853000085272C85282D7535017F06021E19C298
:10286300C03274F6121DB975084F75097A750A805E
:102873007808121E51743FC394A4FC74F494F3FDBE
:1028830079A47AF37B001275F67403121D78750828
:102893009F750900750A007808121E517C027D009D
:1028A30079B07AF37B001275F67403121D787508FC
:1028B300F97808121E517C107D00791F7AF47B0091
:1028C3001275F67403121D787F03021E19741069C2
:1028D300701E7547A47548F375493B754AF4754BEB
:1028E3003B754CF4754D3B754EF4754F3B7550F489
:1028F3002222C292122C3C755100755200122032D2
:102903008A518B521259BAE990F395F01228F412B6
:1029130031B4122A56E5517002E552701E53F5EF99
:1029230053FFEF43F71053F5F753FFF743F70853FC
:10293300F5FE53FFFE43F701122C6112286579104F
:102943001228D053F4FED29043FE01123123022900
:10295300F1125BE7801712737880121236B0123AC5
:10296300BE800A7AFA7B001232A11236B090F39538
:10297300E0FA90F394E06A6075E0121EC50005006A
:102983009D2904932905A22906982907A229A52987
:10299300125AAC800D122C3C8008122CAB8003120F
:1029A30044AA90F395E0121E8F00074E2AC0291205
:1029B3002A4E2A4E2A372A442A3C2A492A53F5EF1B
:1029C30053FFEF43F71053F5F753FFF743F708535C
:1029D300F5FE53FFFE43F701122C61122C92121ADB
:1029E300707980121A8390F395E090F394F090F34A
:1029F30094E0121E8F000766290C2A6D296629664A
:102A03002954295E2959296129121ADA0229705396
:102A1300F5EFD2A443FF1053F5F7D2A343FF0853B6
:102A2300F5FED2A043FF0153F3FBD28243FD041210
:102A33002C3C80B2125A6780AD122CAB1273F38018
:102A4300A5125D4680A0123711809B122C61122CB7
:102A5300AB8093C008C00912322F7AEE7B1F790135
:102A63001232497AFF7B1F7902123249E551700213
:102A7300E5527003022B217A107B2079031232492D
:102A8300855108855209740C7808121D40E5082405
:102A930030FB7A077903123246785108E6540F2443
:102AA30030FB7A087903123246A851E8C4540F2444
:102AB30030FB7A097903123246740265517004744B
:102AC30011655270147B307A0A79031232467B45C2
:102AD3007A0B7903123246804E7407655170047481
:102AE300116552700F7B307A0979031232467B4CA1
:102AF3007A0A80DE7408655170047411655270049B
:102B03007B3380E37409655170047411655270045A
:102B13007B3580D3A851E8540F2430FB80D27A212F
:102B23007B207903123249D009D00822C082C083A6
:102B3300E522121EC50006C6582BC74E2BCB532BBE
:102B4300D7672BD95D2BDB622B6C2B12343A801C9D
:102B530012275C801712598280121235F0800D12F1
:102B6300458E80081226298003753504D083D082D0
:102B730022C082C083E522121EC5000CC5AF2BC83C
:102B8300A52BC9B92BCAAA2BCFD42BD0F32BD1F8A1
:102B93002BD2FD2BD5E12BD6EE2BD8CF2BDAB42BB2
:102BA300022C12335B805B12264F80561259998098
:102BB300511234CB804CE53570487900121A83905A
:102BC300F394E06404703B122C9280361234C38079
:102BD30031E535702DA823E8F9121A678024E5350D
:102BE3007020A823E8F9121A6D80171225E58012C8
:102BF300125A1B800D125A418008125A0280037523
:102C03003504022B6F75350422753504227535049E
:102C13002275350422C082C083E9121E8F01093850
:102C23002C382C382C382C382C382C382C382C3881
:102C33002C382C382C022B6F2253F1FD43F1014326
:102C4300F32043F31043F308E5C6FA43FB8075F81A
:102C53000074075A240F4420F5FC75FA532253F3EA
:102C6300DF53FDDF438F2053F3EF53FDEF438F100B
:102C730053F3F753FDF7438F0853F3FB53FDFB4324
:102C83008F0422D2817A0A7B001232C6C281225378
:102C9300F4BFD29643FE4053F47FC29743FE805362
:102CA300F4FDC29143FE0222E56D53F4BF601ED2D0
:102CB3009643FE4053F47F53FE7F53F67F53F7BF93
:102CC30053F4FD53FEFD53F6FD53F7BF22C2964363
:102CD300FE4053F47F53FE7F43F68053F4FD53FECF
:102CE300FD43F6022274F7121DB9740A121DADE0FA
:102CF300FE7508017509007808121D4FAF08A2AFD1
:102D030092E0F8C2AF7409121DADE0121E8F0001EC
:102D1300892D192D602DEEC333FCE433FDEC2450D3
:102D2300F582ED34F2F583EAF0A3EBF0EA7001EB00
:102D3300602190F270E04FF07409121DADE0121E95
:102D43008F00019A2D4C2D922DEFF45589F589C2F0
:102D5300C58044EFF4FA90F270E05A80DAEEC333A0
:102D6300FCE433FDEC2460F582ED34F2F583EAF004
:102D7300A3EBF0EA7001EB600590F27180B7EFF41A
:102D8300FA90F27180D3E8A2E092AF79FF800FEF5F
:102D9300F4558AF58AC2EBE8A2E092AF79007F028C
:102DA300021E1974F7121DB97409121DADE0121E2B
:102DB3008F0001F12DBC2DD52DD2BD740A121DAD8E
:102DC300E0C394045007438C08790080D1438C10EE
:102DD30080F7439A10750801750900740A121DAD36
:102DE300E07808121D4FE508458DF58D80DB79FFEE
:102DF30080D974F7121DB97409121DADE0121E8F2C
:102E030000013C2E0B2E222E740A121DADE0C3943A
:102E1300045007538CF779008084538CEF80F77547
:102E23000801750900740A121DADE07808121D4FE0
:102E3300E508F4558DF58D80DD79FF80DB74F7129D
:102E43001DB97409121DADE0121E8F0001912E569B
:102E53002E752E750801750900740A121DADE078F0
:102E630008121D4FE508F45589F589C2C57900029A
:102E73002DA1750801750900740A121DADE07808CB
:102E8300121D4FE508F4558AF58AC2EB80DF79FFFE
:102E930080DDC082C083E9121E8F0001E22EA52EC1
:102EA300C62E851482851583E0121E8F0001E22E43
:102EB300B72EC12E438C017900D083D08222438C5C
:102EC3000280F4851482851583E0121E8F0001E2CF
:102ED3002ED82EDD2E538CFE80DD538CFD80D879C9
:102EE300FF80D6C0E0C0D0E8C0E0E9C0E0EAC0E0BF
:102EF300EBC0E0ECC0E0EDC0E0EEC0E0C082C08318
:102F0300C0F090F270E0FEE5897003022FF1E589CD
:102F1300A2E05016EEA2E0500E90F250E0F8A3E0CB
:102F2300F5838882121DB77589FEE589A2E15016E3
:102F3300EEA2E1500E90F252E0F8A3E0F58388820E
:102F4300121DB77589FDE589A2E25016EEA2E25083
:102F53000E90F254E0F8A3E0F5838882121DB77552
:102F630089FBE589A2E35016EEA2E3500E90F256D8
:102F7300E0F8A3E0F5838882121DB77589F7E58928
:102F8300A2E45016EEA2E4500E90F258E0F8A3E04B
:102F9300F5838882121DB77589EFE589A2E550167E
:102FA300EEA2E5500E90F25AE0F8A3E0F583888292
:102FB300121DB77589DFE589A2E65016EEA2E65029
:102FC3000E90F25CE0F8A3E0F5838882121DB775DA
:102FD30089BFE589A2E75016EEA2E7500E90F25E94
:102FE300E0F8A3E0F5838882121DB775897FC2C517
:102FF300D0F0D083D082D0E0FED0E0FDD0E0FCD092
:10300300E0FBD0E0FAD0E0F9D0E0F8D0D0D0E03265
:10301300C0E0C0D0E8C0E0E9C0E0EAC0E0EBC0E057
:10302300ECC0E0EDC0E0EEC0E0C082C083C0F09031
:10303300F271E0FEE58A700302311EE58AA2E050D8
:1030430016EEA2E0500E90F260E0F8A3E0F583885C
:1030530082121DB7758AFEE58AA2E15016EEA2E13F
:10306300500E90F262E0F8A3E0F5838882121DB758
:10307300758AFDE58AA2E25016EEA2E2500E90F2A6
:1030830064E0F8A3E0F5838882121DB7758AFBE537
:103093008AA2E35016EEA2E3500E90F266E0F8A384
:1030A300E0F5838882121DB7758AF7E58AA2E4509A
:1030B30016EEA2E4500E90F268E0F8A3E0F58388E0
:1030C30082121DB7758AEFE58AA2E55016EEA2E5D6
:1030D300500E90F26AE0F8A3E0F5838882121DB7E0
:1030E300758ADFE58AA2E65016EEA2E6500E90F24C
:1030F3006CE0F8A3E0F5838882121DB7758ABFE5FB
:103103008AA2E75016EEA2E7500E90F26EE0F8A303
:10311300E0F5838882121DB7758A7FC2EB022FF315
:10312300D2AF22E5A8C2AFA2E7E492E0FA7B002285
:10313300EAA2E092AF22C2A4C2A3C2F989F9A2F91A
:1031430050FC00000000D2A422C2A4D2A3C2F98979
:10315300F9A2F950FC80EB74F8121DB9C2A4D2A3F2
:10316300EC7001ED6020EC24FF1CED34FFFDC2F98F
:103173008A828B83E0F5F9A3AA82AB83A2F950FC80
:10318300EC7001ED70E000000000D2A4801E74F822
:10319300121DB9E9FF8A08EBFE74FF2FC454F02512
:1031A300084480F9123139EEF912314C7F01021EC5
:1031B30019EEC0E053F5EFD2A443FF1053F5F7D255
:1031C300A343FF0853F5FED2A043FF01C2A07A0F29
:1031D3007B001232C6D2A07A0F7B001232A179157E
:1031E3001231397950123139790F12314C790E126B
:1031F30031397925123139791C1231397A157B002D
:103203001232C679801231397E30792012314C1E48
:10321300EE70F779C01231397E40790012314C1EBD
:10322300EE70F77929123139D0E0FE22EEC0E07951
:10323300801231397E30792012314C1EEE70F7D076
:10324300E0FE2202319174F8121DB9E9FEEA700121
:10325300EB6048787279F27C108A828B83E060108D
:1032630088828983F08A828B83A3AA82AB838007B7
:10327300742088828983F088828983A3A882A983A2
:103283001CEC70D574FF2EC454F04480F91231390C
:103293007C107D007A727BF212315A0231AFEBC39C
:1032A30013FBEA13FAC3EA9402EB94004014000000
:1032B3000000000000000000EA24FFFAEB34FFFBEB
:1032C30080E32274F8121DB9EAFEEBFFEE7001EF02
:1032D30060157AE87B031232A1EE24FF1EEF34FF60
:1032E300FFEE7001EF70EB7F01021E19C082C083F5
:1032F300E5A8FCC2AF90F282EAF0A3EBF0ECA2E700
:1033030092AFD083D08222C0E0C0D0E8C0E0E9C051
:10331300E0EAC0E0EBC0E0ECC0E0EDC0E0C082C09A
:1033230083C0F090F282E07002A3E0600E90F2821C
:10333300E0F8A3E0F5838882121DB7D0F0D083D0E4
:1033430082D0E0FDD0E0FCD0E0FBD0E0FAD0E0F9A1
:10335300D0E0F8D0D0D0E03274F8121DB9A825E837
:10336300121EC5000200703304A733B633E535FAE5
:103373007017752984752AF2752B00752C08752D25
:10338300007535027F01021E1974026A70F690F20D
:1033930088E0A2E050EE90F284E06004C29280E400
:1033A300D29280E0E535FA700F740865277002E564
:1033B3002860BF75350480CC74026A70C790F288A8
:1033C300E0FBF4FCE5805CC0E090F284E05BFAD0C3
:1033D300E04AF58090F289E0FDF4FEE5905EC0E0FE
:1033E30090F285E05DFAD0E04AF59090F28AE0FF32
:1033F300F455A0C0E090F286E05FFAD0E04AF5A071
:10340300EC55F3F5F3EB45FDF5FDEE55F4F5F4ED71
:1034130045FEF5FE741F5FFBA2E0E492E0C0E0749A
:10342300185B1313543FFAD0E04AF455F5F5F5EB66
:1034330045FFF5FF023387C082C083A825E8121E2B
:103443008F0301BB344C346034752900752A007531
:103453002B00752C00752D00753501805E79217A5E
:10346300007B0189298A2A8B2B752C048A2DE58000
:10347300121C4CE590C0E0A929AA2AAB2BE9240130
:1034830009EA3400FAD0E0121C4CE5A0C0E0A929F7
:10349300AA2AAB2BE924020909EA3400FAD0E01284
:1034A3001C4CA929AA2AAB2BE92403090909EA34EC
:1034B30000FAE4121C4C80A0753504D083D082221C
:1034C300E5357003122C862274F7121DB9E535FA1F
:1034D3007036E5257002E5266015AC27AD28ECF8BB
:1034E300EDF97A057B00121CE7EA7001EB600675C3
:1034F30035040235EB752950752AF1752B008C2C98
:103503008D2D7535020235EB74026A60030235EBCB
:103513007A00A825E8A2E0505990F150E0FAF4FDB2
:1035230090F152E05AFEFBF45AFC90F151E05AC07C
:10353300E0E5F35DFAD0E04AF5F3E5FD5D4EF5FD18
:1035430090F154E0FEEB5EC0E0E5805DFAD0E04A26
:10355300F58090F153E05CC0E0E58F5DFAD0E04A7E
:10356300F58FEC600BEE600543F720800353F7DF24
:103573007A01A825E85402606FEA75F005A4245087
:10358300F8E5F034F1F988828983E0FAF4FDA3A326
:10359300E05AFEFBF45AFC88828983A3E05AC0E018
:1035A300E5F45DFAD0E04AF5F4E5FE5D4EF5FE88FC
:1035B300828983A3A3A3A3E0FEEB5EC0E0E5905D55
:1035C300FAD0E04AF59088828983A3A3A3E05CC084
:1035D300E0E5F65DFAD0E04AF5F6EC600BEE600547
:1035E30043F740800353F7BF7F02021E1974F5129D
:1035F3001DB9A825A926E87001E9700675350402EE
:1036030036AB750A00752950752AF1752B00E8A2AF
:10361300E0502BE5FDFBF4FAE5F390F150F0E5FD06
:1036230090F151F0E58F5A90F152F0E5805B90F103
:1036330053F0E5F7A2E55003E04AF0750A01E854B8
:1036430002604AE5FEFBF4FA850A08750900740274
:103653007808121D4FE5082450F8E50934F1F9E51F
:10366300F488828983F0E5FEA3F0E5F65A8882891F
:1036730083A3A3F0E82403F582E93400F583E590FE
:103683005BF0E5F7A2E65003E04AF0050A74012572
:103693000AF508E43400F50974027808121D4F8511
:1036A300082C85092D7535017F04021E19C082C0BF
:1036B30083E5517002E552701790F2BCE054076045
:1036C3000FE0A2E7400A122C3C1231B4E0D2E7F03B
:1036D30090F2BCE0A2E0500D7A8C7BF279011232B9
:1036E30049E0C2E0F0E0A2E1500D7A9C7BF279025E
:1036F300123249E0C2E1F0E0A2E2500D7AAC7BF273
:103703007903123249E0C2E2F0D083D0822274F707
:10371300121DB953F3FBD28243FD04122C3C74E017
:1037230055FC4412F5FC75FA007C807D077AF17B29
:10373300F5797112766912768F786F76D30876F2FF
:10374300740790F2DAF0740190F2BFF0E490F2C3E0
:10375300F090F2C2F090F2C5F090F2C6F090F2C78A
:10376300F0740490F2D0F090F2D17428F0A374DED8
:10377300F090F3907402121E66122DF57402121D5E
:103783007853F4FD53FEFD43F60290F39074021256
:103793001E667900122E957402121D7885510885D4
:1037A30052097808121F24040000110211D63807A9
:1037B300110911D63820112111DC3725112611DC0E
:1037C3003705005011D6387511DC370025D638205F
:1037D30025C6395025D638B73A747890F2C4F0909C
:1037E300F2C074FFF0A3E4F090F2CC7426F0A3745B
:1037F30050F090F2CA7419F0A37451F090F2C874A7
:103803005EF0A3744DF090F2CE743DF0A3744CF0CF
:10381300C2827420655170047425655260117EC89C
:10382300A285500B7A057B001232A11EEE70F1C205
:10383300F975F936A2F950FCE5F9D282C2827420F7
:10384300655170047425655260117EC8A285500BC2
:103853007A057B001232A11EEE70F1C2F975F93BB5
:10386300A2F950FCE5F9D282C2827420655170043A
:103873007425655260117EC8A285500B7A057B00C2
:103883001232A11EEE70F1C2F975F93AA2F950FC99
:10389300E5F9D282C28274206551700474256552A1
:1038A30060117EC8A285500B7A057B001232A11EDF
:1038B300EE70F1C2F975F93DA2F950FCE5F9FAD2BF
:1038C3008274F05A70CE740690F2BDF090F2BEF09E
:1038D300024589740C90F2C4F090F2C074FFF0A317
:1038E300E4F090F2CE742AF0A37446F090F2CC7414
:1038F3009BF0A37449F090F2CA747FF0A3744AF06A
:1039030090F2C874FEF0A37446F0C282742065512D
:1039130070047425655260117EC8A285500B7A0528
:103923007B001232A11EEE70F1C2F975F936A2F9CD
:1039330050FCE5F9D282C28274206551700474256B
:10394300655260117EC8A285500B7A057B00123246
:10395300A11EEE70F1C2F975F93BA2F950FCE5F92D
:10396300D282C2827420655170047425655260113D
:103973007EC8A285500B7A057B001232A11EEE7021
:10398300F1C2F975F93AA2F950FCE5F9D282C28283
:103993007420655170047425655260117EC8A28538
:1039A300500B7A057B001232A11EEE70F1C2F9753D
:1039B300F93DA2F950FCE5F9FAD28274F05A70CEBF
:1039C3000238C9E490F2C4F090F2C0747FF0A3E42B
:1039D300F090F2CE74ADF0A37455F090F2CC749BDA
:1039E300F0A37458F090F2CA7429F0A37459F090BC
:1039F300F2C87497F0A37456F0C2827420655170B4
:103A0300047425655260117EC8A285500B7A057B2C
:103A1300001232A11EEE70F1C2F975F945A2F950F8
:103A2300FCE5F9D282C28274206551700474256565
:103A33005260117EC8A285500B7A057B001232A119
:103A43001EEE70F1C2F975F948A2F950FCE5F9D2FE
:103A530082C2827420655170047425655260117EA0
:103A6300C8A285500B7A057B001232A11EEE70F1BD
:103A7300C2F975F947A2F950FCE5F9D282C2827402
:103A830020655170047425655260117EC8A285506B
:103A93000B7A057B001232A11EEE70F1C2F975F9A3
:103AA30000A2F950FCE5F9FAD28274835A6480705B
:103AB300CC0238C9124063E40238CF74F7121DB93F
:103AC30074FB121D6290F2BDE0121E8F01047F3B56
:103AD300773B7C3B723BDD3A6D3B90F2C5E0700374
:103AE300023B681231268A088B0979711276D5C395
:103AF300EA9405EB94004061851482851583AC82BA
:103B0300AD837583F37582897405121CB990F2C570
:103B1300E0C0E07403121DADD0E0F090F2C5E0C048
:103B2300E07404121DADD0E0F090F2C7E0A2E250C1
:103B3300157411851482851583F07401121DAD74FB
:103B430002F07C0580027C047D0085148285158348
:103B5300AA82AB8379711276FAE490F2C5F0AA08CF
:103B6300AB09123133123B84801212436F800D1262
:103B730040638008123C028003123EC7740502456D
:103B83008674F3121DB990DE0EE0F50A90F2D0E0D0
:103B930090DE0EF090DE11E0A2E040581231268A4A
:103BA300088B0979711276F08A0C8B0DAE0CAF0D70
:103BB300AA08AB09123133EE7001EF6029C3EE940A
:103BC30040EF940040087E407F0074018001E49040
:103BD300F2DBF0EEFCEFFD90F2D1E0FAA3E0FB792B
:103BE30071127934800890F2DBE06008E4F074012C
:103BF30090DE11F0E50A90DE0EF07F06021E1974C6
:103C0300F7121DB91274D87971127A1990F2D3741C
:103C1300E8F0A374F4F090F2DAE090F2D5F0A3E4C4
:103C2300F090F2D7F0A3F090F2D9F0FB90F2DAE043
:103C3300F874012808E43400F9E89401E994004099
:103C43002AEBF890F2D3E028FAA3E034008A82F555
:103C530083E4F00B90F2DAE0F874012808E434000E
:103C6300F9EB98E499C365D03340D612768F12747A
:103C73005390F2CEE0F8A3E0F5838882121DB78556
:103C830051088552097808121F24040000110211FB
:103C9300B73C07110811B73C20112111B73C25117E
:103CA3002611B73C03007511B73C0025B73C20250E
:103CB300123D123D53F4BFC29643FE4090F39274FB
:103CC30002121E66122DF57402121D7853F47F53EF
:103CD300FE7F43F68090F3927402121E66122E400A
:103CE3007402121D7890F3927402121E6690F2C849
:103CF300E0FAA3E0FB122CE87402121D78C2EB90E9
:103D0300F3927402121E66122DA67402121D78908D
:103D1300F38E7402121E6690F2C8E0FAA3E0FB125F
:103D23002CE87402121D7890F38E7402121E661230
:103D33002E407402121D7890F38E7402121E6612C6
:103D43002DA67402121D78740490F2BDF0740190D4
:103D5300F2BEF01275058551088552097808121FC5
:103D630024040000110211163E07110811163E200B
:103D73001121118E3D251126118E3D030075118EE3
:103D83003D0025163E20256C3EC43EC2827420654C
:103D93005170047425655260117EC8A285500B7A58
:103DA300057B001232A11EEE70F1C2F975F93AA239
:103DB300F950FCE5F9D28290F2C7E0A2E0C2827426
:103DC300206551502770047425655260117EC8A286
:103DD30085500B7A057B001232A11EEE70F1C2F9F9
:103DE30075F938A2F95003023EC080F770047425B8
:103DF300655260117EC8A285500B7A057B00123292
:103E0300A11EEE70F1C2F975F934A2F95003023E16
:103E1300C080F7C2827420655170047425655260B6
:103E2300117EC8A285500B7A057B001232A11EEECB
:103E330070F1C2F975F93AA2F950FCE5F9D282C2E0
:103E4300827420655170047425655260117EC8A286
:103E530085500B7A057B001232A11EEE70F1C2F978
:103E630075F934A2F9405680FAC282742065517004
:103E7300047425655260117EC8A285500B7A057BB8
:103E8300001232A11EEE70F1C2F975F947A2F95082
:103E9300FCE5F9D282C282742065517004742565F1
:103EA3005260117EC8A285500B7A057B001232A1A5
:103EB3001EEE70F1C2F975F942A2F950FCE5F9D290
:103EC3008202458974F7121DB97971127A1990F239
:103ED300D374E8F0A374F4F090F2DAE090F2D5F042
:103EE300A3E4F090F2D7F0A3F090F2D9F0FB90F2B4
:103EF300DAE0F874012808E43400F9E89401E9945D
:103F030000402AEBF890F2D3E028FAA3E034008AC9
:103F130082F583E4F00B90F2DAE0F874012808E408
:103F23003400F9EB98E499C365D03340D690F2D2CC
:103F3300E090F138F090F2D1E090F139F08551083A
:103F43008552097808121F24030000110211D53F7E
:103F5300201121117F3F251126117F3F07000711F3
:103F6300D53F0911D53F5011D53F75117F3F00252E
:103F7300D53F2025FF3F5025D53F2B40C2827420DB
:103F8300655170047425655260117EC8A285500B7B
:103F93007A057B001232A11EEE70F1C2F975F93B6E
:103FA300A2F950FCE5F9D282C282742065517004F3
:103FB3007425655260117EC8A285500B7A057B007B
:103FC3001232A11EEE70F1C2F975F93AA2F940540A
:103FD30080FAC282742065517004742565526011A1
:103FE3007EC8A285500B7A057B001232A11EEE70AB
:103FF300F1C2F975F93BA2F9402A80FAC282742012
:10400300655170047425655260117EC8A285500BFA
:104013007A057B001232A11EEE70F1C2F975F948E0
:10402300A2F950FCE5F9D28290F2CEE0F8A3E0F5D4
:10403300838882121DB790F38E7402121E6690F26B
:10404300CAE0FAA3E0FB122CE87402121D78C2EB5B
:10405300740590F2BDF0740290F2BEF0FF021E19D7
:1040630074F7121DB974FF121D627F03E485148275
:10407300851583F090F2BEE06402702C80077A0805
:104083007B001232C6786F8682088683A3A3A3A31C
:10409300A3A3E06013851482851583E0FA74012AD3
:1040A300F074FF6A70D87F0790F38E7402121E6655
:1040B300122DF57402121D7890F38E7402121E668F
:1040C3007A007B00122CE87402121D78740190F3BD
:1040D3008EF090F38FF090F3927402121E66122DFD
:1040E300F57402121D7890F3927402121E667A0020
:1040F3007B00122CE87402121D7885510885520941
:104103007808121F24040000110211F3410711095A
:1041130011F341201121113A41251126113A41058C
:10412300005011F34175113A410025F3412025ABAD
:10413300425025F3410B43C28274206551700474CD
:1041430025655260117EC8A285500B7A057B00124B
:1041530032A11EEE70F1C2F975F936A2F950FCE5F1
:10416300F9D282C28274206551700474256552604D
:10417300117EC8A285500B7A057B001232A11EEE78
:1041830070F1C2F975F93AA2F950FCE5F9D282C28D
:10419300827420655170047425655260117EC8A233
:1041A30085500B7A057B001232A11EEE70F1C2F925
:1041B30075F93BA2F950FCE5F9D282C282742065FD
:1041C3005170047425655260117EC8A285500B7A24
:1041D300057B001232A11EEE70F1C2F975F93DA202
:1041E300F950FCE5F9FAD28274F05A70CE02430B0F
:1041F300C2827420655170047425655260117EC8B3
:10420300A285500B7A057B001232A11EEE70F1C21B
:10421300F975F936A2F950FCE5F9D282C28274200D
:10422300655170047425655260117EC8A285500BD8
:104233007A057B001232A11EEE70F1C2F975F93DC9
:10424300A2F950FCE5F9FAD28274F05A70CEC28218
:104253007420655170047425655260117EC8A2856F
:10426300500B7A057B001232A11EEE70F1C2F97574
:10427300F93AA2F950FCE5F9D282C2827420655161
:1042830070047425655260117EC8A285500B7A05AF
:104293007B001232A11EEE70F1C2F975F93BA2F94F
:1042A30050FCE5F9D2828060C282742065517004AB
:1042B3007425655260117EC8A285500B7A057B0078
:1042C3001232A11EEE70F1C2F975F945A2F950FC44
:1042D300E5F9D282C2827420655170047425655257
:1042E30060117EC8A285500B7A057B001232A11E95
:1042F300EE70F1C2F975F900A2F950FCE5F9FAD2B2
:104303008274835A648070CC539AEF1274F490F2DF
:10431300BEE06401704690DE0EE0FB90F2D0E090C8
:10432300DE0EF0740890DE11F090DE11E0A2E3508F
:104333000C90DE0EE0FA90F2D0E06A60EC74089024
:10434300DE11F090DE11E0A2E3500C90DE0EE0FAF5
:1043530090F2D0E06A60ECEB90DE0EF0740690F21F
:10436300BDF0EF90F2BEF0740102458674F8121DA1
:10437300B990DE0EE0FE90F2D0E090DE0EF0539A9C
:10438300FD786F8682088683A3A3A3A3A3A3E0601B
:104393000302449D90DE14E0A2E0400302449D909A
:1043A300DE16E0FC90F2D5E0FAA3E0FB1886820863
:1043B3008683E02AA3E03B90F13AF01886820886D0
:1043C30083E02A90F13BF0EC90F13DF075D6047553
:1043D300D7048C82AA82188682088683A3A3A3A308
:1043E300E02AF0A3E03400F0188682088683A3A3B2
:1043F300E02AF0A3E03400F0E5D6A2E240FA90F21E
:10440300C3E0702490F2DAE0FA188682088683E02B
:104413002AFCA3E034008C82F583E090F2C0F0A381
:10442300E4F0740190F2C3F0E490DE14F018868295
:10443300088683A3A3A3A3C082C08390F2BFE0F83E
:1044430090F2C0E028F8A3E03400F990F2C2E0FA59
:104453003395E0FBEA28F8EB39F9D083D082E068A2
:104463007003A3E069703390F2DAE0786F86820814
:104473008683A3A3F0A3E4F07401188682088683DD
:10448300A3A3A3A3A3A3F0EE90DE0EF090F2CCE0DF
:10449300F8A3E0F5838882121DB7EE90DE0EF04399
:1044A3009A027F01021E19C082C08312406375A95C
:1044B3000075B900122C6153F3FB53FDFB438F04CA
:1044C300E490F2BDF0D083D0822274F7121DB97448
:1044D300FD121D62EAFEEBFF79711276D58A088B15
:1044E3000974FD2508F874FF3509F9C3E89EE99FAF
:1044F300504790F2C6E0705B90F386C082851482C9
:10450300851583AC82AD837583F3D0827403121C4B
:10451300B990F2C7E0A2E25009741385148285159D
:1045230083F07C037D00851482851583AA82AB8387
:1045330079711276FA74018016EEFCEFFD786F86BE
:1045430082088683E0FAA3E0FB79711277B6E490E0
:10455300F2C6F090F2BFE0700474018001E490F2BF
:10456300C3F0786F8682088683A3A3A3A3E4F0A392
:10457300F090F2DAE0188682088683A3A3F0A3E41E
:10458300F07403121D787F02021E19C082C0837566
:104593002C00752D00A825E8121E8F0003E345AA01
:1045A30045BE45CF45DC45752C01752D007529BEEB
:1045B300752AF2752B007535018028740190F2BDC0
:1045C300F0A823E8540B90F2C7F080EA740290F24B
:1045D300BDF0A823E8540A80ED740390F2BD80E98E
:1045E3007535040244C8C082C083E990F2C5024411
:1045F300C774F8121DB9E9FFC282742065517004B3
:104603007425655260117EC8A285500B7A057B0024
:104613001232A11EEE70F1C2F98FF9A2F950FCE536
:10462300F9F9D2820244A5C082C08374FF121D62CD
:104633007C017D00851482851583AA82AB837988EA
:10464300124BB6E054036401700474018001E490DA
:10465300F2BFF07012740190F2C3F0FC7D007AC0D7
:104663007BF27986124BB67C017D00851482851519
:1046730083AA82AB837983124BB6E054F07583F23D
:104683007582C4FAE04A851482851583F07C017D26
:1046930000AA82AB837903124BB690F2BDE06401AA
:1046A300704F7C017D00851482851583AA82AB83BC
:1046B3007987124BB6E0A2E25004D2F08002C2F036
:1046C300A2F0E492E0C33390F2C2F0740685148240
:1046D300851583F07C017D00AA82AB837900124BA0
:1046E300B67440F07C017D00AA82AB837902124B41
:1046F300B67401121D78D083D0822274F7121DB9CB
:1047030074FF121D6290F3907402121E66122E4003
:104713007402121D7890F3927402121E66122E40D8
:104723007402121D78786F8682088683A3A3A3A3DD
:10473300E07002A3E070211231268A088B09786F9A
:104743008682088683E02403FAA3E03400FB127513
:104753002AAA08AB091231337C017D0085148285B6
:104763001583AA82AB8379BB124BB6E9FEE07003D3
:1047730002481890F2C3E0707E786FE62402FA08CC
:10478300E63400FB8A828B83E0F508A3E0F5097425
:10479300012508F8E43509F98A828B83E8F0A3E957
:1047A300F07C017D00786F8682088683E02508FA15
:1047B300A3E03509FB79FF124BB6786F8682088632
:1047C30083A3A3A3A37401F0A3E4F018868208864D
:1047D30083E0F8A3E0F5838882A3A3A3A3A3A3A301
:1047E300E090F2C0F0A3E4F0740190F2C3F08514FA
:1047F30082851583E014F074F05E6460601790F2B4
:10480300C0E0F8A3E0F9851482851583E0706BE8B6
:104813007001E9606579361245F490F2BFE0F4FA6D
:1048230090F2C3E05AF0786F8682088683A3A3A32D
:10483300A3E4F0A3F0188682088683A3A37407F089
:10484300A3E4F090F3907402121E66122E407402D9
:10485300121D7890F3927402121E66122E40740297
:10486300121D78793A1245F4793D1245F4E954F072
:1048730070F679341245F402499190F2BFE028F8BA
:10488300E439F990F2C2E0FA3395E0FBEA28FEEB53
:1048930039FF786F8682088683A3A3A3A3E0F8A3D6
:1048A300E0F9851482851583E0FCEEC398FAEF994D
:1048B300FBC3EC9AE49B5003E08003EEC398F50836
:1048C300E5D6A2E340FAC2827509C8A285500D7AE3
:1048D300057B001232A11509E50970EFC2F975F9DC
:1048E300FFA2F950FCA908786F8682088683A3A3E8
:1048F300E0FAA3E0FB188682088683E02AFAA3E0A5
:104903003BFB1274B0D282786FE62404FA08E634D3
:1049130000FB850882AC828A828B83E02CF0A3E0C3
:104923003400F0188682088683A3A3E02CF0A3E06A
:104933003400F08A828B83E06E7003A3E06F704EC5
:1049430079341245F474042EFAE43FFB786F8682BF
:10495300088683E0F8A3E0F5838882E4F0786F8625
:1049630082088683E0F8A3E0F5838882A3EAF078DF
:104973006F8682088683E0F8A3E0F5838882A3A389
:10498300EBF074032A0A0A0AE43BFB1244CD7401D8
:10499300121D787F02021E19C082C08374FF121D8C
:1049A30062786F8682088683A3A3A3A3C3E094419E
:1049B300A3E0940040557402851482851583F07C2E
:1049C300017D00AA82AB837900124BB67C407D0047
:1049D300786F8682088683E02407FAA3E03400FB1D
:1049E300797F124BB6786F8682088683A3A3A3A32D
:1049F300E024C0F0A3E034FFF0188682088683A386
:104A0300A3E02440F0A3E0340080487406851482B8
:104A1300851583F07C017D00AA82AB837900124B5C
:104A2300B6786F8682088683A3A3A3A3E0FCA3E0E2
:104A3300FD188682088683E02407FAA3E03400FB8E
:104A4300797F124BB6786F8682088683A3A3A3A3CC
:104A5300E4F0A3F090F3907402121E66122E4074D9
:104A630002121D7890F3907402121E66122DA67422
:104A730002121D7879351245F40246F474F8121DBA
:104A8300B974FF121D62786F8682088683A3A3A37D
:104A9300A3E0FA704A90F3907402121E66122DF589
:104AA3007402121D7879361245F4786F868208866F
:104AB30083A3A37407F0A3E4F0188682088683A374
:104AC300A3A3A3A3A3F090F2BFE0F4FA90F2C3E090
:104AD3005AF0793D1245F4E954F070F6024BAC906C
:104AE300F2C4E0333354FCFEC39A505990F39074EC
:104AF30002121E66122E407402121D78EEFC7D0017
:104B0300786F8682088683A3A3E0FAA3E0FB188666
:104B130082088683E02AFAA3E03BFB797F124BB637
:104B2300786F8682088683A3A3E02EF0A3E0340087
:104B3300F0188682088683A3A3A3A3C3E09EF0A3F1
:104B4300E0940080637406851482851583F07C01EC
:104B53007D00AA82AB837900124BB690F390740266
:104B6300121E66122E407402121D78786F86820818
:104B73008683A3A3A3A3E0FCA3E0FD188682088693
:104B830083A3A3E0FAA3E0FB188682088683E02AC6
:104B9300FAA3E03BFB797F124BB6786F86820886D7
:104BA30083A3A3A3A3E4F0A3F07401121D787F01F0
:104BB300021E1974F7121DB989088A828B83ECFED1
:104BC300EDFFC2827509C8A285500D7A057B0012DC
:104BD30032A11509E50970EFC2F974404508F5F9EA
:104BE300A2F950FCE5F9F9E508A2E7EE50267001B9
:104BF300EF6042EEFAEFFBC2F975F900A2F950FC3F
:104C0300E5F9F0A3EA24FF1AEB34FFFBEA7001EBAA
:104C1300602380E37001EF601CEEFAEFFBC2F9E062
:104C2300F5F9A2F950FCA3EA24FF1AEB34FFFBEADF
:104C33007001EB70E8D28202499674F7121DB974C1
:104C4300FD121D627C017D00851482851583AA8275
:104C5300AB8379A812526EE054606420700474012F
:104C63008001E490F2BFF07026851482851583E0FD
:104C7300541C600474018001E490F2C2F07401904A
:104C8300F2C3F0FC7D007AC07BF279AE12526E7CE7
:104C9300017D00851482851583AA82AB83799E12D8
:104CA300526EE054807583F27582C4FAE04A85142B
:104CB30082851583F07C017D00AA82AB83791E1265
:104CC300526E90F2BDE0640170487C017D00851452
:104CD30082851583AA82AB8379A712526EE0A2E084
:104CE300E492E0C333FA90F2C2E02AF0740685142A
:104CF30082851583F07C017D00AA82AB8379011242
:104D0300526E7440F07C017D00AA82AB837903125A
:104D1300526E90F2C7E0A2E1403C750802750900AB
:104D23007808121E557403121DADAC82AD837980D1
:104D33007A8F7B2F1252F57402121D78E0C39440D0
:104D4300400D7402121DADE0642170031253C19033
:104D5300F2C7E0C2E1F074030255A574F7121DB95E
:104D630074FF121D6290F3907402121E66122E409D
:104D73007402121D7890F3927402121E66122E4072
:104D83007402121D78786F8682088683A3A3A3A377
:104D9300E07002A3E070211231268A088B09786F34
:104DA3008682088683E02403FAA3E03400FB1275AD
:104DB3002AAA08AB0912313375080175090078086E
:104DC300121E557402121DADAC82AD8379807AD761
:104DD3007B2F1252F57402121D78E9FE851482E0CE
:104DE3007003024E7390F2C3E0707E786FE6240284
:104DF300FA08E63400FB8A828B83E0F508A3E0F52A
:104E03000974012508F8E43509F98A828B83E8F0EF
:104E1300A3E9F07C017D00786F8682088683E02514
:104E230008FAA3E03509FB79FF12526E786F868288
:104E3300088683A3A3A3A37401F0A3E4F0188682D6
:104E4300088683E0F8A3E0F5838882A3A3A3A3A342
:104E5300A3A3E090F2C0F0A3E4F0740190F2C3F0D6
:104E6300851482851583E014F074F05E6460700F1E
:104E730079361245F490F2BFE0705F7401805C9064
:104E8300F2C0E0F8A3E0F9851482851583E070068B
:104E9300E87001E970DA90F2BFE0FAE82AF8E93441
:104EA30000F990F2C2E0FA3395E0FBEA28FEEB3911
:104EB300FF786F8682088683A3A3A3A3E0F8A3E009
:104EC300F9851482851583E0FCEEC398FAEF99FB0C
:104ED300C3EC9AE49B5068E08068E490F2C3F078F6
:104EE3006F8682088683A3A3A3A3E4F0A3F01886A6
:104EF30082088683A3A37407F0A3E4F0793A1245EA
:104F0300F490F3907402121E66122E407402121D66
:104F13007890F3927402121E66122E407402121DD0
:104F230078793D1245F4E954F070F690F2C7E0A2A7
:104F3300E0500879381245F4025021793480F6EEB6
:104F4300C398F508E5D6A2E340FAC2827509C8A260
:104F530085500D7A057B001232A11509E50970EF22
:104F6300C2F975F9FFA2F950FCA908786F86820887
:104F73008683A3A3E0FAA3E0FB188682088683E076
:104F83002AFAA3E03BFB1274B0D282786FE62404C2
:104F9300FA08E63400FB850882AC828A828B83E0C0
:104FA3002CF0A3E03400F0188682088683A3A3E0E4
:104FB3002CF0A3E03400F08A828B83E06E7003A3AD
:104FC300E06F705A90F2C7E0A2E050047938800293
:104FD30079341245F474042EFAE43FFB786F868229
:104FE300088683E0F8A3E0F5838882E4F0786F868F
:104FF30082088683E0F8A3E0F5838882A3EAF07849
:105003006F8682088683E0F8A3E0F5838882A3A3F2
:10501300EBF074032A0A0A0AE43BFB1244CD740141
:105023000255A5C082C08374FF121D62786F868209
:10503300088683A3A3A3A3C3E09481A3E0940040C1
:10504300597402851482851583F07C017D00AA8240
:10505300AB83790112526E7C807D0090F2DAE0FA24
:10506300786F8682088683E02AFAA3E03400FB790E
:105073007F12526E786F8682088683A3A3A3A3E070
:105083002480F0A3E034FFF0188682088683A3A36C
:10509300E02480F0A3E03400804C740685148285FC
:1050A3001583F07C017D00AA82AB83790112526ED5
:1050B300786F8682088683A3A3A3A3E0FCA3E0FD05
:1050C30090F2DAE0FA188682088683E02AFAA3E0EF
:1050D3003400FB797F12526E786F8682088683A331
:1050E300A3A3A3E4F0A3F090F3907402121E66123C
:1050F3002E407402121D7890F3907402121E6612F1
:105103002DA67402121D7879351245F47401121D0F
:1051130078D083D0822274F8121DB974FF121D62F5
:10512300786F8682088683A3A3A3A3E0F8A3E0F99C
:10513300E87001E9705E90F3907402121E66122DFE
:10514300F57402121D7879361245F490F2DAE0789C
:105153006F8682088683A3A3F0A3E4F018868208EF
:105163008683A3A3A3A3A3A3F090F2BFE06004D21A
:10517300F08002C2F0A2F0E492E0F4FA90F2C3E00D
:105183005AF0793A1245F479361245F4E954F0703D
:10519300F102526490F2C4E004FA8A82AE82C398A8
:1051A300E499505990F3907402121E66122E4074C3
:1051B30002121D78EEFC7D00786F8682088683A339
:1051C300A3E0FAA3E0FB188682088683E02AFAA309
:1051D300E03BFB797F12526E786F8682088683A349
:1051E300A3E02EF0A3E03400F0188682088683A3A0
:1051F300A3A3A3C3E09EF0A3E09400806374068599
:105203001482851583F07C017D00AA82AB8379012A
:1052130012526E90F3907402121E66122E407402A4
:10522300121D78786F8682088683A3A3A3A3E0FC6C
:10523300A3E0FD188682088683A3A3E0FAA3E0FB1C
:10524300188682088683E02AFAA3E03BFB797F1263
:10525300526E786F8682088683A3A3A3A3E4F0A388
:10526300F07401121D787F01021E1974F7121DB923
:1052730089088A828B83ECFEEDFFC2827509C8A27E
:1052830085500D7A057B001232A11509E50970EFEF
:10529300C2F974404508F5F9A2F950FCE5F9F9E5BE
:1052A30008A2E7EE50267001EF6042EEFAEFFBC270
:1052B300F975F900A2F950FCE5F9F0A3EA24FF1A05
:1052C300EB34FFFBEA7001EB602380E37001EF60D6
:1052D3001CEEFAEFFBC2F9E0F5F9A2F950FCA3EAE0
:1052E30024FF1AEB34FFFBEA7001EB70E8D2820271
:1052F30055A874F3121DB9890AECFEEDFF740D1263
:105303001DADE0F508A3E0F509EBF50CEAF50DC2D8
:1053130082750BC8A285500D7A057B001232A11548
:105323000BE50B70EFE50CC2F9601AE50A450C4476
:1053330040F5F9A2F950FCE5F9F9C2F9850DF9A296
:10534300F9401180FAE50A450D4440F5F9A2F950F8
:10535300FCE5F9F97480650A7031E5087002E50926
:105363006055AA08AB09C2F975F900A2F950FCE52A
:10537300F98E828F83F0A3AE82AF83EA24FF1AEB08
:1053830034FFFBEA7001EB602E80DBE5087002E579
:10539300096024AA08AB09C2F98E828F83E0F5F96C
:1053A300A3AE82AF83A2F950FCEA24FF1AEB34FFC9
:1053B300FBEA7001EB70E0D2827F06021E1974F7DC
:1053C300121DB974F9121D62E4851482851583F0E8
:1053D300750801F5097808121E557402121DADAC4B
:1053E30082AD8379007A257B2F1252F57402121D48
:1053F300787808121E557404121DADAC82AD837902
:10540300807A157B2F1252F57402121D78E0240264
:10541300851482851583F07808121E557402121DB7
:10542300ADAC82AD8379007A157B2F1252F57402ED
:10543300121D7879331245F47808121E557403123D
:105443001DADAC82AD8379807A737B2F1252F574D4
:1054530002121D78E0644170DF7808121E5574064D
:10546300121DADAC82AD8379807A257B2F1252F564
:105473007402121D787808121E557407121DADAC04
:1054830082AD8379807A237B2F1252F57402121D29
:10549300787808121E557408121DADAC82AD83795D
:1054A300807A187B2F1252F57402121D78E485144A
:1054B30082851583F07808121E557402121DADAC57
:1054C30082AD8379007A257B2F1252F57402121D67
:1054D300787402121DADE0851482851583F0780877
:1054E300121E557402121DADAC82AD8379007A157C
:1054F3007B2F1252F57402121D7879331245F4781A
:1055030008121E557403121DADAC82AD8379807AE7
:10551300737B2F1252F57402121D78E0644170DF21
:105523007808121E557405121DADAC82AD837980C7
:105533007A257B2F1252F57402121D78E0C0E074B5
:1055430004121DADE0FAD0E0C39A50547808121E3D
:10555300557406121DADAC82AD8379007A257B2F7D
:105563001252F57402121D787808121E5574071230
:105573001DADAC82AD8379007A237B2F1252F57473
:1055830002121D787808121E557408121DADAC82E4
:10559300AD8379007A187B2F1252F57402121D78AD
:1055A3007407121D787F02021E1974F8121DB97E4A
:1055B3002390F2C7E0A2E350391E1E740190F38ECC
:1055C300F0740590F38FF090F38E7402121E66123E
:1055D3002DF57402121D7853F4DF53FEDF43F620DA
:1055E30090F38E7402121E667900122E95740212C5
:1055F3001D78C282C2F974C04EF5F9A2F950FCE5D8
:10560300F9C2F975F92AA2F950FCD282C282C2F911
:1056130075F9A6A2F950FCE5F9C2F975F900A2F9EA
:1056230050FCE5F9FAD28290F2C7E0A2E350047489
:1056330002800274084AFAC282C2F975F9E6A2F935
:1056430050FCE5F9C2F98AF9A2F950FCD28290F232
:10565300BDE064017003E48032E064027031C28211
:10566300C2F975F98CA2F950FCE5F9C2F975F90094
:10567300A2F950FCE5F9D282A2E65004D2F08002EE
:10568300C2F0A2F0E492E0C333F40490F2C2F07FDC
:1056930001021E1974F7121DB974FF121D6290F3F3
:1056A3008E7402121E66122E407402121D7812317D
:1056B300268A088B09786F8682088683E02403FA9A
:1056C300A3E03400FB12752AAA08AB09123133C2D6
:1056D30082C2F975F9BEA2F950FCE5F9C2F975F970
:1056E30000A2F950FCE5F9851482851583F0D28276
:1056F300E070030257C1786FE62402FA08E634002B
:10570300FB8A828B83E0FCA3E0FD74012CF8E43D6B
:10571300F98A828B83E8F0A3E9F0786F86820886A2
:1057230083E02CF8A3E03DF988828983C282C2F921
:1057330075F930A2F950FCE5F9C2F975F900A2F93F
:1057430050FCE5F9F0D282786F8682088683A3A3A2
:10575300A3A37401F0A3E4F0188682088683E0F81B
:10576300A3E0F5838882A3A3A3A3A3A3A3E0F89054
:10577300F2C0F0A3E4F0851482851583E014F0E011
:105783007006E87001E47036C282C2F975F990A21E
:10579300F950FCE5F9C2F975F900A2F950FCE5F9F5
:1057A300D282A2E65063C282C2F975F9D0A2F9503F
:1057B300FCE5F9C2F975F900A2F950FCD2827945EA
:1057C3001245F4786F8682088683A3A3A3A3E4F02B
:1057D300A3F0188682088683A3A37407F0A3E4F0DA
:1057E30079471245F490F38E7402121E66122E400E
:1057F3007402121D7879001245F4E95483648070B1
:10580300F479421245F4025891E5D6A2E340FAC274
:1058130082C2F975F930A2F950FCE0F9786F8682FB
:10582300088683A3A3E0FAA3E0FB18868208868395
:10583300E02AFAA3E03BFB1274B0D282851482857E
:105843001583E0F8740528FAE43400FB786F868248
:10585300088683E0F8A3E0F5838882E4F0786F8616
:1058630082088683E0F8A3E0F5838882A3EAF078D0
:105873006F8682088683E0F8A3E0F5838882A3A37A
:10588300EBF074032A0A0A0AE43BFB1244CD7401C9
:10589300121D787F02021E19C082C083786FE6242E
:1058A30004FA08E63400FB8A828B83E0FCA3E0FD64
:1058B300188682088683E02407F8A3E03400F98879
:1058C300828983C282C2F975F93AA2F950FCE5F9DB
:1058D300EC7001ED601CECF8EDF9C2F9E0F5F9A20A
:1058E300F950FCA3E824FF18E934FFF9E87001E953
:1058F30070E8D2828A828B83E4F0A3F090F38E74F3
:1059030002121E66122E407402121D7890F38E74DA
:1059130002121E66122DA67402121D7879431245D7
:10592300F4D083D08222C082C083786F86820886B7
:1059330083A3A3A3A3E07002A3E0704190F38E744A
:1059430002121E66122DF57402121D787945124556
:10595300F4786F8682088683A3A37407F0A3E4F028
:10596300188682088683A3A3A3A3A3A3F090F2C3FC
:10597300F079001245F4E95483648070F480A2E561
:10598300357012752994752AF3752B00752C0175E2
:105993002D0075350122C082C083E5357014E527DB
:1059A3007002E52860057535048007A825E890F3A3
:1059B30095F0D083D08222EAFC7001EB700379FF6B
:1059C3002274056C700379062274756C601C74B0C4
:1059D3005C6420601574F05CFC600F74506C600AAA
:1059E30074306A700374126B700379012274106C43
:1059F300600A74306C600574406C70C2790022C018
:105A030082C08390F394E064057005125D578003B0
:105A1300125AE0D083D08222C082C083740390F2F2
:105A2300D0F090F2D17426F0A374DEF090F394E0FA
:105A330064057005125E148003125B9280D5C082E8
:105A4300C08390F394E064057005125E66800312D0
:105A53005BD3740490F2D0F090F2D17428F0A37465
:105A6300DEF080AFC082C083D2817A027B00123223
:105A7300C6122C3C122C9253F3FBD28243FD0474C6
:105A8300E055FC4410F5FC75FA00C2817A027B00F4
:105A93001232C612768F127453E490F369F07402D3
:105AA30090F2DEF07401025BDEC082C083122C61CF
:105AB300122CAB53F3FB53FDFB438F04D2817A02C9
:105AC3007B001232C6C2817A027B001232C6E49096
:105AD300F369F0740490F2DEF0E4025BDEC082C08E
:105AE30083E535FA701CA825E890F2DDF07529509E
:105AF300752AF1752B0085272C85282D7535020213
:105B03005B9074026A6003025B9090F2DDE06401D3
:105B1300700890F150E090F2DEF0C282D291A2853B
:105B230040FCA28550FCC291C2F975F900A2F9505C
:105B3300FCA28540FCC2F9A827E82402F5F9A2F9E2
:105B430050FCA28550FCC2F9A825E8F5F9A2F9504A
:105B5300FCC2F9A827E8F5F9A2F950FC7582507543
:105B630083F17002E528601D7827E624FFF608E636
:105B730034FFF6C2F9E0F5F9A2F950FCA3E527706A
:105B830002E52870E37527FF7528FFD2828050C095
:105B930082C08390F2DEE07035E490F36AF090F314
:105BA3006BF07C987D087AE87BF47971127669C290
:105BB30082D291A28540FCA28550FCC291C2F975A4
:105BC300F901A2F950FCD282740290F2DCF0800F4A
:105BD300C082C083740190F369800390F2DCF0D03B
:105BE30083D0822274F7121DB974FD121D62C2AFF5
:105BF30090F369E064017029E4F090F2DEE0702133
:105C0300C282D291A28540FCA28550FCC291C2F906
:105C130075F902A2F950FCD282740390F2DC025DA2
:105C23003990F2DCE064026003025D3A123B847B4C
:105C33000090F36AE07044C282D291A28540FCA234
:105C43008550FCC291C2F975F903A2F950FCA285F3
:105C530040FCC2F975F900A2F950FCE5F990F36B29
:105C6300F0C39408E0407BF990F396E0FAA3E0FBDD
:105C73001274B0D282740190F36AF079711276D5FE
:105C830090F36BE0F8C3EA98EB94005003025D3A9B
:105C9300E8FE79711276D58A088B0974FD2508F818
:105CA30074FF3509F9C3E89EE99400506F90F36CD3
:105CB300E0707F90F398C082851482851583AC824F
:105CC300AD837583F3D0827403121CB97C03FD8505
:105CD3001482851583AA82AB8379711276FA7401D3
:105CE300804C6034E014F0C2F975F900A2F950FC5D
:105CF300E5F9C0E0EBF890F396E028FAA3E034006E
:105D03008A82F583D0E0F00B90F36BE070D674FFDA
:105D1300F0D282EBF0025C78D282801BEEFC7D0035
:105D230090F396E0FAA3E0FB79711277B6E490F36F
:105D33006CF0E490F36AF0D2AF7403121D787F0223
:105D4300021E19C082C083E490F2DFF0123711D033
:105D530083D0822274F6121DB9E535FA701CA8258A
:105D6300E890F2DDF0752950752AF1752B0085272F
:105D73002C85282D753502025E0F74026A600302BA
:105D83005E0FA825E8121EC5000200075E04955D9C
:105D93000F5E7582507583F1A827E8FEA823E8C437
:105DA300540F04F509E8540F04F50AEE702C805CD7
:105DB300C2F9E0F5F9A3A2F950FCEF703DAF0AEF89
:105DC300CEC39EFEEF600E1FC2F9E0F5F9A3A2F960
:105DD30050FCEF70F2D282EE6032C2827508C8A224
:105DE30085500D7A057B001232A11508E50870EF86
:105DF300AF09EFCEC39EFEEF60C31FEF60B2E0704A
:105E0300AFA380F690F150E090F2DFF07F03021E23
:105E13001974F7121DB98551088552097808121FA4
:105E230024040000110211535E07110811535E2070
:105E33001121114E5E251126114E5E030075114E80
:105E43005E0025535E2025585E5B5E125E738008FC
:105E5300125F27800312602B740190F2BDF07F0262
:105E6300021E19C082C083740390F2BDF0025D521A
:105E730074F8121DB9C2827EC8A285500B7A057BC5
:105E8300001232A11EEE70F1C2F975F9A7A2F95002
:105E9300FCC2F975F900A2F950FCE5F9FAD2827453
:105EA300C25A4405FFC2827EC8A285500B7A057B85
:105EB300001232A11EEE70F1C2F975F927A2F95052
:105EC300FCC2F98FF9A2F950FCD282C2827EC8A229
:105ED30085500B7A057B001232A11EEE70F1C2F9D8
:105EE30075F9A9A2F950FCC2F975F900A2F950FCA1
:105EF300E5F9FAD28274304AFFC2827EC8A2855085
:105F03000B7A057B001232A11EEE70F1C2F975F90E
:105F130029A2F950FCC2F98FF9A2F950FCD2827F71
:105F230001021E1974F8121DB9C2827EC8A28550DF
:105F33000B7A057B001232A11EEE70F1C2F975F9DE
:105F430087A2F950FCC2F975F900A2F950FCE5F9F2
:105F5300FAD28274FC5A4404FFC2827EC8A28550DE
:105F63000B7A057B001232A11EEE70F1C2F975F9AE
:105F730007A2F950FCC2F98FF9A2F950FCD282C2F0
:105F8300827EC8A285500B7A057B001232A11EEED9
:105F930070F1C2F975F988A2F950FCC2F975F900DC
:105FA300A2F950FCE5F9FAD28274044AFFC2827E58
:105FB300C8A285500B7A057B001232A11EEE70F148
:105FC300C2F975F908A2F950FCC2F98FF9A2F95088
:105FD300FCD282C2827EC8A285500B7A057B001256
:105FE30032A11EEE70F1C2F975F997A2F950FCC205
:105FF300F975F900A2F950FCE5F9FAD282740C4A5A
:10600300FFC2827EC8A285500B7A057B001232A1A3
:106013001EEE70F1C2F975F917A2F950FCC2F98F9F
:10602300F9A2F950FC025F20C082C08375F005908D
:10603300F2DFE0A424D4C282C2F975F920A2F95098
:10604300FCC2F975F92EA2F950FCC2F9F5F9A2F9CF
:1060530050FCD282C282C2F975F920A2F950FCC267
:10606300F975F900A2F950FCC2F975F900A2F950CB
:10607300FCD282C282C2F975F920A2F950FCC2F99E
:1060830075F947A2F950FCC2F975F914A2F950FC4D
:10609300D282025D52C082C083801DE02401F0A33E
:1060A300E03400F090F371E02401F0A3E03400F059
:1060B300EA7021E490DE14F090DE14E0A2E0504494
:1060C30090F371C3E0940DA3E09404503790DE166F
:1060D300E0FA60DF1A90DE28E0C0E090F36DE02480
:1060E300E8F8A3E034F4F988828983D0E0F090F3F0
:1060F3006DE0644B7004A3E0640490F36D709CE462
:10610300F0A3809F026AC8C082C083801EE024017E
:10611300F0A3E03400F090F377E024FFF0A3E03441
:10612300FFF0EA7044740190DE11F090F37AE070AE
:106133000D90F377C3E09440A3E09400405B90DEBE
:1061430011E0A2E040E590F377C3E09441A3E0942B
:106153000040047A40801290F377E0FA74406A605A
:1061630008E490F37AF0EA60BC1A90F375E0243403
:10617300F8A3E034F9F988828983E090DE28F0906F
:10618300F375E0644B7004A3E0640490F37560035B
:10619300026110E4F0A3026118026AC8C082C083DE
:1061A30074FE121D6290F36FE0F8A3E0F9E824E8AF
:1061B300F582E934F4F583E0851482851583F07460
:1061C3004B68700374046990F36F7005E4F0A38067
:1061D30008E02401F0A3E03400F090F371E024FF21
:1061E300F0A3E034FFF090F36FE0F8A3E0F9E824C4
:1061F300E8F582E934F4F583E0C0E07401121DADE3
:10620300D0E0F0744B68700374046990F36F700509
:10621300E4F0A38008E02401F0A3E03400F090F35D
:1062230071E024FFF0A3E034FFF085148285158329
:10623300E0FAA3E0FB1232A1026ABE74F5121DB9A3
:1062430074FC121D62C28290F36FE0F8A3E0F9E8D8
:1062530024E8F582E934F4F583E085148285158317
:10626300F0744B68700374046990F36F7005E4F085
:10627300A38008E02401F0A3E03400F090F371E080
:1062830024FFF0A3E034FFF090F36FE0F8A3E0F90C
:10629300E824E8F582E934F4F583E0C0E074011200
:1062A3001DADD0E0F0744B68700374046990F36F14
:1062B3007005E4F0A38008E02401F0A3E03400F0CB
:1062C30090F371E024FFF0A3E034FFF090F36FE06C
:1062D300F8A3E0F9E824E8F582E934F4F583E0C0B3
:1062E300E07402121DADD0E0F0744B6870037404C7
:1062F3006990F36F7005E4F0A38008E02401F0A334
:10630300E03400F090F371E024FFF0A3E034FFF0F9
:1063130090F36FE0F8A3E0F9E824E8F582E934F4B8
:10632300F583E0C0E07403121DADD0E0F0744B6858
:10633300700374046990F36F7005E4F0A38008E0C0
:106343002401F0A3E03400F090F371E024FFF0A304
:10635300E034FFF0C282A285407A851482851583DA
:106363007808121C8E74037808121C6285148285C7
:1063730015837808121C9D80077A067B001232A1D0
:10638300A2854050851482851583C082C08390F313
:106393009C7808121C8ED083D0827808121C1D6052
:1063A300D890F3A07808121C8E8514828515837803
:1063B30008121C7B121CDAC082C08390F39C7808FD
:1063C300121C8ED083D0827808121C1D70AB74010E
:1063D30090F381F0E490F379F07404121D787F0454
:1063E300021E19C082C08374FE121D6290F36FE017
:1063F300F8A3E0F9E824E8F582E934F4F583E085CD
:106403001482851583F0744B68700374046990F3E8
:106413006F7005E4F0A38008E02401F0A3E03400EA
:10642300F090F371E024FFF0A3E034FFF090F36FFA
:10643300E0F8A3E0F9E824E8F582E934F4F583E031
:10644300C0E07401121DADD0E0F0744B68700374AA
:10645300046990F36F7005E4F0A38008E02401F071
:10646300A3E03400F090F371E024FFF0A3E034FFE5
:10647300F0E490F381F0851482851583E0A2E05067
:106483005CC2827A027B001232C6A2854013A285C7
:10649300400F7A047B001232A190F39BE014F0705A
:1064A300ED851482851583E0A2E1C28F501B75F937
:1064B300B0A28F50FCC28F75F900A28F50FC7A6492
:1064C3007B001232A1D282804575F9BFA28F50FCA6
:1064D300C28F75F9FFA28F50FCD282802AD282D25A
:1064E300817A027B001232C6C281E0A2E1501853C6
:1064F300F3EFC28443FD10C2827A647B001232A19F
:10650300D28243F31080077A647B001232A1026ABD
:10651300BEC082C083C28290F37BE070030265AE8B
:10652300C28F90F36FE024E8F8A3E034F4F9888293
:106533008983E0F5F990F36FE0644B7004A3E064A2
:106543000490F36F7005E4F0A38008E02401F0A346
:10655300E03400F090F371E024FFF0A3E034FFF0A7
:10656300A28F50FCC28F90F36FE024E8F8A3E034CD
:10657300F4F988828983E0F5F990F36FE0644B7056
:1065830004A3E0640490F36F7005E4F0A38008E0D3
:106593002401F0A3E03400F090F371E024FFF0A3B2
:1065A300E034FFF0A28F50FC026DD990F381E0C27A
:1065B3008F90F36F70030266AAE024E8F8A3E03437
:1065C300F4F988828983E0F5F990F36FE0644B7006
:1065D30004A3E0640490F36F7005E4F0A38008E083
:1065E3002401F0A3E03400F090F371E024FFF0A362
:1065F300E034FFF0A28F50FC90F373E02434F8A34F
:10660300E034F9F98882898374FFF090F373E064CE
:106613004B7004A3E0640490F3737005E4F0A3806B
:1066230008E02401F0A3E03400F090F377E02401C4
:10663300F0A3E03400F0C28F90F36FE024E8F8A3F6
:10664300E034F4F988828983E0F5F990F36FE0642C
:106653004B7004A3E0640490F36F7005E4F0A3802F
:1066630008E02401F0A3E03400F090F371E024FF8C
:10667300F0A3E034FFF0A28F50FC90F373E02434D6
:10668300F8A3E034F9F98882898374FFF090F373F7
:10669300E0644B7004A3E06404600302679790F323
:1066A30073E4F0A30267A2E024E8F8A3E034F4F96A
:1066B30088828983E0F5F990F36FE0644B7004A35B
:1066C300E0640490F36F7005E4F0A38008E0240114
:1066D300F0A3E03400F090F371E024FFF0A3E03482
:1066E300FFF0A28F50FCE5F9C0E090F373E024348F
:1066F300F8A3E034F9F988828983D0E0F090F3734A
:10670300E0644B7004A3E0640490F3737005E4F059
:10671300A38008E02401F0A3E03400F090F377E0D5
:106723002401F0A3E03400F0C28F90F36FE024E87B
:10673300F8A3E034F4F988828983E0F5F990F36FE4
:10674300E0644B7004A3E0640490F36F7005E4F01D
:10675300A38008E02401F0A3E03400F090F371E09B
:1067630024FFF0A3E034FFF0A28F50FCE5F9C0E072
:1067730090F373E02434F8A3E034F9F98882898331
:10678300D0E0F090F373E0644B7004A3E064047012
:10679300030266A190F373E02401F0A3E03400F058
:1067A30090F377E02401F0A3E03400F00265ABC07E
:1067B30082C083C28290F37BE0700302688DC28F34
:1067C30090F36FE024E8F8A3E034F4F98882898336
:1067D300E0F5F990F36FE0644B7004A3E064049078
:1067E300F36F7005E4F0A38008E02401F0A3E03424
:1067F30000F090F371E024FFF0A3E034FFF0A28FE8
:1068030050FCC28F90F36FE024E8F8A3E034F4F96E
:1068130088828983E0F5F990F36FE0644B7004A3F9
:10682300E0640490F36F7005E4F0A38008E02401B2
:10683300F0A3E03400F090F371E024FFF0A3E03420
:10684300FFF0A28F50FC90F37DE024FEF8A3E03428
:10685300FFF9E87001E97003026ABBC28F90F36F1E
:10686300E024E8FAA3E034F4FB8A828B83E0F5F9B1
:1068730090F36FE0644B7004A3E0640490F36F60E3
:1068830003026A91E4F0A3026A9990F381E0C28F54
:1068930090F36F7003026989E024E8F8A3E034F40D
:1068A300F988828983E0F5F990F36FE0644B700413
:1068B300A3E0640490F36F7005E4F0A38008E02480
:1068C30001F0A3E03400F090F371E024FFF0A3E0C3
:1068D30034FFF0A28F50FC90F373E02434F8A3E06C
:1068E30034F9F98882898374FFF090F373E0644B81
:1068F3007004A3E0640490F3737005E4F0A38008CC
:10690300E02401F0A3E03400F090F377E02401F0F9
:10691300A3E03400F0C28F90F36FE024E8F8A3E023
:1069230034F4F988828983E0F5F990F36FE0644BDE
:106933007004A3E0640490F36F7005E4F0A380088F
:10694300E02401F0A3E03400F090F371E024FFF0C1
:10695300A3E034FFF0A28F50FC90F373E02434F8EB
:10696300A3E034F9F98882898374FFF090F373E02C
:10697300644B7004A3E064046003026A7690F373CB
:10698300E4F0A3026A81E024E8F8A3E034F4F98890
:10699300828983E0F5F990F36FE0644B7004A3E020
:1069A300640490F36F7005E4F0A38008E02401F021
:1069B300A3E03400F090F371E024FFF0A3E034FF90
:1069C300F0A28F50FCE5F9C0E090F373E02434F8B3
:1069D300A3E034F9F988828983D0E0F090F373E07F
:1069E300644B7004A3E0640490F3737005E4F0A3B4
:1069F3008008E02401F0A3E03400F090F377E02472
:106A030001F0A3E03400F0C28F90F36FE024E8F8C4
:106A1300A3E034F4F988828983E0F5F990F36FE019
:106A2300644B7004A3E0640490F36F7005E4F0A377
:106A33008008E02401F0A3E03400F090F371E02437
:106A4300FFF0A3E034FFF0A28F50FCE5F9C0E09023
:106A5300F373E02434F8A3E034F9F988828983D00E
:106A6300E0F090F373E0644B7004A3E064047003FC
:106A730002698090F373E02401F0A3E03400F09006
:106A8300F377E02401F0A3E03400F0026849E02446
:106A930001F0A3E03400F090F371E024FFF0A3E0F1
:106AA30034FFF0A28F50FCE824FF18E934FFF9E823
:106AB3007001E9600302685E026DD9E490F379F036
:106AC3007402121D78D083D08222C082C083C28216
:106AD30090F37BE07003026BAFC28F90F36FE024FF
:106AE300E8F8A3E034F4F988828983E0F5F990F3B8
:106AF3006FE0644B7004A3E0640490F36F7005E4EB
:106B0300F0A38008E02401F0A3E03400F090F371D7
:106B1300E024FFF0A3E034FFF0A28F50FCC28F907B
:106B2300F36FE024E8F8A3E034F4F988828983E082
:106B3300F5F990F36FE0644B7004A3E0640490F301
:106B43006F7005E4F0A38008E02401F0A3E03400B3
:106B5300F090F371E024FFF0A3E034FFF0A28F5034
:106B6300FC90F37FE0F8A3E0F9E87001E970030219
:106B73006DD9C28F75F900A28F50FCE5F9C0E09082
:106B8300F373E02434FAA3E034F9FB8A828B83D0D5
:106B9300E0F090F373E0644B7004A3E0640490F3BB
:106BA300736003026DB3E4F0A3026DBB90F381E065
:106BB300C28F90F36F7003026CABE024E8F8A3E09C
:106BC30034F4F988828983E0F5F990F36FE0644B3C
:106BD3007004A3E0640490F36F7005E4F0A38008ED
:106BE300E02401F0A3E03400F090F371E024FFF01F
:106BF300A3E034FFF0A28F50FC90F373E02434F849
:106C0300A3E034F9F98882898374FFF090F373E089
:106C1300644B7004A3E0640490F3737005E4F0A381
:106C23008008E02401F0A3E03400F090F377E0243F
:106C330001F0A3E03400F0C28F90F36FE024E8F892
:106C4300A3E034F4F988828983E0F5F990F36FE0E7
:106C5300644B7004A3E0640490F36F7005E4F0A345
:106C63008008E02401F0A3E03400F090F371E02405
:106C7300FFF0A3E034FFF0A28F50FC90F373E02405
:106C830034F8A3E034F9F98882898374FFF090F330
:106C930073E0644B7004A3E064046003026D989096
:106CA300F373E4F0A3026DA3E024E8F8A3E034F463
:106CB300F988828983E0F5F990F36FE0644B7004FF
:106CC300A3E0640490F36F7005E4F0A38008E0246C
:106CD30001F0A3E03400F090F371E024FFF0A3E0AF
:106CE30034FFF0A28F50FCE5F9C0E090F373E02489
:106CF30034F8A3E034F9F988828983D0E0F090F383
:106D030073E0644B7004A3E0640490F3737005E4D0
:106D1300F0A38008E02401F0A3E03400F090F377BF
:106D2300E02401F0A3E03400F0C28F90F36FE0247D
:106D3300E8F8A3E034F4F988828983E0F5F990F365
:106D43006FE0644B7004A3E0640490F36F7005E498
:106D5300F0A38008E02401F0A3E03400F090F37185
:106D6300E024FFF0A3E034FFF0A28F50FCE5F9C06C
:106D7300E090F373E02434F8A3E034F9F9888289CE
:106D830083D0E0F090F373E0644B7004A3E06404F9
:106D93007003026CA290F373E02401F0A3E03400CB
:106DA300F090F377E02401F0A3E03400F0026B6489
:106DB300E02401F0A3E03400F090F377E02401F045
:106DC300A3E03400F0E824FF18E934FFF9E8700188
:106DD300E96003026B7512610AE490F379F0D282E1
:106DE300026AC874F7121DB9C28290F37BE0700384
:106DF300026EB6C28F90F36FE024E8F8A3E034F498
:106E0300F988828983E0F5F990F36FE0644B7004AD
:106E1300A3E0640490F36F7005E4F0A38008E0241A
:106E230001F0A3E03400F090F371E024FFF0A3E05D
:106E330034FFF0A28F50FCC28F90F36FE024E8F888
:106E4300A3E034F4F988828983E0F5F990F36FE0E5
:106E5300644B7004A3E0640490F36F7005E4F0A343
:106E63008008E02401F0A3E03400F090F371E02403
:106E7300FFF0A3E034FFF0A28F50FCC28F75F9003E
:106E8300A28F50FCE5F9FA90F373E02434F8A3E001
:106E930034F9F988828983EAF090F373E0644B70E4
:106EA30004A3E0640490F37360030270BAE4F0A3F4
:106EB3000270C290F381E0C28F90F36F7003026F90
:106EC300B2E024E8F8A3E034F4F988828983E0F59A
:106ED300F990F36FE0644B7004A3E0640490F36FE4
:106EE3007005E4F0A38008E02401F0A3E03400F08F
:106EF30090F371E024FFF0A3E034FFF0A28F50FC85
:106F030090F373E02434F8A3E034F9F98882898399
:106F130074FFF090F373E0644B7004A3E064049097
:106F2300F3737005E4F0A38008E02401F0A3E034D8
:106F330000F090F377E02401F0A3E03400F0C28F77
:106F430090F36FE024E8F8A3E034F4F988828983AE
:106F5300E0F5F990F36FE0644B7004A3E0640490F0
:106F6300F36F7005E4F0A38008E02401F0A3E0349C
:106F730000F090F371E024FFF0A3E034FFF0A28F60
:106F830050FC90F373E02434F8A3E034F9F98882D9
:106F9300898374FFF090F373E0644B7004A3E0649F
:106FA30004600302709F90F373E4F0A30270AAE0FD
:106FB30024E8F8A3E034F4F988828983E0F5F990B2
:106FC300F36FE0644B7004A3E0640490F36F700507
:106FD300E4F0A38008E02401F0A3E03400F090F390
:106FE30071E024FFF0A3E034FFF0A28F50FCE5F939
:106FF300C0E090F373E02434F8A3E034F9F9888215
:107003008983D0E0F090F373E0644B7004A3E064F1
:107013000490F3737005E4F0A38008E02401F0A367
:10702300E03400F090F377E02401F0A3E03400F0C3
:10703300C28F90F36FE024E8F8A3E034F4F9888278
:107043008983E0F5F990F36FE0644B7004A3E06487
:107053000490F36F7005E4F0A38008E02401F0A32B
:10706300E03400F090F371E024FFF0A3E034FFF08C
:10707300A28F50FCE5F9C0E090F373E02434F8A349
:10708300E034F9F988828983D0E0F090F373E06407
:107093004B7004A3E064047003026FA990F373E0E0
:1070A3002401F0A3E03400F090F377E02401F0A38F
:1070B300E03400F0026E7EE02401F0A3E03400F03F
:1070C30090F377E02401F0A3E03400F0C28F75F968
:1070D30000A28F50FCE5F9F50890F373E02434F82F
:1070E300A3E034F9F988828983E508F090F373E02B
:1070F300644B7004A3E0640490F3737005E4F0A39D
:107103008008E02401F0A3E03400F090F377E0245A
:1071130001F0A3E03400F0EAF9E42508F890F37FE6
:10712300E0FAA3E0FBE89AE99B400890F37FE0F8DC
:10713300A3E0F9E87001E96059C28F75F900A28FE5
:1071430050FCE5F9C0E090F373E02434FAA3E03493
:10715300F9FB8A828B83D0E0F090F373E0644B7089
:1071630004A3E0640490F3737005E4F0A38008E0E3
:107173002401F0A3E03400F090F377E02401F0A3BE
:10718300E03400F0E824FF18E934FFF9E87001E97E
:1071930070A712610AE490F379F0D2827F02021E93
:1071A30019C082C08390F379E0600302737090F397
:1071B30071C3E09403A3E09400500302737090F34F
:1071C3006FE024E8F8A3E034F4F988828983E0903F
:1071D300F37CF090F36FE0644B7004A3E0640490DD
:1071E300F36F7005E4F0A38008E02401F0A3E0341A
:1071F30000F090F371E024FFF0A3E034FFF090F38C
:107203007CE0A2E75004780F80027812E84420F56E
:10721300FCE0544090F37AF090F37CE0542090F338
:107223007BF090F37CE0541FF0121EC5020203D2E0
:10723300721E1F5273030052730144721D5C736309
:107243007390F36FE024E8F8A3E034F4F9888289BB
:1072530083E090F37DF090F36FE0644B7004A3E060
:10726300640490F36F7005E4F0A38008E02401F058
:10727300A3E03400F090F371E024FFF0A3E034FFC7
:10728300F090F36FE024E8F8A3E034F4F9888289FE
:1072930083E090F37EF090F36FE0644B7004A3E01F
:1072A300640490F36F7005E4F0A38008E02401F018
:1072B300A3E03400F090F371E024FFF0A3E034FF87
:1072C300F090F37DE02402F0A3E0340002736990B0
:1072D300F36FE024E8F8A3E034F4F988828983E0CB
:1072E30090F37FF090F36FE0644B7004A3E06404C9
:1072F30090F36F7005E4F0A38008E02401F0A3E0AD
:107303003400F090F371E024FFF0A3E034FFF09039
:10731300F36FE024E8F8A3E034F4F988828983E08A
:1073230090F380F090F36FE0644B7004A3E0640487
:1073330090F36F7005E4F0A38008E02401F0A3E06C
:107343003400F090F371E024FFF0A3E034FFF090F9
