:020000040000FA
:0600000002013F0218039B
:03000B0002180BCD
:03001300021813BD
:03001B0002181BAD
:030023000218239D
:03002B0002182B8D
:03003300020B239A
:03003B0002183B6D
:030043000218435D
:03004B0002184B4D
:030053000218533D
:03005B0002185B2D
:030063000218631D
:03006B00020BCABB
:03007300021873FD
:03007B0002187BED
:03008300021883DD
:03008B0002188BCD
:1000930012010002000000205104A0160001010219
:1000A30003010902120001010080FA0904000000A3
:1000B300FFFFFF00040309042403540065007800D4
:1000C30061007300200049006E0073007400720029
:1000D30075006D0065006E00740073001803530013
:1000E3006D0061007200740052004600300035005C
:1000F3004500420012033000300030003000300071
:10010300310030003000AE00000000000080FB1220
:1001130002DEB90003020139E479107804B8000261
:100123008004F709D8FCE490F00078197901800283
:10013300F0A3D8FCD9FA12038512010D75D000750E
:10014300818002011243AE0322BB0102E722C08277
:10015300C08389828A83BB0003E08002E493D08357
:10016300D08222BB000EC082C0838A838982F0D0F2
:1001730083D08222BB0101F722600C08C6C313C6D9
:1001830018C613C6D5E0F422700422600D18C6C346
:1001930033C608C633C6D5E0F41822E473D083D03F
:1001A30082CEC0E0EFC0E0C0207808E608C0E0DE01
:1001B300FAE473C0D074072FD0D0F8D0E0F618DF7C
:1001C300FAD020D0E0FFD0E0FE22C8C0E0E9C0E0D2
:1001D300A9811919E583C7F58319E582C7F582EA71
:1001E300C0E0EBC0E0ECC0E0EDC0E0EEC0E0EFC08B
:1001F300E0C0D0C0F0C0207908E709C0E0D8FAE435
:100203007374072FF8D0E0F618DFFAD020D0F0D0BF
:10021300D0D0E0FFD0E0FED0E0FDD0E0FCD0E0FBAA
:10022300D0E0FAD0E0F9D0E0F8D083D082D0E03249
:100233007903D083D082E6C0E008D9FAE473D0838F
:10024300D082C5F0E493A3C5F0C395F0F5F0E49331
:10025300A3C395F04005E5F0048001E475F002A422
:100263002582F582E5F03583F583E493A3C0E0E4CA
:1002730093C0E022D083D082CCC0E0E493A3600695
:100283001202A11470FAE493A360061202C0147060
:10029300FAD0E0FCE493A3C0E0E493C0E022C0E022
:1002A300E493A3D39C5010E493A3C39C400AD0E0EF
:1002B300D0E0D0E0020294A3A3A3D0E022C0E0E404
:1002C30093A36C7009D0E0D0E0D0E0020294A3A322
:1002D300D0E022050000021300000079011203138D
:1002E300790122EEC0E053F4BF53FEBF53F6BF4380
:1002F300F7400074405590FE70101204DAE964026E
:1003030070087401655570027E01EEF9D0E0FE229B
:10031300EEC0E0E9FE74016E701253F3FDD2814327
:10032300FD0253F4FBD29243FE04804C74026E60D0
:100333000B74036E704253F1FD43F10153F4BFC2DA
:100343009643FE4053F47F53FE7F43F68053F4FD00
:1003530053FEFD43F60253F5FEC2A043FF017A109C
:100363007B27120489D2A053F5FE53FFFE43F70106
:1003730053F3FBD28243FD04D0E0FE22639004E5F5
:1003830090221204831202E6E9FE755500755400AB
:1003930075510075520075572E75580675591975A4
:1003A3005A06755BF9755C11755D62755E126005C1
:1003B3007553008022901893E49364E170169018AB
:1003C30094E493648C700D901895E49364647004C2
:1003D30074018001E4F55375479375480075490925
:1003E300754A01754B09754C01754D09754E0175BB
:1003F3004F097550011205F37A177B00120ADE7557
:100403005614EE7004E5537026790212031353F465
:10041300FED29043FE0112047D7A327B001204AEB9
:10042300EE60077AC27B011204AE12037F80EA7981
:100433000312031375540112180022748055C6FA6F
:10044300740169701B53BEFB43C640E5C6A2E65068
:10045300FA74494AFA8AC6E5C66A70FB43BE0422A7
:10046300E9701653BEFB53C6BFE5C6A2E640FA8A3F
:10047300C6E5C66A70FB43BE0422D2AF22C2AF22D6
:10048300790012043E22EBC313FBEA13FAC3EA9486
:1004930002EB940040140000000000000000000084
:1004A300EA24FFFAEB34FFFB80E322EEC0E0EFC067
:1004B300E0EAFEEBFF80077AE87B03120489EEF89B
:1004C300EFF974FF281E74FF39FFE87001E970E744
:1004D300D0E0FFD0E0FE22741855BE131313541F4F
:1004E3001202410101EE04F104F4047900227901BE
:1004F30022790222EEC0E0EAFE7A007B00801585B5
:100503001082851183E0FC18E62CFC08E63400FD1C
:100513008C108D11E54965107004E54A6511602F53
:100523007810E62401F58208E63400F583E069706B
:1005330017AA10AB118A828B83E0FCEA2CFCEB3404
:1005430000FD8C108D118007E06E70B3EE60B0D0AB
:10055300E0FE228547108548117A0079011204F7DD
:100563002274021201A0E9FEEAFF854710854811B3
:10057300800D8A828B83A3A3A3A3A3E06E60147A66
:100583000079021204F7EA7001EB6007EE70E3EF03
:100593001F70EC7F020201B674041201A0EAFF8B04
:1005A300087A001205647A0279041204F7EA7001EA
:1005B300EB60168A828B83A3A3E06F70E98A828B38
:1005C30083A3A3A3E0650870DD7F040201B6EEC038
:1005D300E0C008C009E9FE8547108548117A007913
:1005E300031204F7EE1E70F5D009D008D0E0FE2206
:1005F3007A0079011205648A828B83A3A3A3A3A340
:10060300A3A3E0A2E650057541018003754100757F
:10061300400043BE8022752E02752F007535007988
:100623000312089F7512007513002274071201A0AC
:1006330090DE0EE0F50AE4F090DE11E0FF74086549
:10064300357021EFA2E0401AA823E8FA90DE00F00B
:10065300E52EC39404500BEA6005752E03800375E1
:100663002E028E35EFA2E25007E490DE11F0F5354D
:10067300EFA2E4501E748090DE11F0753507E51289
:100683007002E513600985128285138312019E8E21
:1006930035807CE535FA74026A705FEFA2E0504F53
:1006A30090DE16E0FE7829120233EEF97A207BDE23
:1006B3001208BC1581158115818E0812087D120858
:1006C3008AE52C7002E52D60047440800274489022
:1006D300DE11F0E52C7002E52D7014E5127002E5D1
:1006E30013600985128285138312019E753500E517
:1006F3000A90DE0EF07F070201B674066A70098560
:10070300128285138312019EE5356003020812EFFE
:10071300A2E050DB750C218E0D750E01780C1202D0
:100723003379087A207BDE1208BC15811581158187
:100733008E128E1374E055211202770006005407BF
:1007430020E70740D107809B07A0F207C0DC07CC56
:1007530007E5221202770006018707038207056F68
:1007630007079607098C070B9107CC07120D94E531
:1007730035FA74046A60030207FE746002080E12FD
:100783000D8880EB120D7C80E61210C880E11211F7
:100793009880DC120AD580D7E52212027700050083
:1007A300B30706B80708BD070AC2070CC707CC077B
:1007B300120BEE80BA120DBB80B512109780B012E7
:1007C300116B80AB120AD980A675350480AC751203
:1007D3001B75130912091B8096751269751309128B
:1007E3000969808B7512A77513091209A780807593
:1007F30012C77513091209C702077274016A6005EB
:1008030074026A700474408002744890DE11F0E54B
:1008130035FA74016A704F90DE11E0A2E1500302D1
:1008230006F27F02A82CA92DC3E89420E994005076
:1008330006E8FE7F0A80027E207829120233EEF951
:100843007A207BDE1208DF1581158115818E08124F
:10085300088A12087DEF90DE11F0EEC39420400366
:100863000206F20206DE74056A60030206F28512CE
:100873008285138312019E0206F2782CC3E6950843
:10088300F608E69400F622A929AA2AAB2BE9250843
:10089300F9EA3400FA89298A2A8B2B227A007436E2
:1008A3001208B240F97A00743B1208B240F9222AC6
:1008B300F8E9F60AEAC3940522EEC0E0EFC0E08A45
:1008C300828B83E9FFE5811209086009E012016662
:1008D3001208FD70F7D0E0FFD0E0FE22EEC0E0EF9B
:1008E300C0E08A828B83E9FFE5811209086009125F
:1008F300014CF01208FD70F780DBE9240109EA34AA
:1009030000FA1FEF2224FAF8E6FC08E6FD08E6FEEB
:10091300ECF9EDFAEEFBEF22E522120241C10338B6
:10092300092C09380930093409121425221215013A
:100933002212151722E553601FE554601B90189689
:10094300E493C0E0740193F583D08212095F7002CF
:10095300E583600412019E2275350422A3A3A3A399
:10096300A3A3120A3F22E522120241C002800978A2
:100973000980097C091212A4221214B922E55360DA
:100983001FE554601B901896E493C0E0740193F53F
:1009930083D0821209617002E583600412019E22F2
:1009A30075350422E5536018E5546014901896E4F5
:1009B30093240A120A307002E583600412019E2216
:1009C30075350422E5536021E554601D901896E4C3
:1009D30093C0E0740193F583D082A3A312095F70DF
:1009E30002E583600412019E2275350422E55360FB
:1009F30018E5546014901896E493240C120A30708E
:100A030002E583600412019E2275350422E55360DA
:100A130018E5546014901896E493240E120A30706B
:100A230002E583600412019E2275350422F8A3E4D3
:100A3300933400F988828983120A3F22E493F8747D
:100A43000193F988828983E58222EEC0E0EFC0E05A
:100A5300E9FFE5536019E5546015901896E4932473
:100A630010120A307002E5836005EFF912019ED07F
:100A7300E0FFD0E0FE22E5536017E55460139018C1
:100A830096E4932412120A307002E5836003120184
:100A93009EA842A943E854046012E556A2E2500C12
:100AA300C2AF784274FB120ACB120619A842A943BB
:100AB300E854106012E556A2E4500CC2AF784274B9
:100AC300EF120ACB12062E2256F60874FF56F6D200
:100AD300AF22753504227535042222C008C00943AC
:100AE3009A02438C107542007543007544008A4591
:100AF3008B46EA90DE0BF08A088B0974047808129F
:100B0300017CE50890DE07F08A088B0974097808F0
:100B130012017CE508543E90DE09F0D009D008228A
:100B2300C0E074021201CDE5BEA2E650FA90DE06E3
:100B3300E0FAA2E25035A845E890DE0BF0F508850F
:100B430046097404780812017CE50890DE07F085F5
:100B530045088546097409780812017CE508543E66
:100B630090DE09F090DE01E0D2E0F07842EA46F64A
:100B730008E446F690DE02E0F5087509007404788F
:100B83000812018B7842E50846F608E50946F69017
:100B9300DE04E0F5087509007409780812018B7802
:100BA3004246F608E50946F6EAA2E0500375440119
:100BB30074065A6003754400120A79E58BF4F58BC9
:100BC300C2E87F02020204C0E074011201CDE5BE57
:100BD300A2E650FAE589FEA2E75005C2BD121292C1
:100BE300EEF4F589C2C57F01020204E5237002E534
:100BF300247018A825A92674FF59FBE47001EB7033
:100C03000A740265277002E528600475350422E53D
:100C13002112024180020E0C210C6B0C790CE8703E
:100C2300EAE541600478018002780090F018E8F06A
:100C3300A3E4F0E540600A90F018E04402F0A3E476
:100C4300F07404653560207C187DF0AA25741F5567
:100C530021F9120ADD752918752AF0752B00752CF8
:100C630002752D00753501227404652E709D90F078
:100C730018E4F0A380CAE8547FFA7404652E708BDD
:100C8300EAC394065085742E2AFAE85480601574DA
:100C9300072AF8E66403700478018002780090F074
:100CA30018E88099740C2AF8E6640370EF80E9EE83
:100CB300C0E0E9FEE5277002E528700E7404652E96
:100CC3006011E5257002E52660097535047901D0C8
:100CD300E0FE22741F55211202410002CD0CE70CE5
:100CE300EE0C040DA823E864016004790080E08E13
:100CF30040EE60047905800279067A00120A4D807D
:100D0300CCA825E8547FFAA823E870DFEAC3940649
:100D130050B8EA90DE0EF0742E2AFBA825E8548022
:100D23006027EE600474108002744090DE11F0EED0
:100D330060047C0380027C0074072BF8ECF6EE6001
:100D4300047908802979078025EE600474208002E5
:100D5300748090DE14F0EE60047C0380027C0074E7
:100D63000C2BF8ECF6EE6004790A80027909120A7A
:100D73004DE490DE0EF0020CD07900120CB2E97053
:100D8300031209F0227901120CB2E97003120A105E
:100D930022E5257002E5267017E5277002E5287025
:100DA3000F7823E65480FA08E6FBEA7001EB60044F
:100DB300753504227535082274041201A0AA23ABE9
:100DC30024EB12024101022C0ED20DEC0D250E1262
:100DD30005568A298B2A8E2BA929AA2A7B00120160
:100DE3004CF8882C8B2D020ECD79001205648A29CC
:100DF3008B2A8E2BA929AA2A7B00E924020909EA56
:100E03003400FA12014CFC1919AA2AE9240309092E
:100E130009EA3400FA12014CF9ECF8882C892D0206
:100E23000ECDEAF91205D180A98E298E2A8E2B7C4C
:100E33000080727509007403780812018B784BE601
:100E43002508FA08E63509FBAE23AF248A828B8393
:100E5300E0C0E0EFF8D0E068704AA3E06E7045AE02
:100E630025AF268A828B83A3A3E0C0E0EFF8D0E00E
:100E73006870318A828B83A3A3A3E06E70268A8273
:100E83008B83A3A3A3A3E0F508A3E0850829F52A90
:100E9300752B008A828B83A3A3A3A3A3A3E0F52CC2
:100EA300A3E0F52D0C8C08784D794BE6C397F50A32
:100EB3000908E697F50B7403780A12017CC3E50869
:100EC300950AE4950B5003020E36A929E9700575BE
:100ED3003504801A740465356014A827A928C3E86B
:100EE300952CE9952D5004882C892D7535017F04A7
:100EF3000201B674081201A005810581E58114F889
:100F0300EAF608EBF61886828B83A3A3A3A3E0601B
:100F130026AE4FAF508008EE2404FEEF3400FF8E60
:100F2300828F83E493FA740193FBE58114F8E66AF4
:100F3300700308E66B70E07508008066749090DEBD
:100F430014F090DE14E0A2E3500890DE0EE0650991
:100F530060F0741090DE14F090DE14E0A2E3500809
:100F630090DE0EE0650960F088828983E0540364B3
:100F7300017003750E408E828F83A3A3A3E4935560
:100F83000A6006E50ED2E0F50EE50E90DE15F0EAF6
:100F930090DE13F0740C250FF87600E490DE0EF06B
:100FA3000508E58114F88682088683A3A3A3A3E03A
:100FB300FAE508C39A400302108E7A0079051204F9
:100FC300F78A0A8B0BAC0AAD0BEC7001ED60D1EC28
:100FD3002402F50CED3400F50D850C82F583E05405
:100FE3000FF50990DE0EF0750E008C828D83A3A39E
:100FF300A3A3E02407F50AA3E03400F50B740378F8
:101003000A12017CAA0A742E2509F50F750A0175C7
:101013000B00E509780A12018BEC2403F8ED340088
:10102300F9850C82850D83E0A2E74003020F3F742C
:101033004890DE11F090DE11E0A2E3500890DE0E3E
:10104300E0650960F0740890DE11F090DE11E0A213
:10105300E3500890DE0EE0650960F088828983E042
:10106300540364017003750E408E828F83A3A3E43F
:1010730093550A6006E50ED2E0F50EE50E90DE12FA
:10108300F0EA90DE10F07407020F99158115817F45
:10109300080201B6E5237002E5247012E52570020B
:1010A300E526700A740165277002E528600475352A
:1010B300042275292F752A00752B01752C01752DB6
:1010C300007535012274041201A07402652E601BA1
:1010D300E5257002E5267013E5277002E528700BFD
:1010E300782308E6FBE47001EB6005753504807531
:1010F3007A007901120A4DA823E860587A00F912A0
:1011030005648A088B09AE08AF09EE7001EF603FF2
:10111300752E04A823E8F52F7509008E828F83A30B
:10112300A3A3A3E0FAE509C39A503374302509F564
:1011330008F876007A0079041204F78A828B83A375
:10114300A3A3E0A8086670EC120EF6050980CC751F
:101153003504800AF52F752E03790312089F7A0050
:101163007902120A4D020EF17404652E701874810F
:1011730065217012E5237002E524700A7401652766
:101183007002E528600475350422A825E82430F9A7
:1011930089290210B874021201A07404652E700E1E
:1011A300740165217008E5277002E528600575352F
:1011B30004803EA823E8FBA825E8FAA92F12059B83
:1011C3008A088B09AE08AF09EE7001EF60E0AA252B
:1011D3007903120A4DA823E8C0E0A825E82430F8D3
:1011E300D0E0F6EEFAEFFB120EF6AA257904120A06
:1011F3004D7F020201B6745390F000F074BE90F07C
:1012030001F074FC90F002F0744390F003F074BEAC
:1012130090F004F0740190F005F0747590F006F00E
:10122300748790F007F0740190F008F074E590F083
:1012330009F0744490F00AF0747090F00BF074F3BA
:1012430090F00CF0742290F00DF0D2BD90F00E747B
:1012530000F0A374F0F0758200F58312019E22E57D
:10126300407003790022C2AF12129275440090DEDF
:1012730001E0D2E2F07A0A7B001204AE90DE01E0D4
:10128300C2E2F0C2BDC2C575897FD2AF790122E443
:1012930090F005F090F006F090F007F090F008F071
:1012A300220581A825A926E87001E960030213D667
:1012B30079217A007B0189298A2A8B2B752C088A4C
:1012C3002D8B35AC51EC120166A952E9C0E0A92976
:1012D300AA2AAB2BE9240109EA3400FAD0E012016F
:1012E30066E553A8816013901896E493C0E07401F7
:1012F30093F583D082E493F680027600E6C0E0A9FA
:1013030029AA2AAB2BE924020909EA3400FAD0E01E
:10131300120166E5536014901896E493C0E07401DB
:1013230093F583D082740193F680027600E6C0E0E1
:10133300A929AA2AAB2BE92403090909EA3400FAEB
:10134300D0E0120166E5536015901896E493C0E06F
:10135300740193F583D082A3A3E493F6800276000D
:10136300E6C0E0A929AA2AAB2BE92404F9EA340050
:10137300FAD0E0120166E5536016901896E493C024
:10138300E0740193F583D082A3A3740193F68002E2
:101393007600E6C0E0A929AA2AAB2BE92405F9EADD
:1013A3003400FAD0E0120166E554C0E0A929AA2A64
:1013B300AB2BE92406F9EA3400FAD0E0120166A95E
:1013C30029AA2AAB2BE92407F9EA3400FAE412012B
:1013D30066804C7401687001E970147529D6752A0A
:1013E30002752B80752C08752D007535018030E54D
:1013F30053602CE5546028901896E493C0E0740180
:1014030093F583D082A3A3A3A3E493F8740193F980
:1014130088828983E5827002E583600312019E1549
:101423008122E535FA7026E554700AE527700474C5
:1014330004652860057535048003753502752C0035
:10144300752D04752900752AFB752B002274026A19
:10145300706374FB90F010F0E490F011F074DF907F
:10146300F012F074AF90F013F0740490F014F0E401
:1014730090F015F0741290F016F0744290F017F09B
:1014830074F0F5D575D410120480E5AEA2E740FAE6
:1014930043D601A825E8C333F5AD75AC00740755F1
:1014A300C6F87420B800028004C313D8FCF5AB124D
:1014B300014812047D22C008C009E535703B85252B
:1014C30008852609C3E5089420E5099400400575BD
:1014D30035048025E52770047404652860047404CA
:1014E30080027401F535740A780812018BF5298599
:1014F300092AF52BF52C752D04D009D00822752C5B
:1015030000752D00E5277002E52860047535042277
:1015130075350122E535703A120480744090DE116E
:10152300F07A0A7B001204AEA825E8F555E554705D
:1015330003E8701BC290D292AA23AB24EA7001EB9A
:1015430060031204AE790312155D12155680FE1264
:10155300047D2253C9FB43C90822740359C0E074B4
:0A156300FC55C9FAD0E04AF5C92290
:040000050000013FB7
:00000001FF
