:020000040000FA
:0318000002189833
:03183B0002695BE4
:0318430002293443
:03184B0002353033
:03186B0002326BDB
:03187B000233989D
:10189300E18C649A2075D0007581907514207515BC
:1018A300F10218AC00000080FB121923B9000302F7
:1018B300191DE479187806B800028004F709D8FCEA
:1018C300E4796F7816B800028004F709D8FCE49035
:1018D300F120789979028002F0A3D8FCD9FA78161E
:1018E3009019267A02BA00028007E493A3F608DA75
:1018F300F990F2B8AA82AB839019287826790180EF
:1019030015E493A3AC82AD838A828B83F0A3AA826E
:10191300AB838C828D83D8E9D9E7122C241218A7C4
:1019230079012217150106070707070707040000B7
:10193300DFBE000720420300000101000000010197
:1019430001010107FFFF00960000740022C56C70BF
:101953003BC56C33D2919297C29133D2919297C285
:101963009133D2919297C29133D2919297C291338C
:10197300D2919297C29133D2919297C29133D291DD
:101983009297C29133D2919297C29122C56C7A08F1
:1019930031FB31FB33D29131F6929731F6C291DAB2
:1019A300EF22E56C7039D291C291A29733D291C2E2
:1019B30091A29733D291C291A29733D291C291A2AD
:1019C3009733D291C291A29733D291C291A2973306
:1019D300D291C291A29733D291C291A29733227A24
:1019E3000831FB31FBD29131F631F6C291A2973324
:1019F300DAEF2200000000000000000000000000F9
:101A03000000000022FAE56AB40704EA5128222400
:101A130063056AF8EAF622E56A2463056AF8E622B2
:101A230090DE28E02290DE28F022D90AD05FD06031
:101A33008C618D6261292253FE7FE56D7000D29720
:101A43007A1030970EE56E6008EAC0E031A5D0E069
:101A5300FADAEF002243FE8022314D7003C2812265
:101A6300D281227B087A001234C7314D7004D281AF
:101A73008002C2817B087A001234C722896C2289D2
:101A83006D22896E22755F1B756033C291C29743C5
:101A9300FE8253F6FD22121A885166515C7B087A46
:101AA300001234C7E960065401603280057825E6E8
:101AB300602B31F6D29131F6C29131F6D29131F6E3
:101AC300C29131F651665158C06C756C0174553131
:101AD30050E43150513A31A55158D06C2231F6516E
:101AE3006612305422E931502231A5F922C2AF7473
:101AF3000490DE0EF090DE14E030E03190DE16E468
:101B030093F96029855F83856082AD62AC61E4737C
:101B130043FE80E56B600790DE11E04401F0D910CD
:101B2300755F1B75603390DE14E4F080C8D2AF227A
:101B33005123F56B536B0103F56A536A070303548F
:101B43001E901B4873618A61A461C46166619E61D2
:101B5300BE6178619861B861D6619261B261D0610A
:101B6300EC8106512D51233150513A31A5510831A1
:101B7300A551086113512D51233150512D5123315A
:101B830050512D51233150512D5123315061135157
:101B93002D51233150512D51233150512D5123318A
:101BA30050512D51233150513A31A55108611351F0
:101BB3002D51233150512D51233150512D5123316A
:101BC30050512D51233150513A31A56113512D51AB
:101BD300233150512D51233150512D512331505127
:101BE3001A3150513A31A56113512D5123315051BE
:101BF3002D51233150511A3150511A3150513A312C
:101C0300A56113512D5123FD3150512D5123FC3129
:101C130050ED5407FD4C70027D08EC60010D512D11
:101C230051233150DCF8DDF6513A31A56113E493C9
:101C33006670130874019366700C087402936670DF
:101C430005087403936622C3E4939608740193967C
:101C53000874029396087403939622BB0102E72249
:101C6300C082C08389828A83BB0003E08002E4933D
:101C7300D083D08222BB000EC082C0838A83898234
:101C8300F0D083D08222BB0101F722E0F608A3E063
:101C9300F608A3E0F608A3E0F622E6F008A3E6F0D0
:101CA30008A3E6F008A3E6F022CAC0E0E6F0A30822
:101CB300DAFAD0E0FA22CAC0E0E0A3C582CCC5823A
:101CC300C583CDC583F0A3C582CCC582C583CDC5ED
:101CD30083DAE6D0E0CA22B90010BB0008E88AF034
:101CE30084F8AAF022E4FBC8FA22EB70227B10C826
:101CF30033C8C933C9335007C39AC3DBF280069A8A
:101D030050012ADBEAC833F4C8C933F4C9FA22758F
:101D1300F008E4C833C8C933C933C99AC99B50040E
:101D2300C92AC93BD5F0ECFBC833F4C8E4C9FA228D
:101D3300700422600D18C6C333C608C633C6D5E087
:101D4300F41822251410AF08F51440021515800865
:101D5300F51440021515D2AF22C0D0251410AF08D8
:101D6300F514500205158008F51450020515D2AF7D
:101D7300D0D0222514F58210AF08F51440021515B2
:101D83008008F51440021515D2AF8515832225145A
:101D9300F582E43515F58322E4732514C582C0E08A
:101DA300E51534FFC583C0E0E514C3958224F9F833
:101DB300E4C5A8858315858214C5A8E8CEF0A3E5FC
:101DC30020F0A37808E608F0A3DEFAEFF0A3E5819C
:101DD30024FBF8E608F0A3E608F0A30808E608F0F9
:101DE300A3E608F0A315811581D0E0FED0E0F81535
:101DF300811581E8C0E0EEC0E02285158385148259
:101E0300E0A3FEE0A3F5207808E0A3F608DFFAE0FC
:101E1300A3FFE0A3C0E0E0A3C0E0E0A3C0E0E0A331
:101E2300C0E0E4C5A8858214858315C5A8D083D0F6
:101E330082227403800474028000C0E0F404121D43
:101E430076D0E0121CAC22CCC0E0EDC0E0E514C3B8
:101E53009CCCAD1550011D10AF068C148D1580065A
:101E63008C148D15D2AF121CB9D0E0FDD0E0FC224A
:101E7300D083D082C5F0E493A3C5F0C395F0F5F009
:101E8300E493A3C395F04005E5F0048001E475F005
:101E930002A42582F582E5F03583F583E493A3C09C
:101EA300E0E493C0E022D083D082CCC0E0E493A3EB
:101EB3006006121ED31470FAE493A36006121EF296
:101EC3001470FAD0E0FCE493A3C0E0E493C0E022F2
:101ED300C0E0E493A3D39C5010E493A3C39C400AB3
:101EE300D0E0D0E0D0E0021EC6A3A3A3D0E022C07E
:101EF300E0E493A36C7009D0E0D0E0D0E0021EC60A
:101F0300A3A3D0E022D083D082ECC0E0EDC0E0E414
:101F130093A3FCE493A3FDED4C600D121F54EC243A
:101F2300FFFCED34FFFD80EFE493A3FCE493A3FDFA
:101F3300ED4C600D121F93EC24FFFCED34FFFD808C
:101F4300EFD0E0FDD0E0FCE493A3C0E0E493C0E075
:101F530022C0E0C3E49396087401939618400FE4FB
:101F63009366700808740193661870007019A3A330
:101F7300C3E49396087401939618A3A3400DD0E08D
:101F8300D0E0D0E0021F44A3A3A3A3A3A3D0E022E5
:101F9300C0E0C0F088F0E4936670080874019366AB
:101FA300187000A8F0A3A3700BD0F0D0E0D0E0D05D
:101FB300E0021F44A3A3D0F0D0E022D083D082EC70
:101FC300C0E0EDC0E0EEC0E0EFC0E0E493A3FCE4CA
:101FD30093A3FDE493A3FEE493A3FFEF4E4D4C6064
:101FE3001512203AEC24FFFCED34FFFDEE34FFFE26
:101FF300EF34FFFF80E5E493A3FCE493A3FDE493B4
:10200300A3FEE493A3FFEF4E4D4C6015122077EC33
:1020130024FFFCED34FFFDEE34FFFEEF34FFFF80C1
:10202300E5D0E0FFD0E0FED0E0FDD0E0FCE493A3F8
:10203300C0E0E493C0E022C0E0C0F088F0121C4A84
:10204300A8F04007121C31A8F0701AA3A3A3A3128F
:102053001C4AA8F0A3A3A3A34013D0F0D0E0D0E080
:10206300D0E0022024A3A3A3A3A3A3A3A3A3A3D049
:10207300F0D0E022C0E0C0F088F0121C31A8F0A339
:10208300A3A3A3700BD0F0D0E0D0E0D0E0022024D3
:10209300A3A3D0F0D0E02220054400762EB92E4C25
:1020A3002F632F912F952F992FBB2F74F7121D9DFF
:1020B300782079F17A04E488828983F0A3F0E82414
:1020C300020808E93400F91AEA70EB1222F3EA7005
:1020D30001EB703B12242EEA7001EB70321224AE36
:1020E300EA7001EB7029122202EA7001EB702012F0
:1020F3003043121A887901121A7F7901121A821257
:102103002117EA7001EB70071230547A007B007FCD
:1021130002021DFDC082C08374FF121D46790112A5
:102123001A857981121A997A327B001234C7796839
:10213300121AE8121A3A121AECE9851482851583E9
:10214300F0121AEC121A587900121A85E0121EA91D
:10215300014142D0210E018521118B2134BE21433F
:10216300D92144E22145EB21818F21859921899F42
:10217300218DC72191952195B521A5A321B5AC2129
:10218300F4217A107B11806D7A1180F87A107B2507
:1021930080637A1180F87A307B2480597A3180F811
:1021A3007901121A857A3080E57901121A857A311C
:1021B30080DC7901121A857A3380D37901121A856A
:1021C3007A3480CA7901121A857A4080C179011262
:1021D3001A857A4180B87901121A857A4380AF79DA
:1021E30001121A857A4480A67901121A857A4580EC
:1021F3009D7A007B007401121D5CD083D08222740F
:10220300F8121D9D74FE121D4653F47F53FE7F4347
:10221300F68053F4FD53FEFD43F602C2827EC8A24C
:1022230085500B7A057B001234C71EEE70F1C2F99C
:1022330075F9F0A2F950FCC2F975F900A2F950FC46
:10224300E5F9C0E07401121D91D0E0F0C2F975F90F
:10225300F1A2F950FCC2F975F900A2F950FCE5F9B5
:10226300851482851583F0D2827401121D91E012C8
:102273001EA9000400852202D72280E92282EF22D0
:102283008E22851482851583E070077A007B000215
:1022930024A4E0C3940450067A007B1180F1E06427
:1022A3000570047A0280F3E054EFFA74046A700450
:1022B3007A0180E674076A70047A0780DD74086A1D
:1022C30070047A0880D474096A70047A0980CB1286
:1022D300305480B7851482851583E0C4135407F8FE
:1022E300745028FA80B47A007B2580A37A5080F852
:1022F30074F8121D9D74FE121D4674025580FF531F
:10230300F47F53FE7F43F68053F4FD53FEFD43F603
:1023130002C2817A057B001234C7D281C2827EC891
:10232300A285500B7A057B001234C71EEE70F1C2F2
:10233300F975F9EFA2F950FCC2F975F98FA2F950BA
:10234300FCC2F975F900A2F950FCE5F98514828500
:102353001583F0C2F975F900A2F950FCE5F9C0E064
:102363007401121D91D0E0F0D28285148285158309
:10237300E0121EA9000820BA2321B42322BA232382
:10238300BE2340AC23489323589A235AB023C22335
:102393007A207B1102242C7401121D91E064F070E9
:1023A300047A2680ED7A2580E97A2180E57A7580A2
:1023B300E17A017B1280727A0080F87A0380F4C29A
:1023C300827EC8A285500B7A057B001234C71EEEAD
:1023D30070F1C2F975F9C0A2F950FCC2F975F9643C
:1023E300A2F950FCC2F975F900A2F950FCE5F98590
:1023F3001482851583F0C2F975F900A2F950FCE542
:10240300F9C0E07401121D91D0E0F0D282851482EC
:10241300851583E0642870047A608097EF6004D2A6
:10242300818002C2817A007B00807674F8121D9D40
:1024330074FF121D4674025580FEC28153F47FD28D
:102443009743FE807A887B131234C7D2817AD07B7C
:10245300071234C7C282C2F975F910A2F950FCC23F
:10246300F975F940A2F950FCC2F975F900A2F950C7
:10247300FCE5F9851482851583F0D282E0648470CB
:10248300067A207B25801653F47F53FE7F43F68024
:10249300EE6004D2818002C2817A007B00740180E5
:1024A300027402121D5C7F01021DFD74F7121D9D53
:1024B30074FD121D467401121D91E4F0A3F0740221
:1024C3005580851482851583F0D282C2817A027B7E
:1024D300001234ECD28153F3EFC28443FD10C28265
:1024E3007A647B001234C7D28253F3EF53FDEF5368
:1024F3008FEF53F7DF43F310C282C2F975F9C0A21D
:10250300F950FCC2F975F904A2F950FCC2F975F946
:1025130025A2F950FCC2F975F905A2F950FCC2F9DC
:1025230075F9B0A2F950FCC2F975F907A2F950FC8C
:10253300D2827A327B001234C7C282C2F975F9DFC4
:10254300A2F950FCC2F975F902A2F950FCC2F9755F
:10255300F900A2F950FCC2F975F9ACA2F950FCD20A
:10256300827A327B001234C7C282C2F975F990A213
:10257300F950FCC2F975F91AA2F950FCC2F975F9C0
:1025830000A2F950FCE5F9F97401121D91E4F0A3DE
:10259300E9F0C2F975F900A2F950FCE5F9F5087400
:1025A30001121D91E04508F0A3E0F07401121D91A2
:1025B300E064057004A3E064256018D28285148268
:1025C300851583E06004D2818002C2817A007B009A
:1025D300022670C2F975F900A2F950FCE5F990F1F1
:1025E30021F0C2F975F900A2F950FCE5F990F12048
:1025F300F07A10C2F975F900A2F950FCE5F91AEA6C
:1026030070F1C2F975F900A2F950FCE5F990F125D2
:10261300F0C2F975F900A2F950FCE5F990F124F044
:10262300C2F975F900A2F950FCE5F990F123F0C263
:10263300F975F900A2F950FCE5F990F122F0C2F91D
:1026430075F900A2F950FCE5F990F127F0C2F9758C
:10265300F900A2F950FCE5F990F126F0D282C2818B
:102663007A147B001234C7D2817A057B2574031256
:102673001D5C02211274F7121D9DE5357038E527A4
:102683007002E5286005753504802B53F3FBD28275
:1026930043FD04122FBC53F3FDD28143FD021230DC
:1026A300541220AE8A518B52126177E990F2D8F01E
:1026B300122C23753502022112E5357021C3E5275B
:1026C3009408E52894005004753504227529207573
:1026D3002AF1752B00752C08752D007535012274B0
:1026E3008055C6FA740169701B53BEFB43C640E5AF
:1026F300C6A2E650FA74494AFA8AC6E5C66A70FB6E
:1027030043BE0422E9701653BEFB53C6BFE5C6A2FF
:10271300E640FA8AC6E5C66A70FB43BE042274F13A
:10272300121D9DE535FA7015752950752AF1752B23
:102733000085272C85282D75350202282974026A05
:102743006003022829AA23AB2474C05AF50874FF36
:102753005BF5097808121F080000020000006927D2
:10276300000169272928EA5403F50DEA543C1313A1
:10277300543FFE7F00A827A9287001E4700B850D44
:1027830008E89508FEE99400FF880A890B7508504C
:102793007509F1850D8285820EE87001E9700302E7
:1027A3002829C2827420655170047425655260140F
:1027B300750CC8A285500D7A057B001234C7150C21
:1027C300E50C70EFC3E50A950EF50AE50B9400F5E9
:1027D3000BAA0DEA601A1AC2F9850882850983E0FB
:1027E300F5F9A3858208858309A2F950FCEA70E60E
:1027F300C3E50A9EF50AE50B9FF50BEEFA601A1A7C
:10280300C2F9850882850983E0F5F9A385820885E5
:102813008309A2F950FCEA70E6D282E50A7002E568
:102823000B60030227A57F08021DFD74F3121D9D93
:10283300E535600302292FAA23AB2474C05AF50897
:1028430074FF5BF5097808121F08000002000000FE
:102853005B2800015B281D29EA5403F50CEA543C6C
:102863001313543FFE7F00A827A9287001E47004C6
:10287300E8FEE9FF88088909750A50750BF1E870CD
:1028830001E9706502291DC2F9A924E9F5F9A2F944
:1028930050FCC2F9A926E9F5F9A2F950FCC2F9A83E
:1028A30025E8F5F9A2F950FC7825E62401F608E6B7
:1028B3003400F6C3E5089EF508E5099FF509EEFA2D
:1028C300601D1AC2F975F900A2F950FCE5F9850AF1
:1028D30082850B83F0A385820A85830BEA70E3D29A
:1028E30082E5087002E5096031C282742065517087
:1028F30004742565526014750DC8A285500D7A05C0
:102903007B001234C7150DE50D70EFE50C121E7335
:102913000102AB28A02895288A28752950752AF129
:10292300752B0085272C85282D7535017F06021D03
:10293300FDC0E0C0D0E8C0E0E9C0E0EAC0E0EBC021
:10294300E0ECC0E0EDC0E0C008C009C082C083C0B5
:10295300F0C2C0E5D1A2E05065E586A2E44059A9E2
:102963001D126D48C3EA9402EB9400404BE51D240D
:1029730004FCF8E62401FA08E63400FB18EAF6083A
:10298300EBF6E51D2402F8EA66700308EB66700AAD
:10299300A81DECF9E6F70809E6F7ECF8740128F945
:1029A300E790F12AF0E690F12BF0E51D2408F9E712
:1029B3002401F709E73400F753D1FE75D601D0F0AF
:1029C300D083D082D009D008D0E0FDD0E0FCD0E0A5
:1029D300FBD0E0FAD0E0F9D0E0F8D0D0D0E0327408
:1029E300F6121D9D750836750972750A80780812EE
:1029F3001E35747CC394DDFC74F394F2FD79DD7AA7
:102A0300F27B00126C697403121D5C75089F7509D3
:102A130000750A007808121E357C027D0079E97A78
:102A2300F27B00126C697403121D5C7508FD780853
:102A3300121E357C107D00795C7AF37B00126C6981
:102A43007403121D5C7508D5750972750A807808C0
:102A5300121E35741DC3947CFC74F494F3FD797CCD
:102A63007AF37B00126C697403121D5C75089F7501
:102A73000900750A007808121E357C027D007988EA
:102A83007AF37B00126C697403121D5C7F03021DD1
:102A9300FD741069701F7547DD7548F275497875C7
:102AA3004AF3754B78754CF3754D78754EF3754F46
:102AB300787550F322742069701E75477C7548F34E
:102AC300754915754AF4754B15754CF4754D1575A7
:102AD3004EF4754F157550F422A2964003791722D0
:102AE300A2A34003791522791622EEC0E0E9FE7411
:102AF300106E7003022BE274116E702853F4FEC241
:102B03009043FE01122FE112300612305453F5FEAA
:102B130053FFFE53F7FE53F77F53F5EFD2A443FF62
:102B230010022BE274156E704C53F3FEC28043FD0A
:102B33000153F3FDC28143FD02C2A453F3FBD282CE
:102B430043FD0453F4FB53FEFB43F60453F4F753E2
:102B5300FEF753F6F743F74053F4EF53FEEF53F604
:102B6300EF43F74053F4DF53FEDF53F6DF43F74001
:102B7300122FBC806A74166E7032D280000000007F
:102B83000000000000000000000000000000000042
:102B930053F3FE53FDFE438F01D2810053F3FD53E4
:102BA300FDFD538FFD53F7DFC2A4803374176E709E
:102BB3002ED2800000000000000000000000000092
:102BC3000000000000000053F3FE53FDFE438F019D
:102BD300D2810053F3FD53FDFD538FFD53F7DFD037
:102BE300E0FE22C082C0831234C1E5BEA2E650FAE1
:102BF300A2964005751717800CA2A34005751715FB
:102C0300800375171690F2B87402121E4A12317AB5
:102C13007402121D5C43BE80439A02D083D0822289
:102C2300221229E2122ADCE9FA8A17E5166A6015EC
:102C330074176A600D7417651660077AE87B0312D0
:102C430034EC851716E516121E731502892C572CC2
:102C53005C2C862C122C93802D7916122AED126A85
:102C6300407920122A9453F4FED29043FE01123489
:102C7300A88003126AB4122ADCE9641660F5126AAA
:102C8300AA8003122D8C1234AB7911122AED809491
:102C930074F7121D9D7915122AED755100755200B6
:102CA3001220AE8A518B52126177E990F2D8F0E587
:102CB300517002E5527003122FE17910122A9453D6
:102CC300F4FED29043FE011234A8122ADCE9641503
:102CD3006003022D8790F2D8E0FA90F2D7E06A60A1
:102CE30068E0121EA9000300F52C05FA2C07FA2C44
:102CF300FD2C123054800312470690F2D8E0121EC6
:102D0300A9000400142D012E2D05242D07292D3B88
:102D13002D122FE1123043121A887980121A9980EA
:102D230020126215801B1238D6801653F3FBD28211
:102D330043FD04122FBC8009122FE11230541230CC
:102D43000690F2D8E090F2D7F0E0121EA90004003A
:102D5300602D01CD2C05662D07662D6C2D121AF002
:102D6300022CCD123CA0022CCD7A647B001234ECF1
:102D730063A010E5A07A847B031234EC63A010E512
:102D8300A0022CCD7F02021DFDC082C08374F1120C
:102D93001D4690F2BAC0827408121D91AC82AD83B5
:102DA3007583F2D0827407121CB990F2C1C0828578
:102DB3001482851583AC82AD837583F2D082740847
:102DC300121CB97917122AED79011226E243D68132
:102DD300E5D67408121D91E583851482851583F069
:102DE3007408121D91C0827401121D91D0E0F08508
:102DF3001583E583F5D5851482E582F5D475D6016F
:102E030075A80075B800759A0090F2B87402121E86
:102E13004A790112321A7402121D5C90F2B87402DC
:102E2300121E4A7AE67B2B12306D7402121D5C90DF
:102E3300F2B87402121E4A12312B7402121D5C1274
:102E430034A8E5A5FAE5A56A60FB43C70275BE078A
:102E5300000000740355BE600875D7010043870165
:102E63000053C7FD43D681E5D6740F121D5CD08392
:102E7300D08222C082C083E522121EA90006C69F0B
:102E83002EC7952ECB9A2ED7AE2ED9A42EDBA92EE4
:102E9300B32E123660801C12282E801712613F80D9
:102EA30012123816800D1247E580081226BC8003E3
:102EB300753504022F8CC082C083E522121EA9003F
:102EC3000CC5F42EC8EA2EC9FE2ECAEF2ECF192F39
:102ED300D0382FD13D2FD2422FD5262FD6332FD8FE
:102EE300142FDAF92E472F123581805B12272180A8
:102EF3005612615680511236F1804CE5357048798F
:102F030000121A9990F2D7E06404703B12304380A8
:102F1300361236E98031E535702DA823E8F9121A07
:102F23007F8024E5357020A823E8F9121A858017DD
:102F330012267880121261D3800D1261F480081278
:102F430061BF80037535048040A208500FA825E8AF
:102F5300700A7421652270041269CD22753504222A
:102F6300C082C083A208501EA825E87019E522126A
:102F73001E732002892F842F892F7F2F126A2480AA
:102F8300081269E48003753504D083D08222753535
:102F9300042275350422C082C083E9121E7301091D
:102FA300B92FB92FB92FB92FB92FB92FB92FB92FDE
:102FB300B92FB92FB92F80D12253F1FD43F101432A
:102FC300F32043F31043F308E5C6FA43FB8075F897
:102FD3000074075A240F4420F5FC75FA532253F367
:102FE300DF53FDDF438F2053F3EF53FDEF438F1088
:102FF30053F3F753FDF7438F0853F3FB53FDFB43A1
:103003008F042253F4FB53FEFB53F6FB53F7BF53DA
:10301300F4F753FEF753F6F753F7BF53F4EF53FEAA
:10302300EF53F6EF53F7BF53F4DF53FEDF53F6DFEF
:1030330053F7BF22C2817A0A7B001234ECD2812279
:1030430053F47FC29743FE8053F4FDC29143FE02C3
:103053002253F47F53FE7F53F67F53F7BF53F4FDA0
:1030630053FEFD53F6FD53F7BF2274F7121D9D74F3
:103073000A121D91E0FE7508017509007808121DFA
:1030830033AF08A2AF92E0F8C2AF7409121D91E00A
:10309300121E7300010E319E30E530EEC333FCE4A3
:1030A30033FDEC2450F582ED34F2F583EAF0A3EB23
:1030B300F0EA7001EB602190F270E04FF0740912B6
:1030C3001D91E0121E7300011F31D1301731EFF44F
:1030D3005589F589C2C58044EFF4FA90F270E05A3D
:1030E30080DAEEC333FCE433FDEC2460F582ED3487
:1030F300F2F583EAF0A3EBF0EA7001EB600590F2DE
:103103007180B7EFF4FA90F27180D3E8A2E092AF46
:1031130079FF800FEFF4558AF58AC2EBE8A2E092BB
:10312300AF79007F02021DFD74F7121D9D74091211
:103133001D91E0121E730001763141315A31D2BD27
:10314300740A121D91E0C394045007438C0879005C
:1031530080D1438C1080F7439A10750801750900DC
:10316300740A121D91E07808121D33E508458DF5A8
:103173008D80DB79FF80D974F7121D9D7409121DB0
:1031830091E0121E730001C1319031A731740A120C
:103193001D91E0C394045007538CF7790080845346
:1031A3008CEF80F7750801750900740A121D91E010
:1031B3007808121D33E508F4558DF58D80DD79FF10
:1031C30080DB74F7121D9D7409121D91E0121E73AA
:1031D30000011632DB31FA31750801750900740AF2
:1031E300121D91E07808121D33E508F45589F5891D
:1031F300C2C57900023126750801750900740A12E7
:103203001D91E07808121D33E508F4558AF58AC24A
:10321300EB80DF79FF80DDC082C083E9121E73007B
:103223000167322A324B32851482851583E0121EE0
:1032330073000167323C324632438C017900D083FC
:10324300D08222438C0280F4851482851583E01298
:103253001E73000167325D326232538CFE80DD5390
:103263008CFD80D879FF80D6C0E0C0D0E8C0E0E90B
:10327300C0E0EAC0E0EBC0E0ECC0E0EDC0E0EEC0CF
:10328300E0C082C083C0F090F270E0FEE589700375
:10329300023376E589A2E05016EEA2E0500E90F2DA
:1032A30050E0F8A3E0F5838882121D9B7589FEE543
:1032B30089A2E15016EEA2E1500E90F252E0F8A37B
:1032C300E0F5838882121D9B7589FDE589A2E25092
:1032D30016EEA2E2500E90F254E0F8A3E0F58388D4
:1032E30082121D9B7589FBE589A2E35016EEA2E3CA
:1032F300500E90F256E0F8A3E0F5838882121D9BEE
:103303007589F7E589A2E45016EEA2E4500E90F217
:1033130058E0F8A3E0F5838882121D9B7589EFE5D9
:1033230089A2E55016EEA2E5500E90F25AE0F8A3FA
:10333300E0F5838882121D9B7589DFE589A2E6503B
:1033430016EEA2E6500E90F25CE0F8A3E0F5838857
:1033530082121D9B7589BFE589A2E75016EEA2E78D
:10336300500E90F25EE0F8A3E0F5838882121D9B75
:1033730075897FC2C5D0F0D083D082D0E0FED0E083
:10338300FDD0E0FCD0E0FBD0E0FAD0E0F9D0E0F8EB
:10339300D0D0D0E032C0E0C0D0E8C0E0E9C0E0EA7D
:1033A300C0E0EBC0E0ECC0E0EDC0E0EEC0E0C08206
:1033B300C083C0F090F271E0FEE58A70030234A38B
:1033C300E58AA2E05016EEA2E0500E90F260E0F81B
:1033D300A3E0F5838882121D9B758AFEE58AA2E12C
:1033E3005016EEA2E1500E90F262E0F8A3E0F583EE
:1033F3008882121D9B758AFDE58AA2E25016EEA211
:10340300E2500E90F264E0F8A3E0F5838882121D87
:103413009B758AFBE58AA2E35016EEA2E3500E9059
:10342300F266E0F8A3E0F5838882121D9B758AF7A4
:10343300E58AA2E45016EEA2E4500E90F268E0F89A
:10344300A3E0F5838882121D9B758AEFE58AA2E5C6
:103453005016EEA2E5500E90F26AE0F8A3E0F58371
:103463008882121D9B758ADFE58AA2E65016EEA2BA
:10347300E6500E90F26CE0F8A3E0F5838882121D0B
:103483009B758ABFE58AA2E75016EEA2E7500E901D
:10349300F26EE0F8A3E0F5838882121D9B758A7FA4
:1034A300C2EB023378D2AF22C2AF22E5A8C2AFA2E9
:1034B300E7E492E0FA7B0022EAA2E092AF227900ED
:1034C3001226E222EBC313FBEA13FAC3EA9402EBDC
:1034D3009400401400000000000000000000EA24F3
:1034E300FFFAEB34FFFB80E32274F8121D9DEAFE22
:1034F300EBFFEE7001EF60157AE87B031234C7EE41
:1035030024FF1EEF34FFFFEE7001EF70EB7F01022B
:103513001DFDC082C083E5A8FCC2AF90F272EAF041
:10352300A3EBF0ECA2E792AFD083D08222C0E0C03D
:10353300D0E8C0E0E9C0E0EAC0E0EBC0E0ECC0E006
:10354300EDC0E0C082C083C0F090F272E07002A3CD
:10355300E0600E90F272E0F8A3E0F5838882121D1A
:103563009BD0F0D083D082D0E0FDD0E0FCD0E0FB54
:10357300D0E0FAD0E0F9D0E0F8D0D0D0E03274F85F
:10358300121D9DA825E8121EA9000200963504CD40
:1035930035DC35E535FA7017752974752AF2752B04
:1035A30000752C08752D007535027F01021DFD7411
:1035B300026A70F690F278E0A2E050EE90F274E0C6
:1035C3006004C2A480E4D2A480E0E535FA700F74ED
:1035D3000865277002E52860BF75350480CC740246
:1035E3006A70C790F278E0FBF4FCE5805CC0E09081
:1035F300F274E05BFAD0E04AF58090F279E0FDF4F2
:10360300FEE5905EC0E090F275E05DFAD0E04AF529
:103613009090F27AE0FFF455A0C0E090F276E05F7C
:10362300FAD0E04AF5A0EC55F3F5F3EB45FDF5FDD3
:10363300EE55F4F5F4ED45FEF5FE741F5FFBA2E0D5
:10364300E492E0C0E074185B1313543FFAD0E04AED
:10365300F455F5F5F5EB45FFF5FF0235ADC082C036
:1036630083A825E8121E730301E136723686367588
:103673002900752A00752B00752C00752D007535F2
:1036830001805E79217A007B0189298A2A8B2B7537
:103693002C048A2DE580121C78E590C0E0A929AAA4
:1036A3002AAB2BE9240109EA3400FAD0E0121C7892
:1036B300E5A0C0E0A929AA2AAB2BE924020909EA5B
:1036C3003400FAD0E0121C78A929AA2AAB2BE924EA
:1036D30003090909EA3400FAE4121C7880A075355D
:1036E30004D083D08222E53570031230372274F779
:1036F300121D9DE535FA7036E5257002E526601545
:10370300AC27AD28ECF8EDF97A057B00121CDAEA58
:103713007001EB6006753504023811752950752A5E
:10372300F1752B008C2C8D2D753502023811740226
:103733006A60030238117A00A825E8A2E050599084
:10374300F150E0FAF4FD90F152E05AFEFBF45AFC1A
:1037530090F151E05AC0E0E5F35DFAD0E04AF5F3A9
:10376300E5FD5D4EF5FD90F154E0FEEB5EC0E0E556
:10377300805DFAD0E04AF58090F153E05CC0E0E56B
:103783008F5DFAD0E04AF58FEC600BEE600543F7EE
:1037930020800353F7DF7A01A825E85402606FEA1B
:1037A30075F005A42450F8E5F034F1F98882898393
:1037B300E0FAF4FDA3A3E05AFEFBF45AFC888289E5
:1037C30083A3E05AC0E0E5F45DFAD0E04AF5F4E5FE
:1037D300FE5D4EF5FE88828983A3A3A3A3E0FEEBDF
:1037E3005EC0E0E5905DFAD0E04AF5908882898377
:1037F300A3A3A3E05CC0E0E5F65DFAD0E04AF5F6EA
:10380300EC600BEE600543F740800353F7BF7F0284
:10381300021DFD74F5121D9DA825A926E87001E976
:1038230070067535040238D1750A00752950752A5A
:10383300F1752B00E8A2E0502BE5FDFBF4FAE5F36C
:1038430090F150F0E5FD90F151F0E58F5A90F1526F
:10385300F0E5805B90F153F0E5F7A2E55003E04A11
:10386300F0750A01E85402604AE5FEFBF4FA850AA2
:103873000875090074027808121D33E5082450F80E
:10388300E50934F1F9E5F488828983F0E5FEA3F0D4
:10389300E5F65A88828983A3A3F0E82403F582E935
:1038A3003400F583E5905BF0E5F7A2E65003E04AC8
:1038B300F0050A7401250AF508E43400F5097402D9
:1038C3007808121D3385082C85092D7535017F0471
:1038D300021DFD74F7121D9D53F3FBD28243FD04B9
:1038E300122FBC74E055FC4412F5FC75FA007C8081
:1038F3007D077AF17BF57971126CDC126D02786FBA
:1039030076920876F2740790F299F0740190F27E41
:10391300F0E490F282F090F281F090F284F090F271
:1039230085F090F286F0740490F28FF090F2907428
:1039330028F0A374DEF090F2D37402121E4A1231FF
:103943007A7402121D5C53F4FD53FEFD43F602909C
:10395300F2D37402121E4A790012321A7402121D33
:103963005C8551088552097808121F08050000116B
:103973000211B83A07110911B83A20112111AF39D0
:1039830025112611AF3900120312AF390700501168
:10399300B83A7511AF393012AF395012AF3900252B
:1039A300B83A2025A83B5025B83A993C747890F250
:1039B30083F090F27F74FFF0A3E4F090F28B74E64F
:1039C300F0A37452F090F28974D9F0A37453F09079
:1039D300F287741EF0A37450F0C3E552941290F270
:1039E3008D4008746DF0A37458800674FDF0A374C1
:1039F3004EF0C282742065517004742565526011C3
:103A03007EC8A285500B7A057B001234C71EEE7068
:103A1300F1C2F975F936A2F950FCE5F9D282C282F6
:103A23007420655170047425655260117EC8A285A7
:103A3300500B7A057B001234C71EEE70F1C2F97584
:103A4300F93BA2F950FCE5F9D282C2827420655198
:103A530070047425655260117EC8A285500B7A05E7
:103A63007B001234C71EEE70F1C2F975F93AA2F960
:103A730050FCE5F9D282C28274206551700474252A
:103A8300655260117EC8A285500B7A057B00123403
:103A9300C71EEE70F1C2F975F93DA2F950FCE5F9C4
:103AA300FAD28274F05A70CE740690F27CF090F2DF
:103AB3007DF00240BB740C90F283F090F27F74FFB0
:103AC300F0A3E4F090F28D74EAF0A37448F090F25E
:103AD3008B745BF0A3744CF090F289743FF0A37481
:103AE3004DF090F28774BEF0A37449F0C282742043
:103AF300655170047425655260117EC8A285500B10
:103B03007A057B001234C71EEE70F1C2F975F936DF
:103B1300A2F950FCE5F9D282C28274206551700487
:103B23007425655260117EC8A285500B7A057B000F
:103B33001234C71EEE70F1C2F975F93BA2F950FCBD
:103B4300E5F9D282C28274206551700474256552EE
:103B530060117EC8A285500B7A057B001234C71E04
:103B6300EE70F1C2F975F93AA2F950FCE5F9D28287
:103B7300C2827420655170047425655260117EC839
:103B8300A285500B7A057B001234C71EEE70F1C27A
:103B9300F975F93DA2F950FCE5F9FAD28274F05AAD
:103BA30070CE023AABE490F283F090F27F747FF030
:103BB300A3E4F090F28D746AF0A3745DF090F28B3D
:103BC3007458F0A37460F090F28974E6F0A3746003
:103BD300F090F2877454F0A3745EF0C2827420658F
:103BE3005170047425655260117EC8A285500B7A0A
:103BF300057B001234C71EEE70F1C2F975F945A2B8
:103C0300F950FCE5F9D282C28274206551700474C4
:103C130025655260117EC8A285500B7A057B001280
:103C230034C71EEE70F1C2F975F948A2F950FCE5EC
:103C3300F9D282C282742065517004742565526082
:103C4300117EC8A285500B7A057B001234C71EEE85
:103C530070F1C2F975F947A2F950FCE5F9D282C2B5
:103C6300827420655170047425655260117EC8A268
:103C730085500B7A057B001234C71EEE70F1C2F932
:103C830075F900A2F950FCE5F9FAD28274835A64FB
:103C93008070CC023AAB124266E4023AB174F71276
:103CA3001D9D74FB121D4690F27CE0121E730104ED
:103CB300613D593D5E3D543DBF3C4F3D90F284E034
:103CC3007003023D4A1234AE8A088B097971126D72
:103CD30048C3EA9405EB94004061851482851583FB
:103CE300AC82AD837583F27582CC7405121CB990D6
:103CF300F284E0C0E07403121D91D0E0F090F284EE
:103D0300E0C0E07404121D91D0E0F090F286E0A2CE
:103D1300E250157411851482851583F07401121D08
:103D2300917402F07C0580027C047D0085148285F9
:103D33001583AA82AB837971126D75E490F284F0D6
:103D4300AA08AB091234BB123D668012124580806B
:103D53000D1242668008123DE480031240C07405D0
:103D63000240B874F3121D9D90DE0EE0F50A90F246
:103D73008FE090DE0EF090DE11E0A2E040581234A6
:103D8300AE8A088B097971126D638A0C8B0DAE0CA8
:103D9300AF0DAA08AB091234BBEE7001EF6029C363
:103DA300EE9440EF940040087E407F007401800150
:103DB300E490F29AF0EEFCEFFD90F290E0FAA3E0CB
:103DC300FB797112711B800890F29AE06008E4F0AD
:103DD300740190DE11F0E50A90DE0EF07F06021DFD
:103DE300FD74F7121D9D1266AB797112720090F289
:103DF3009274E8F0A374F4F090F299E090F294F0E6
:103E0300A3E4F090F296F0A3F090F298F0FB90F216
:103E130099E0F874012808E43400F9E89401E9947E
:103E230000402AEBF890F292E028FAA3E034008AEB
:103E330082F583E4F00B90F299E0F874012808E42A
:103E43003400F9EB98E499C365D03340D6126D0280
:103E530012662690F28DE0F8A3E0F5838882121DA6
:103E63009B8551088552097808121F080500001127
:103E73000211A33E07110811A33E20112111A33EF5
:103E830025112611A33E00120312A33E040075114F
:103E9300A33E3012A33E0025A33E2025F63EF63E68
:103EA30090F2D57402121E4A12317A7402121D5C0A
:103EB30053F47F53FE7F43F68090F2D57402121EB3
:103EC3004A1231C57402121D5C90F2D57402121E9F
:103ED3004A90F287E0FAA3E0FB12306D7402121DE0
:103EE3005CC2EB90F2D57402121E4A12312B74029B
:103EF300121D5C90F2D17402121E4A90F287E0FA0E
:103F0300A3E0FB12306D7402121D5C90F2D17402B7
:103F1300121E4A1231C57402121D5C90F2D1740252
:103F2300121E4A12312B7402121D5C740490F27C2F
:103F3300F0740190F27DF01266D88551088552091C
:103F43007808121F08050000110211084007110824
:103F530011084020112111803F25112611803F00B7
:103F6300120312803F05007511803F3012803F50CD
:103F730012803F0025084020255E40B640C282746F
:103F830020655170047425655260117EC8A2855066
:103F93000B7A057B001234C71EEE70F1C2F975F976
:103FA3003AA2F950FCE5F9D28290F286E0A2E0C28F
:103FB3008274206551502770047425655260117E08
:103FC300C8A285500B7A057B001234C71EEE70F130
:103FD300C2F975F938A2F950030240B280F77004B0
:103FE3007425655260117EC8A285500B7A057B004B
:103FF3001234C71EEE70F1C2F975F934A2F95003F9
:104003000240B280F7C28274206551700474256542
:104013005260117EC8A285500B7A057B001234C70B
:104023001EEE70F1C2F975F93AA2F950FCE5F9D226
:1040330082C2827420655170047425655260117EBA
:10404300C8A285500B7A057B001234C71EEE70F1AF
:10405300C2F975F934A2F9405680FAC28274206518
:104063005170047425655260117EC8A285500B7A85
:10407300057B001234C71EEE70F1C2F975F947A231
:10408300F950FCE5F9D282C2827420655170047440
:1040930025655260117EC8A285500B7A057B0012FC
:1040A30034C71EEE70F1C2F975F942A2F950FCE56E
:1040B300F9D2828003121D5C7F02021DFD74F71288
:1040C3001D9D797112720090F29274E8F0A374F45A
:1040D300F090F299E090F294F0A3E4F090F296F06D
:1040E300A3F090F298F0FB90F299E0F8740128089D
:1040F300E43400F9E89401E99400402AEBF890F2E3
:1041030092E028FAA3E034008A82F583E4F00B906E
:10411300F299E0F874012808E43400F9EB98E49983
:10412300C365D03340D690F291E090F138F090F22D
:1041330090E090F139F08551088552097808121FF3
:1041430008040000110211D84120112111824125D8
:10415300112611824100120312824108000711D86F
:10416300410911D8415011D8417511824150128231
:10417300410025D841202502425025D8412E42C274
:10418300827420655170047425655260117EC8A243
:1041930085500B7A057B001234C71EEE70F1C2F90D
:1041A30075F93BA2F950FCE5F9D282C2827420650D
:1041B3005170047425655260117EC8A285500B7A34
:1041C300057B001234C71EEE70F1C2F975F93AA2ED
:1041D300F9405480FAC282742065517004742565D5
:1041E3005260117EC8A285500B7A057B001234C73A
:1041F3001EEE70F1C2F975F93BA2F9402A80FAC2AA
:10420300827420655170047425655260117EC8A2C2
:1042130085500B7A057B001234C71EEE70F1C2F98C
:1042230075F948A2F950FCE5F9D28290F28DE0F8D5
:10423300A3E0F5838882121D9B90F2D17402121EB3
:104243004A90F289E0FAA3E0FB12306D7402121D6A
:104253005CC2EB740590F27CF0740290F27DF0FF87
:10426300021DFD74F7121D9D74FF121D467F03E4AA
:10427300851482851583F090F27DE06402702C80B2
:10428300077A087B001234EC786F8682088683A352
:10429300A3A3A3A3A3E06013851482851583E0FA87
:1042A30074012AF074FF6A70D87F0790F2D1740208
:1042B300121E4A12317A7402121D5C90F2D17402FA
:1042C300121E4A7A007B0012306D7402121D5C7458
:1042D3000190F2D1F090F2D2F090F2D57402121E56
:1042E3004A12317A7402121D5C90F2D57402121EC6
:1042F3004A7A007B0012306D7402121D5C855108EE
:104303008552097808121F080500001102110444A0
:10431300071109110444201121114B4325112611C2
:104323004B43001203124B43070050110444751111
:104333004B4330124B4350124B430025044420257A
:10434300BC44502504441C45C2827420655170044A
:104353007425655260117EC8A285500B7A057B00D7
:104363001234C71EEE70F1C2F975F936A2F950FC8A
:10437300E5F9D282C28274206551700474256552B6
:1043830060117EC8A285500B7A057B001234C71ECC
:10439300EE70F1C2F975F93AA2F950FCE5F9D2824F
:1043A300C2827420655170047425655260117EC801
:1043B300A285500B7A057B001234C71EEE70F1C242
:1043C300F975F93BA2F950FCE5F9D282C282742057
:1043D300655170047425655260117EC8A285500B27
:1043E3007A057B001234C71EEE70F1C2F975F93DF0
:1043F300A2F950FCE5F9FAD28274F05A70CE024564
:104403001CC2827420655170047425655260117E4C
:10441300C8A285500B7A057B001234C71EEE70F1DB
:10442300C2F975F936A2F950FCE5F9D282C2827459
:1044330020655170047425655260117EC8A28550B1
:104443000B7A057B001234C71EEE70F1C2F975F9C1
:104453003DA2F950FCE5F9FAD28274F05A70CEC24B
:10446300827420655170047425655260117EC8A260
:1044730085500B7A057B001234C71EEE70F1C2F92A
:1044830075F93AA2F950FCE5F9D282C2827420652B
:104493005170047425655260117EC8A285500B7A51
:1044A300057B001234C71EEE70F1C2F975F93BA209
:1044B300F950FCE5F9D2828060C2827420655170A4
:1044C300047425655260117EC8A285500B7A057B62
:1044D300001234C71EEE70F1C2F975F945A2F95006
:1044E300FCE5F9D282C2827420655170047425659B
:1044F3005260117EC8A285500B7A057B001234C727
:104503001EEE70F1C2F975F900A2F950FCE5F9FA53
:10451300D28274835A648070CC539AEF1266C79028
:10452300F27DE06401704690DE0EE0FB90F28FE0D6
:1045330090DE0EF0740890DE11F090DE11E0A2E33D
:10454300500C90DE0EE0FA90F28FE06A60EC740893
:1045530090DE11F090DE11E0A2E3500C90DE0EE04D
:10456300FA90F28FE06A60ECEB90DE0EF074069046
:10457300F27CF0EF90F27DF074010240B874F71210
:104583001D9D90DE0EE0FE90F28FE090DE0EF05364
:104593009AFD786F8682088683A3A3A3A3A3A3E0CF
:1045A30060030246FB90DE14E0A2E040030246FBF8
:1045B30090DE16E0FC90F294E0FAA3E0FB1886820A
:1045C300088683E02AA3E03B90F13AF0188682083C
:1045D3008683E02A90F13BF0EC90F13DF075D60430
:1045E30075D7048C82AA82188682088683A3A3A324
:1045F300A3E02AF0A3E03400F0188682088683A3A0
:10460300A3E02AF0A3E03400F0E5D6A2E240FA905A
:10461300F282E0707090F299E0FA1886820886833D
:10462300E02AF8A3E03400F9E8FAE9FB8A828B83F5
:10463300E0F890F27FF0A3E4F090F286E0A2E2507B
:104643003EE8FDA2E7500890F27FE4F0A3802F8AB2
:10465300828B83A3E0FA8D0874075508F8E4C8F940
:10466300EA90F27FF0A3E9F0EDA2E4500408088099
:1046730002780490F27FC3E098F0A3E09400F07412
:104683000190F282F0E490DE14F0786F868208865F
:1046930083A3A3A3A3C082C08390F27EE0F890F229
:1046A3007FE028F8A3E03400F990F281E0FA339533
:1046B300E0FBEA28F8EB39F9D083D082E068700395
:1046C300A3E069703390F299E0786F86820886835D
:1046D300A3A3F0A3E4F07401188682088683A3A33E
:1046E300A3A3A3A3F0EE90DE0EF090F28BE0F8A369
:1046F300E0F5838882121D9BEE90DE0EF0439A0252
:104703000240BBC082C08312426675A90075B9001E
:10471300122FE153F3FB53FDFB438F04E490F27C30
:10472300F0D083D0822274F7121D9D74FD121D46B2
:10473300EAFEEBFF7971126D488A088B0974FD2537
:1047430008F874FF3509F9C3E89EE99F504790F2D2
:1047530085E0705B90F2C9C082851482851583ACB5
:1047630082AD837583F2D0827403121CB990F286F2
:10477300E0A2E250097413851482851583F07C034B
:104783007D00851482851583AA82AB837971126DAE
:104793007574018016EEFCEFFD786F8682088683C0
:1047A300E0FAA3E0FB7971126E31E490F285F090A8
:1047B300F27EE0700474018001E490F282F0786F7D
:1047C3008682088683A3A3A3A3E4F0A3F090F299BF
:1047D300E0188682088683A3A3F0A3E4F07403029F
:1047E30040B8C082C083752C00752D00A825E8123F
:1047F3001E7300033A480148154826483348752C70
:1048030001752D0075297D752AF2752B007535010B
:104813008028740190F27CF0A823E8540B90F28670
:10482300F080EA740290F27CF0A823E8540A80ED49
:10483300740390F27C80E9753504024724C082C07A
:1048430083E990F28402472374F8121D9DE9FFC2A5
:10485300827420655170047425655260117EC8A26C
:1048630085500B7A057B001234C71EEE70F1C2F936
:104873008FF9A2F950FCE5F9F9D2827F01021DFDFF
:1048830074F7121D9D90F29274E8F0A374F4F09003
:10489300F299E090F294F0A3E4F090F296F0A3F092
:1048A30090F298F0FB90F299E0F874012808E43450
:1048B30000F9E89401E99400402AEBF890F292E0C1
:1048C30028FAA3E034008A82F583E4F00B90F2998E
:1048D300E0F874012808E43400F9EB98E499C3651F
:1048E300D03340D60240BBC082C08374FF121D4642
:1048F3007C017D00851482851583AA82AB83798828
:10490300124E76E054036401700474018001E49054
:10491300F27EF07012740190F282F0FC7D007A7FD7
:104923007BF27986124E767C017D00851482851593
:1049330083AA82AB837983124E76E054F07583F2B7
:10494300758283FAE04A851482851583F07C017DA4
:1049530000AA82AB837903124E7690F27CE0640165
:10496300704F7C017D00851482851583AA82AB83F9
:104973007987124E76E0A2E25004D2F08002C2F0B0
:10498300A2F0E492E0C33390F281F07406851482BE
:10499300851583F07C017D00AA82AB837900124EDA
:1049A300767440F07C017D00AA82AB837902124EBB
:1049B300767401121D5CD083D0822274F7121D9D80
:1049C30074FF121D4690F2D37402121E4A1231C5AF
:1049D3007402121D5C90F2D57402121E4A1231C584
:1049E3007402121D5C786F8682088683A3A3A3A337
:1049F300E07002A3E070211234AE8A088B09786F4D
:104A03008682088683E02403FAA3E03400FB12665F
:104A1300FDAA08AB091234BB7C017D008514828595
:104A23001583AA82AB8379BB124E76E9FEE070034D
:104A3300024AD890F282E0707E786FE62402FA0888
:104A4300E63400FB8A828B83E0F508A3E0F5097462
:104A5300012508F8E43509F98A828B83E8F0A3E994
:104A6300F07C017D00786F8682088683E02508FA52
:104A7300A3E03509FB79FF124E76786F86820886AC
:104A830083A3A3A3A37401F0A3E4F018868208868A
:104A930083E0F8A3E0F5838882A3A3A3A3A3A3A33E
:104AA300E090F27FF0A3E4F0740190F282F08514B9
:104AB30082851583E014F074F05E6460601790F2F1
:104AC3007FE0F8A3E0F9851482851583E0706BE835
:104AD3007001E96065793612484B90F27EE0F4FA92
:104AE30090F282E05AF0786F8682088683A3A3A3AC
:104AF300A3E4F0A3F0188682088683A3A37407F0C7
:104B0300A3E4F090F2D37402121E4A1231C5740268
:104B1300121D5C90F2D57402121E4A1231C5740242
:104B2300121D5C793A12484B793D12484BE954F017
:104B330070F6793412484B024C5190F27EE028F81B
:104B4300E439F990F281E0FA3395E0FBEA28FEEBD1
:104B530039FF786F8682088683A3A3A3A3E0F8A313
:104B6300E0F9851482851583E0FCEEC398FAEF998A
:104B7300FBC3EC9AE49B5003E08003EEC398F50873
:104B8300E5D6A2E340FAC2827509C8A285500D7A20
:104B9300057B001234C71509E50970EFC2F975F9F1
:104BA300FFA2F950FCA908786F8682088683A3A325
:104BB300E0FAA3E0FB188682088683E02AFAA3E0E2
:104BC3003BFB126683D282786FE62404FA08E6344C
:104BD30000FB850882AC828A828B83E02CF0A3E001
:104BE3003400F0188682088683A3A3E02CF0A3E0A8
:104BF3003400F08A828B83E06E7003A3E06F704E03
:104C0300793412484B74042EFAE43FFB786F8682A2
:104C1300088683E0F8A3E0F5838882E4F0786F8662
:104C230082088683E0F8A3E0F5838882A3EAF0781C
:104C33006F8682088683E0F8A3E0F5838882A3A3C6
:104C4300EBF074032A0A0A0AE43BFB1247297401B6
:104C5300121D5C7F02021DFDC082C08374FF121D02
:104C630046786F8682088683A3A3A3A3C3E09441F7
:104C7300A3E0940040557402851482851583F07C6B
:104C8300017D00AA82AB837900124E767C407D00C1
:104C9300786F8682088683E02407FAA3E03400FB5A
:104CA300797F124E76786F8682088683A3A3A3A3A7
:104CB300E024C0F0A3E034FFF0188682088683A3C3
:104CC300A3E02440F0A3E0340080487406851482F6
:104CD300851583F07C017D00AA82AB837900124E97
:104CE30076786F8682088683A3A3A3A3E0FCA3E060
:104CF300FD188682088683E02407FAA3E03400FBCC
:104D0300797F124E76786F8682088683A3A3A3A346
:104D1300E4F0A3F090F2D37402121E4A1231C57468
:104D230002121D5C90F2D37402121E4A12312B74CC
:104D330002121D5C793512484B0249B474F8121DF6
:104D43009D74FF121D46786F8682088683A3A3A3F2
:104D5300A3E0FA704A90F2D37402121E4A12317A17
:104D63007402121D5C793612484B786F868208866E
:104D730083A3A37407F0A3E4F0188682088683A3B1
:104D8300A3A3A3A3A3F090F27EE0F4FA90F282E04F
:104D93005AF0793D12484BE954F070F6024E6C908C
:104DA300F283E0333354FCFEC39A505990F2D37428
:104DB30002121E4A1231C57402121D5CEEFC7D0004
:104DC300786F8682088683A3A3E0FAA3E0FB1886A4
:104DD30082088683E02AFAA3E03BFB797F124E76B2
:104DE300786F8682088683A3A3E02EF0A3E03400C5
:104DF300F0188682088683A3A3A3A3C3E09EF0A32F
:104E0300E0940080637406851482851583F07C0129
:104E13007D00AA82AB837900124E7690F2D374029E
:104E2300121E4A1231C57402121D5C786F86820805
:104E33008683A3A3A3A3E0FCA3E0FD1886820886D0
:104E430083A3A3E0FAA3E0FB188682088683E02A03
:104E5300FAA3E03BFB797F124E76786F8682088651
:104E630083A3A3A3A3E4F0A3F07401121D5C7F0149
:104E7300021DFD74F7121D9D89088A828B83ECFE47
:104E8300EDFFC2827509C8A285500D7A057B001219
:104E930034C71509E50970EFC2F974404508F5F9FF
:104EA300A2F950FCE5F9F9E508A2E7EE50267001F6
:104EB300EF6042EEFAEFFBC2F975F900A2F950FC7C
:104EC300E5F9F0A3EA24FF1AEB34FFFBEA7001EBE8
:104ED300602380E37001EF601CEEFAEFFBC2F9E0A0
:104EE300F5F9A2F950FCA3EA24FF1AEB34FFFBEA1D
:104EF3007001EB70E8D282024C5674F7121D9D7458
:104F0300FD121D467C017D00851482851583AA82CE
:104F1300AB8379A812552EE05460642070047401A9
:104F23008001E490F27EF07026851482851583E07B
:104F3300541C600474018001E490F281F0740190C8
:104F4300F282F0FC7D007A7F7BF279AE12552E7CE3
:104F5300017D00851482851583AA82AB83799E1215
:104F6300552EE054807583F2758283FAE04A8514E6
:104F730082851583F07C017D00AA82AB83791E12A2
:104F8300552E90F27CE0640170487C017D0085140D
:104F930082851583AA82AB8379A712552EE0A2E0FE
:104FA300E492E0C333FA90F281E02AF074068514A8
:104FB30082851583F07C017D00AA82AB837901127F
:104FC300552E7440F07C017D00AA82AB83790312D5
:104FD300552E90F286E0A2E1403C75080275090067
:104FE3007808121E397403121D91AC82AD83798047
:104FF3007A8F7B2F1255B57402121D5CE0C3944067
:10500300400D7402121D91E06421700312568190C9
:10501300F286E0C2E1F0740302586574F7121D9D35
:1050230074FF121D4690F2D37402121E4A1231C548
:105033007402121D5C90F2D57402121E4A1231C51D
:105043007402121D5C786F8682088683A3A3A3A3D0
:10505300E07002A3E070211234AE8A088B09786FE6
:105063008682088683E02403FAA3E03400FB1266F9
:10507300FDAA08AB091234BB75080175090078084D
:10508300121E397402121D91AC82AD8379807AD7D6
:105093007B2F1255B57402121D5CE9FE851482E064
:1050A300700302513390F282E0707E786FE624023F
:1050B300FA08E63400FB8A828B83E0F508A3E0F567
:1050C3000974012508F8E43509F98A828B83E8F02D
:1050D300A3E9F07C017D00786F8682088683E02552
:1050E30008FAA3E03509FB79FF12552E786F868203
:1050F300088683A3A3A3A37401F0A3E4F018868214
:10510300088683E0F8A3E0F5838882A3A3A3A3A37F
:10511300A3A3E090F27FF0A3E4F0740190F282F095
:10512300851482851583E014F074F05E6460700F5B
:10513300793612484B90F27EE0705F7401805C9088
:10514300F27FE0F8A3E0F9851482851583E0700609
:10515300E87001E970DA90F27EE0FAE82AF8E934BF
:1051630000F990F281E0FA3395E0FBEA28FEEB398F
:10517300FF786F8682088683A3A3A3A3E0F8A3E046
:10518300F9851482851583E0FCEEC398FAEF99FB49
:10519300C3EC9AE49B5068E08068E490F282F07874
:1051A3006F8682088683A3A3A3A3E4F0A3F01886E3
:1051B30082088683A3A37407F0A3E4F0793A124824
:1051C3004B90F2D37402121E4A1231C57402121D9F
:1051D3005C90F2D57402121E4A1231C57402121D7C
:1051E3005C793D12484BE954F070F690F286E0A2E8
:1051F300E05008793812484B0252E1793480F6EED8
:10520300C398F508E5D6A2E340FAC2827509C8A29D
:1052130085500D7A057B001234C71509E50970EF37
:10522300C2F975F9FFA2F950FCA908786F868208C4
:105233008683A3A3E0FAA3E0FB188682088683E0B3
:105243002AFAA3E03BFB126683D282786FE624043A
:10525300FA08E63400FB850882AC828A828B83E0FD
:105263002CF0A3E03400F0188682088683A3A3E021
:105273002CF0A3E03400F08A828B83E06E7003A3EA
:10528300E06F705A90F286E0A2E050047938800211
:10529300793412484B74042EFAE43FFB786F86820C
:1052A300088683E0F8A3E0F5838882E4F0786F86CC
:1052B30082088683E0F8A3E0F5838882A3EAF07886
:1052C3006F8682088683E0F8A3E0F5838882A3A330
:1052D300EBF074032A0A0A0AE43BFB124729740120
:1052E300025865C082C08374FF121D46786F8682A0
:1052F300088683A3A3A3A3C3E09481A3E0940040FF
:10530300597402851482851583F07C017D00AA827D
:10531300AB83790112552E7C807D0090F299E0FADF
:10532300786F8682088683E02AFAA3E03400FB794B
:105333007F12552E786F8682088683A3A3A3A3E0EA
:105343002480F0A3E034FFF0188682088683A3A3A9
:10535300E02480F0A3E03400804C74068514828539
:105363001583F07C017D00AA82AB83790112552E4F
:10537300786F8682088683A3A3A3A3E0FCA3E0FD42
:1053830090F299E0FA188682088683E02AFAA3E06D
:105393003400FB797F12552E786F8682088683A3AB
:1053A300A3A3A3E4F0A3F090F2D37402121E4A1253
:1053B30031C57402121D5C90F2D37402121E4A129C
:1053C300312B7402121D5C793512484B7401121D86
:1053D3005CD083D0822274F8121D9D74FF121D4687
:1053E300786F8682088683A3A3A3A3E0F8A3E0F9DA
:1053F300E87001E9705E90F2D37402121E4A123112
:105403007A7402121D5C793612484B90F299E07857
:105413006F8682088683A3A3F0A3E4F0188682082C
:105423008683A3A3A3A3A3A3F090F27EE06004D298
:10543300F08002C2F0A2F0E492E0F4FA90F282E08B
:105443005AF0793A12484B793612484BE954F070C6
:10545300F102552490F283E004FA8A82AE82C39863
:10546300E499505990F2D37402121E4A1231C57452
:1054730002121D5CEEFC7D00786F8682088683A392
:10548300A3E0FAA3E0FB188682088683E02AFAA346
:10549300E03BFB797F12552E786F8682088683A3C3
:1054A300A3E02EF0A3E03400F0188682088683A3DD
:1054B300A3A3A3C3E09EF0A3E094008063740685D6
:1054C3001482851583F07C017D00AA82AB83790168
:1054D30012552E90F2D37402121E4A1231C5740271
:1054E300121D5C786F8682088683A3A3A3A3E0FCC6
:1054F300A3E0FD188682088683A3A3E0FAA3E0FB5A
:10550300188682088683E02AFAA3E03BFB797F12A0
:10551300552E786F8682088683A3A3A3A3E4F0A302
:10552300F07401121D5C7F01021DFD74F7121D9DB5
:1055330089088A828B83ECFEEDFFC2827509C8A2BB
:1055430085500D7A057B001234C71509E50970EF04
:10555300C2F974404508F5F9A2F950FCE5F9F9E5FB
:1055630008A2E7EE50267001EF6042EEFAEFFBC2AD
:10557300F975F900A2F950FCE5F9F0A3EA24FF1A42
:10558300EB34FFFBEA7001EB602380E37001EF6013
:105593001CEEFAEFFBC2F9E0F5F9A2F950FCA3EA1D
:1055A30024FF1AEB34FFFBEA7001EB70E8D28202AE
:1055B300586874F3121D9D890AECFEEDFF740D12F9
:1055C3001D91E0F508A3E0F509EBF50CEAF50DC232
:1055D30082750BC8A285500D7A057B001234C7155E
:1055E3000BE50B70EFE50CC2F9601AE50A450C44B4
:1055F30040F5F9A2F950FCE5F9F9C2F9850DF9A2D4
:10560300F9401180FAE50A450D4440F5F9A2F95035
:10561300FCE5F9F97480650A7031E5087002E50963
:105623006055AA08AB09C2F975F900A2F950FCE567
:10563300F98E828F83F0A3AE82AF83EA24FF1AEB45
:1056430034FFFBEA7001EB602E80DBE5087002E5B6
:10565300096024AA08AB09C2F98E828F83E0F5F9A9
:10566300A3AE82AF83A2F950FCEA24FF1AEB34FF06
:10567300FBEA7001EB70E0D2827F06021DFD74F736
:10568300121D9D74F9121D46E4851482851583F05D
:10569300750801F5097808121E397402121D91ACC0
:1056A30082AD8379007A257B2F1255B57402121DC2
:1056B3005C7808121E397404121D91AC82AD837993
:1056C300807A157B2F1255B57402121D5CE02402FB
:1056D300851482851583F07808121E397402121D11
:1056E30091AC82AD8379007A157B2F1255B5740284
:1056F300121D5C793312484B7808121E3974031259
:105703001D91AC82AD8379807A737B2F1255B5746A
:1057130002121D5CE0644170DF7808121E397406C2
:10572300121D91AC82AD8379807A257B2F1255B5FA
:105733007402121D5C7808121E397407121D91AC95
:1057430082AD8379807A237B2F1255B57402121DA3
:105753005C7808121E397408121D91AC82AD8379EE
:10576300807A187B2F1255B57402121D5CE48514E0
:1057730082851583F07808121E397402121D91ACCC
:1057830082AD8379007A257B2F1255B57402121DE1
:105793005C7402121D91E0851482851583F07808EC
:1057A300121E397402121D91AC82AD8379007A15F1
:1057B3007B2F1255B57402121D5C793312484B7856
:1057C30008121E397403121D91AC82AD8379807A5D
:1057D300737B2F1255B57402121D5CE0644170DFB8
:1057E3007808121E397405121D91AC82AD8379803D
:1057F3007A257B2F1255B57402121D5CE0C0E0744C
:1058030004121D91E0FAD0E0C39A50547808121E96
:10581300397406121D91AC82AD8379007A257B2FF2
:105823001255B57402121D5C7808121E39740712E2
:105833001D91AC82AD8379007A237B2F1255B57409
:1058430002121D5C7808121E397408121D91AC8275
:10585300AD8379007A187B2F1255B57402121D5C43
:105863007407121D5C7F02021DFDC082C08374FE9B
:10587300121D467C017D00EC121D91AA82AB837937
:105883009E12552E124EFD7C017D00AA82AB8379B8
:105893001E12552E7C017D00851482851583AA82F4
:1058A300AB8379A612552EE0A2E5502590F28774BA
:1058B30011F0A37459F0740290F27EF0E490F28236
:1058C300F090F286E0D2E2F0740890F299F0124878
:1058D300837C017D00851482851583AA82AB83793D
:1058E3009D12552EE054807583F2758283FAE04A47
:1058F300851482851583F07C017D00AA82AB8379B0
:105903001D12552E7402121D5CD083D0822274F7AF
:10591300121D9D74FD121D4690F2D37402121E4A8D
:105923001231C57402121D5C90F2D57402121E4A24
:105933001231C57402121D5C90F29BE07002A3E069
:1059430070361234AE8A088B09786F868208868394
:10595300E02403F8A3E03400F988828983AA82ABA8
:10596300831266FDAA82AB83126732E9A3A3A3A3C2
:10597300F0AA08AB091234BB750801750900780851
:10598300121E397402121D91AC82AD8379807AD7CD
:105993007B2F1255B57402121D5CE9FE851482E05B
:1059A3007003025AEB90F282E06003025ACF7C024A
:1059B3007D00786F8682088683E02408FAA3E034AA
:1059C30000FB79FF12552E786F8682088683E0F8F4
:1059D300A3E0F988828983A3A3A3A3A3A3A3A3E03A
:1059E300FB851482851583E064026071EBA2E740B6
:1059F3006C88828983A3A3A3A3A3A3A3A3A3E090F7
:105A0300F27FF0A3E4F074075B600F8B0874075513
:105A130008F990F27FE0F0A3E9F0EBA2E4500478F8
:105A2300028002780490F27FC3E098F0A3E0940030
:105A3300F0786F8682088683A3A3E02402F0A3E0B4
:105A43003400F0188682088683A3A3A3A37402F00C
:105A5300A3E4F090F29B7402F0A3E4805E74808868
:105A6300828983A3A3A3A3A3A3A3A3A3A3F0786F70
:105A73008682088683E0240BF8A3E03400F9888249
:105A830089837480F090F281E060047C0480027C5E
:105A930002786FE62404FA08E63400FB8A828B83DB
:105AA300ECF0A3E4F090F27FF0A3F08A828B83E022
:105AB300F8A3E0F990F29BE8F0A3E9F0740190F207
:105AC30082F0851482851583E024FEF074605E7095
:105AD3001790F27FE0F8A3E0F9851482851583E03F
:105AE3007075E87001E9606F793612484BE490F203
:105AF30082F0786F8682088683A3A3A3A3F0A3F022
:105B0300188682088683A3A37408F0A3E4F090F2B6
:105B13009BF0A3F0793A12484B90F2D37402121E11
:105B23004A1231C57402121D5C90F2D57402121E22
:105B33004A1231C57402121D5C793D12484BE95477
:105B4300F070F690F286E0A2E05008793812484BE4
:105B5300025D60793480F690F27EE0FAE82AF8E993
:105B63003400F990F281E0FA3395E0FBEA28F50876
:105B7300EB39F509851482851583E0F890F29BE0F3
:105B830028F8A3E03400F9C3E89508E9950950041F
:105B930074018001E4C0E07402121D91D0E0F0E0D2
:105BA3008514828515836003E0802BE0FA90F29BD5
:105BB300E0F8A3E0F9E508C398F8E50999F9C3EA21
:105BC30098E499500885148285158380DB90F29BB5
:105BD300E0F8E508C398C0E07401121D91D0E0F02D
:105BE300E5D6A2E340FAE07003025C70C2827EC88D
:105BF300A285500B7A057B001234C71EEE70F1C2EA
:105C0300F975F9FFA2F950FCE0F9786F86820886EE
:105C130083A3A3E0FAA3E0FB188682088683E02A25
:105C2300FAA3E03BFB126683D2827401121D91E05A
:105C3300FA786F8682088683A3A3A3A3E02AF0A33E
:105C4300E03400F07401121D91E0FA188682088690
:105C530083A3A3E02AF0A3E03400F07401121D91A2
:105C6300E0F890F29BE028F0A3E03400F0786F8630
:105C730082088683A3A3A3A3E0F8A3E0F97405280D
:105C8300FAE439FB74032AFEE43BFF7402121D910C
:105C9300E06053786F8682088683E0F8A3E0F5839B
:105CA30088827414F0786F8682088683E0F8A3E014
:105CB300F5838882A3EAF0786F8682088683E0F80A
:105CC300A3E0F5838882A3A3EBF00A0A0AEFFB1291
:105CD300472990F29BC3E09508A3E09509507E7491
:105CE3000190F2828076E508687003E50969600E29
:105CF30090F29BE065087004A3E06509705F90F281
:105D030086E0A2E0500479388002793412484B745B
:105D1300052508FAE43509FB786F8682088683E057
:105D2300F8A3E0F58388827410F0786F8682088682
:105D330083E0F8A3E0F5838882A3EAF0786F868294
:105D4300088683E0F8A3E0F5838882A3A3EBF0EE53
:105D5300FAEFFB12472990F29BE4F0A3F0740312CD
:105D63001D5C7F02021DFD74F8121D9D7E2390F2BF
:105D730086E0A2E350391E1E740190F2D1F074053F
:105D830090F2D2F090F2D17402121E4A12317A7458
:105D930002121D5C53F4DF53FEDF43F62090F2D171
:105DA3007402121E4A790012321A7402121D5CC266
:105DB30082C2F974C04EF5F9A2F950FCE5F9C2F9B3
:105DC30075F92AA2F950FCD282C282C2F975F9A6EA
:105DD300A2F950FCE5F9C2F975F900A2F950FCE506
:105DE300F9FAD28290F286E0A2E3500474028002B0
:105DF30074084AFAC282C2F975F9E6A2F950FCE5C1
:105E0300F9C2F98AF9A2F950FCD28290F27CE064DB
:105E1300017003E48032E064027031C282C2F9751A
:105E2300F98CA2F950FCE5F9C2F975F900A2F95011
:105E3300FCE5F9D282A2E65004D2F08002C2F0A2BD
:105E4300F0E492E0C333F40490F281F07F01021D89
:105E5300FD74F7121D9D74FF121D4690F2D174025A
:105E6300121E4A1231C57402121D5C1234AE8A0826
:105E73008B09786F8682088683E02403FAA3E034D3
:105E830000FB1266FDAA08AB091234BBC282C2F939
:105E930075F9BEA2F950FCE5F9C2F975F900A2F94A
:105EA30050FCE5F9851482851583F0D282E07003F6
:105EB300025F7E786FE62402FA08E63400FB8A82EA
:105EC3008B83E0FCA3E0FD74012CF8E43DF98A82A6
:105ED3008B83E8F0A3E9F0786F8682088683E02C51
:105EE300F8A3E03DF988828983C282C2F975F9304B
:105EF300A2F950FCE5F9C2F975F900A2F950FCE5E5
:105F0300F9F0D282786F8682088683A3A3A3A37451
:105F130001F0A3E4F0188682088683E0F8A3E0F595
:105F2300838882A3A3A3A3A3A3A3E0F890F27FF0A3
:105F3300A3E4F0851482851583E014F0E07006E88D
:105F43007001E47036C282C2F975F990A2F950FC6F
:105F5300E5F9C2F975F900A2F950FCE5F9D282A27C
:105F6300E65063C282C2F975F9D0A2F950FCE5F993
:105F7300C2F975F900A2F950FCD282794512484B57
:105F8300786F8682088683A3A3A3A3E4F0A3F01803
:105F93008682088683A3A37407F0A3E4F0794712EB
:105FA300484B90F2D17402121E4A1231C574021288
:105FB3001D5C790012484BE95483648070F4794284
:105FC30012484B02604EE5D6A2E340FAC282C2F900
:105FD30075F930A2F950FCE0F9786F868208868360
:105FE300A3A3E0FAA3E0FB188682088683E02AFADB
:105FF300A3E03BFB126683D282851482851583E07E
:10600300F8740528FAE43400FB786F8682088683E7
:10601300E0F8A3E0F5838882E4F0786F868208864F
:1060230083E0F8A3E0F5838882A3EAF0786F8682A1
:10603300088683E0F8A3E0F5838882A3A3EBF074DA
:10604300032A0A0A0AE43BFB1247297401121D5C66
:106053007F02021DFDC082C083786FE62404FA0824
:10606300E63400FB8A828B83E0FCA3E0FD18868282
:10607300088683E02407F8A3E03400F98882898343
:10608300C282C2F975F93AA2F950FCE5F9EC700144
:10609300ED601CECF8EDF9C2F9E0F5F9A2F950FC5A
:1060A300A3E824FF18E934FFF9E87001E970E8D2A6
:1060B300828A828B83E4F0A3F090F2D17402121EE1
:1060C3004A1231C57402121D5C90F2D17402121E81
:1060D3004A12312B7402121D5C794312484BD08350
:1060E300D08222C082C083786F8682088683A3A36E
:1060F300A3A3E07002A3E0704190F2D17402121ED8
:106103004A12317A7402121D5C794512484B786F3A
:106113008682088683A3A37407F0A3E4F01886821B
:10612300088683A3A3A3A3A3A3F090F282F079002C
:1061330012484BE95483648070F480A2E5357012F1
:106143007529D7752AF2752B00752C01752D0075ED
:10615300350122C082C083E5357014E5277002E55E
:106163002860057535048007A825E890F2D8F0D09B
:1061730083D08222EAFC7001EB700379FF2274055D
:106183006C700379062274756C601C74B05C6420B7
:10619300601574F05CFC600F74506C600A74306AB4
:1061A300700374126B700379012274106C600A74AB
:1061B300306C600574406C70C2790022C082C08369
:1061C30090F2D7E064057003126226D083D0822256
:1061D300C082C083740390F28FF090F2907426F023
:1061E300A374DEF090F2D7E0640570031262E380DB
:1061F300DAC082C08390F2D7E0640570031263446F
:10620300740490F28FF090F2907428F0A374DEF08F
:1062130080B9C082C083E490F2A0F01238D6D08354
:10622300D0822274F6121D9DE535FA701CA825E86C
:1062330090F29EF0752950752AF1752B0085272C55
:1062430085282D7535020262DE74026A60030262DC
:10625300DEA825E8121EA9000200D662046462DEED
:10626300627582507583F1A827E8FEA823E8C45419
:106273000F04F509E8540F04F50AEE702C805CC294
:10628300F9E0F5F9A3A2F950FCEF703DAF0AEFCEA8
:10629300C39EFEEF600E1FC2F9E0F5F9A3A2F95009
:1062A300FCEF70F2D282EE6032C2827508C8A2851A
:1062B300500D7A057B001234C71508E50870EFAF5F
:1062C30009EFCEC39EFEEF60C31FEF60B2E070AF75
:1062D300A380F690F150E090F2A0F07F03021DFD41
:1062E30074F7121D9D8551088552097808121F08FD
:1062F30005000011021131630711081131632011E8
:1063030021112763251126112763001203122C6321
:1063130004007511276330122C6300253163202597
:1063230036633963126351800D1264058008126469
:10633300B580031265B9740190F27CF07F02021DEF
:10634300FDC082C083740390F27CF002622174F872
:10635300121D9DC2827EC8A285500B7A057B001256
:1063630034C71EEE70F1C2F975F9A7A2F950FCC249
:10637300F975F900A2F950FCE5F9FAD28274C25A10
:106383004405FFC2827EC8A285500B7A057B0012AA
:1063930034C71EEE70F1C2F975F927A2F950FCC299
:1063A300F98FF9A2F950FCD282C2827EC8A285502D
:1063B3000B7A057B001234C71EEE70F1C2F975F932
:1063C300A9A2F950FCC2F975F900A2F950FCE5F94C
:1063D300FAD28274304AFFC2827EC8A285500B7AF9
:1063E300057B001234C71EEE70F1C2F975F929A2BC
:1063F300F950FCC2F98FF9A2F950FCD2827F010255
:106403001DFD74F8121D9DC2827EC8A285500B7AB1
:10641300057B001234C71EEE70F1C2F975F9A7A20D
:10642300F950FCC2F975F900A2F950FCE5F9FAD26A
:106433008274E25A4403FFC2827EC8A285500B7A5B
:10644300057B001234C71EEE70F1C2F975F927A25D
:10645300F950FCC2F98FF9A2F950FCD282C2827EB4
:10646300C8A285500B7A057B001234C71EEE70F16B
:10647300C2F975F9A9A2F950FCC2F975F900A2F99C
:1064830050FCE5F9FAD28274304AFFC2827EC8A278
:1064930085500B7A057B001234C71EEE70F1C2F9EA
:1064A30075F929A2F950FCC2F98FF9A2F950FC023F
:1064B30063FE74F8121D9DC2827EC8A285500B7ABA
:1064C300057B001234C71EEE70F1C2F975F987A27D
:1064D300F950FCC2F975F900A2F950FCE5F9FAD2BA
:1064E3008274FC5A4404FFC2827EC8A285500B7A90
:1064F300057B001234C71EEE70F1C2F975F907A2CD
:10650300F950FCC2F98FF9A2F950FCD282C2827E03
:10651300C8A285500B7A057B001234C71EEE70F1BA
:10652300C2F975F988A2F950FCC2F975F900A2F90C
:1065330050FCE5F9FAD28274044AFFC2827EC8A2F3
:1065430085500B7A057B001234C71EEE70F1C2F939
:1065530075F908A2F950FCC2F98FF9A2F950FCD2DF
:1065630082C2827EC8A285500B7A057B001234C793
:106573001EEE70F1C2F975F997A2F950FCC2F975D4
:10658300F900A2F950FCE5F9FAD282740C4AFFC271
:10659300827EC8A285500B7A057B001234C71EEE9B
:1065A30070F1C2F975F917A2F950FCC2F98FF9A27B
:1065B300F950FC0263FEC082C08375F00590F2A01F
:1065C300E0A424D4C282C2F975F920A2F950FCC216
:1065D300F975F92EA2F950FCC2F9F5F9A2F950FCAC
:1065E300D282C282C2F975F920A2F950FCC2F975B0
:1065F300F900A2F950FCC2F975F900A2F950FCD2D6
:1066030082C282C2F975F920A2F950FCC2F975F968
:1066130047A2F950FCC2F975F914A2F950FCD282D1
:10662300026221C082C08374F1F5D575D42874F158
:10663300F5D375D23074F290F128F074A290F12959
:10664300F074DF90F12AF074F990F12BF0E490F1FB
:106653002CF0740290F12FF0741190F12EF074DF8E
:1066630090F148F074F990F149F0E490F14CF07432
:106673001290F14FF0741090F14EF0D083D082223B
:10668300C082C083E9601FEB90F14AF0EA90F14BBE
:10669300F0E990F14DF090F12DF075D61175D70119
:1066A300E5D6A2E440FA80D343F14043F40243F534
:1066B30008D2DE75E64175E50075E7007A697B6708
:1066C30012351522C082C083C2B975E40090F2A5C9
:1066D300E0F5B98055C082C08375E2007518007576
:1066E3001900751A00751B00E5B990F2A5F043B9BE
:1066F30002C2C1D2B975E4018030C082C08390F276
:10670300A4E08A828B83F090F2A3E08A828B83A336
:10671300F0A81AA91BE88A828B83A3A3F0A81AA95D
:106723001BE98A828B83A3A3A3F0D083D08222C0E8
:1067330082C0838A828B83A3A3A3C082C0838A82FD
:106743008B83A3A3C082C0838A828B83A3E08A82C4
:106753008B83FAE06AD083D082FAE06AD083D08256
:10676300FAE06AF980C474F8121D9D74F055E4FED2
:1067730074505E6450703EE5DC90F2A4F0E5DD9069
:10678300F2A3F0E5E2E5E3C0E0E0FAD0E0C39A501B
:106793000885181A85191B800F7818E62401FA0852
:1067A300E63400FB8A1A8B1B7818E62401F608E608
:1067B3003400F6803DEEA2E65014E5DC90F2A4F03E
:1067C300E5DD90F2A3F085181A85191B8024A2E455
:1067D30050207818E62401F608E63400F618E6FAA5
:1067E30008E65401FBEA7001EB7007A818A9191217
:1067F3004840EEF454F1F5E47F01021DFD53F1FD31
:1068030043F10143F43CE5F453F5BF22C082C08356
:10681300E9FC8A828B83E0A2E750030268AC7586A9
:106823008075C480EC121EA90004033B68069468BB
:10683300079C6809A468AC6875C2A375C5088A82F9
:106843008B83A3E0A2E6E492E0C43354E045C5F5AC
:10685300C5E0FA74075AC0E0E0A2E4E492E03333FF
:106863003354F8C0E0E0A2E3E492E0C4C0E0742053
:106873005AC0E0EAC3135440FAD0E04AFAD0E04ADF
:10688300FAD0E04AFAD0E04AF5C47901D083D08245
:106893002275C2A375C50A80A575C23B75C50B8059
:1068A3009D75C23B75C50C8095790080DF8A1C8974
:1068B3001D2274F7121D9D75D68174F1F5D575D41B
:1068C30028E51D2404F9F808E690F12AF0E790F191
:1068D3002BF074DF90F128F074C190F129F090F15E
:1068E3002CE054E0F0740190F12DF0E490F12CF0E1
:1068F300740A90F12FF0740E90F12EF0C2C053D1B0
:10690300FE75D601D2B87F02021DFD43864022C226
:10691300AA539AFBC28BC2E975D68153D1FEC2C07A
:106923002274F7121D9D74FF121D46E59AA2E240E0
:1069330020A91C126D63EA7001EB6015439A04856C
:106943001482851583AA82AB83A91C1270CBE0F550
:10695300C17401121D5C80AEC0E0C0D0E8C0E0E9A4
:10696300C0E0EAC0E0EBC0E0ECC0E0EDC0E0C0088E
:10697300C009C082C083C0F074FF121D46C2E9750E
:1069830086DDA91C126D63EA7001EB601485148225
:10699300851583AA82AB83A91C1270CBE0F5C18055
:1069A30003539AFB7401121D5CD0F0D083D082D0C4
:1069B30009D008D0E0FDD0E0FCD0E0FBD0E0FAD075
:1069C300E0F9D0E0F8D0D0D0E032E5357012752987
:1069D300A8752AF2752B00752C07752D00753501E6
:1069E30022C082C083E535FA70147529B1752AF285
:1069F300752B00752C07752D00753502801E7402EA
:106A03006A70197AB17BF2126B95E9600F90F2B15B
:106A13007CA87DF27407121CB912690ED083D08250
:106A230022C082C083E5357012A823E8A2E090F269
:106A3300AFE05004D2E18002C2E1F080DF74F512CE
:106A43001D9D90F2D97808121C8E90F2A878081236
:106A53001C9DE490F2ACF090F2ADF0740890F2AEAD
:106A6300F090F2AFE054FCF07C4C7D047AE87BF4C8
:106A73007971126CDC7C4C7D047A347BF9797B125E
:106A83006CDC126D0275A90175B9051268007A7B79
:106A930079711268B01268B57AA87BF2126B9512FD
:106AA300690E7F04021DFD12691275A90075B900F4
:106AB3002274F5121D9D539AFD90DE0EE0F50874C5
:106AC30004F090DE14E0A2E0502AD2A490DE16E097
:106AD300FEFC7D007A287BDE797B126FAF8A0AEE9B
:106AE300650A7001EB700BE5D6A2E240FAE490DE92
:106AF30014F0C2A4E50890DE0EF0439A0212692452
:106B0300126B08809D74F3121D9D90F2AFE0A2E119
:106B1300507B539AFD90DE0EE0F50A7404F090DE8C
:106B230011E0A2E0405E1234AE8A088B097971123B
:106B33006D638A0C8B0DAE0CAF0DAA08AB09123432
:106B4300BBEE7001EF602FD2A4C3EE9440EF94002C
:106B530040087E407F0074018001E490F2B0F0EEC3
:106B6300FCEFFD7A287BDE797112711B740190DED4
:106B730011F0C2A4800E90F2B0E06008E4F074015A
:106B830090DE11F0E50A90DE0EF0439A027F0602D2
:106B93001DFD74F5121D9D74FE121D46851482851C
:106BA3001583AC82AD837583F27582A67402121CC1
:106BB300B9851482851583E0C2E7F07401121D9133
:106BC300E0543EF0D2E1F08A828B83A3A3A3A3E037
:106BD300FC74016C700479008078EC70047C008094
:106BE300027C017401121D91ECA2E0E092E2F08AB2
:106BF300828B83A3A3A3A3A3A3E0640870D88A8290
:106C03008B83A3A3A3A3A3E070CC7401121D91E013
:106C130054C7F08A828B837808121C8E7808121F5F
:106C2300BE000000000400000080250000466C0048
:106C33009600005D6C00E10000616C00C20100651C
:106C43006CD96B7903851482851583AA82AB831271
:106C5300680F7402121D5C026AA5790680E7790742
:106C630080E3790980DF74F3121D9D89088A098BFB
:106C73000A8C0C8D0D740D121D91E0F9A3E0FAA39B
:106C8300E0FBAC08AD09AE0A89088A098B0AE50C5A
:106C93007002E50D603EA908AA09AB0A121C5EC08A
:106CA300E0ECF9EDFAEEFBD0E0121C78E5082401E4
:106CB300F508E5093400F509EC24010CED3400FD79
:106CC300E50C24FFF50CE50D34FFF50DE50C700222
:106CD300E50D70C27F06021DFDE9F8EAF608EBF642
:106CE300EA2CFCEB3DFD08ECF608EDF608EAF608A5
:106CF300EBF608EAF608EBF608760008760022C001
:106D030082C08375D68E74F1F5D375D230E490F1D9
:106D130034F0744090F137F0742090F136F0E49041
:106D2300F13CF0741090F13FF0742090F13EF0E4E8
:106D330090F144F0745090F147F0742090F146F0D4
:106D4300D083D08222E9FC0909F8E7C396FA08093F
:106D5300E796FB74082CF8EAC396FAEB0896FB2235
:106D6300740829F8E6FA08E6FB221234BB7F020214
:106D73001DFD74F1121D9DE9FE8A828B838C0A8DA1
:106D83000B1234AE8A0E8B0F74082EFF74022EF989
:106D9300EEF8E7C396FA0809E796FBEFF8EAC3961D
:106DA300FAEB0896FBEAF8EBF9C3E50A98E50B99C9
:106DB3005006AC0AAD0B8004E8FCE9FD750C0075C8
:106DC3000D00EC7001ED6059AA82AB8374042EF5BB
:106DD30009A809860A08860B8A828B83E0850A82C2
:106DE300850B83F0A318A68208A683181818E582DA
:106DF30066700408E58366700AEEF9A809E7F609E8
:106E030008E7F6E50C2401F50CE50D3400F50D8AD1
:106E1300828B83A3AA82AB83C3E50C9CE50D9D40C3
:106E2300B0EFF8E6250CF608E6350D026F9E74F117
:106E3300121D9D74FE121D46851482851583EAF08A
:106E4300A3EBF0E9FE8C088D091234AE74082EF51D
:106E53000C74022EFFF9EEF8E7C396FC0809E796D7
:106E6300FDA80CECC396FCED0896FDC3E5089CE574
:106E7300099D500885080A85090B80048C0A8D0B2F
:106E83001234BB74042EFAEFF9EAF8E7C396FC0850
:106E930009E796FDC3E50A9CE50B9D5008850A08A2
:106EA300850B0980048C088D09E50AC39508FCE568
:106EB3000B9509FD851482851583A3E090F140F0BD
:106EC300851482851583E090F141F01808E690F16E
:106ED30042F018E690F143F0E509541FC0E090F149
:106EE30044E054E0FBD0E04BFBF0E50890F145F0C3
:106EF300E5D6A2E340FA75D60875D708EC7001ED24
:106F03006056E5D6A2E340FA851482851583E02511
:106F130008F8A3E0350990F140F0E890F141F0EE74
:106F2300F808E690F142F018E690F143F0ED541FB3
:106F3300C0E074E05BFBD0E04B90F144F0EC90F1E7
:106F430045F075D60875D708E62CFC08E63DFD0824
:106F53000808ECF608ED8025E62508FC08E6350967
:106F6300FD18ECF608EDF6181818EC66700308ED3A
:106F730066700B191919EAF8E7F60908E7F61234EF
:106F8300AEA80CE6250AF608E6350BF61234BBAAC2
:106F93000AAB0B7402121D5C026FAAF6AA0EAB0FAA
:106FA3001234BBAA0CAB0D7F08021DFD74F1121D38
:106FB3009DE9FE8A0E8B0F8C088D091234AE74087E
:106FC3002EF50C74022EFFF9EEF8E7C396FC0809C0
:106FD300E796FDA80CECC396FCED0896FDECF8EDE6
:106FE300F9C3E50898E50999500885080A85090B4E
:106FF3008004880A890B1234BB74042EFCEFF9EC6D
:10700300F8E7C396FA0809E796FBC3E50A9AE50B86
:107013009B5008850A08850B0980048A088B09E5BB
:107023000AC39508FAE50B9509FBE50F90F138F0D3
:10703300E50E90F139F01808E690F13AF018E69071
:10704300F13BF0E50890F13DF0E5D6A2E240FA7598
:10705300D60475D704EA7001EB602FE5D6A2E240AF
:10706300FAEEF808E690F13AF018E690F13BF0EA10
:1070730090F13DF075D60475D704E62AFA08E63B8D
:10708300FB080808EAF608EB8025E62508FA08E677
:107093003509FB18EAF608EBF6181818EA667003C8
:1070A30008EB66700B191919ECF8E7F60908E7F60F
:1070B3001234AEA80CE6250AF608E6350BF61234B0
:1070C300BBAA0AAB0B026FAA74F7121D9DE9FE74EB
:1070D300062EFFF8E6FC08E6FD8C828D83E08A82AB
:1070E3008B83F08C828D83A318A68208A6837402F7
:1070F3002EF8E58266700408E583667008EFF8E70A
:10710300F60908E7F61234AE74082EF8E624FFF603
:1071130008E634FFF6026D6D74F1121D9DE9FE8CD5
:107123000E8D0F74062EFFF8860808860974022E4A
:10713300F50CF8E6C39508FC08E69509FDECF8EDB7
:10714300F9C3E50E98E50F995008850E0A850F0BD4
:107153008004880A890BE50EC3950AFCE50F950B9D
:10716300FDE50990F130F0EFF8E690F131F0EB90A6
:10717300F132F0EA90F133F0E50A90F135F0E5D61B
:10718300A2E140FA75D60275D702EC7001ED602ECC
:10719300E5D6A2E140FAEEF808E690F130F018E601
:1071A30090F131F0EC90F135F075D60275D702E627
:1071B3002CFA08E63DFBEFF8EAF608EB8023E62518
:1071C3000AFA08E6350BFB18EAF608EBF6A80CEA10
:1071D30066700308EB66700AEEF9EFF8E7F6090844
:1071E300E7F61234AE74082EF8C3E6950EF608E6F9
:1071F300950FF61234BBAA0EAB0F026FAA74F512E9
:107203001D9DE9FF74062FFE74042FF508F8EEF9AF
:10721300E6F70809E6F71234AEA808EEF9E6F70830
:1072230009E6F708080876000876001234BB7F04E5
:10723300021DFD12010002000000205104B51622B8
:1072430011010203010902270001010080FA090468
:10725300000003FFFFFF0407058402400005070544
:1072630004024000050705830240000504030904E6
:107273002403540065007800610073002000490076
:107283006E0073007400720075006D0065006E007F
:10729300740073001C0353006D00610072007400DE
:1072A300520046002000540072007800450042005E
:1072B3001203300030003000300030003000300066
:1072C30030000C0343004500420041004C00F8F23B
:1072D300101012010002020000205104B616000132
:1072E300010200010902430002010080FA090400BF
:1072F300000102020100052400100104240202051A
:107303002406000105240101010705820340004012
:1073130009040100020A000000070584024000007E
:107323000705040240000004030904240354006514
:1073330000780061007300200049006E0073007440
