:020000040000FA
:0600000002014302180397
:03000B0002180BCD
:03001300021813BD
:03001B0002181BAD
:030023000218239D
:03002B0002182B8D
:03003300020DFCBF
:03003B0002183B6D
:030043000218435D
:03004B0002184B4D
:030053000218533D
:03005B0002185B2D
:030063000218631D
:03006B00020EA3DF
:03007300021873FD
:03007B0002187BED
:03008300021883DD
:03008B0002188BCD
:1000930012010002000000205104B5160001010204
:1000A30003010902120001010080FA0904000000A3
:1000B300FFFFFF00040309042403540065007800D4
:1000C30061007300200049006E0073007400720029
:1000D30075006D0065006E00740073001C0353000F
:1000E3006D0061007200740052004600200054004D
:1000F30072007800450042001203300030003000E7
:1001030030003000310030003000AE00000000004D
:100113000080FB1202E2B9000302013DE47910788A
:1001230004B800028004F709D8FCE490F0007819C1
:1001330079018002F0A3D8FCD9FA120385120111C8
:1001430075D00075818F02011643AE0322BB0102F5
:10015300E722C082C08389828A83BB0003E08002D6
:10016300E493D083D08222BB000EC082C0838A83F3
:100173008982F0D083D08222BB0101F722600C0870
:10018300C6C313C618C613C6D5E0F4227004226092
:100193000D18C6C333C608C633C6D5E0F41822E427
:1001A30073D083D082CEC0E0EFC0E0C0207808E6F1
:1001B30008C0E0DEFAE473C0D074072FD0D0F8D0C3
:1001C300E0F618DFFAD020D0E0FFD0E0FE22C8C06E
:1001D300E0E9C0E0A9811919E583C7F58319E58230
:1001E300C7F582EAC0E0EBC0E0ECC0E0EDC0E0EEB2
:1001F300C0E0EFC0E0C0D0C0F0C0207908E709C07C
:10020300E0D8FAE47374072FF8D0E0F618DFFAD0D9
:1002130020D0F0D0D0D0E0FFD0E0FED0E0FDD0E0A1
:10022300FCD0E0FBD0E0FAD0E0F9D0E0F8D083D006
:1002330082D0E0327903D083D082E6C0E008D9FAD5
:10024300E473D083D082C5F0E493A3C5F0C395F0E3
:10025300F5F0E493A3C395F04005E5F0048001E4D1
:1002630075F002A42582F582E5F03583F583E493E6
:10027300A3C0E0E493C0E022D083D082CCC0E0E40A
:1002830093A360061202A51470FAE493A360061206
:1002930002C41470FAD0E0FCE493A3C0E0E493C07A
:1002A300E022C0E0E493A3D39C5010E493A3C39C47
:1002B300400AD0E0D0E0D0E0020298A3A3A3D0E0AC
:1002C30022C0E0E493A36C7009D0E0D0E0D0E00258
:1002D3000298A3A3D0E022052000021300000079B6
:1002E30001120325790122EEC0E053F5EF53FFEF2E
:1002F30053F7EF53F77F00A2A44004D2F08002C269
:10030300F0A2F0E492E0FE1208E77010120988E907
:10031300640270087401655570027E01EEF9D0E045
:10032300FE22740169701453F3FEC28043FD01532E
:10033300F3FDC28143FD02120903227402696012B4
:10034300740369700C53F1FD43F1011208F01209B3
:100353001622D28000000000000000000000000010
:10036300000000000000000053F3FE53FDFE438F26
:1003730001D2810053F3FD53FDFD538FFD53F7DF8E
:1003830080C979001208911202EAE9FE75550075D9
:1003930054007551007552007557DA75580A75592E
:1003A300C5755A0A755BB9755C14755D22755E1562
:1003B30060057553008022901893E49364E17016EE
:1003C300901894E493648C700D901895E49364648E
:1003D300700474018001E4F5537547937548007503
:1003E300490D754A01754B0D754C01754D0D754ED3
:1003F30001754F0D755001120A9F7A177B00120D7C
:10040300B9755614EE7004E553702779021203256B
:1004130053F4FED29043FE01D2AF7A327B0012092D
:1004230060EE60077AC27B0112096063A010E5A049
:1004330080E8790312032575540112180022E5227E
:10044300120245C1035E0452045E0456045A0412A8
:1004530007632212083D2212085322E5536025E563
:10046300546021901896E493C0E0740193F583D00F
:1004730082A3A3A3A3A3A31204F87002E5836004D9
:100483001201A22275350422E522120245C002A2FE
:10049300049A04A2049E041205F9221207F522E528
:1004A300536023E554601F901896E493C0E07401F1
:1004B30093F583D082A3A3A3A31204F87002E58368
:1004C30060041201A22275350422E5536018E55435
:1004D3006014901896E493240A1204ED7002E583E5
:1004E30060041201A22275350422F8A3E4933400B8
:1004F300F988828983E493F8740193F98882898364
:10050300E58222E5536027E5546023901896E4932F
:10051300C0E0740193F583D082A3A3A3A3A3A3A3F1
:10052300A31204F87002E58360041201A222753558
:100533000422E5536018E5546014901896E493245C
:100543000C1204ED7002E58360041201A2227535DA
:100553000422E5536018E5546014901896E493243C
:100563000E1204ED7002E58360041201A2227535B8
:100573000422EEC0E0EFC0E0E9FFE5536019E55463
:100583006015901896E49324101204ED7002E5832D
:100593006005EFF91201A2020D76E5536017E554E9
:1005A3006013901896E49324121204ED7002E5830D
:1005B30060031201A2A842A943E854046012E5565D
:1005C300A2E2500CC2AF784274FB1205EF120AC5C7
:1005D300A842A943E854106012E556A2E4500CC2A5
:1005E300AF784274EF1205EF120ADA2256F6087456
:1005F300FF56F6D2AF220581A825A926E87001E9A6
:10060300600302071E79217A007B0189298A2A8BDC
:100613002B752C088A2D8B35AC51EC12016AA9522B
:10062300E9C0E0A929AA2AAB2BE9240109EA34008D
:10063300FAD0E012016AE553A8816013901896E49A
:1006430093C0E0740193F583D082E493F68002763D
:1006530000E6C0E0A929AA2AAB2B1211B2D0E012FE
:10066300016AE5536014901896E493C0E074019313
:10067300F583D082740193F680027600E6C0E0A988
:1006830029AA2AAB2B1211BCD0E012016AE55360F0
:1006930015901896E493C0E0740193F583D082A378
:1006A300A3E493F680027600E6C0E0A929AA2AAB68
:1006B3002BE92404F9EA3400FAD0E012016AE55385
:1006C3006016901896E493C0E0740193F583D0828A
:1006D300A3A3740193F680027600E6C0E0A929AAD9
:1006E3002AAB2BE92405F9EA3400FAD0E012016AB7
:1006F300E554C0E0A929AA2AAB2BE92406F9EA3478
:1007030000FAD0E012016AA929AA2AAB2BE924072F
:10071300F9EA3400FAE412016A8042740168700154
:10072300E970147529DA752A02752B80752C087502
:100733002D007535018026E5536022E554601E9037
:100743001896E493C0E0740193F583D082A3A3A326
:10075300A31204F87002E58360031201A21581223B
:10076300E535FA7026E554700AE5277004740465CC
:100773002860057535048003753502752C00752DC9
:1007830004752900752AFB752B002274026A7061B7
:1007930074FB90F000F0E490F001F074DF90F0024D
:1007A300F074AF90F003F0740490F004F0E490F070
:1007B30005F0741290F006F0744290F007F074F0B4
:1007C300F5D575D400C2AFE5AEA2E740FA43D60132
:1007D300A825E8C333F5AD75AC00740755C6F874A6
:1007E30020B800028004C313D8FCF5AB12014CD22D
:1007F300AF22C008C009E535703B85250885260969
:10080300C3E5089420E50994004005753504802567
:10081300E52770047404652860047404800274017D
:10082300F535740A780812018FF52985092AF52B05
:10083300F52C752D04D009D00822752C00752D00D8
:10084300E5277002E5286004753504227535012219
:10085300E5357039C2AF744090DE1112154DA825ED
:10086300E8F555E5547003E8702153F4FEC2904354
:10087300FE01D2A4AA23AB24EA7001EB60031209A0
:100883006079031208D71208D080FED2AF22748099
:1008930055C6FA740169701B53BEFB43C640E5C6D7
:1008A300A2E650FA74494AFA8AC6E5C66A70FB435F
:1008B300BE0422E9701653BEFB53C6BFE5C6A2E6CB
:1008C30040FA8AC6E5C66A70FB43BE042253C9FBDD
:1008D30043C90822740359C0E074FC55C9FAD0E037
:1008E3004AF5C92253F5EFD2A443FF102253F47FF4
:1008F30053FE7F43F68053F5FE53FFFE43F7012279
:1009030053F5F753FFF743F70853F4BF53FEBF43C1
:10091300F6402253F3DF53FDDF438F2053F3EF53AE
:10092300FDEF438F1053F3F753FDF7438F0853F352
:10093300FB53FDFB438F0422EBC313FBEA13FAC300
:10094300EA9402EB94004014000000000000000051
:100953000000EA24FFFAEB34FFFB80E322EEC0E061
:10096300EFC0E0EAFEEBFF80077AE87B0312093B66
:10097300EEF8EFF974FF281E74FF39FFE87001E900
:1009830070E7020D76741855BE131313541F120229
:100993004501019C099F09A2097900227901227965
:1009A3000222EEC0E0EAFE7A007B00801585108209
:1009B300851183E0FC18E62CFC08E63400FD8C105E
:1009C3008D11E54965107004E54A6511602F7810B3
:1009D300E62401F58208E63400F583E0697017AA7E
:1009E30010AB118A828B83E0FCEA2CFCEB3400FD14
:1009F3008C108D118007E06E70B3EE60B0D0E0FE16
:100A0300228547108548117A0079011209A52274BD
:100A1300021201A4E9FEEAFF854710854811800D03
:100A23008A828B83A3A3A3A3A3E06E60147A0079C5
:100A3300021209A5EA7001EB6007EE70E3EF1F7085
:100A4300EC7F020201BA74041201A4EAFF8B087A54
:100A530000120A127A0279041209A5EA7001EB6006
:100A6300168A828B83A3A3E06F70E98A828B83A3A8
:100A7300A3A3E0650870DD02142CEEC0E0C008C03B
:100A830009E9FE8547108548117A0079031209A503
:100A9300EE1E70F5D009D008D0E0FE227A0079016D
:100AA300120A128A828B83A3A3A3A3A3A3A3E0A204
:100AB300E65005754101800375410075400043BE52
:100AC3008022752E02752F007535007903120D3DB6
:100AD3007512007513002274071201A490DE0EE054
:100AE300F50AE4F090DE11E0FF740865357021EF3C
:100AF300A2E0401AA823E8FA90DE00F0E52EC394A2
:100B030004500BEA6005752E038003752E028E35A3
:100B1300EFA2E25007E490DE11F0F535EFA2E450C6
:100B23001E748090DE11F0753507E5127002E5132F
:100B330060098512828513831201A28E35807CE5BC
:100B430035FA74026A705FEFA2E0504F90DE16E050
:100B5300FE7829120237EEF97A207BDE120D5A1540
:100B630081158115818E08120D1B120D28E52C703D
:100B730002E52D600474408002744890DE11F0E5B4
:100B83002C7002E52D7014E5127002E513600985DF
:100B930012828513831201A2753500E50A90DE0ED9
:100BA300F07F070201BA74066A7009851282851301
:100BB300831201A2E5356003020CB0EFA2E050DB23
:100BC300750C218E0D750E01780C12023779087A97
:100BD300207BDE120D5A1581158115818E128E131D
:100BE30074E0552112027B000600000C20860C40A5
:100BF300700C80440CA0910CC07B0C3F0CE52212BE
:100C0300027B000601300C032B0C051B0C073F0C69
:100C130009350C0B3A0C3F0C12105FE535FA7404DE
:100C23006A70767460020CAC12105380EE12104797
:100C330080E912139980E412145E80DF7535048015
:100C4300E2E52212027B0005005C0C06610C0866DB
:100C53000C0A6B0C0C3F0C3F0C120EC780BD12101C
:100C63008680B812136880B312143180AE751241B6
:100C730075130412044180A375128B7513041204B7
:100C83008B80987512CD7513041204CD808D751267
:100C930006751305120506808274016A60057402E5
:100CA3006A700474408002744890DE11F0E535FAEE
:100CB30074016A704F90DE11E0A2E15003020B9EB3
:100CC3007F02A82CA92DC3E89420E994005006E8DC
:100CD300FE7F0A80027E207829120237EEF97A20FD
:100CE3007BDE120D7D1581158115818E08120D286D
:100CF300120D1BEF90DE11F0EEC394204003020BA4
:100D03009E020B8A74056A6003020B9E851282851C
:100D130013831201A2020B9E782CC3E69508F608F2
:100D2300E69400F622A929AA2AAB2BE92508F9EAB9
:100D33003400FA89298A2A8B2B227A007436120D01
:100D43005040F97A00743B120D5040F9222AF8E919
:100D5300F60AEAC3940522EEC0E0EFC0E08A828B74
:100D630083E9FFE581120D9B6009E012016A120D10
:100D7300AE70F7D0E0FFD0E0FE22EEC0E0EFC0E0BF
:100D83008A828B83E9FFE581120D9B600912015072
:100D9300F0120DAE70F780DB24FAF8E6FC08E6FDEE
:100DA30008E6FEECF9EDFAEEFBEF22E9240109EA8D
:100DB3003400FA1FEF22C008C009439A02438C1083
:100DC3007542007543007544008A458B46EA90DE00
:100DD3000BF08A088B0974047808120180E50890E7
:100DE300DE07F08A088B0974097808120180E50888
:100DF300543E90DE09F0020838C0E074021201D1BB
:100E0300E5BEA2E650FA90DE06E0FAA2E25035A86B
:100E130045E890DE0BF0F50885460974047808125E
:100E23000180E50890DE07F08545088546097409C9
:100E33007808120180E508543E90DE09F090DE0147
:100E4300E0D2E0F07842EA46F608E446F690DE02A5
:100E5300E0F5087509007404780812018F7842E5FB
:100E63000846F608E50946F690DE04E0F50875093C
:100E7300007409780812018F784246F608E509469E
:100E8300F6EAA2E0500375440174065A6003754400
:100E93000012059DE58BF4F58BC2E87F0202020880
:100EA300C0E074011201D1E5BEA2E650FAE589FE65
:100EB300A2E75005C2BD121556EEF4F589C2C57FEF
:100EC30001020208E5237002E5247018A825A9266B
:100ED30074FF59FBE47001EB700A7402652770021A
:100EE300E528600475350422E5211202458002E7F6
:100EF3000EFA0E360F440FE870EAE54160047801FC
:100F03008002780090F018E8F0A3E4F0E540600A6E
:100F130090F018E04402F0A3E4F074046535601225
:100F2300752918752AF0752B00752C02752D00751F
:100F33003501227404652E70AB90F018E4F0A380A1
:100F4300D8E8547FFA7404652E7099EAC394065066
:100F530093742E2AFAE85480601574072AF8E6641D
:100F630003700478018002780090F018E880A77479
:100F73000C2AF8E6640370EF80E9EEC0E0E9FEE5D1
:100F8300277002E528700E7404652E6011E5257044
:100F930002E52660097535047901D0E0FE22741F4D
:100FA30055211202450002980FB20FB90FCF0FA8B7
:100FB30023E864016004790080E08E40EE600479E8
:100FC30005800279067A0012057580CCA825E854BD
:100FD3007FFAA823E870DFEAC3940650B8EA90DEEC
:100FE3000EF0742E2AFBA825E854806027EE6004D7
:100FF30074108002744090DE11F0EE60047C038074
:10100300027C0074072BF8ECF6EE60047908802963
:1010130079078025EE600474208002748090DE14CA
:10102300F0EE60047C0380027C00740C2BF8ECF679
:10103300EE6004790A80027909120575E490DE0EE8
:10104300F0020F9B7900120F7DE970031205352220
:101053007901120F7DE9700312055522E52570020F
:10106300E5267017E5277002E528700F7823E6540C
:1010730080FA08E6FBEA7001EB600475350422751B
:1010830035082274041201A4AA23AB24EB120245EF
:101093000102EA109D10B710E310120A048A298B8B
:1010A3002A8E2BA929AA2A7B00120150F8882C8B9F
:1010B3002D02118B7900120A128A298B2A8E2BA9F1
:1010C30029AA2A7B001211B2120150FC1919AA2A6B
:1010D3001211BC120150F9ECF8882C892D02118BE6
:1010E300EAF9120A7D80B68E298E2A8E2B7C008027
:1010F300727509007403780812018F784BE625088E
:10110300FA08E63509FBAE23AF248A828B83E0C05D
:10111300E0EFF8D0E068704AA3E06E7045AE25AF0B
:10112300268A828B83A3A3E0C0E0EFF8D0E0687047
:10113300318A828B83A3A3A3E06E70268A828B837A
:10114300A3A3A3A3E0F508A3E0850829F52A752B3B
:10115300008A828B83A3A3A3A3A3A3E0F52CA3E01C
:10116300F52D0C8C08784D794BE6C397F50A0908E1
:10117300E697F50B7403780A120180C3E508950A14
:10118300E4950B50030210F4A929E97005753504A1
:10119300801A740465356014A827A928C3E8952C20
:1011A300E9952D5004882C892D75350102142CE9FD
:1011B30024020909EA3400FA22E92403090909EAA5
:1011C3003400FA2274081201A405810581E5811413
:1011D300F8EAF608EBF61886828B83A3A3A3A3E0B1
:1011E3006026AE4FAF508008EE2404FEEF3400FFBC
:1011F3008E828F83E493FA740193FBE58114F8E6FE
:101203006A700308E66B70E075080080667490905E
:10121300DE14F090DE14E0A2E3500890DE0EE065E9
:101223000960F0741090DE14F090DE14E0A2E35035
:101233000890DE0EE0650960F088828983E054033C
:1012430064017003750E408E828F83A3A3A3E4937E
:10125300550A6006E50ED2E0F50EE50E90DE15F0B8
:10126300EA90DE13F0740C250FF87600E490DE0E9E
:10127300F00508E58114F88682088683A3A3A3A357
:10128300E0FAE508C39A400302135F7A0079051276
:1012930009A58A0A8B0BAC0AAD0BEC7001ED60D18A
:1012A300EC2402F50CED3400F50D850C82F583E09A
:1012B300540FF50990DE0EF0750E008C828D83A31A
:1012C300A3A3A3E02407F50AA3E03400F50B7403FA
:1012D300780A120180AA0A742E2509F50F750A01EE
:1012E300750B00E509780A12018FEC2403F8ED343D
:1012F30000F9850C82850D83E0A2E74003021210FA
:10130300744890DE11F090DE11E0A2E3500890DE05
:101313000EE0650960F0740890DE11F090DE11E0D4
:10132300A2E3500890DE0EE0650960F088828983AD
:10133300E0540364017003750E408E828F83A3A370
:10134300E493550A6006E50ED2E0F50EE50E90DE55
:1013530012F0EA90DE10F0740702126A158115810B
:101363007F080201BAE5237002E5247012E52570B7
:1013730002E526700A740165277002E5286004758A
:1013830035042275292F752A00752B01752C0175DB
:101393002D007535012274041201A47402652E60B8
:1013A3001BE5257002E5267013E5277002E528701A
:1013B3000B782308E6FBE47001EB600575350480C8
:1013C300687A007901120575AE23EE604B7A00F955
:1013D300120A128A088B09EA7001EB6036752E0433
:1013E300EEF52F7E00850882850983A3A3A3A3E0DE
:1013F300FAEEC39A502C74302EF876007A007904F2
:101403001209A58A828B83A3A3A3E070EF1211C7ED
:101413000E80D2753504800AF52F752E03790312D9
:101423000D3D7A0079021205757F040201BA740436
:10143300652E7018748165217012E5237002E5240E
:10144300700A740165277002E5286004753504226B
:10145300A825E82430F9892902138974041201A408
:101463007404652E700E740165217008E5277002FF
:10147300E5286005753504803AAE25A823E8FBEE20
:10148300FAA92F120A498A088B09EA7001EB60E472
:10149300EEFA7903120575A823E8C0E0A825E8242D
:1014A30030F8D0E0F6AA08AB091211C7AA257904CF
:1014B30012057502142C745390F008F074BE90F06A
:1014C30009F074FC90F00AF0744390F00BF074BED2
:1014D30090F00CF0740190F00DF0747590F00EF034
:1014E300748790F00FF0740190F010F074E590F0B1
:1014F30011F0744490F012F0747090F013F074F3E0
:1015030090F014F0742290F015F0D2BD90F01674A0
:1015130008F0A374F0F0758208F5831201A222E5A6
:10152300407003790022C2AF12155675440090DE55
:1015330001E0D2E212154D90DE01E0C2E2F0C2BD3D
:10154300C2C575897FD2AF790122F07A0A7B001276
:10155300096022E490F00DF090F00EF090F00FF09F
:0515630090F010F022E1
:0400000500000143B3
:00000001FF
