:020000040000FA
:0600000002014302180397
:03000B0002180BCD
:03001300021813BD
:03001B0002181BAD
:030023000218239D
:03002B0002182B8D
:03003300020B6D50
:03003B0002183B6D
:030043000218435D
:03004B0002184B4D
:030053000218533D
:03005B0002185B2D
:030063000218631D
:03006B00020C1470
:03007300021873FD
:03007B0002187BED
:03008300021883DD
:03008B0002188BCD
:1000930012010002000000205104B5160001010204
:1000A30003010902120001010080FA0904000000A3
:1000B300FFFFFF00040309042403540065007800D4
:1000C30061007300200049006E0073007400720029
:1000D30075006D0065006E00740073001C0353000F
:1000E3006D0061007200740052004600200054004D
:1000F30072007800450042001203300030003000E7
:1001030030003000310030003000AE00000000004D
:100113000080FB1202E2B9000302013DE47910788A
:1001230004B800028004F709D8FCE490F0007819C1
:1001330079018002F0A3D8FCD9FA1203CF1201117E
:1001430075D00075818F02011643AE0322BB0102F5
:10015300E722C082C08389828A83BB0003E08002D6
:10016300E493D083D08222BB000EC082C0838A83F3
:100173008982F0D083D08222BB0101F722600C0870
:10018300C6C313C618C613C6D5E0F4227004226092
:100193000D18C6C333C608C633C6D5E0F41822E427
:1001A30073D083D082CEC0E0EFC0E0C0207808E6F1
:1001B30008C0E0DEFAE473C0D074072FD0D0F8D0C3
:1001C300E0F618DFFAD020D0E0FFD0E0FE22C8C06E
:1001D300E0E9C0E0A9811919E583C7F58319E58230
:1001E300C7F582EAC0E0EBC0E0ECC0E0EDC0E0EEB2
:1001F300C0E0EFC0E0C0D0C0F0C0207908E709C07C
:10020300E0D8FAE47374072FF8D0E0F618DFFAD0D9
:1002130020D0F0D0D0D0E0FFD0E0FED0E0FDD0E0A1
:10022300FCD0E0FBD0E0FAD0E0F9D0E0F8D083D006
:1002330082D0E0327903D083D082E6C0E008D9FAD5
:10024300E473D083D082C5F0E493A3C5F0C395F0E3
:10025300F5F0E493A3C395F04005E5F0048001E4D1
:1002630075F002A42582F582E5F03583F583E493E6
:10027300A3C0E0E493C0E022D083D082CCC0E0E40A
:1002830093A360061202A51470FAE493A360061206
:1002930002C41470FAD0E0FCE493A3C0E0E493C07A
:1002A300E022C0E0E493A3D39C5010E493A3C39C47
:1002B300400AD0E0D0E0D0E0020298A3A3A3D0E0AC
:1002C30022C0E0E493A36C7009D0E0D0E0D0E00258
:1002D3000298A3A3D0E022062000021300000079B5
:1002E3000112032A790122EEC0E053F5EF53FFEF29
:1002F30053F7EF53F77F00A2A44004D2F08002C269
:10030300F0A2F0E492E0FE53F5EFD2A443FF1070A5
:1003130010120524E9640270087401655570027EA9
:1003230001EEF9D0E0FE22740169702353F3FEC29B
:100333008043FD0153F3FDC28143FD0253F5F7539F
:10034300FFF743F70853F4BF53FEBF43F64022744D
:1003530002696042740369703C53F1FD43F1015338
:10036300F47F53FE7F43F68053F5FE53FFFE43F7BE
:100373000153F3DF53FDDF438F2053F3EF53FDEFBF
:10038300438F1053F3F753FDF7438F0853F3FB5396
:10039300FDFB438F0422D280000000000000000018
:1003A30000000000000000000000000053F3FE53B3
:1003B300FDFE438F01D2810053F3FD53FDFD538FA7
:1003C300FD53F7DF809963A010E5A0221204CD123C
:1003D30002EAE9FE75550075540075510075520027
:1003E300755778755806755963755A06755B437565
:1003F3005C12755DAC755E126005755300802290CA
:100403001893E49364E17016901894E493648C70E9
:100413000D901895E4936464700474018001E4F50D
:100423005375479375480075490D754A01754B0D12
:10043300754C01754D0D754E01754F0D75500112BB
:10044300063D7A177B00120B28755614EE7004E5EF
:10045300537026790212032A53F4FED29043FE010D
:100463001204C77A327B001204F8EE60077AC27B6B
:10047300011204F81203C980EA790312032A75549E
:100483000112180022748055C6FA740169701B5357
:10049300BEFB43C640E5C6A2E650FA74494AFA8A4F
:1004A300C6E5C66A70FB43BE0422E9701653BEFB61
:1004B30053C6BFE5C6A2E640FA8AC6E5C66A70FB24
:1004C30043BE0422D2AF22C2AF2279001204882293
:1004D300EBC313FBEA13FAC3EA9402EB9400401450
:1004E30000000000000000000000EA24FFFAEB34E3
:1004F300FFFB80E322EEC0E0EFC0E0EAFEEBFF800B
:10050300077AE87B031204D3EEF8EFF974FF281E91
:1005130074FF39FFE87001E970E7D0E0FFD0E0FE37
:1005230022741855BE131313541F120245010138C8
:10053300053B053E05790022790122790222EEC0AE
:10054300E0EAFE7A007B008015851082851183E046
:10055300FC18E62CFC08E63400FD8C108D11E549EF
:1005630065107004E54A6511602F7810E62401F5E3
:100573008208E63400F583E0697017AA10AB118A8C
:10058300828B83E0FCEA2CFCEB3400FD8C108D1194
:100593008007E06E70B3EE60B0D0E0FE22854710B6
:1005A3008548117A0079011205412274021201A4CF
:1005B300E9FEEAFF854710854811800D8A828B8307
:1005C300A3A3A3A3A3E06E60147A007902120541EA
:1005D300EA7001EB6007EE70E3EF1F70EC7F02023D
:1005E30001BA74041201A4EAFF8B087A001205AE63
:1005F3007A027904120541EA7001EB60168A828B54
:1006030083A3A3E06F70E98A828B83A3A3A3E0652E
:100613000870DD7F040201BAEEC0E0C008C009E93A
:10062300FE8547108548117A007903120541EE1EB5
:1006330070F5D009D008D0E0FE227A0079011205C6
:10064300AE8A828B83A3A3A3A3A3A3A3E0A2E650B2
:1006530005754101800375410075400043BE80224A
:10066300752E02752F0075350079031208E975128E
:10067300007513002274071201A490DE0EE0F50A40
:10068300E4F090DE11E0FF740865357021EFA2E01D
:10069300401AA823E8FA90DE00F0E52EC394045034
:1006A3000BEA6005752E038003752E028E35EFA2CB
:1006B300E25007E490DE11F0F535EFA2E4501E742A
:1006C3008090DE11F0753507E5127002E5136009BD
:1006D3008512828513831201A28E35807CE535FA5B
:1006E30074026A705FEFA2E0504F90DE16E0FE786E
:1006F30029120237EEF97A207BDE120906158115DD
:100703008115818E081208C71208D4E52C7002E502
:100713002D600474408002744890DE11F0E52C7063
:1007230002E52D7014E5127002E51360098512824B
:100733008513831201A2753500E50A90DE0EF07F62
:10074300070201BA74066A7009851282851383123F
:1007530001A2E535600302085CEFA2E050DB750CF3
:10076300218E0D750E01780C12023779087A207BE1
:10077300DE1209061581158115818E128E1374E020
:10078300552112027B0006009E07203108401B08FA
:1007930080E507A03C08C026081608E52212027B64
:1007A300000601D10703CC0705B90707E00709D6FF
:1007B300070BDB071608120DDEE535FA74046A60D1
:1007C300030208487460020858120DD280EB120D20
:1007D300C680E612111280E11211E280DC120B1FB7
:1007E30080D7E52212027B000500FD0706020808F8
:1007F30007080A0C080C11081608120C3880BA12E4
:100803000E0580B51210E180B01211B580AB120B4A
:100813002380A675350480AC75126575130912091A
:100823006580967512B37513091209B3808B75121F
:10083300F17513091209F1808075121175130A12EB
:100843000A110207BC74016A600574026A700474B9
:10085300408002744890DE11F0E535FA74016A7045
:100863004F90DE11E0A2E1500302073C7F02A82C67
:10087300A92DC3E89420E994005006E8FE7F0A807E
:10088300027E207829120237EEF97A207BDE1209E4
:10089300291581158115818E081208D41208C7EF16
:1008A30090DE11F0EEC39420400302073C020728B8
:1008B30074056A600302073C851282851383120163
:1008C300A202073C782CC3E69508F608E69400F6E6
:1008D30022A929AA2AAB2BE92508F9EA3400FA89C7
:1008E300298A2A8B2B227A0074361208FC40F97A63
:1008F30000743B1208FC40F9222AF8E9F60AEAC31D
:10090300940522EEC0E0EFC0E08A828B83E9FFE525
:10091300811209526009E012016A12094770F7D087
:10092300E0FFD0E0FE22EEC0E0EFC0E08A828B83DE
:10093300E9FFE5811209526009120150F0120947DB
:1009430070F780DBE9240109EA3400FA1FEF22245F
:10095300FAF8E6FC08E6FD08E6FEECF9EDFAEEFB34
:10096300EF22E522120245C1038209760982097A40
:10097300097E0912146F2212154B2212156122E50A
:1009830053601FE554601B901896E493C0E0740114
:1009930093F583D0821209A97002E58360041201E2
:1009A300A22275350422A3A3A3A3A3A3120A892217
:1009B300E522120245C002CA09C209CA09C60912C0
:1009C30012EE2212150322E553601FE554601B90BB
:1009D3001896E493C0E0740193F583D0821209ABB7
:1009E3007002E58360041201A22275350422E553E7
:1009F3006018E5546014901896E493240A120A7A56
:100A03007002E58360041201A22275350422E553C6
:100A13006021E554601D901896E493C0E07401933F
:100A2300F583D082A3A31209A97002E5836004129F
:100A330001A22275350422E5536018E55460149031
:100A43001896E493240C120A7A7002E58360041268
:100A530001A22275350422E5536018E55460149011
:100A63001896E493240E120A7A7002E58360041246
:100A730001A22275350422F8A3E4933400F9888295
:100A83008983120A8922E493F8740193F98882898D
:100A930083E58222EEC0E0EFC0E0E9FFE553601991
:100AA300E5546015901896E4932410120A7A7002A4
:100AB300E5836005EFF91201A2D0E0FFD0E0FE224A
:100AC300E5536017E5546013901896E493241212CB
:100AD3000A7A7002E58360031201A2A842A943E8DF
:100AE30054046012E556A2E2500CC2AF784274FB84
:100AF300120B15120663A842A943E854106012E5CD
:100B030056A2E4500CC2AF784274EF120B151206D2
:100B1300782256F60874FF56F6D2AF2275350422B2
:100B23007535042222C008C009439A02438C10750C
:100B330042007543007544008A458B46EA90DE0BFC
:100B4300F08A088B0974047808120180E50890DEA6
:100B530007F08A088B0974097808120180E50854A4
:100B63003E90DE09F0D009D00822C0E074021201E1
:100B7300D1E5BEA2E650FA90DE06E0FAA2E25035D5
:100B8300A845E890DE0BF0F508854609740478085B
:100B9300120180E50890DE07F08545088546097453
:100BA300097808120180E508543E90DE09F090DED2
:100BB30001E0D2E0F07842EA46F608E446F690DE39
:100BC30002E0F5087509007404780812018F784271
:100BD300E50846F608E50946F690DE04E0F50875F3
:100BE30009007409780812018F784246F608E5096E
:100BF30046F6EAA2E0500375440174065A60037591
:100C03004400120AC3E58BF4F58BC2E87F020202AB
:100C130008C0E074011201D1E5BEA2E650FAE589ED
:100C2300FEA2E75005C2BD1212DCEEF4F589C2C57F
:100C33007F01020208E5237002E5247018A825A9A4
:100C43002674FF59FBE47001EB700A740265277088
:100C530002E528600475350422E52112024580026D
:100C6300580C6B0CB50CC30CE870EAE541600478D2
:100C7300018002780090F018E8F0A3E4F0E540600A
:100C83000A90F018E04402F0A3E4F07404653560C0
:100C9300207C187DF0AA25741F5521F9120B2775A6
:100CA3002918752AF0752B00752C02752D007535E2
:100CB30001227404652E709D90F018E4F0A380CA9D
:100CC300E8547FFA7404652E708BEAC3940650854A
:100CD300742E2AFAE85480601574072AF8E6640330
:100CE300700478018002780090F018E88099740C01
:100CF3002AF8E6640370EF80E9EEC0E0E9FEE52739
:100D03007002E528700E7404652E6011E5257002EB
:100D1300E52660097535047901D0E0FE22741F557C
:100D2300211202450002170D310D380D4E0DA82377
:100D3300E864016004790080E08E40EE6004790588
:100D4300800279067A00120A9780CCA825E8547F9E
:100D5300FAA823E870DFEAC3940650B8EA90DE0EDF
:100D6300F0742E2AFBA825E854806027EE600474F3
:100D7300108002744090DE11F0EE60047C03800268
:100D83007C0074072BF8ECF6EE600479088029796F
:100D9300078025EE600474208002748090DE14F0D6
:100DA300EE60047C0380027C00740C2BF8ECF6EEFE
:100DB3006004790A80027909120A97E490DE0EF042
:100DC300020D1A7900120CFCE97003120A3A227917
:100DD30001120CFCE97003120A5A22E5257002E5A0
:100DE300267017E5277002E528700F7823E65480F4
:100DF300FA08E6FBEA7001EB6004753504227535E9
:100E0300082274041201A4AA23AB24EB12024501A5
:100E130002760E1C0E360E6F0E1205A08A298B2A3F
:100E23008E2BA929AA2A7B00120150F8882C8B2D1E
:100E3300020F1779001205AE8A298B2A8E2BA92956
:100E4300AA2A7B00E924020909EA3400FA120150B4
:100E5300FC1919AA2AE92403090909EA3400FA1238
:100E63000150F9ECF8882C892D020F17EAF91206C4
:100E73001B80A98E298E2A8E2B7C00807275090017
:100E83007403780812018F784BE62508FA08E635D3
:100E930009FBAE23AF248A828B83E0C0E0EFF8D056
:100EA300E068704AA3E06E7045AE25AF268A828B58
:100EB30083A3A3E0C0E0EFF8D0E06870318A828BAF
:100EC30083A3A3A3E06E70268A828B83A3A3A3A329
:100ED300E0F508A3E0850829F52A752B008A828BA3
:100EE30083A3A3A3A3A3A3E0F52CA3E0F52D0C8C6C
:100EF30008784D794BE6C397F50A0908E697F50B91
:100F03007403780A120180C3E508950AE4950B502F
:100F130003020E80A929E97005753504801A74044B
:100F230065356014A827A928C3E8952CE9952D50A9
:100F330004882C892D7535017F040201BA740812C7
:100F430001A405810581E58114F8EAF608EBF6189A
:100F530086828B83A3A3A3A3E06026AE4FAF50800A
:100F630008EE2404FEEF3400FF8E828F83E493FAAD
:100F7300740193FBE58114F8E66A700308E66B706D
:100F8300E07508008066749090DE14F090DE14E043
:100F9300A2E3500890DE0EE0650960F0741090DE65
:100FA30014F090DE14E0A2E3500890DE0EE0650931
:100FB30060F088828983E0540364017003750E40F6
:100FC3008E828F83A3A3A3E493550A6006E50ED212
:100FD300E0F50EE50E90DE15F0EA90DE13F0740CEA
:100FE300250FF87600E490DE0EF00508E58114F88D
:100FF3008682088683A3A3A3A3E0FAE508C39A40E5
:10100300030210D87A0079051205418A0A8B0BACCA
:101013000AAD0BEC7001ED60D1EC2402F50CED345C
:1010230000F50D850C82F583E0540FF50990DE0E73
:10103300F0750E008C828D83A3A3A3A3E02407F590
:101043000AA3E03400F50B7403780A120180AA0A9C
:10105300742E2509F50F750A01750B00E509780A49
:1010630012018FEC2403F8ED3400F9850C82850D11
:1010730083E0A2E74003020F89744890DE11F090E9
:10108300DE11E0A2E3500890DE0EE0650960F07423
:101093000890DE11F090DE11E0A2E3500890DE0E1E
:1010A300E0650960F088828983E05403640170037A
:1010B300750E408E828F83A3A3E493550A6006E5E1
:1010C3000ED2E0F50EE50E90DE12F0EA90DE10F09F
:1010D3007407020FE3158115817F080201BAE52326
:1010E3007002E5247012E5257002E526700A74018A
:1010F30065277002E52860047535042275292F756C
:101103002A00752B01752C01752D0075350122748C
:10111300041201A47402652E601BE5257002E52606
:101123007013E5277002E528700B782308E6FBE4CB
:101133007001EB600575350480757A007901120A38
:1011430097A823E860587A00F91205AE8A088B093C
:10115300AE08AF09EE7001EF603F752E04A823E8D7
:10116300F52F7509008E828F83A3A3A3A3E0FAE56D
:1011730009C39A503374302509F508F876007A00CC
:1011830079041205418A828B83A3A3A3E0A808668E
:1011930070EC120F40050980CC753504800AF52FD9
:1011A300752E0379031208E97A007902120A97026D
:1011B3000F3B7404652E7018748165217012E5234A
:1011C3007002E524700A740165277002E528600443
:1011D30075350422A825E82430F9892902110274FF
:1011E300021201A47404652E700E74016521700847
:1011F300E5277002E5286005753504803EA823E8DD
:10120300FBA825E8FAA92F1205E58A088B09AE0881
:10121300AF09EE7001EF60E0AA257903120A97A8DF
:1012230023E8C0E0A825E82430F8D0E0F6EEFAEF92
:10123300FB120F40AA257904120A977F020201BA12
:10124300745390F000F074BE90F001F074FC90F0D1
:1012530002F0744390F003F074BE90F004F0740154
:1012630090F005F0747590F006F0748790F007F035
:10127300740190F008F074E590F009F0744490F074
:101283000AF0747090F00BF074F390F00CF0742289
:1012930090F00DF0D2BD90F00E7400F0A374F0F056
:1012A300758200F5831201A222E5407003790022C2
:1012B300C2AF1212DC75440090DE01E0D2E2F07A94
:1012C3000A7B001204F890DE01E0C2E2F0C2BDC264
:1012D300C575897FD2AF790122E490F005F090F0D3
:1012E30006F090F007F090F008F0220581A825A9F8
:1012F30026E87001E9600302142079217A007B015A
:1013030089298A2A8B2B752C088A2D8B35AC51ECB5
:1013130012016AA952E9C0E0A929AA2AAB2BE92440
:101323000109EA3400FAD0E012016AE553A88160AA
:1013330013901896E493C0E0740193F583D082E48C
:1013430093F680027600E6C0E0A929AA2AAB2BE92E
:1013530024020909EA3400FAD0E012016AE5536075
:1013630014901896E493C0E0740193F583D08274CB
:101373000193F680027600E6C0E0A929AA2AAB2BE6
:10138300E92403090909EA3400FAD0E012016AE505
:10139300536015901896E493C0E0740193F583D0DD
:1013A30082A3A3E493F680027600E6C0E0A929AA0B
:1013B3002AAB2BE92404F9EA3400FAD0E012016ADB
:1013C300E5536016901896E493C0E0740193F58397
:1013D300D082A3A3740193F680027600E6C0E0A94D
:1013E30029AA2AAB2BE92405F9EA3400FAD0E01242
:1013F300016AE554C0E0A929AA2AAB2BE92406F91E
:10140300EA3400FAD0E012016AA929AA2AAB2BE92F
:101413002407F9EA3400FAE412016A804C74016883
:101423007001E970147529DA752A02752B80752C01
:1014330008752D007535018030E553602CE5546047
:1014430028901896E493C0E0740193F583D082A3A7
:10145300A3A3A3E493F8740193F988828983E582B3
:101463007002E58360031201A2158122E535FA704B
:1014730026E554700AE52770047404652860057531
:1014830035048003753502752C00752D047529000C
:10149300752AFB752B002274026A706374FB90F04B
:1014A30010F0E490F011F074DF90F012F074AF904C
:1014B300F013F0740490F014F0E490F015F074124B
:1014C30090F016F0744290F017F074F0F5D575D4DF
:1014D300101204CAE5AEA2E740FA43D601A825E8F4
:1014E300C333F5AD75AC00740755C6F87420B80066
:1014F300028004C313D8FCF5AB12014C1204C722BB
:10150300C008C009E535703B852508852609C3E574
:10151300089420E509940040057535048025E527E6
:101523007004740465286004740480027401F53542
:10153300740A780812018FF52985092AF52BF52CF1
:10154300752D04D009D00822752C00752D00E527D0
:101553007002E52860047535042275350122E535EE
:1015630070401204CA744090DE11F07A0A7B0012B4
:1015730004F8A825E8F555E5547003E8702153F401
:10158300FEC29043FE01D2A4AA23AB24EA7001EB6E
:1015930060031204F879031215AD1215A680FE122A
:1015A30004C72253C9FB43C90822740359C0E0741A
:0A15B300FC55C9FAD0E04AF5C92240
:0400000500000143B3
:00000001FF
