:020000040000FA
:0318000002189833
:0318430002283D3B
:03184B000231C6A1
:03186B00022EE169
:03187B0002300E2A
:10189300E18C64F41F75D000758190751420751563
:1018A300F10218AC00000080FB121910B90003020A
:1018B300190AE479167804B800028004F709D8FC01
:1018C300E4796F780CB800028004F709D8FCE4903F
:1018D300F120782979038002F0A3D8FCD9FA90F398
:1018E30048AA82AB83901913781F79018015E4937A
:1018F300A3AC82AD838A828B83F0A3AA82AB838C51
:10190300828D83D8E9D9E7122A2D1218A7790122EB
:101913000300000101000000010101010107FFFFB5
:0E192300A3F2030000FA00000000FFFFFFFF28
:10193200740122C56C703BC56C33D2919297C291EF
:1019420033D2919297C29133D2919297C29133D26C
:10195200919297C29133D2919297C29133D291923E
:1019620097C29133D2919297C29133D2919297C2F8
:101972009122C56C7A0831E031E033D29131DB92A9
:101982009731DBC291DAEF22E56C7039D291C291C4
:10199200A29733D291C291A29733D291C291A297C8
:1019A20033D291C291A29733D291C291A29733D2EC
:1019B20091C291A29733D291C291A29733D291C28E
:1019C20091A29733227A0831E031E0D29131DB31B2
:1019D200DBC291A29733DAEF220000000000000080
:1019E2000000000000000000000022FAE56AB407CF
:1019F20004EA510D222463056AF8EAF622E56A2414
:101A020063056AF8E62290DE28E02290DE28F022C2
:101A1200D90AD05FD0608C618D6261182253FE7F3B
:101A2200E56D7002C296D2977A1030970EE56E601D
:101A320008EAC0E0318AD0E0FADAEF002243FE8001
:101A4200D2962231327003C28122D281227B087A5D
:101A52000012313431327004D2818002C2817B089B
:101A62007A0012313422896C22896D22896E2275A4
:101A72005F1B756022D296D292C291C29743FE82B8
:101A820053F6FD22121A71514F51457B087A00120A
:101A92003134E960065401603280057825E6602B16
:101AA20031DBD29131DBC29131DBD29131DBC29198
:101AB20031DB514F513FC06C756C0174553135E4C7
:101AC2003135511F318A513FD06C2231DB514F12D7
:101AD2002CC022E9313522318AF922C2AF74049036
:101AE200DE0EF090DE14E030E03390DE16E493F97F
:101AF200602B855F83856082AD62AC61E47343FED7
:101B020080D296E56B600790DE11E04401F0D910B7
:101B1200755F1B75602290DE14E4F080C6D2AF229E
:101B22005108F56B536B0103F56A536A07030354BB
:101B32001E901B37736179619361B36155618D6149
:101B4200AD6167618761A761C5618161A161BF61A3
:101B5200DB61F5511251083135511F318A31ED31B6
:101B62008A31ED610051125108313551125108315B
:101B72003551125108313551125108313561005138
:101B82001251083135511251083135511251083173
:101B920035511251083135511F318A31ED610051F1
:101BA2001251083135511251083135511251083153
:101BB20035511251083135511F318A61005112518C
:101BC2000831355112510831355112510831353130
:101BD200FF3135511F318A6100511251083135519F
:101BE200125108313531FF313531FF3135511F3155
:101BF2008A610051125108FD313551125108FC31F0
:101C020035ED5407FD4C70027D08EC60010D511258
:101C120051083135DCF8DDF6511F318A610043AEDF
:101C22000322A2E792D65002F40430F70663F0FFD3
:101C320005F0B3400384800384F40430D60563F0D6
:101C4200FF05F022E066701008A3E066700A08A3A0
:101C5200E066700408A3E06622BB0102E722C082AC
:101C6200C08389828A83BB0003E08002E493D0832D
:101C7200D08222BB000EC082C0838A838982F0D0C8
:101C820083D08222BB0101F7226016080808C6C36E
:101C920013C618C613C618C613C618C613C6D5E08F
:101CA200EA22E026F008A3E036F008A3E036F008C6
:101CB200A3E036F022E0F608A3E0F608A3E0F60877
:101CC200A3E0F622E6F008A3E6F008A3E6F008A3F4
:101CD200E6F022CAC0E0E6F0A308DAFAD0E0FA227F
:101CE200CAC0E0E0A3C582CCC582C583CDC583F05E
:101CF200A3C582CCC582C583CDC583DAE6D0E0CA4E
:101D020022C58224FDC582C58334FFC58322B90062
:101D120010BB0008E88AF084F8AAF022E4FBC8FAB3
:101D220022EB70227B10C833C8C933C9335007C3B2
:101D32009AC3DBF280069A50012ADBEAC833F4C860
:101D4200C933F4C9FA2275F008E4C833C8C933C9E3
:101D520033C99AC99B5004C92AC93BD5F0ECFBC8C8
:101D620033F4C8E4C9FA22700422600D18C6C333E2
:101D7200C608C633C6D5E0F41822251410AF08F5FC
:101D820014400215158008F51440021515D2AF2231
:101D9200C0D0251410AF08F514500205158008F5BF
:101DA2001450020515D2AFD0D0222514F58210AFFF
:101DB20008F514400215158008F51440021515D2D5
:101DC200AF851583222514F582E43515F58322E4C7
:101DD200732514C582C0E0E51534FFC583C0E0E574
:101DE20014C3958224F9F8E4C5A885831585821465
:101DF200C5A8E8CEF0A3E520F0A37808E608F0A392
:101E0200DEFAEFF0A3E58124FBF8E608F0A3E6088A
:101E1200F0A30808E608F0A3E608F0A315811581EF
:101E2200D0E0FED0E0F815811581E8C0E0EEC0E018
:101E320022851583851482E0A3FEE0A3F5207808AD
:101E4200E0A3F608DFFAE0A3FFE0A3C0E0E0A3C04E
:101E5200E0E0A3C0E0E0A3C0E0E4C5A88582148569
:101E62008315C5A8D083D0822274038004740280B3
:101E720000C0E0F404121DACD0E0121CD522CCC08C
:101E8200E0EDC0E0E514C39CCCAD1550011D10AFD0
:101E9200068C148D1580068C148D15D2AF121CE29F
:101EA200D0E0FDD0E0FC22D083D082C5F0E493A341
:101EB200C5F0C395F0F5F0E493A3C395F04005E5B2
:101EC200F0048001E475F002A42582F582E5F03584
:101ED20083F583E493A3C0E0E493C0E022D083D0EF
:101EE20082CCC0E0E493A36006121F091470FAE4E6
:101EF20093A36006121F281470FAD0E0FCE493A3A7
:101F0200C0E0E493C0E022C0E0E493A3D39C50106D
:101F1200E493A3C39C400AD0E0D0E0D0E0021EFCD0
:101F2200A3A3A3D0E022C0E0E493A36C7009D0E0A5
:101F3200D0E0D0E0021EFCA3A3D0E022D083D08266
:101F4200ECC0E0EDC0E0E493A3FCE493A3FDED4C10
:101F5200600D121F8AEC24FFFCED34FFFD80EFE4DC
:101F620093A3FCE493A3FDED4C600D121FC9EC2476
:101F7200FFFCED34FFFD80EFD0E0FDD0E0FCE49308
:101F8200A3C0E0E493C0E022C0E0C3E493960874E7
:101F920001939618400FE4936670080874019366E3
:101FA2001870007019A3A3C3E49396087401939662
:101FB20018A3A3400DD0E0D0E0D0E0021F7AA3A383
:101FC200A3A3A3A3D0E022C0E0C0F088F0E493660C
:101FD20070080874019366187000A8F0A3A3700B30
:101FE200D0F0D0E0D0E0D0E0021F7AA3A3D0F0D0AE
:101FF200E022CC054400362B7B2B0F2C132C172C04
:102002001B2C1F2C422C74F7121DD37A008A08E570
:10201200082420F582E434F1F583E4F00AEAC3945B
:102022000840EA122249EA7001EB7049122381EA60
:102032007001EB7040122411EA7001EB703712212B
:1020420067EA7001EB702E122C9F121A717901123D
:102052001A687901121A6B12207CEA7001EB701572
:102062007900121A6B12207CEA7001EB7007122CB5
:10207200C07A007B007F02021E33C082C08374FFDD
:10208200121D7C7901121A6E7981121A867A327BBC
:10209200001231347968121AD5121A1F121AD9E9AC
:1020A200851482851583F0121AD9121A3F7900120B
:1020B2001A6EE0121EDF01414235210E01EA2011A3
:1020C200F020342321433E2144472145502181F40D
:1020D2002085FE208904218D2C2191FA20951A2138
:1020E200A50821B5112159217A107B11806D7A1131
:1020F20080F87A107B2580637A1180F87A307B240D
:1021020080597A3180F87901121A6E7A3080E57935
:1021120001121A6E7A3180DC7901121A6E7A3380DA
:10212200D37901121A6E7A3480CA7901121A6E7A40
:102132004080C17901121A6E7A4180B87901121A6F
:102142006E7A4380AF7901121A6E7A4480A67901C1
:10215200121A6E7A45809D7A007B007401121D92DC
:10216200D083D0822274F8121DD374FE121D7C1209
:10217200236CC2827EC8A285500B7A057B00123185
:10218200341EEE70F1C2F975F9F0A2F950FCC2F9F1
:1021920075F900A2F950FCE5F9C0E07401121DC7FF
:1021A200D0E0F0C2F975F9F1A2F950FCC2F975F963
:1021B20000A2F950FCE5F9851482851583F0D282DC
:1021C2007401121DC7E0121EDF000400DB21022D84
:1021D20022803F22824522E421851482851583E0F4
:1021E20070077A007B00022407E0C3940450067A49
:1021F200007B1180F1E0640570047A0280F3E05400
:10220200EFFA74046A70047A0180E674076A700453
:102212007A0780DD74086A70047A0880D474096AC7
:1022220070047A0980CB122CC080B7851482851580
:1022320083E0C4135407F8745028FA80B47A007B00
:102242002580A37A5080F874F8121DD374FE121DF3
:102252007C74025580FF12236CD2817A057B0012B6
:102262003134C281C2827EC8A285500B7A057B00BE
:102272001231341EEE70F1C2F975F9EFA2F950FC79
:10228200C2F975F98FA2F950FCC2F975F900A2F9E9
:1022920050FC12235DA2F950FCE5F9C0E074011272
:1022A2001DC7D0E0122352121EDF000820EF2221A8
:1022B200E92222EF2223F32240E12248C82258CF0A
:1022C200225AE522F7227A207B1102234F7401124F
:1022D2001DC7E064F070047A2680ED7A2580E97AE1
:1022E2002180E57A7580E17A017B1280607A008034
:1022F200F87A0380F4C2827EC8A285500B7A057BED
:10230200001231341EEE70F1C2F975F9C0A2F95013
:10231200FCC2F975F964A2F950FCC2F975F900A280
:10232200F950FC12235DA2F950FCE5F9C0E07401FA
:10233200121DC7D0E0122352642870047A6080A96B
:10234200EF6004D2818002C2817A007B00022407FE
:10235200F0D282851482851583E022E5F985148204
:10236200851583F0C2F975F900221223F553F4FBA7
:10237200C29243FE0453F4FD53FEFD43F60222745F
:10238200F8121DD374FF121D7C74025580FED28197
:1023920053F4BFD29643FE4053F47FD29743FE805C
:1023A2007A887B13123134C2817AD07B071225B826
:1023B20075F910A2F950FCC2F975F940A2F950FC66
:1023C200C2F975F900A2F950FCE5F9851482851568
:1023D20083F0D282E0648470067A207B258010121A
:1023E20023F5EE6004D2818002C2817A007B007400
:1023F20001801453F4BFC29643FE4053F47F53FE50
:102402007F43F680227402121D927F01021E3374F2
:10241200F7121DD374FD121D7C7401121DC7E4F066
:10242200A3F074025580851482851583F0D282D27E
:10243200817A027B00123159C28153F3EFC2844385
:10244200FD10C2827A647B00123134D28253F3EFE0
:1024520053FDEF538FEF53F7DF43F310C282C2F9FC
:1024620075F9C0A2F950FCC2F975F904A2F950FC41
:10247200C2F975F925A2F950FCC2F975F905A2F95C
:1024820050FCC2F975F9B0A2F950FCC2F975F9070E
:10249200A2F950FC1225B275F9DFA2F950FCC2F97B
:1024A20075F902A2F950FCC2F975F900A2F950FCC3
:1024B200C2F975F9ACA2F950FC1225B275F990A2D5
:1024C200F950FCC2F975F91AA2F950FCC2F975F972
:1024D20000A2F950FCE5F9F97401121DC7E4F0A35A
:1024E200E9122365A2F950FCE5F9F5087401121D01
:1024F200C7E04508F0A3E0F07401121DC7E06405CF
:102502007004A3E064256018D28285148285158345
:10251200E06004D2818002C2817A007B000225AA97
:10252200C2F975F900A2F950FCE5F990F1211223E4
:1025320065A2F950FCE5F990F120F07A10C2F97524
:10254200F900A2F950FCE5F91AEA70F1C2F975F93D
:1025520000A2F950FCE5F990F125122365A2F95089
:10256200FCE5F990F124122365A2F950FCE5F990FB
:10257200F123122365A2F950FCE5F990F12212230E
:1025820065A2F950FCE5F990F127122365A2F950F2
:10259200FCE5F990F126F0D282D2817A147B001206
:1025A2003134C2817A057B257403121D9202207791
:1025B200D2827A327B00123134C282C2F92274F79B
:1025C200121DD3E5357038E5277002E528600575E0
:1025D2003504802B53F3FBD28243FD04122C435368
:1025E200F3FDD28143FD02122CC01220088A518BC6
:1025F20052125DC8E990F357F01228CF75350202E6
:102602002077E5357021C3E5279408E5289400502A
:102612000475350422752920752AF1752B00752C55
:1026220008752D007535012274F1121DD3E535FAB6
:102632007015752951752AF1752B0085272C85286F
:102642002D75350202273274026A6003022732AA0C
:1026520023AB2474C05AF50874FF5BF5097808129D
:102662001F3E00000200000072260001722632277F
:10267200EA5403F50DEA543C1313543FFE7F00A8BD
:1026820027A9287001E4700B850D08E89508FEE97A
:102692009400FF880A890B7508517509F1850D822E
:1026A20085820EE87001E97003022732C28274202B
:1026B20065517004742565526014750CC8A285506A
:1026C2000D7A057B00123134150CE50C70EFC3E571
:1026D2000A950EF50AE50B9400F50BAA0DEA601AAD
:1026E2001AC2F9850882850983E0F5F9A385820873
:1026F200858309A2F950FCEA70E6C3E50A9EF50A51
:10270200E50B9FF50BEEFA601A1AC2F9850882856D
:102712000983E0F5F9A3858208858309A2F950FCB3
:10272200EA70E6D282E50A7002E50B60030226AE89
:102732007F08021E3374F3121DD3E53560030228AD
:1027420038AA23AB2474C05AF50874FF5BF50978E4
:1027520008121F3E000002000000642700016427E7
:102762002628EA5403F50CEA543C1313543FFE7F27
:1027720000A827A9287001E47004E8FEE9FF880890
:102782008909750A51750BF1E87001E97065022833
:1027920026C2F9A924E9F5F9A2F950FCC2F9A92641
:1027A200E9F5F9A2F950FCC2F9A825E8F5F9A2F970
:1027B20050FC7825E62401F608E63400F6C3E50865
:1027C2009EF508E5099FF509EEFA601D1AC2F97532
:1027D200F900A2F950FCE5F9850A82850B83F0A382
:1027E20085820A85830BEA70E3D282E5087002E5EE
:1027F200096031C28274206551700474256552608B
:1028020014750DC8A285500D7A057B00123134155E
:102812000DE50D70EFE50C121EA90102B427A927E0
:102822009E279327752951752AF1752B0085272C30
:1028320085282D7535017F06021E33C2C03274F61B
:10284200121DD375085075097F750A807808121E0B
:102852006B7401C39466FC74F494F3FD79667AF3A5
:102862007B00127AF77403121D9275089F75090096
:10287200750A007808121E6B7C027D0079727AF369
:102882007B00127AF77403121D927508F978081208
:102892001E6B7C107D0079E17AF37B00127AF7746B
:1028A20003121D927F03021E33741069701E754756
:1028B200667548F37549FD754AF3754BFD754CF322
:1028C200754DFD754EF3754FFD7550F322E5517050
:1028D20002E5527005D2A3C2A422D2A4C2A32274DA
:1028E200F6121DD390009FE493F8740193F9E870F7
:1028F20001E96003022A28123187E96402700302A7
:102902002A28750800750900750A007808121E6BDE
:102912007C007D0479E87AF47B00127AF774031262
:102922001D9290F150E0701F75B60EE5B4A2E7500B
:10293200FAE5BAF975B60EE5B4A2E750FAE5BAF5CA
:10294200BCE9F5BC7401F043B404E5BCFBE0701FC4
:1029520075B60EE5B4A2E750FAE5BAF975B60EE51A
:10296200B4A2E750FAE5BAF5BCE9F5BC7401F0434C
:10297200B404E5BCC4540F75F00A121C24AAF0EB8F
:10298200C4540F75F00A121C24E5F0C454F02A90C6
:10299200F587F090F150E0701F75B60EE5B4A2E72E
:1029A20050FAE5BAF975B60EE5B4A2E750FAE5BAFF
:1029B200F5BCE9F5BC7401F043B404E5BCC4540FA2
:1029C20075F00A121C24E5F090F588F075AD0075DB
:1029D200AC0075AB2074F490F128F074E890F12902
:1029E200F074DF90F12AF074AF90F12BF090F12C9B
:1029F200E054E04404F0E490F12DF0740490F12CE2
:102A0200F0744290F12FF0741290F12EF074F1F5FF
:102A1200D575D42875D601121C20E5D6A2E040FA5D
:102A220075ADFF75ACFF7F03021E331228E1D2A4FD
:102A3200122C437551007552001220088A518B5294
:102A4200125DC8E990F357F01228CFE5517002E504
:102A5200527003122C6C12284079101228AB53F4D6
:102A6200FED29043FE0112311E807C125FF580116E
:102A720012393E800C12784280077AFA7B001231BA
:102A82003490F357E0FA90F356E06A605AE0121E6F
:102A9200DF000500B52A04A62A05AB2A06B02A07DC
:102AA200AB2AB82A125EBA800D1243AC8008122CEF
:102AB200438003122CC090F357E0121EA900072E88
:102AC2002BD32A0A2B2E2B2E2B172B1C2B262B21FA
:102AD2002B122C6C122C9F121A717980121A86906A
:102AE200F357E090F356F090F356E0121EA9000758
:102AF2007C2A042B832A7C2A7C2A6D2A722A772A32
:102B0200722A121ADD022A8353F3FBD28243FD0496
:102B1200122C4380CA125E7580C512615480C012A5
:102B2200356C80BB122CC01278BD80B3122C6C1293
:102B32002CC080ABC082C083E522121EDF0006C615
:102B42005F2BC7552BCB5A2BD76E2BD9642BDB6946
:102B52002B732B1232F6801C1227378017125D90CE
:102B620080121234AC800D12448B8008122604802D
:102B720003753504D083D08222C082C083E522123D
:102B82001EDF000CC5B62BC8AC2BC9C02BCAB12B9B
:102B9200CFDB2BD0FA2BD1FF2BD2042CD5E82BD6AE
:102BA200F52BD8D62BDABB2B092C123217805B12ED
:102BB200262A8056125DA78051123387804CE53554
:102BC20070487900121A8690F356E06404703B1242
:102BD2002C9F803612337F8031E535702DA823E893
:102BE200F9121A688024E5357020A823E8F9121A30
:102BF2006E80171225C08012125E29800D125E4F60
:102C02008008125E108003753504022B7675350438
:102C120022753504227535042275350422C082C01E
:102C220083E9121EA901093F2C3F2C3F2C3F2C3F68
:102C32002C3F2C3F2C3F2C3F2C3F2C3F2C022B7641
:102C42002253F3FED28043FD01C28043F32043F3BB
:102C52001043F308E5C6FA43FB8075F80074075A7F
:102C6200240F4420F5FC75FA5322D28053F3DF532C
:102C7200FDDF438F2053F3EF53FDEF438F1053F3E8
:102C8200F753FDF7438F0853F3FB53FDFB438F04C8
:102C920022D2817A0A7B00123159C2812253F4BFB7
:102CA200D29643FE4053F4FBD29243FE0453F47F88
:102CB200C29743FE8053F4FDC29143FE022253F4B5
:102CC200FBC29243FE0453F4FD53FEFD43F602534E
:102CD200F4BFC29643FE4053F47F53FE7F43F68017
:102CE2002274F7121DD3740A121DC7E0FE75080183
:102CF2007509007808121D69AF08A2AF92E0F8C208
:102D0200AF7409121DC7E0121EA90001842D142DF3
:102D12005B2DEEC333FCE433FDEC2451F582ED343C
:102D2200F2F583EAF0A3EBF0EA7001EB602190F296
:102D320071E04FF07409121DC7E0121EA90001953F
:102D42002D472D8D2DEFF45589F589C2C58044EFAD
:102D5200F4FA90F271E05A80DAEEC333FCE433FD08
:102D6200EC2461F582ED34F2F583EAF0A3EBF0EAAC
:102D72007001EB600590F27280B7EFF4FA90F27294
:102D820080D3E8A2E092AF79FF800FEFF4558AF585
:102D92008AC2EBE8A2E092AF79007F02021E33748E
:102DA200F7121DD37409121DC7E0121EA90001EC0F
:102DB2002DB72DD02DD2BD740A121DC7E0C39404C5
:102DC2005007438C08790080D1438C1080F7439AD6
:102DD20010750801750900740A121DC7E0780812FF
:102DE2001D69E508458DF58D80DB79FF80D974F783
:102DF200121DD37409121DC7E0121EA90001372E3D
:102E0200062E1D2E740A121DC7E0C39404500753E8
:102E12008CF779008084538CEF80F775080175096F
:102E220000740A121DC7E07808121D69E508F455FE
:102E32008DF58D80DD79FF80DB74F7121DD3740967
:102E4200121DC7E0121EA900018C2E512E702E7584
:102E52000801750900740A121DC7E07808121D697D
:102E6200E508F45589F589C2C57900022D9C7508DB
:102E720001750900740A121DC7E07808121D69E580
:102E820008F4558AF58AC2EB80DF79FF80DDC082C3
:102E9200C083E9121EA90001DD2EA02EC12E8514C9
:102EA20082851583E0121EA90001DD2EB22EBC2EF2
:102EB200438C017900D083D08222438C0280F48536
:102EC2001482851583E0121EA90001DD2ED32ED8AF
:102ED2002E538CFE80DD538CFD80D879FF80D6C0C6
:102EE200E0C0D0E8C0E0E9C0E0EAC0E0EBC0E0EC5E
:102EF200C0E0EDC0E0EEC0E0C082C083C0F090F25E
:102F020071E0FEE5897003022FECE589A2E050161C
:102F1200EEA2E0500E90F251E0F8A3E0F583888231
:102F2200121DD17589FEE589A2E15016EEA2E1508B
:102F32000E90F253E0F8A3E0F5838882121DD1755A
:102F420089FDE589A2E25016EEA2E2500E90F255FA
:102F5200E0F8A3E0F5838882121DD17589FBE5892B
:102F6200A2E35016EEA2E3500E90F257E0F8A3E06F
:102F7200F5838882121DD17589F7E589A2E450167E
:102F8200EEA2E4500E90F259E0F8A3E0F5838882B5
:102F9200121DD17589EFE589A2E55016EEA2E55022
:102FA2000E90F25BE0F8A3E0F5838882121DD175E2
:102FB20089DFE589A2E65016EEA2E6500E90F25D98
:102FC200E0F8A3E0F5838882121DD17589BFE589F7
:102FD200A2E75016EEA2E7500E90F25FE0F8A3E0EF
:102FE200F5838882121DD175897FC2C5D0F0D08346
:102FF200D082D0E0FED0E0FDD0E0FCD0E0FBD0E01B
:10300200FAD0E0F9D0E0F8D0D0D0E032C0E0C0D0C1
:10301200E8C0E0E9C0E0EAC0E0EBC0E0ECC0E0ED0F
:10302200C0E0EEC0E0C082C083C0F090F272E0FE69
:10303200E58A7003023119E58AA2E05016EEA2E099
:10304200500E90F261E0F8A3E0F5838882121DD160
:10305200758AFEE58AA2E15016EEA2E1500E90F2C8
:1030620063E0F8A3E0F5838882121DD1758AFDE53D
:103072008AA2E25016EEA2E2500E90F265E0F8A3A8
:10308200E0F5838882121DD1758AFBE58AA2E3509E
:1030920016EEA2E3500E90F267E0F8A3E0F5838803
:1030A20082121DD1758AF7E58AA2E45016EEA2E4D7
:1030B200500E90F269E0F8A3E0F5838882121DD1E8
:1030C200758AEFE58AA2E55016EEA2E5500E90F25F
:1030D2006BE0F8A3E0F5838882121DD1758ADFE5E3
:1030E2008AA2E65016EEA2E6500E90F26DE0F8A328
:1030F200E0F5838882121DD1758ABFE58AA2E75066
:1031020016EEA2E7500E90F26FE0F8A3E0F5838886
:1031120082121DD1758A7FC2EB022FEED2AF22E559
:10312200A8C2AFA2E7E492E0FA7B0022EAA2E09210
:10313200AF22EBC313FBEA13FAC3EA9402EB940047
:10314200401400000000000000000000EA24FFFA22
:10315200EB34FFFB80E32274F8121DD3EAFEEBFF8F
:10316200EE7001EF60157AE87B03123134EE24FF32
:103172001EEF34FFFFEE7001EF70EB7F01021E3392
:10318200D083D08222C082C083741855BE13131319
:10319200541F121EA901019F31A331A7317900806A
:1031A2000679018002790280D7C082C083E5A8FC3B
:1031B200C2AF90F273EAF0A3EBF0ECA2E792AFD0C9
:1031C20083D08222C0E0C0D0E8C0E0E9C0E0EAC01B
:1031D200E0EBC0E0ECC0E0EDC0E0C082C083C0F034
:1031E20090F273E07002A3E0600E90F273E0F8A335
:1031F200E0F5838882121DD1D0F0D083D082D0E056
:10320200FDD0E0FCD0E0FBD0E0FAD0E0F9D0E0F86D
:10321200D0D0D0E03274F8121DD3A825E8121EDFF8
:103222000002002C320463327232E535FA701775EF
:103232002975752AF2752B00752C08752D007535C8
:10324200027F01021E3374026A70F690F279E0A2E4
:10325200E050EE90F275E06004D2A480E4C2A48053
:10326200E0E535FA700F740865277002E52860BF43
:1032720075350480CC74026A70C790F279E0FBF471
:10328200FCE5805CC0E090F275E05BFAD0E04AF5C4
:103292008090F27AE0FDF4FEE5905EC0E090F27676
:1032A200E05DFAD0E04AF59090F27BE0FFF455A0A1
:1032B200C0E090F277E05FFAD0E04AF5A0EC55F377
:1032C200F5F3EB45FDF5FDEE55F4F5F4ED45FEF5B0
:1032D200FE741F5FFBA2E0E492E0C0E074185B138F
:1032E20013543FFAD0E04AF455F5F5F5EB45FFF5F6
:1032F200FF023243C082C083A825E8121EA903013F
:10330200773308331C33752900752A00752B007535
:103312002C00752D00753501805E79217A007B01C4
:1033220089298A2A8B2B752C048A2DE580121C751B
:10333200E590C0E0A929AA2AAB2BE9240109EA34C5
:1033420000FAD0E0121C75E5A0C0E0A929AA2AABB8
:103352002BE924020909EA3400FAD0E0121C75A90B
:1033620029AA2AAB2BE92403090909EA3400FAE461
:10337200121C7580A0753504D083D08222E5357089
:1033820003122C932274F7121DD3E535FA7036E539
:10339200257002E5266015AC27AD28ECF8EDF97A28
:1033A200057B00121D10EA7001EB60067535040200
:1033B20034A7752951752AF1752B008C2C8D2D752A
:1033C20035020234A774026A60030234A77A00A8A5
:1033D20025E8A2E0505990F151E0FAF4FD90F15342
:1033E200E05AFEFBF45AFC90F152E05AC0E0E5F3D9
:1033F2005DFAD0E04AF5F3E5FD5D4EF5FD90F1553D
:10340200E0FEEB5EC0E0E5805DFAD0E04AF5809038
:10341200F154E05CC0E0E58F5DFAD0E04AF58FEC54
:10342200600BEE600543F720800353F7DF7A01A8B3
:1034320025E85402606FEA75F005A42451F8E5F01E
:1034420034F1F988828983E0FAF4FDA3A3E05AFEFD
:10345200FBF45AFC88828983A3E05AC0E0E5F45D5C
:10346200FAD0E04AF5F4E5FE5D4EF5FE88828983E6
:10347200A3A3A3A3E0FEEB5EC0E0E5905DFAD0E07B
:103482004AF59088828983A3A3A3E05CC0E0E5F6B5
:103492005DFAD0E04AF5F6EC600BEE600543F740CA
:1034A200800353F7BF7F02021E3374F5121DD3A8A7
:1034B20025A926E87001E97006753504023567759D
:1034C2000A00752951752AF1752B00E8A2E0502BEC
:1034D200E5FDFBF4FAE5F390F151F0E5FD90F152D0
:1034E200F0E58F5A90F153F0E5805B90F154F0E5EE
:1034F200F7A2E55003E04AF0750A01E85402604A77
:10350200E5FEFBF4FA850A087509007402780812D0
:103512001D69E5082451F8E50934F1F9E5F48882DA
:103522008983F0E5FEA3F0E5F65A88828983A3A396
:10353200F0E82403F582E93400F583E5905BF0E5D9
:10354200F7A2E65003E04AF0050A7401250AF508DD
:10355200E43400F50974027808121D6985082C8587
:10356200092D7535017F04021E3374F7121DD353E2
:10357200F3FBD28243FD04122C4374E055FC441247
:10358200F5FC75FA007C807D077AF17BF579711282
:103592007B6A127B90786F76930876F2740790F2CA
:1035A2009AF0740190F27FF0E490F283F090F2824C
:1035B200F090F285F090F286F090F287F074049029
:1035C200F290F090F2917428F0A374DEF053F4FBC1
:1035D200C29243FE0490F3527402121E80122DF026
:1035E2007402121D9253F4FD53FEFD43F60290F352
:1035F200527402121E807900122E907402121D92D1
:103602008551088552097808121F3E0500001102F3
:10361200115637071109115637201121114D362540
:103622001126114D36001203124D36070050115665
:103632003775114D3630124D3650124D3600255623
:103642003720254638502556373739747890F2841A
:10365200F090F28074FFF0A3E4F090F28C748CF09E
:10366200A3744FF090F28A747FF0A37450F090F23A
:103672008874C4F0A3744CF0C3E552941290F28E95
:1036820040087413F0A37455800674A3F0A3744B1E
:10369200F0C2827420655170047425655260117EF7
:1036A200C8A285500B7A057B001231341EEE70F1F0
:1036B200C2F975F936A2F950FCE5F9D282C28274D8
:1036C20020655170047425655260117EC8A2855030
:1036D2000B7A057B001231341EEE70F1C2F975F9D6
:1036E2003BA2F950FCE5F9D282C282742065517086
:1036F200047425655260117EC8A285500B7A057B41
:10370200001231341EEE70F1C2F975F93AA2F95085
:10371200FCE5F9D282C28274206551700474256579
:103722005260117EC8A285500B7A057B001231349B
:103732001EEE70F1C2F975F93DA2F950FCE5F9FAF5
:10374200D28274F05A70CE740690F27DF090F27EBE
:10375200F0023D61740C90F284F090F28074FFF0FC
:10376200A3E4F090F28E7490F0A37445F090F28C82
:103772007401F0A37449F090F28A74E5F0A37449DD
:10378200F090F2887464F0A37446F0C282742065EB
:103792005170047425655260117EC8A285500B7A5F
:1037A200057B001231341EEE70F1C2F975F936A2B2
:1037B200F950FCE5F9D282C282742065517004741A
:1037C20025655260117EC8A285500B7A057B0012D6
:1037D20031341EEE70F1C2F975F93BA2F950FCE5E5
:1037E200F9D282C2827420655170047425655260D8
:1037F200117EC8A285500B7A057B001231341EEE71
:1038020070F1C2F975F93AA2F950FCE5F9D282C217
:10381200827420655170047425655260117EC8A2BD
:1038220085500B7A057B001231341EEE70F1C2F91D
:1038320075F93DA2F950FCE5F9FAD28274F05A709A
:10384200CE023749E490F284F090F280747FF0A3C4
:10385200E4F090F28E7410F0A3745AF090F28C742B
:10386200AAF0A3745CF090F28A7436F0A3745DF04F
:1038720090F28874A6F0A3745AF0C2827420655143
:1038820070047425655260117EC8A285500B7A05BA
:103892007B001231341EEE70F1C2F975F945A2F9BE
:1038A20050FCE5F9D282C2827420655170047425FD
:1038B200655260117EC8A285500B7A057B001231D9
:1038C200341EEE70F1C2F975F948A2F950FCE5F91F
:1038D200D282C282742065517004742565526011CF
:1038E2007EC8A285500B7A057B001231341EEE7021
:1038F200F1C2F975F947A2F950FCE5F9D282C28208
:103902007420655170047425655260117EC8A285C9
:10391200500B7A057B001231341EEE70F1C2F9753C
:10392200F900A2F950FCE5F9FAD28274835A648054
:1039320070CC023749123F0CE402374F74F7121D64
:10394200D374FB121D7C90F27DE0121EA90104FFCC
:1039520039F739FC39F2395D39ED3990F285E07089
:10396200030239E81231218A088B097971127BD658
:10397200C3EA9405EB94004061851482851583ACFB
:1039820082AD837583F375824B7405121CE290F24B
:1039920085E0C0E07403121DC7D0E0F090F285E02C
:1039A200C0E07404121DC7D0E0F090F287E0A2E2FA
:1039B20050157411851482851583F07401121DC788
:1039C2007402F07C0580027C047D008514828515DA
:1039D20083AA82AB837971127BFBE490F285F0AA11
:1039E20008AB0912312E123A048012124226800DBF
:1039F200123F0C8008123A828003123D667405025F
:103A02003D5E74F3121DD390DE0EE0F50A90F29043
:103A1200E090DE0EF090DE11E0A2E040581231217B
:103A22008A088B097971127BF18A0C8B0DAE0CAF6F
:103A32000DAA08AB0912312EEE7001EF6029C3EE18
:103A42009440EF940040087E407F0074018001E4BE
:103A520090F29BF0EEFCEFFD90F291E0FAA3E0FB16
:103A62007971127E35800890F29BE06008E4F07470
:103A72000190DE11F0E50A90DE0EF07F06021E33A1
:103A820074F7121DD31279A27971127F1A90F293F0
:103A920074E8F0A374F4F090F29AE090F295F0A337
:103AA200E4F090F297F0A3F090F299F0FB90F29A82
:103AB200E0F874012808E43400F9E89401E994007C
:103AC200402AEBF890F293E028FAA3E034008A82CD
:103AD200F583E4F00B90F29AE0F874012808E434DC
:103AE20000F9EB98E499C365D03340D6127B90126B
:103AF200791D90F28EE0F8A3E0F5838882121DD141
:103B02008551088552097808121F3E0500001102EE
:103B120011413B07110811413B20112111413B2565
:103B2200112611413B00120312413B040075114161
:103B32003B3012413B0025413B20259C3B9C3B53A3
:103B4200F4BFC29643FE4090F3547402121E8012D8
:103B52002DF07402121D9253F47F53FE7F43F680C0
:103B620090F3547402121E80122E3B7402121D92A4
:103B720090F3547402121E8090F288E0FAA3E0FBE4
:103B8200122CE37402121D92C2EB90F354740212CF
:103B92001E80122DA17402121D9290F35074021213
:103BA2001E8090F288E0FAA3E0FB122CE37402126A
:103BB2001D9290F3507402121E80122E3B74021258
:103BC2001D9290F3507402121E80122DA1740212E3
:103BD2001D92740490F27DF0740190F27EF01279DD
:103BE200CF8551088552097808121F3E0500001141
:103BF2000211AE3C07110811AE3C20112111263CE6
:103C020025112611263C00120312263C05007511CF
:103C1200263C3012263C5012263C0025AE3C202584
:103C2200043D5C3DC2827420655170047425655266
:103C320060117EC8A285500B7A057B001231341EBA
:103C4200EE70F1C2F975F93AA2F950FCE5F9D282A7
:103C520090F287E0A2E0C28274206551502770047E
:103C62007425655260117EC8A285500B7A057B00CF
:103C72001231341EEE70F1C2F975F938A2F950030F
:103C8200023D5880F770047425655260117EC8A207
:103C920085500B7A057B001231341EEE70F1C2F9A9
:103CA20075F934A2F95003023D5880F7C28274209C
:103CB200655170047425655260117EC8A285500B4F
:103CC2007A057B001231341EEE70F1C2F975F93AB1
:103CD200A2F950FCE5F9D282C282742065517004C7
:103CE2007425655260117EC8A285500B7A057B004F
:103CF2001231341EEE70F1C2F975F934A2F9405650
:103D020080FAC28274206551700474256552601174
:103D12007EC8A285500B7A057B001231341EEE70EC
:103D2200F1C2F975F947A2F950FCE5F9D282C282D3
:103D32007420655170047425655260117EC8A28595
:103D4200500B7A057B001231341EEE70F1C2F97508
:103D5200F942A2F950FCE5F9D2828003121D927F4A
:103D620002021E3374F7121DD37971127F1A90F278
:103D72009374E8F0A374F4F090F29AE090F295F064
:103D8200A3E4F090F297F0A3F090F299F0FB90F296
:103D92009AE0F874012808E43400F9E89401E994FF
:103DA20000402AEBF890F293E028FAA3E034008A6C
:103DB20082F583E4F00B90F29AE0F874012808E4AB
:103DC2003400F9EB98E499C365D03340D690F2926F
:103DD200E090F138F090F291E090F139F0855108DD
:103DE2008552097808121F3E0400001102117E3E1E
:103DF20020112111283E25112611283E00120312FE
:103E0200283E080007117E3E09117E3E50117E3E7B
:103E12007511283E5012283E00257E3E2025A83EE0
:103E220050257E3ED43EC2827420655170047425B2
:103E3200655260117EC8A285500B7A057B00123153
:103E4200341EEE70F1C2F975F93BA2F950FCE5F9A6
:103E5200D282C28274206551700474256552601149
:103E62007EC8A285500B7A057B001231341EEE709B
:103E7200F1C2F975F93AA2F9405480FAC28274206B
:103E8200655170047425655260117EC8A285500B7D
:103E92007A057B001231341EEE70F1C2F975F93BDE
:103EA200A2F9402A80FAC2827420655170047425F6
:103EB200655260117EC8A285500B7A057B001231D3
:103EC200341EEE70F1C2F975F948A2F950FCE5F919
:103ED200D28290F28EE0F8A3E0F5838882121DD19F
:103EE20090F3507402121E8090F28AE0FAA3E0FB73
:103EF200122CE37402121D92C2EB740590F27DF053
:103F0200740290F27EF0FF021E3374F7121DD37416
:103F1200FF121D7C7F03E4851482851583F090F2E5
:103F22007EE06402702C80077A087B001231597897
:103F32006F8682088683A3A3A3A3A3A3E06013854D
:103F42001482851583E0FA74012AF074FF6A70D82E
:103F52007F0790F3507402121E80122DF074021229
:103F62001D9290F3507402121E807A007B00122C74
:103F7200E37402121D92740190F350F090F351F029
:103F820090F3547402121E80122DF07402121D92CC
:103F920090F3547402121E807A007B00122CE37498
:103FA20002121D928551088552097808121F3E059A
:103FB2000000110211AA4007110911AA4020112183
:103FC20011F13F25112611F13F00120312F13F07B3
:103FD200005011AA407511F13F3012F13F5012F119
:103FE2003F0025AA40202562415025AA40C241C275
:103FF200827420655170047425655260117EC8A2D6
:1040020085500B7A057B001231341EEE70F1C2F935
:1040120075F936A2F950FCE5F9D282C282742065A4
:104022005170047425655260117EC8A285500B7AC6
:10403200057B001231341EEE70F1C2F975F93AA215
:10404200F950FCE5F9D282C2827420655170047481
:1040520025655260117EC8A285500B7A057B00123D
:1040620031341EEE70F1C2F975F93BA2F950FCE54C
:10407200F9D282C28274206551700474256552603F
:10408200117EC8A285500B7A057B001231341EEED8
:1040920070F1C2F975F93DA2F950FCE5F9FAD28244
:1040A20074F05A70CE0241C2C2827420655170040B
:1040B2007425655260117EC8A285500B7A057B007B
:1040C2001231341EEE70F1C2F975F936A2F950FCC4
:1040D200E5F9D282C282742065517004742565525A
:1040E20060117EC8A285500B7A057B001231341E06
:1040F200EE70F1C2F975F93DA2F950FCE5F9FAD278
:104102008274F05A70CEC282742065517004742594
:10411200655260117EC8A285500B7A057B00123170
:10412200341EEE70F1C2F975F93AA2F950FCE5F9C4
:10413200D282C28274206551700474256552601166
:104142007EC8A285500B7A057B001231341EEE70B8
:10415200F1C2F975F93BA2F950FCE5F9D28280600F
:10416200C2827420655170047425655260117EC844
:10417200A285500B7A057B001231341EEE70F1C21B
:10418200F975F945A2F950FCE5F9D282C282742090
:10419200655170047425655260117EC8A285500B6A
:1041A2007A057B001231341EEE70F1C2F975F90006
:1041B200A2F950FCE5F9FAD28274835A648070CC79
:1041C200539AEF1279BE90F27EE06401704690DE5F
:1041D2000EE0FB90F290E090DE0EF0740890DE119B
:1041E200F090DE11E0A2E3500C90DE0EE0FA90F2C5
:1041F20090E06A60EC740890DE11F090DE11E0A2AB
:10420200E3500C90DE0EE0FA90F290E06A60ECEB84
:1042120090DE0EF0740690F27DF0EF90F27EF07474
:1042220001023D5E74F7121DD390DE0EE0FE90F2A5
:1042320090E090DE0EF0539AFD786F8682088683B6
:10424200A3A3A3A3A3A3E060030243A190DE14E00F
:10425200A2E040030243A190DE16E0FC90F295E05A
:10426200FAA3E0FB188682088683E02AA3E03B904B
:10427200F13AF0188682088683E02A90F13BF0EC4E
:1042820090F13DF075D60475D7048C82AA82188607
:1042920082088683A3A3A3A3E02AF0A3E03400F05C
:1042A200188682088683A3A3E02AF0A3E03400F0F4
:1042B200E5D6A2E240FA90F283E0707090F29AE0C2
:1042C200FA188682088683E02AF8A3E03400F9E827
:1042D200FAE9FB8A828B83E0F890F280F0A3E4F0A3
:1042E20090F287E0A2E2503EE8FDA2E7500890F289
:1042F20080E4F0A3802F8A828B83A3E0FA8D087476
:10430200075508F8E4C8F9EA90F280F0A3E9F0ED65
:10431200A2E4500408088002780490F280C3E09876
:10432200F0A3E09400F0740190F283F0E490DE14C4
:10433200F0786F8682088683A3A3A3A3C082C0837A
:1043420090F27FE0F890F280E028F8A3E03400F9E0
:1043520090F282E0FA3395E0FBEA28F8EB39F9D0E3
:1043620083D082E0687003A3E069703390F29AE030
:10437200786F8682088683A3A3F0A3E4F074011801
:104382008682088683A3A3A3A3A3A3F0EE90DE0EE6
:10439200F090F28CE0F8A3E0F5838882121DD1EE52
:1043A20090DE0EF0439A02023D61C082C083123F4A
:1043B2000C75A90075B900122C6C53F3FB53FDFB6D
:1043C200438F04E490F27DF0D083D0822274F712FE
:1043D2001DD374FD121D7CEAFEEBFF7971127BD6B0
:1043E2008A088B0974FD2508F874FF3509F9C3E8BA
:1043F2009EE99F504790F286E0705B90F348C0823E
:10440200851482851583AC82AD837583F3D0827463
:1044120003121CE290F287E0A2E2500974138514A1
:1044220082851583F07C037D00851482851583AA1D
:1044320082AB837971127BFB74018016EEFCEFFD77
:10444200786F8682088683E0FAA3E0FB7971127C9A
:10445200B7E490F286F090F27FE07004740180017C
:10446200E490F283F0786F8682088683A3A3A3A3E5
:10447200E4F0A3F090F29AE0188682088683A3A360
:10448200F0A3E4F07403023D5EC082C083752C0089
:10449200752D00A825E8121EA90003E044A744BB1D
:1044A20044CC44D944752C01752D0075297E752A9A
:1044B200F2752B007535018028740190F27DF0A809
:1044C20023E8540B90F287F080EA740290F27DF0B8
:1044D200A823E8540A80ED740390F27D80E97535D3
:1044E200040243CAC082C083E990F2850243C974C0
:1044F200F8121DD3E9FFC28274206551700474253D
:10450200655260117EC8A285500B7A057B0012317C
:10451200341EEE70F1C2F98FF9A2F950FCE5F9F9F7
:10452200D2827F01021E3374F7121DD390F293746C
:10453200E8F0A374F4F090F29AE090F295F0A3E41C
:10454200F090F297F0A3F090F299F0FB90F29AE0DB
:10455200F874012808E43400F9E89401E994004071
:104562002AEBF890F293E028FAA3E034008A82F56D
:1045720083E4F00B90F29AE0F874012808E4340026
:10458200F9EB98E499C365D03340D6023D61C0820D
:10459200C08374FF121D7C7C017D00851482851509
:1045A20083AA82AB837988124B1CE05403640170A6
:1045B2000474018001E490F27FF07012740190F2B1
:1045C20083F0FC7D007A807BF27986124B1C7C01A1
:1045D2007D00851482851583AA82AB837983124B71
:1045E2001CE054F07583F2758284FAE04A851482E5
:1045F200851583F07C017D00AA82AB837903124B7F
:104602001C90F27DE06401704F7C017D0085148274
:10461200851583AA82AB837987124B1CE0A2E250F4
:1046220004D2F08002C2F0A2F0E492E0C33390F22E
:1046320082F07406851482851583F07C017D00AAC0
:1046420082AB837900124B1C7440F07C017D00AA7E
:1046520082AB837902124B1C7401121D92D083D05B
:10466200822274F7121DD374FF121D7C90F35274D0
:1046720002121E80122E3B7402121D9290F3547489
:1046820002121E80122E3B7402121D92786F8682D5
:10469200088683A3A3A3A3E07002A3E070211231D2
:1046A200218A088B09786F8682088683E02403FAC0
:1046B200A3E03400FB1279F4AA08AB0912312E7C74
:1046C200017D00851482851583AA82AB8379BB1292
:1046D2004B1CE9FEE0700302477E90F283E0707E9D
:1046E200786FE62402FA08E63400FB8A828B83E0C4
:1046F200F508A3E0F50974012508F8E43509F98AFB
:10470200828B83E8F0A3E9F07C017D00786F8682DA
:10471200088683E02508FAA3E03509FB79FF124BEE
:104722001C786F8682088683A3A3A3A37401F0A3D7
:10473200E4F0188682088683E0F8A3E0F583888295
:10474200A3A3A3A3A3A3A3E090F280F0A3E4F07435
:104752000190F283F0851482851583E014F074F0E1
:104762005E6460601790F280E0F8A3E0F98514823D
:10477200851583E0706BE87001E960657936124453
:10478200F190F27FE0F4FA90F283E05AF0786F86CB
:1047920082088683A3A3A3A3E4F0A3F01886820869
:1047A2008683A3A37407F0A3E4F090F35274021279
:1047B2001E80122E3B7402121D9290F35474021248
:1047C2001E80122E3B7402121D92793A1244F17924
:1047D2003D1244F1E954F070F679341244F1024882
:1047E200F790F27FE028F8E439F990F282E0FA33A8
:1047F20095E0FBEA28FEEB39FF786F868208868314
:10480200A3A3A3A3E0F8A3E0F9851482851583E0AE
:10481200FCEEC398FAEF99FBC3EC9AE49B5003E0D9
:104822008003EEC398F508E5D6A2E340FAC282758A
:1048320009C8A285500D7A057B001231341509E5AD
:104842000970EFC2F975F9FFA2F950FCA908786F57
:104852008682088683A3A3E0FAA3E0FB1886820877
:104862008683E02AFAA3E03BFB12797AD282786F40
:10487200E62404FA08E63400FB850882AC828A82C8
:104882008B83E02CF0A3E03400F018868208868344
:10489200A3A3E02CF0A3E03400F08A828B83E06EC5
:1048A2007003A3E06F704E79341244F174042EFA4F
:1048B200E43FFB786F8682088683E0F8A3E0F58305
:1048C2008882E4F0786F8682088683E0F8A3E0F5B8
:1048D200838882A3EAF0786F8682088683E0F8A351
:1048E200E0F5838882A3A3EBF074032A0A0A0AE4A0
:1048F2003BFB1243CF7401121D927F02021E33C092
:1049020082C08374FF121D7C786F8682088683A31F
:10491200A3A3A3C3E09441A3E0940040557402858D
:104922001482851583F07C017D00AA82AB83790015
:10493200124B1C7C407D00786F8682088683E024BF
:1049420007FAA3E03400FB797F124B1C786F868252
:10495200088683A3A3A3A3E024C0F0A3E034FFF05E
:10496200188682088683A3A3E02440F0A3E03400E3
:1049720080487406851482851583F07C017D00AA27
:1049820082AB837900124B1C786F8682088683A3E0
:10499200A3A3A3E0FCA3E0FD188682088683E0249B
:1049A20007FAA3E03400FB797F124B1C786F8682F2
:1049B200088683A3A3A3A3E4F0A3F090F3527402A6
:1049C200121E80122E3B7402121D9290F352740238
:1049D200121E80122DA17402121D9279351244F119
:1049E20002465A74F8121DD374FF121D7C786F862A
:1049F20082088683A3A3A3A3E0FA704A90F35274B9
:104A020002121E80122DF07402121D927936124487
:104A1200F1786F8682088683A3A37407F0A3E4F07B
:104A2200188682088683A3A3A3A3A3A3F090F27F90
:104A3200E0F4FA90F283E05AF0793D1244F1E9543D
:104A4200F070F6024B1290F284E0333354FCFEC352
:104A52009A505990F3527402121E80122E3B740225
:104A6200121D92EEFC7D00786F8682088683A3A3D6
:104A7200E0FAA3E0FB188682088683E02AFAA3E024
:104A82003BFB797F124B1C786F8682088683A3A337
:104A9200E02EF0A3E03400F0188682088683A3A3F8
:104AA200A3A3C3E09EF0A3E0940080637406851480
:104AB20082851583F07C017D00AA82AB8379001286
:104AC2004B1C90F3527402121E80122E3B7402127F
:104AD2001D92786F8682088683A3A3A3A3E0FCA31A
:104AE200E0FD188682088683A3A3E0FAA3E0FB1800
:104AF2008682088683E02AFAA3E03BFB797F124B89
:104B02001C786F8682088683A3A3A3A3E4F0A3F094
:104B12007401121D927F01021E3374F7121DD38994
:104B2200088A828B83ECFEEDFFC2827509C8A285DA
:104B3200500D7A057B001231341509E50970EFC278
:104B4200F974404508F5F9A2F950FCE5F9F9E508D0
:104B5200A2E7EE50267001EF6042EEFAEFFBC2F9D7
:104B620075F900A2F950FCE5F9F0A3EA24FF1AEB6B
:104B720034FFFBEA7001EB602380E37001EF601CFD
:104B8200EEFAEFFBC2F9E0F5F9A2F950FCA3EA2430
:104B9200FF1AEB34FFFBEA7001EB70E8D2820248A5
:104BA200FC74F7121DD374FD121D7C7C017D0085FF
:104BB2001482851583AA82AB8379A81251D4E0545A
:104BC200606420700474018001E490F27FF070262A
:104BD200851482851583E0541C600474018001E40D
:104BE20090F282F0740190F283F0FC7D007A807B77
:104BF200F279AE1251D47C017D0085148285158331
:104C0200AA82AB83799E1251D4E054807583F275E7
:104C12008284FAE04A851482851583F07C017D0046
:104C2200AA82AB83791E1251D490F27DE0640170A6
:104C3200487C017D00851482851583AA82AB837925
:104C4200A71251D4E0A2E0E492E0C333FA90F282D8
:104C5200E02AF07406851482851583F07C017D00BC
:104C6200AA82AB8379011251D47440F07C017D0099
:104C7200AA82AB8379031251D490F287E0A2E14079
:104C82003C7508027509007808121E6F7403121D24
:104C9200C7AC82AD8379807A8F7B2F12525B74020C
:104CA200121D92E0C39440400D7402121DC7E064CD
:104CB20021700312532790F287E0C2E1F0740302DD
:104CC200550B74F7121DD374FF121D7C90F35274AE
:104CD20002121E80122E3B7402121D9290F3547423
:104CE20002121E80122E3B7402121D92786F86826F
:104CF200088683A3A3A3A3E07002A3E0702112316C
:104D0200218A088B09786F8682088683E02403FA59
:104D1200A3E03400FB1279F4AA08AB0912312E7514
:104D220008017509007808121E6F7402121DC7ACC3
:104D320082AD8379807AD77B2F12525B7402121D67
:104D420092E9FE851482E07003024DD990F283E06D
:104D5200707E786FE62402FA08E63400FB8A828BC2
:104D620083E0F508A3E0F50974012508F8E43509A4
:104D7200F98A828B83E8F0A3E9F07C017D00786FE9
:104D82008682088683E02508FAA3E03509FB79FFCD
:104D92001251D4786F8682088683A3A3A3A37401D9
:104DA200F0A3E4F0188682088683E0F8A3E0F58396
:104DB2008882A3A3A3A3A3A3A3E090F280F0A3E419
:104DC200F0740190F283F0851482851583E014F06B
:104DD20074F05E6460700F79361244F190F27FE0F5
:104DE200705F7401805C90F280E0F8A3E0F98514B2
:104DF20082851583E07006E87001E970DA90F27F2F
:104E0200E0FAE82AF8E93400F990F282E0FA339500
:104E1200E0FBEA28FEEB39FF786F8682088683A3DF
:104E2200A3A3A3E0F8A3E0F9851482851583E0FC2F
:104E3200EEC398FAEF99FBC3EC9AE49B5068E080CA
:104E420068E490F283F0786F8682088683A3A3A336
:104E5200A3E4F0A3F0188682088683A3A37407F064
:104E6200A3E4F0793A1244F190F3527402121E80D4
:104E7200122E3B7402121D9290F3547402121E8081
:104E8200122E3B7402121D92793D1244F1E954F044
:104E920070F690F287E0A2E0500879381244F102ED
:104EA2004F87793480F6EEC398F508E5D6A2E34041
:104EB200FAC2827509C8A285500D7A057B001231AB
:104EC200341509E50970EFC2F975F9FFA2F950FC32
:104ED200A908786F8682088683A3A3E0FAA3E0FB81
:104EE200188682088683E02AFAA3E03BFB12797ACD
:104EF200D282786FE62404FA08E63400FB85088241
:104F0200AC828A828B83E02CF0A3E03400F0188616
:104F120082088683A3A3E02CF0A3E03400F08A8207
:104F22008B83E06E7003A3E06F705A90F287E0A269
:104F3200E050047938800279341244F174042EFA74
:104F4200E43FFB786F8682088683E0F8A3E0F5836E
:104F52008882E4F0786F8682088683E0F8A3E0F521
:104F6200838882A3EAF0786F8682088683E0F8A3BA
:104F7200E0F5838882A3A3EBF074032A0A0A0AE409
:104F82003BFB1243CF740102550BC082C08374FFF6
:104F9200121D7C786F8682088683A3A3A3A3C3E035
:104FA2009481A3E09400405974028514828515838C
:104FB200F07C017D00AA82AB8379011251D47C80FE
:104FC2007D0090F29AE0FA786F8682088683E02A62
:104FD200FAA3E03400FB797F1251D4786F868208FD
:104FE2008683A3A3A3A3E02480F0A3E034FFF018F8
:104FF2008682088683A3A3E02480F0A3E0340080A5
:105002004C7406851482851583F07C017D00AA828A
:10501200AB8379011251D4786F8682088683A3A369
:10502200A3A3E0FCA3E0FD90F29AE0FA18868208BE
:105032008683E02AFAA3E03400FB797F1251D47808
:105042006F8682088683A3A3A3A3E4F0A3F090F360
:10505200527402121E80122E3B7402121D9290F3A1
:10506200527402121E80122DA17402121D92793501
:105072001244F17401121D92D083D0822274F8126C
:105082001DD374FF121D7C786F8682088683A3A3CA
:10509200A3A3E0F8A3E0F9E87001E9705E90F3528F
:1050A2007402121E80122DF07402121D92793612B1
:1050B20044F190F29AE0786F8682088683A3A3F087
:1050C200A3E4F0188682088683A3A3A3A3A3A3F074
:1050D20090F27FE06004D2F08002C2F0A2F0E4928B
:1050E200E0F4FA90F283E05AF0793A1244F1793618
:1050F2001244F1E954F070F10251CA90F284E004D2
:10510200FA8A82AE82C398E499505990F35274029B
:10511200121E80122E3B7402121D92EEFC7D00784C
:105122006F8682088683A3A3E0FAA3E0FB18868237
:10513200088683E02AFAA3E03BFB797F1251D478F8
:105142006F8682088683A3A3E02EF0A3E03400F0EA
:10515200188682088683A3A3A3A3C3E09EF0A3E0DC
:10516200940080637406851482851583F07C017D2A
:1051720000AA82AB8379011251D490F352740212C5
:105182001E80122E3B7402121D92786F8682088650
:1051920083A3A3A3A3E0FCA3E0FD18868208868371
:1051A200A3A3E0FAA3E0FB188682088683E02AFA2A
:1051B200A3E03BFB797F1251D4786F868208868305
:1051C200A3A3A3A3E4F0A3F07401121D927F010232
:1051D2001E3374F7121DD389088A828B83ECFEED8D
:1051E200FFC2827509C8A285500D7A057B00123173
:1051F200341509E50970EFC2F974404508F5F9A2C2
:10520200F950FCE5F9F9E508A2E7EE50267001EF46
:105212006042EEFAEFFBC2F975F900A2F950FCE523
:10522200F9F0A3EA24FF1AEB34FFFBEA7001EB600A
:105232002380E37001EF601CEEFAEFFBC2F9E0F5A8
:10524200F9A2F950FCA3EA24FF1AEB34FFFBEA703F
:1052520001EB70E8D28202550E74F3121DD3890A53
:10526200ECFEEDFF740D121DC7E0F508A3E0F50991
:10527200EBF50CEAF50DC282750BC8A285500D7ACA
:10528200057B00123134150BE50B70EFE50CC2F90A
:10529200601AE50A450C4440F5F9A2F950FCE5F91B
:1052A200F9C2F9850DF9A2F9401180FAE50A450D16
:1052B2004440F5F9A2F950FCE5F9F97480650A70E9
:1052C20031E5087002E5096055AA08AB09C2F97513
:1052D200F900A2F950FCE5F98E828F83F0A3AE8229
:1052E200AF83EA24FF1AEB34FFFBEA7001EB602E76
:1052F20080DBE5087002E5096024AA08AB09C2F95F
:105302008E828F83E0F5F9A3AE82AF83A2F950FCBF
:10531200EA24FF1AEB34FFFBEA7001EB70E0D28261
:105322007F06021E3374F7121DD374F9121D7CE43A
:10533200851482851583F0750801F5097808121E17
:105342006F7402121DC7AC82AD8379007A257B2F60
:1053520012525B7402121D927808121E6F740412AC
:105362001DC7AC82AD8379807A157B2F12525B7494
:1053720002121D92E02402851482851583F07808BA
:10538200121E6F7402121DC7AC82AD8379007A15AA
:105392007B2F12525B7402121D9279331244F17800
:1053A20008121E6F7403121DC7AC82AD8379807A16
:1053B200737B2F12525B7402121D92E0644170DF04
:1053C2007808121E6F7406121DC7AC82AD837980F5
:1053D2007A257B2F12525B7402121D927808121EDC
:1053E2006F7407121DC7AC82AD8379807A237B2F3D
:1053F20012525B7402121D927808121E6F74081208
:105402001DC7AC82AD8379807A187B2F12525B74F0
:1054120002121D92E4851482851583F07808121E0B
:105422006F7402121DC7AC82AD8379007A257B2F7F
:1054320012525B7402121D927402121DC7E085148F
:1054420082851583F07808121E6F7402121DC7AC94
:1054520082AD8379007A157B2F12525B7402121D82
:105462009279331244F17808121E6F7403121DC729
:10547200AC82AD8379807A737B2F12525B740212F5
:105482001D92E0644170DF7808121E6F7405121DD0
:10549200C7AC82AD8379807A257B2F12525B74026E
:1054A200121D92E0C0E07404121DC7E0FAD0E0C3FE
:1054B2009A50547808121E6F7406121DC7AC82AD42
:1054C2008379007A257B2F12525B7402121D927827
:1054D20008121E6F7407121DC7AC82AD8379007A61
:1054E200237B2F12525B7402121D927808121E6FD8
:1054F2007408121DC7AC82AD8379007A187B2F1213
:10550200525B7402121D927407121D927F02021ED8
:1055120033C082C08374FE121D7C7C017D00EC12BC
:105522001DC7AA82AB83799E1251D4124BA37C0170
:105532007D00AA82AB83791E1251D47C017D008545
:105542001482851583AA82AB8379A61251D4E0A274
:10555200E5502590F28874B7F0A37455F074029068
:10556200F27FF0E490F283F090F287E0D2E2F074FE
:105572000890F29AF01245297C017D0085148285FB
:105582001583AA82AB83799D1251D4E0548075832E
:10559200F2758284FAE04A851482851583F07C01D3
:1055A2007D00AA82AB83791D1251D47402121D921E
:1055B200D083D0822274F7121DD374FD121D7C9009
:1055C200F3527402121E80122E3B7402121D92902C
:1055D200F3547402121E80122E3B7402121D92901A
:1055E200F29CE07002A3E070361231218A088B0926
:1055F200786F8682088683E02403F8A3E03400F9FA
:1056020088828983AA82AB831279F4AA82AB83123D
:105612007A29E9A3A3A3A3F0AA08AB0912312E7534
:1056220008017509007808121E6F7402121DC7ACBA
:1056320082AD8379807AD77B2F12525B7402121D5E
:1056420092E9FE851482E0700302579190F283E0A2
:1056520060030257757C027D00786F86820886831C
:10566200E02408FAA3E03400FB79FF1251D4786FEA
:105672008682088683E0F8A3E0F988828983A3A35F
:10568200A3A3A3A3A3A3E0FB851482851583E064EF
:10569200026071EBA2E7406C88828983A3A3A3A373
:1056A200A3A3A3A3A3E090F280F0A3E4F074075BAA
:1056B200600F8B0874075508F990F280E0F0A3E9B7
:1056C200F0EBA2E4500478028002780490F280C3E6
:1056D200E098F0A3E09400F0786F8682088683A3B6
:1056E200A3E02402F0A3E03400F018868208868347
:1056F200A3A3A3A37402F0A3E4F090F29C7402F0BB
:10570200A3E4805E748088828983A3A3A3A3A3A356
:10571200A3A3A3A3F0786F8682088683E0240BF804
:10572200A3E03400F9888289837480F090F282E0E9
:1057320060047C0480027C02786FE62404FA08E6A6
:105742003400FB8A828B83ECF0A3E4F090F280F0C9
:10575200A3F08A828B83E0F8A3E0F990F29CE8F050
:10576200A3E9F0740190F283F0851482851583E039
:1057720024FEF074605E701790F280E0F8A3E0F906
:10578200851482851583E07075E87001E9606F7990
:10579200361244F1E490F283F0786F8682088683B1
:1057A200A3A3A3A3F0A3F0188682088683A3A374FD
:1057B20008F0A3E4F090F29CF0A3F0793A1244F1DD
:1057C20090F3527402121E80122E3B7402121D922A
:1057D20090F3547402121E80122E3B7402121D9218
:1057E200793D1244F1E954F070F690F287E0A2E0BC
:1057F200500879381244F1025A06793480F690F250
:105802007FE0FAE82AF8E93400F990F282E0FA330C
:1058120095E0FBEA28F508EB39F509851482851530
:1058220083E0F890F29CE028F8A3E03400F9C3E8A2
:105832009508E99509500474018001E4C0E07402FE
:10584200121DC7D0E0F0E08514828515836003E065
:10585200802BE0FA90F29CE0F8A3E0F9E508C39807
:10586200F8E50999F9C3EA98E49950088514828504
:10587200158380DB90F29CE0F8E508C398C0E074E1
:1058820001121DC7D0E0F0E5D6A2E340FAE07003B2
:10589200025916C2827EC8A285500B7A057B00127D
:1058A20031341EEE70F1C2F975F9FFA2F950FCE035
:1058B200F9786F8682088683A3A3E0FAA3E0FB1837
:1058C2008682088683E02AFAA3E03BFB12797AD229
:1058D200827401121DC7E0FA786F8682088683A35C
:1058E200A3A3A3E02AF0A3E03400F07401121DC7C1
:1058F200E0FA188682088683A3A3E02AF0A3E034A4
:1059020000F07401121DC7E0F890F29CE028F0A3A9
:10591200E03400F0786F8682088683A3A3A3A3E015
:10592200F8A3E0F9740528FAE439FB74032AFEE4CB
:105932003BFF7402121DC7E06053786F86820886AF
:1059420083E0F8A3E0F58388827414F0786F86828E
:10595200088683E0F8A3E0F5838882A3EAF0786FF3
:105962008682088683E0F8A3E0F5838882A3A3EB0E
:10597200F00A0A0AEFFB1243CF90F29CC3E09508AB
:10598200A3E09509507E740190F2838076E5086861
:105992007003E50969600E90F29CE065087004A34B
:1059A200E06509705F90F287E0A2E05004793880E8
:1059B2000279341244F174052508FAE43509FB78BA
:1059C2006F8682088683E0F8A3E0F58388827410EC
:1059D200F0786F8682088683E0F8A3E0F5838882F8
:1059E200A3EAF0786F8682088683E0F8A3E0F58365
:1059F2008882A3A3EBF0EEFAEFFB1243CF90F29C66
:105A0200E4F0A3F07403121D927F02021E33C082DF
:105A1200C083C282C2F975F9E3A2F950FCE5F9C26A
:105A2200F975F92AA2F950FCD282C282C2F975F93B
:105A3200A6A2F950FCE5F9C2F975F900A2F950FCE9
:105A4200E5F9D282D2E3FAC282C2F975F9E6A2F985
:105A520050FCE5F9C2F98AF9A2F950FCD28290F21F
:105A62007DE064017003E48032E064027031C2823E
:105A7200C2F975F98CA2F950FCE5F9C2F975F90081
:105A8200A2F950FCE5F9D282A2E65004D2F08002DB
:105A9200C2F0A2F0E492E0C333F40490F282F0D0B8
:105AA20083D0822274F7121DD374FF121D7C90F3EF
:105AB200507402121E80122E3B7402121D92123179
:105AC200218A088B09786F8682088683E02403FA8C
:105AD200A3E03400FB1279F4AA08AB0912312EC2FA
:105AE20082C2F975F9BEA2F950FCE5F9C2F975F95D
:105AF20000A2F950FCE5F9851482851583F0D28263
:105B0200E07003025BD0786FE62402FA08E6340004
:105B1200FB8A828B83E0FCA3E0FD74012CF8E43D58
:105B2200F98A828B83E8F0A3E9F0786F868208868F
:105B320083E02CF8A3E03DF988828983C282C2F90E
:105B420075F930A2F950FCE5F9C2F975F900A2F92C
:105B520050FCE5F9F0D282786F8682088683A3A38F
:105B6200A3A37401F0A3E4F0188682088683E0F808
:105B7200A3E0F5838882A3A3A3A3A3A3A3E0F89041
:105B8200F280F0A3E4F0851482851583E014F0E03E
:105B92007006E87001E47036C282C2F975F990A20B
:105BA200F950FCE5F9C2F975F900A2F950FCE5F9E2
:105BB200D282A2E65063C282C2F975F9D0A2F9502C
:105BC200FCE5F9C2F975F900A2F950FCD2827945D7
:105BD2001244F1786F8682088683A3A3A3A3E4F01C
:105BE200A3F0188682088683A3A37407F0A3E4F0C7
:105BF20079471244F190F3507402121E80122E3B28
:105C02007402121D9279001244F1E9548364807087
:105C1200F479421244F1025CA0E5D6A2E340FAC252
:105C220082C2F975F930A2F950FCE0F9786F8682E8
:105C3200088683A3A3E0FAA3E0FB18868208868382
:105C4200E02AFAA3E03BFB12797AD282851482859C
:105C52001583E0F8740528FAE43400FB786F868235
:105C6200088683E0F8A3E0F5838882E4F0786F8603
:105C720082088683E0F8A3E0F5838882A3EAF078BD
:105C82006F8682088683E0F8A3E0F5838882A3A367
:105C9200EBF074032A0A0A0AE43BFB1243CF7401B5
:105CA200121D927F02021E33C082C083786FE624E7
:105CB20004FA08E63400FB8A828B83E0FCA3E0FD51
:105CC200188682088683E02407F8A3E03400F98866
:105CD200828983C282C2F975F93AA2F950FCE5F9C8
:105CE200EC7001ED601CECF8EDF9C2F9E0F5F9A2F7
:105CF200F950FCA3E824FF18E934FFF9E87001E940
:105D020070E8D2828A828B83E4F0A3F090F350741D
:105D120002121E80122E3B7402121D9290F35074D6
:105D220002121E80122DA17402121D927943124496
:105D3200F1025AA1C082C083786F8682088683A34B
:105D4200A3A3A3E07002A3E0704190F35074021287
:105D52001E80122DF07402121D9279451244F178C0
:105D62006F8682088683A3A37407F0A3E4F01886E3
:105D720082088683A3A3A3A3A3A3F090F283F0795E
:105D8200001244F1E95483648070F4025AA1E535AB
:105D92007012752956752AF3752B00752C01752D15
:105DA2000075350122C082C083E5357014E5277085
:105DB20002E52860057535048007A825E890F357A9
:105DC200F0D083D08222EAFC7001EB700379FF22CB
:105DD20074056C700379062274756C601C74B05C77
:105DE2006420601574F05CFC600F74506C600A747F
:105DF200306A700374126B700379012274106C6044
:105E02000A74306C600574406C70C2790022C082E2
:105E1200C08390F356E06405700512616580031239
:105E22005EEED083D08222C082C083740390F2904F
:105E3200F090F2917426F0A374DEF090F356E064D1
:105E42000570051262228003125FA080D5C082C055
:105E52008390F356E0640570051262838003125F3B
:105E6200E1740490F290F090F2917428F0A374DE41
:105E7200F080AFC082C083D2817A027B0012315996
:105E8200122C43122C9F53F3FBD28243FD0474E085
:105E920055FC4410F5FC75FA00C2817A027B0012AF
:105EA2003159127B9012791DE490F32BF074029019
:105EB200F2A0F07401025FECC082C083122C6C125B
:105EC2002CC053F3FB53FDFB438F04D2817A027B38
:105ED20000123159C2817A027B00123159E490F3E7
:105EE2002BF0740490F2A0F0E4025FECC082C08355
:105EF200E535FA701CA825E890F29FF075295175D6
:105F02002AF1752B0085272C85282D753502025F15
:105F12009E74026A6003025F9E90F29FE0640170C9
:105F22000890F151E090F2A0F0C282D291A2854095
:105F3200FCA28550FCC291C2F975F900A2F950FC8D
:105F4200A28540FCC2F9A827E82402F5F9A2F9507B
:105F5200FCA28550FCC2F9A825E8F5F9A2F950FC8B
:105F6200C2F9A827E8F5F9A2F950FC7582517583A8
:105F7200F17002E528601D7827E624FFF608E63472
:105F8200FFF6C2F9E0F5F9A2F950FCA3E527700289
:105F9200E52870E37527FF7528FFD2828050C08202
:105FA200C08390F2A0E07035E490F32CF090F32DD2
:105FB200F07C987D087AE87BF47971127B6AC28260
:105FC200D291A28540FCA28550FCC291C2F975F91A
:105FD20001A2F950FCD282740290F29EF0800FC0AE
:105FE20082C083740190F32B800390F29EF0D083E1
:105FF200D0822274F7121DD374FD121D7CC2AF90A1
:10600200F32BE064017029E4F090F2A0E07021C269
:1060120082D291A28540FCA28550FCC291C2F97540
:10602200F902A2F950FCD282740390F29E026147F7
:1060320090F29EE064026003026148123A047B001F
:1060420090F32CE07044C282D291A28540FCA285DA
:1060520050FCC291C2F975F903A2F950FCA2854025
:10606200FCC2F975F900A2F950FCE5F990F32DF0A4
:10607200C39408E0407BF990F358E0FAA3E0FB12E6
:10608200797AD282740190F32CF07971127BD690D6
:10609200F32DE0F8C3EA98EB94005003026148E85C
:1060A200FE7971127BD68A088B0974FD2508F87473
:1060B200FF3509F9C3E89EE99400506F90F32EE092
:1060C200707F90F35AC082851482851583AC82ADAD
:1060D200837583F3D0827403121CE27C03FD851462
:1060E20082851583AA82AB837971127BFB7401804E
:1060F2004C6034E014F0C2F975F900A2F950FCE5E5
:10610200F9C0E0EBF890F358E028FAA3E034008AF3
:1061120082F583D0E0F00B90F32DE070D674FFF09F
:10612200D282EBF0026086D282801BEEFC7D009070
:10613200F358E0FAA3E0FB7971127CB7E490F32EF6
:10614200F0E490F32CF0D2AF7403121D927F02029E
:106152001E33C082C083E490F2A1F012356CD0836A
:10616200D0822274F6121DD3E535FA701CA825E8F8
:1061720090F29FF0752951752AF1752B0085272C15
:1061820085282D75350202621D74026A600302625F
:106192001DA825E8121EDF000200156204A3611D7E
:1061A200627582517583F1A827E8FEA823E8C454DA
:1061B2000F04F509E8540F04F50AEE702C805CC256
:1061C200F9E0F5F9A3A2F950FCEF703DAF0AEFCE6A
:1061D200C39EFEEF600E1FC2F9E0F5F9A3A2F950CB
:1061E200FCEF70F2D282EE6032C2827508C8A285DC
:1061F200500D7A057B001231341508E50870EFAFB7
:1062020009EFCEC39EFEEF60C31FEF60B2E070AF36
:10621200A380F690F151E090F2A1F07F03021E33C9
:1062220074F7121DD38551088552097808121F3E52
:10623200050000110211706207110811706220112D
:1062420021116662251126116662001203126B6229
:1062520004007511666230126B620025706220259F
:1062620075627862126290800D1263448008126334
:10627200F480031264F8740190F27DF07F02021E32
:1062820033C082C083740390F27DF002616074F8BF
:10629200121DD3C2827EC8A285500B7A057B0012E2
:1062A20031341EEE70F1C2F975F9A7A2F950FCC2A1
:1062B200F975F900A2F950FCE5F9FAD28274C25AD2
:1062C2004405FFC2827EC8A285500B7A057B00126C
:1062D20031341EEE70F1C2F975F927A2F950FCC2F1
:1062E200F98FF9A2F950FCD282C2827EC8A28550EF
:1062F2000B7A057B001231341EEE70F1C2F975F98A
:10630200A9A2F950FCC2F975F900A2F950FCE5F90D
:10631200FAD28274304AFFC2827EC8A285500B7ABA
:10632200057B001231341EEE70F1C2F975F929A213
:10633200F950FCC2F98FF9A2F950FCD2827F010216
:106342001E3374F8121DD3C2827EC8A285500B7A06
:10635200057B001231341EEE70F1C2F975F9A7A265
:10636200F950FCC2F975F900A2F950FCE5F9FAD22C
:106372008274E25A4403FFC2827EC8A285500B7A1D
:10638200057B001231341EEE70F1C2F975F927A2B5
:10639200F950FCC2F98FF9A2F950FCD282C2827E76
:1063A200C8A285500B7A057B001231341EEE70F1C3
:1063B200C2F975F9A9A2F950FCC2F975F900A2F95E
:1063C20050FCE5F9FAD28274304AFFC2827EC8A23A
:1063D20085500B7A057B001231341EEE70F1C2F942
:1063E20075F929A2F950FCC2F98FF9A2F950FC0201
:1063F200633D74F8121DD3C2827EC8A285500B7A07
:10640200057B001231341EEE70F1C2F975F987A2D4
:10641200F950FCC2F975F900A2F950FCE5F9FAD27B
:106422008274FC5A4404FFC2827EC8A285500B7A51
:10643200057B001231341EEE70F1C2F975F907A224
:10644200F950FCC2F98FF9A2F950FCD282C2827EC5
:10645200C8A285500B7A057B001231341EEE70F112
:10646200C2F975F988A2F950FCC2F975F900A2F9CE
:1064720050FCE5F9FAD28274044AFFC2827EC8A2B5
:1064820085500B7A057B001231341EEE70F1C2F991
:1064920075F908A2F950FCC2F98FF9A2F950FCD2A1
:1064A20082C2827EC8A285500B7A057B00123134EB
:1064B2001EEE70F1C2F975F997A2F950FCC2F97596
:1064C200F900A2F950FCE5F9FAD282740C4AFFC233
:1064D200827EC8A285500B7A057B001231341EEEF3
:1064E20070F1C2F975F917A2F950FCC2F98FF9A23D
:1064F200F950FC02633DC082C08375F00590F2A1A1
:10650200E0A424D4C282C2F975F920A2F950FCC2D7
:10651200F975F92EA2F950FCC2F9F5F9A2F950FC6D
:10652200D282C282C2F975F920A2F950FCC2F97571
:10653200F900A2F950FCC2F975F900A2F950FCD297
:1065420082C282C2F975F920A2F950FCC2F975F92A
:1065520047A2F950FCC2F975F914A2F950FCD28293
:10656200026160C082C083801DE02401F0A3E03498
:1065720000F090F333E02401F0A3E03400F0EA707D
:1065820021E490DE14F090DE14E0A2E0504490F397
:1065920033C3E0940DA3E09404503790DE16E0FA82
:1065A20060DF1A90DE28E0C0E090F32FE024E8F8E4
:1065B200A3E034F4F988828983D0E0F090F32FE0ED
:1065C200644B7004A3E0640490F32F709CE4F0A386
:1065D200809F026F96C082C083801EE02401F0A3D8
:1065E200E03400F090F339E024FFF0A3E034FFF050
:1065F200EA7045740190DE11F090F33CE0700D906A
:10660200F339C3E09440A3E09400405C90DE11E0D3
:10661200A2E040E590F339E0F8A3E0F9C3E8944141
:10662200E9940040047A40800FE8FA74406A6008F6
:10663200E490F33CF0EA60BB1A90F337E02434F8BC
:10664200A3E034F9F988828983E090DE28F090F3A0
:1066520037E0644B7004A3E0640490F337600302F4
:1066620065DDE4F0A30265E5026F96C082C0837423
:10667200FE121D7C90F331E0F8A3E0F9E824E8F57E
:1066820082E934F4F583E0851482851583F0744B36
:1066920068700374046990F3317005E4F0A3800814
:1066A200E02401F0A3E03400F090F333E024FFF0A3
:1066B200A3E034FFF090F331E0F8A3E0F9E824E836
:1066C200F582E934F4F583E0C0E07401121DC7D00D
:1066D200E0F0744B68700374046990F3317005E460
:1066E200F0A38008E02401F0A3E03400F090F3333B
:1066F200E024FFF0A3E034FFF0851482851583E0E7
:10670200FAA3E0FB123134026F8C74F5121DD374BC
:10671200FC121D7CC28290F331E0F8A3E0F9E82478
:10672200E8F582E934F4F583E0851482851583F077
:10673200744B68700374046990F3317005E4F0A33C
:106742008008E02401F0A3E03400F090F333E02469
:10675200FFF0A3E034FFF090F331E0F8A3E0F9E8B2
:1067620024E8F582E934F4F583E0C0E07401121DF7
:10677200C7D0E0F0744B68700374046990F3317011
:1067820005E4F0A38008E02401F0A3E03400F090D7
:10679200F333E024FFF0A3E034FFF090F331E0F8AC
:1067A200A3E0F9E824E8F582E934F4F583E0C0E0F7
:1067B2007402121DC7D0E0F0744B68700374046950
:1067C20090F3317005E4F0A38008E02401F0A3E027
:1067D2003400F090F333E024FFF0A3E034FFF090B4
:1067E200F331E0F8A3E0F9E824E8F582E934F4F5BE
:1067F20083E0C0E07403121DC7D0E0F0744B6870F0
:106802000374046990F3317005E4F0A38008E02476
:1068120001F0A3E03400F090F333E024FFF0A3E0B2
:1068220034FFF0C282A285407A851482851583786E
:1068320008121CB774037808121C8B851482851504
:10684200837808121CC680077A067B00123134A2B4
:10685200854050851482851583C082C08390F35E83
:106862007808121CB7D083D0827808121C4660D8F0
:1068720090F3627808121CB7851482851583780814
:10688200121CA4121D03C082C08390F35E7808120A
:106892001CB7D083D0827808121C4670AB7401906A
:1068A200F343F0E490F33BF07404121D927F040270
:1068B2001E33C082C08374FE121D7C90F331E0F857
:1068C200A3E0F9E824E8F582E934F4F583E08514DD
:1068D20082851583F0744B68700374046990F331F8
:1068E2007005E4F0A38008E02401F0A3E03400F096
:1068F20090F333E024FFF0A3E034FFF090F331E0B3
:10690200F8A3E0F9E824E8F582E934F4F583E0C07D
:10691200E07401121DC7D0E0F0744B687003740478
:106922006990F3317005E4F0A38008E02401F0A33C
:10693200E03400F090F333E024FFF0A3E034FFF002
:10694200E490F343F0851482851583E0A2E0505C65
:10695200C2827A027B00123159A2854013A285407D
:106962000F7A047B0012313490F35DE014F070ED85
:10697200851482851583E0A2E1C28F501B75F9B0A0
:10698200A28F50FCC28F75F900A28F50FC7A647BF3
:1069920000123134D282804575F9BFA28F50FCC2F9
:1069A2008F75F9FFA28F50FCD282802AD282D281C7
:1069B2007A027B00123159C281E0A2E1501853F3EE
:1069C200EFC28443FD10C2827A647B00123134D25A
:1069D2008243F31080077A647B00123134026F8C99
:1069E200C082C083C28290F33DE07003026A7CC21F
:1069F2008F90F331E024E8F8A3E034F4F988828937
:106A020083E0F5F990F331E0644B7004A3E0640491
:106A120090F3317005E4F0A38008E02401F0A3E0D4
:106A22003400F090F333E024FFF0A3E034FFF0A24F
:106A32008F50FCC28F90F331E024E8F8A3E034F4E5
:106A4200F988828983E0F5F990F331E0644B7004B0
:106A5200A3E0640490F3317005E4F0A38008E0241D
:106A620001F0A3E03400F090F333E024FFF0A3E060
:106A720034FFF0A28F50FC0272A790F343E0C28F62
:106A820090F3317003026B78E024E8F8A3E034F469
:106A9200F988828983E0F5F990F331E0644B700460
:106AA200A3E0640490F3317005E4F0A38008E024CD
:106AB20001F0A3E03400F090F333E024FFF0A3E010
:106AC20034FFF0A28F50FC90F335E02434F8A3E0B9
:106AD20034F9F98882898374FFF090F335E0644BCE
:106AE2007004A3E0640490F3357005E4F0A3800819
:106AF200E02401F0A3E03400F090F339E02401F047
:106B0200A3E03400F0C28F90F331E024E8F8A3E070
:106B120034F4F988828983E0F5F990F331E0644B2B
:106B22007004A3E0640490F3317005E4F0A38008DC
:106B3200E02401F0A3E03400F090F333E024FFF00E
:106B4200A3E034FFF0A28F50FC90F335E02434F838
:106B5200A3E034F9F98882898374FFF090F335E079
:106B6200644B7004A3E064046003026C6590F33527
:106B7200E4F0A3026C70E024E8F8A3E034F4F988AE
:106B8200828983E0F5F990F331E0644B7004A3E06D
:106B9200640490F3317005E4F0A38008E02401F06E
:106BA200A3E03400F090F333E024FFF0A3E034FFDD
:106BB200F0A28F50FCE5F9C0E090F335E02434F800
:106BC200A3E034F9F988828983D0E0F090F335E0CC
:106BD200644B7004A3E0640490F3357005E4F0A301
:106BE2008008E02401F0A3E03400F090F339E024BF
:106BF20001F0A3E03400F0C28F90F331E024E8F812
:106C0200A3E034F4F988828983E0F5F990F331E066
:106C1200644B7004A3E0640490F3317005E4F0A3C4
:106C22008008E02401F0A3E03400F090F333E02484
:106C3200FFF0A3E034FFF0A28F50FCE5F9C0E09032
:106C4200F335E02434F8A3E034F9F988828983D05B
:106C5200E0F090F335E0644B7004A3E06404700349
:106C6200026B6F90F335E02401F0A3E03400F09062
:106C7200F339E02401F0A3E03400F0026A79C08223
:106C8200C083C28290F33DE07003026D5BC28F90BD
:106C9200F331E024E8F8A3E034F4F988828983E050
:106CA200F5F990F331E0644B7004A3E0640490F3CF
:106CB200317005E4F0A38008E02401F0A3E0340081
:106CC200F090F333E024FFF0A3E034FFF0A28F5002
:106CD200FCC28F90F331E024E8F8A3E034F4F988A1
:106CE200828983E0F5F990F331E0644B7004A3E00C
:106CF200640490F3317005E4F0A38008E02401F00D
:106D0200A3E03400F090F333E024FFF0A3E034FF7B
:106D1200F0A28F50FC90F33FE024FEF8A3E034FF92
:106D2200F9E87001E97003026F89C28F90F331E0D4
:106D320024E8FAA3E034F4FB8A828B83E0F5F9902D
:106D4200F331E0644B7004A3E0640490F331600318
:106D5200026F5FE4F0A3026F6790F343E0C28F908B
:106D6200F3317003026E57E024E8F8A3E034F4F93B
:106D720088828983E0F5F990F331E0644B7004A3D3
:106D8200E0640490F3317005E4F0A38008E024018C
:106D9200F0A3E03400F090F333E024FFF0A3E034FA
:106DA200FFF0A28F50FC90F335E02434F8A3E034D6
:106DB200F9F98882898374FFF090F335E0644B70AF
:106DC20004A3E0640490F3357005E4F0A38008E0C6
:106DD2002401F0A3E03400F090F339E02401F0A3A1
:106DE200E03400F0C28F90F331E024E8F8A3E034FD
:106DF200F4F988828983E0F5F990F331E0644B700D
:106E020004A3E0640490F3317005E4F0A38008E089
:106E12002401F0A3E03400F090F333E024FFF0A368
:106E2200E034FFF0A28F50FC90F335E02434F8A355
:106E3200E034F9F98882898374FFF090F335E064D5
:106E42004B7004A3E064046003026F4490F335E4E2
:106E5200F0A3026F4FE024E8F8A3E034F4F988824B
:106E62008983E0F5F990F331E0644B7004A3E064A8
:106E72000490F3317005E4F0A38008E02401F0A34C
:106E8200E03400F090F333E024FFF0A3E034FFF0AD
:106E9200A28F50FCE5F9C0E090F335E02434F8A36A
:106EA200E034F9F988828983D0E0F090F335E06428
:106EB2004B7004A3E0640490F3357005E4F0A38002
:106EC20008E02401F0A3E03400F090F339E024015B
:106ED200F0A3E03400F0C28F90F331E024E8F8A38D
:106EE200E034F4F988828983E0F5F990F331E064C3
:106EF2004B7004A3E0640490F3317005E4F0A380C6
:106F020008E02401F0A3E03400F090F333E024FF22
:106F1200F0A3E034FFF0A28F50FCE5F9C0E090F35B
:106F220035E02434F8A3E034F9F988828983D0E08B
:106F3200F090F335E0644B7004A3E0640470030244
:106F42006E4E90F335E02401F0A3E03400F090F3AC
:106F520039E02401F0A3E03400F0026D17E02401CF
:106F6200F0A3E03400F090F333E024FFF0A3E03428
:106F7200FFF0A28F50FCE824FF18E934FFF9E87013
:106F820001E96003026D2C0272A7E490F33BF074F6
:106F920002121D92D083D08222C082C083C282900C
:106FA200F33DE0700302707DC28F90F331E024E87C
:106FB200F8A3E034F4F988828983E0F5F990F3319B
:106FC200E0644B7004A3E0640490F3317005E4F0D4
:106FD200A38008E02401F0A3E03400F090F333E052
:106FE20024FFF0A3E034FFF0A28F50FCC28F90F395
:106FF20031E024E8F8A3E034F4F988828983E0F5EB
:10700200F990F331E0644B7004A3E0640490F3312F
:107012007005E4F0A38008E02401F0A3E03400F05E
:1070220090F333E024FFF0A3E034FFF0A28F50FC92
:1070320090F341E0F8A3E0F9E87001E9700302720D
:10704200A7C28F75F900A28F50FCE5F9C0E090F35A
:1070520035E02434FAA3E034F9FB8A828B83D0E052
:10706200F090F335E0644B7004A3E0640490F335D0
:107072006003027281E4F0A302728990F343E0C2DA
:107082008F90F3317003027179E024E8F8A3E034C1
:10709200F4F988828983E0F5F990F331E0644B706A
:1070A20004A3E0640490F3317005E4F0A38008E0E7
:1070B2002401F0A3E03400F090F333E024FFF0A3C6
:1070C200E034FFF0A28F50FC90F335E02434F8A3B3
:1070D200E034F9F98882898374FFF090F335E06433
:1070E2004B7004A3E0640490F3357005E4F0A380D0
:1070F20008E02401F0A3E03400F090F339E0240129
:10710200F0A3E03400F0C28F90F331E024E8F8A35A
:10711200E034F4F988828983E0F5F990F331E06490
:107122004B7004A3E0640490F3317005E4F0A38093
:1071320008E02401F0A3E03400F090F333E024FFF0
:10714200F0A3E034FFF0A28F50FC90F335E024343A
:10715200F8A3E034F9F98882898374FFF090F3355B
:10716200E0644B7004A3E06404600302726690F36F
:1071720035E4F0A3027271E024E8F8A3E034F4F9F4
:1071820088828983E0F5F990F331E0644B7004A3BF
:10719200E0640490F3317005E4F0A38008E0240178
:1071A200F0A3E03400F090F333E024FFF0A3E034E6
:1071B200FFF0A28F50FCE5F9C0E090F335E02434F3
:1071C200F8A3E034F9F988828983D0E0F090F335AE
:1071D200E0644B7004A3E0640490F3357005E4F0BE
:1071E200A38008E02401F0A3E03400F090F339E03A
:1071F2002401F0A3E03400F0C28F90F331E024E8E0
:10720200F8A3E034F4F988828983E0F5F990F33148
:10721200E0644B7004A3E0640490F3317005E4F081
:10722200A38008E02401F0A3E03400F090F333E0FF
:1072320024FFF0A3E034FFF0A28F50FCE5F9C0E098
:1072420090F335E02434F8A3E034F9F98882898395
:10725200D0E0F090F335E0644B7004A3E064047076
:107262000302717090F335E02401F0A3E03400F0E2
:1072720090F339E02401F0A3E03400F0027032E030
:107282002401F0A3E03400F090F339E02401F0A3EC
:10729200E03400F0E824FF18E934FFF9E87001E96E
:1072A20060030270431265D7E490F33BF0D282028E
:1072B2006F9674F7121DD3C28290F33DE070030201
:1072C2007384C28F90F331E024E8F8A3E034F4F938
:1072D20088828983E0F5F990F331E0644B7004A36E
:1072E200E0640490F3317005E4F0A38008E0240127
:1072F200F0A3E03400F090F333E024FFF0A3E03495
:10730200FFF0A28F50FCC28F90F331E024E8F8A383
:10731200E034F4F988828983E0F5F990F331E0648E
:107322004B7004A3E0640490F3317005E4F0A38091
:1073320008E02401F0A3E03400F090F333E024FFEE
:10734200F0A3E034FFF0A28F50FCC28F75F900A2C7
