:020000040000FA
:0600000002013F0218039B
:03000B0002180BCD
:03001300021813BD
:03001B0002181BAD
:030023000218239D
:03002B0002182B8D
:03003300020B2895
:03003B0002183B6D
:030043000218435D
:03004B0002184B4D
:030053000218533D
:03005B0002185B2D
:030063000218631D
:03006B00020BCFB6
:03007300021873FD
:03007B0002187BED
:03008300021883DD
:03008B0002188BCD
:1000930012010002000000205104A2160001010217
:1000A30003010902120001010080FA0904000000A3
:1000B300FFFFFF00040309042403540065007800D4
:1000C30061007300200049006E0073007400720029
:1000D30075006D0065006E00740073001803430023
:1000E300430020004400650062007500670067005C
:1000F3006500720012033000300030003000300021
:10010300310030003000AE00000000000080FB1220
:1001130002DEB90003020139E479107804B8000261
:100123008004F709D8FCE490F00078197901800283
:10013300F0A3D8FCD9FA12038A12010D75D0007509
:10014300818002011243AE0322BB0102E722C08277
:10015300C08389828A83BB0003E08002E493D08357
:10016300D08222BB000EC082C0838A838982F0D0F2
:1001730083D08222BB0101F722600C08C6C313C6D9
:1001830018C613C6D5E0F422700422600D18C6C346
:1001930033C608C633C6D5E0F41822E473D083D03F
:1001A30082CEC0E0EFC0E0C0207808E608C0E0DE01
:1001B300FAE473C0D074072FD0D0F8D0E0F618DF7C
:1001C300FAD020D0E0FFD0E0FE22C8C0E0E9C0E0D2
:1001D300A9811919E583C7F58319E582C7F582EA71
:1001E300C0E0EBC0E0ECC0E0EDC0E0EEC0E0EFC08B
:1001F300E0C0D0C0F0C0207908E709C0E0D8FAE435
:100203007374072FF8D0E0F618DFFAD020D0F0D0BF
:10021300D0D0E0FFD0E0FED0E0FDD0E0FCD0E0FBAA
:10022300D0E0FAD0E0F9D0E0F8D083D082D0E03249
:100233007903D083D082E6C0E008D9FAE473D0838F
:10024300D082C5F0E493A3C5F0C395F0F5F0E49331
:10025300A3C395F04005E5F0048001E475F002A422
:100263002582F582E5F03583F583E493A3C0E0E4CA
:1002730093C0E022D083D082CCC0E0E493A3600695
:100283001202A11470FAE493A360061202C0147060
:10029300FAD0E0FCE493A3C0E0E493C0E022C0E022
:1002A300E493A3D39C5010E493A3C39C400AD0E0EF
:1002B300D0E0D0E0020294A3A3A3D0E022C0E0E404
:1002C30093A36C7009D0E0D0E0D0E0020294A3A322
:1002D300D0E0220510000213000000790112031B75
:1002E300790122EEC0E053F4BF53FEBF43F6400052
:1002F300A2964004D2F08002C2F0A2F0E492E0FEA3
:1003030070101204DFE9640270087401655570020D
:100313007E01EEF9D0E0FE22740169701953F3FDFA
:10032300D28143FD0253F5EFC2A443FF1053F5F707
:10033300C2A343FF0822740269600B74036970400F
:1003430053F1FD43F10153F3FED28043FD0153F416
:10035300F7D29343FE0853F3FBD28243FD0453F4D5
:10036300BFC29643FE4053F4FBC29243FE0453F4D0
:100373007F53FE7F43F68053F4FD53FEFD43F602A5
:100383002263A008E5A0221204881202E6E9FE75A2
:1003930055007554007551007552007557337558E3
:1003A3000675591E755A06755BFE755C11755D679A
:1003B300755E1260057553008022901893E4936470
:1003C300E17016901894E493648C700D901895E482
:1003D300936464700474018001E4F5537547937565
:1003E3004800754909754A01754B09754C01754DEE
:1003F30009754E01754F097550011205F87A177B7F
:1004030000120AE3755614EE7004E5537026790260
:1004130012031B53F4FED29043FE011204827A327C
:100423007B001204B3EE60077AC27B011204B3129D
:10043300038480EA790312031B7554011218002206
:10044300748055C6FA740169701B53BEFB43C640E2
:10045300E5C6A2E650FA74494AFA8AC6E5C66A7046
:10046300FB43BE0422E9701653BEFB53C6BFE5C669
:10047300A2E640FA8AC6E5C66A70FB43BE0422D2EE
:10048300AF22C2AF22790012044322EBC313FBEA6B
:1004930013FAC3EA9402EB94004014000000000036
:1004A3000000000000EA24FFFAEB34FFFB80E322A4
:1004B300EEC0E0EFC0E0EAFEEBFF80077AE87B03E3
:1004C30012048EEEF8EFF974FF281E74FF39FFE86B
:1004D3007001E970E7D0E0FFD0E0FE22741855BE4A
:1004E300131313541F1202410101F304F604F90418
:1004F300790022790122790222EEC0E0EAFE7A0035
:100503007B008015851082851183E0FC18E62CFCA6
:1005130008E63400FD8C108D11E54965107004E583
:100523004A6511602F7810E62401F58208E634004D
:10053300F583E0697017AA10AB118A828B83E0FC04
:10054300EA2CFCEB3400FD8C108D118007E06E70FB
:10055300B3EE60B0D0E0FE228547108548117A00E3
:1005630079011204FC2274021201A0E9FEEAFF855C
:100573004710854811800D8A828B83A3A3A3A3A36D
:10058300E06E60147A0079021204FCEA7001EB60F9
:1005930007EE70E3EF1F70EC7F020201B6740412E2
:1005A30001A0EAFF8B087A001205697A0279041226
:1005B30004FCEA7001EB60168A828B83A3A3E06FCD
:1005C30070E98A828B83A3A3A3E0650870DD7F04AF
:1005D3000201B6EEC0E0C008C009E9FE85471085F8
:1005E30048117A0079031204FCEE1E70F5D009D08D
:1005F30008D0E0FE227A0079011205698A828B8392
:10060300A3A3A3A3A3A3A3E0A2E65005754101807E
:100613000375410075400043BE8022752E02752F7D
:100623000075350079031208A475120075130022B2
:1006330074071201A090DE0EE0F50AE4F090DE11DB
:10064300E0FF740865357021EFA2E0401AA823E8A3
:10065300FA90DE00F0E52EC39404500BEA600575B2
:100663002E038003752E028E35EFA2E25007E4902D
:10067300DE11F0F535EFA2E4501E748090DE11F028
:10068300753507E5127002E513600985128285133B
:100693008312019E8E35807CE535FA74026A705FA1
:1006A300EFA2E0504F90DE16E0FE7829120233EEFF
:1006B300F97A207BDE1208C11581158115818E0818
:1006C30012088212088FE52C7002E52D6004744035
:1006D3008002744890DE11F0E52C7002E52D701451
:1006E300E5127002E51360098512828513831201F6
:1006F3009E753500E50A90DE0EF07F070201B674A1
:10070300066A700985128285138312019EE535609E
:1007130003020817EFA2E050DB750C218E0D750E56
:1007230001780C12023379087A207BDE1208C11596
:1007330081158115818E128E1374E0552112027773
:10074300000600590720EC0740D60780A007A0F752
:1007530007C0E107D107E5221202770006018C07E3
:10076300038707057407079B070991070B9607D1B2
:1007730007120D99E535FA74046A600302080374DD
:1007830060020813120D8D80EB120D8180E61210AA
:10079300CD80E112119D80DC120ADA80D7E52212A6
:1007A3000277000500B80706BD0708C2070AC70796
:1007B3000CCC07D107120BF380BA120DC080B5120F
:1007C300109C80B012117080AB120ADE80A67535C2
:1007D3000480AC75122075130912092080967512D6
:1007E3006E75130912096E808B7512AC751309129D
:1007F30009AC80807512CC7513091209CC020777F6
:1008030074016A600574026A70047440800274485B
:1008130090DE11F0E535FA74016A704F90DE11E055
:10082300A2E150030206F77F02A82CA92DC3E89486
:1008330020E994005006E8FE7F0A80027E20782992
:10084300120233EEF97A207BDE1208E4158115815A
:1008530015818E0812088F120882EF90DE11F0EED8
:10086300C3942040030206F70206E374056A60039B
:100873000206F785128285138312019E0206F7781A
:100883002CC3E69508F608E69400F622A929AA2ABD
:10089300AB2BE92508F9EA3400FA89298A2A8B2B3C
:1008A300227A0074361208B740F97A00743B1208B2
:1008B300B740F9222AF8E9F60AEAC3940522EEC002
:1008C300E0EFC0E08A828B83E9FFE58112090D60C6
:1008D30009E012016612090270F7D0E0FFD0E0FED2
:1008E30022EEC0E0EFC0E08A828B83E9FFE581124C
:1008F300090D600912014CF012090270F780DBE95F
:10090300240109EA3400FA1FEF2224FAF8E6FC086E
:10091300E6FD08E6FEECF9EDFAEEFBEF22E5221226
:100923000241C1033D0931093D0935093909121451
:100933002A221215062212151C22E553601FE554C4
:10094300601B901896E493C0E0740193F583D08202
:100953001209647002E583600412019E2275350456
:1009630022A3A3A3A3A3A3120A4422E522120241B2
:10097300C00285097D09850981091212A922121471
:10098300BE22E553601FE554601B901896E493C0A4
:10099300E0740193F583D0821209667002E58360E7
:1009A3000412019E2275350422E5536018E5546054
:1009B30014901896E493240A120A357002E58360B2
:1009C3000412019E2275350422E5536021E554602B
:1009D3001D901896E493C0E0740193F583D082A32D
:1009E300A31209647002E583600412019E22753527
:1009F3000422E5536018E5546014901896E4932498
:100A03000C120A357002E583600412019E227535CB
:100A13000422E5536018E5546014901896E4932477
:100A23000E120A357002E583600412019E227535A9
:100A33000422F8A3E4933400F988828983120A44D8
:100A430022E493F8740193F988828983E58222EE84
:100A5300C0E0EFC0E0E9FFE5536019E5546015908D
:100A63001896E4932410120A357002E5836005EFAB
:100A7300F912019ED0E0FFD0E0FE22E5536017E5B6
:100A8300546013901896E4932412120A357002E509
:100A930083600312019EA842A943E854046012E54F
:100AA30056A2E2500CC2AF784274FB120AD012066F
:100AB3001EA842A943E854106012E556A2E4500C64
:100AC300C2AF784274EF120AD01206332256F608E8
:100AD30074FF56F6D2AF22753504227535042222EF
:100AE300C008C009439A02438C1075420075430045
:100AF3007544008A458B46EA90DE0BF08A088B0921
:100B03007404780812017CE50890DE07F08A088BEC
:100B1300097409780812017CE508543E90DE09F057
:100B2300D009D00822C0E074021201CDE5BEA2E6CE
:100B330050FA90DE06E0FAA2E25035A845E890DECE
:100B43000BF0F5088546097404780812017CE50862
:100B530090DE07F085450885460974097808120177
:100B63007CE508543E90DE09F090DE01E0D2E0F02F
:100B73007842EA46F608E446F690DE02E0F50875A8
:100B830009007404780812018B7842E50846F608D8
:100B9300E50946F690DE04E0F50875090074097866
:100BA3000812018B784246F608E50946F6EAA2E008
:100BB300500375440174065A6003754400120A7E9B
:100BC300E58BF4F58BC2E87F02020204C0E07401F6
:100BD3001201CDE5BEA2E650FAE589FEA2E7500573
:100BE300C2BD121297EEF4F589C2C57F0102020459
:100BF300E5237002E5247018A825A92674FF59FB84
:100C0300E47001EB700A740265277002E528600442
:100C130075350422E5211202418002130C260C7063
:100C23000C7E0CE870EAE5416004780180027800EC
:100C330090F018E8F0A3E4F0E540600A90F018E0C3
:100C43004402F0A3E4F07404653560207C187DF061
:100C5300AA25741F5521F9120AE2752918752AF07D
:100C6300752B00752C02752D0075350122740465F2
:100C73002E709D90F018E4F0A380CAE8547FFA74B4
:100C830004652E708BEAC394065085742E2AFAE805
:100C93005480601574072AF8E664037004780180B1
:100CA30002780090F018E88099740C2AF8E664033F
:100CB30070EF80E9EEC0E0E9FEE5277002E52870F9
:100CC3000E7404652E6011E5257002E52660097532
:100CD30035047901D0E0FE22741F55211202410030
:100CE30002D20CEC0CF30C090DA823E86401600498
:100CF300790080E08E40EE60047905800279067AFF
:100D030000120A5280CCA825E8547FFAA823E87081
:100D1300DFEAC3940650B8EA90DE0EF0742E2AFB85
:100D2300A825E854806027EE6004741080027440A4
:100D330090DE11F0EE60047C0380027C0074072BCC
:100D4300F8ECF6EE60047908802979078025EE60D7
:100D53000474208002748090DE14F0EE60047C033F
:100D630080027C00740C2BF8ECF6EE6004790A80A8
:100D7300027909120A52E490DE0EF0020CD57900D2
:100D8300120CB7E970031209F5227901120CB7E9C5
:100D93007003120A1522E5257002E5267017E52770
:100DA3007002E528700F7823E65480FA08E6FBEA20
:100DB3007001EB6004753504227535082274041242
:100DC30001A0AA23AB24EB1202410102310ED70D7D
:100DD300F10D2A0E12055B8A298B2A8E2BA929AACB
:100DE3002A7B0012014CF8882C8B2D020ED279003D
:100DF3001205698A298B2A8E2BA929AA2A7B00E945
:100E030024020909EA3400FA12014CFC1919AA2A2E
:100E1300E92403090909EA3400FA12014CF9ECF850
:100E2300882C892D020ED2EAF91205D680A98E29C3
:100E33008E2A8E2B7C008072750900740378081249
:100E4300018B784BE62508FA08E63509FBAE23AF9C
:100E5300248A828B83E0C0E0EFF8D0E068704AA375
:100E6300E06E7045AE25AF268A828B83A3A3E0C0D4
:100E7300E0EFF8D0E06870318A828B83A3A3A3E00C
:100E83006E70268A828B83A3A3A3A3E0F508A3E055
:100E9300850829F52A752B008A828B83A3A3A3A334
:100EA300A3A3E0F52CA3E0F52D0C8C08784D794B2A
:100EB300E6C397F50A0908E697F50B7403780A1257
:100EC300017CC3E508950AE4950B5003020E3BA988
:100ED30029E97005753504801A740465356014A812
:100EE30027A928C3E8952CE9952D5004882C892D32
:100EF3007535017F040201B674081201A00581054E
:100F030081E58114F8EAF608EBF61886828B83A351
:100F1300A3A3A3E06026AE4FAF508008EE2404FEE7
:100F2300EF3400FF8E828F83E493FA740193FBE521
:100F33008114F8E66A700308E66B70E075080080B8
:100F430066749090DE14F090DE14E0A2E3500890F3
:100F5300DE0EE0650960F0741090DE14F090DE148C
:100F6300E0A2E3500890DE0EE0650960F088828914
:100F730083E0540364017003750E408E828F83A354
:100F8300A3A3E493550A6006E50ED2E0F50EE50E41
:100F930090DE15F0EA90DE13F0740C250FF876005E
:100FA300E490DE0EF00508E58114F8868208868356
:100FB300A3A3A3A3E0FAE508C39A40030210937A1C
:100FC3000079051204FC8A0A8B0BAC0AAD0BEC709A
:100FD30001ED60D1EC2402F50CED3400F50D850C28
:100FE30082F583E0540FF50990DE0EF0750E008C48
:100FF300828D83A3A3A3A3E02407F50AA3E034000F
:10100300F50B7403780A12017CAA0A742E2509F5DC
:101013000F750A01750B00E509780A12018BEC24A0
:1010230003F8ED3400F9850C82850D83E0A2E740D7
:1010330003020F44744890DE11F090DE11E0A2E346
:10104300500890DE0EE0650960F0740890DE11F040
:1010530090DE11E0A2E3500890DE0EE0650960F037
:1010630088828983E0540364017003750E408E8285
:101073008F83A3A3E493550A6006E50ED2E0F50E31
:10108300E50E90DE12F0EA90DE10F07407020F9E78
:10109300158115817F080201B6E5237002E52470EE
:1010A30012E5257002E526700A740165277002E5D2
:1010B3002860047535042275292F752A00752B01C4
:1010C300752C01752D007535012274041201A0746D
:1010D30002652E601BE5257002E5267013E5277077
:1010E30002E528700B782308E6FBE47001EB60054A
:1010F30075350480757A007901120A52A823E860D5
:10110300587A00F91205698A088B09AE08AF09EE0F
:101113007001EF603F752E04A823E8F52F750900D1
:101123008E828F83A3A3A3A3E0FAE509C39A503366
:1011330074302509F508F876007A0079041204FC66
:101143008A828B83A3A3A3E0A8086670EC120EFB2C
:10115300050980CC753504800AF52F752E037903B4
:101163001208A47A007902120A52020EF674046578
:101173002E7018748165217012E5237002E52470C6
:101183000A740165277002E528600475350422A8F6
:1011930025E82430F989290210BD74021201A074D4
:1011A30004652E700E740165217008E5277002E551
:1011B300286005753504803EA823E8FBA825E8FAD6
:1011C300A92F1205A08A088B09AE08AF09EE70019A
:1011D300EF60E0AA257903120A52A823E8C0E0A829
:1011E30025E82430F8D0E0F6EEFAEFFB120EFBAA66
:1011F300257904120A527F020201B6745390F0005B
:10120300F074BE90F001F074FC90F002F07443901F
:10121300F003F074BE90F004F0740190F005F074E4
:101223007590F006F0748790F007F0740190F00861
:10123300F074E590F009F0744490F00AF074709043
:10124300F00BF074F390F00CF0742290F00DF0D2E8
:10125300BD90F00E7400F0A374F0F0758200F58376
:1012630012019E22E5407003790022C2AF12129749
:1012730075440090DE01E0D2E2F07A0A7B001204AA
:10128300B390DE01E0C2E2F0C2BDC2C575897FD270
:10129300AF790122E490F005F090F006F090F007AA
:1012A300F090F008F0220581A825A926E87001E94D
:1012B30060030213DB79217A007B0189298A2A8B57
:1012C3002B752C088A2D8B35AC51EC120166A95273
:1012D300E9C0E0A929AA2AAB2BE9240109EA3400D1
:1012E300FAD0E0120166E553A8816013901896E4E2
:1012F30093C0E0740193F583D082E493F680027681
:1013030000E6C0E0A929AA2AAB2BE924020909EACD
:101313003400FAD0E0120166E5536014901896E4A5
:1013230093C0E0740193F583D082740193F6800235
:101333007600E6C0E0A929AA2AAB2BE92403090910
:1013430009EA3400FAD0E0120166E55360159018FB
:1013530096E493C0E0740193F583D082A3A3E4934E
:10136300F680027600E6C0E0A929AA2AAB2BE9247D
:1013730004F9EA3400FAD0E0120166E553601690EE
:101383001896E493C0E0740193F583D082A3A37409
:101393000193F680027600E6C0E0A929AA2AAB2BC6
:1013A300E92405F9EA3400FAD0E0120166E554C0F5
:1013B300E0A929AA2AAB2BE92406F9EA3400FAD0DA
:1013C300E0120166A929AA2AAB2BE92407F9EA341A
:1013D30000FAE4120166804C7401687001E970142C
:1013E3007529D6752A02752B80752C08752D007505
:1013F30035018030E553602CE5546028901896E45D
:1014030093C0E0740193F583D082A3A3A3A3E493D1
:10141300F8740193F988828983E5827002E5836019
:101423000312019E158122E535FA7026E554700AF0
:10143300E527700474046528600575350480037519
:101443003502752C00752D04752900752AFB752B43
:10145300002274026A706374FB90F010F0E490F061
:1014630011F074DF90F012F074AF90F013F0740485
:1014730090F014F0E490F015F0741290F016F074FC
:101483004290F017F074F0F5D575D410120485E589
:10149300AEA2E740FA43D601A825E8C333F5AD75FC
:1014A300AC00740755C6F87420B800028004C31357
:1014B300D8FCF5AB12014812048222C008C009E52A
:1014C30035703B852508852609C3E5089420E50981
:1014D300940040057535048025E527700474046580
:1014E300286004740480027401F535740A780812C4
:1014F300018BF52985092AF52BF52C752D04D009C7
:10150300D00822752C00752D00E5277002E52860B0
:10151300047535042275350122E535703A120485C8
:10152300744090DE11F07A0A7B001204B3A825E818
:10153300F555E5547003E8701BC290C2A4AA23AB0F
:1015430024EA7001EB60031204B3790312156212EB
:10155300155B80FE1204822253C9FB43C90822741F
:0F1563000359C0E074FC55C9FAD0E04AF5C9221B
:040000050000013FB7
:00000001FF
