:020000040000FA
:030000000200E11A
:03004300020602B0
:03004B00020BC2E3
:03005300020D9DFE
:03007B00020C4F25
:10008300020A4200000080FB1200F0B900030200E4
:10009300DBE479127806B800028004F709D8FCE49F
:1000A30090E08078E279018002F0A3D8FCD9FA903D
:1000B300E161AA82AB839000F3780979018015E4AA
:1000C30093A3AC82AD838A828B83F0A3AA82AB8392
:1000D3008C828D83D8E9D9E71206E312008675D0A6
:1000E300007581BF7510807511E002008B790122C4
:1000F3000000000001000000C3E09608A3E096089A
:10010300A3E09608A3E09622700908080822601667
:10011300181818C6C333C608C633C608C633C6087C
:10012300C633C6D5E0EA22E026F008A3E036F0089D
:10013300A3E036F008A3E036F022E647F60809E626
:1001430047F60809E647F60809E647F622E0F60807
:10015300A3E0F608A3E0F608A3E0F622E6F008A37E
:10016300E6F008A3E6F008A3E6F022CAC0E0E6F052
:10017300A308DAFAD0E0FA22C0D0251010AF08F5B0
:1001830010500205118008F51050020511D2AFD0AE
:10019300D0222510F58210AF08F51040021511800A
:1001A30008F51040021511D2AF851183222510F5F1
:1001B30082E43511F583222510C582C0E0E51134B0
:1001C300FFC583C0E0E510C3958224F9F8E4C5A810
:1001D300858311858210C5A8E8CEF0A3E520F0A39E
:1001E3007808E608F0A3DEFAEFF0A3E58124FBF834
:1001F300E608F0A3E608F0A30808E608F0A3E6087B
:10020300F0A315811581D0E0FED0E0F815811581AA
:10021300E8C0E0EEC0E022851183851082E0A3FEF2
:10022300E0A3F5207808E0A3F608DFFAE0A3FFE0F7
:10023300A3C0E0E0A3C0E0E0A3C0E0E0A3C0E0E42B
:10024300C5A8858210858311C5A8D083D082227466
:10025300028000C0E0F404120195D0E012016E2286
:10026300D083D082C5F0E493A3C5F0C395F0F5F035
:10027300E493A3C395F04005E5F0048001E475F031
:1002830002A42582F582E5F03583F583E493A3C0C8
:10029300E0E493C0E0227F0202021A74F51201BA6D
:1002A300E9FE90E084E02AF8A3E03BF97403280810
:1002B3000808E439F9C3E89455E9941B40030204A0
:1002C3004B90E080E02469F8A3E034E1F988828967
:1002D30083EEF090E080E02401F0A3E03400F0909E
:1002E300E080E064587004A3E0641B700790E08032
:1002F300E4F0A3F090E084E02401F0A3E03400F004
:1003030090E080E02469F8A3E034E1F988828983EE
:10031300EAF090E080E02401F0A3E03400F090E004
:1003230080E064587004A3E0641B700790E080E4ED
:10033300F0A3F090E084E02401F0A3E03400F09017
:10034300E080E02469F8A3E034E1F988828983EB53
:10035300F090E080E02401F0A3E03400F090E0802E
:10036300E064587004A3E0641B700790E080E4F03D
:10037300A3F090E084E02401F0A3E03400F090E0E7
:1003830080E0F8A3E0F97458C398F8741B99F9C393
:10039300EA98EB995003EA800990E080E0F87458FA
:1003A300C398F50AEAC3950AFE90E080E02469F851
:1003B300A3E034E1F9ED90FCE1F0EC90FCE2F0E92C
:1003C30090FCE3F0E890FCE4F090FCE5E054E0F00E
:1003D300E50A90FCE6F075D61075D710E5D7A2E4D0
:1003E30040FAEE6036EC250AF8ED340090FCE1F0BB
:1003F300E890FCE2F074E190FCE3F0746990FCE4B3
:10040300F0EE90FCE6F075D61075D710E5D7A2E4B0
:1004130040FAEE90E080F0A3E4801E90E080E02AB2
:10042300F0A3E03BF090E080E064587004A3E06444
:100433001B700790E080E4F0A3F090E084E02AF0E2
:10044300A3E03BF0E402051490E086E060030205BC
:100453001890E080E02469F8A3E034E1F988828908
:10046300837403F090E080E02401F0A3E03400F013
:1004730090E080E064587004A3E0641B700790E090
:1004830080E4F0A3F090E084E02401F0A3E03400E2
:10049300F090E080E02469F8A3E034E1F9888289F0
:1004A30083E4F090E080E02401F0A3E03400F090D6
:1004B300E080E064587004A3E0641B700790E08060
:1004C300E4F0A3F090E084E02401F0A3E03400F032
:1004D30090E080E02469F8A3E034E1F9888289831D
:1004E300E4F090E080E02401F0A3E03400F090E039
:1004F30080E064587004A3E0641B700790E080E41C
:10050300F0A3F090E084E02401F0A3E03400F07461
:100513000190E086F07F0402021AC082C08374FC5B
:10052300F5D575D4C174FCF5D375D2C974E090FCCC
:10053300C1F0748C90FCC2F074DF90FCC3F074D9EA
:1005430090FCC4F090FCC5E0541FF0744290FCC8CA
:10055300F0742090FCC7F074DF90FCC9F074F9903C
:10056300FCCAF074E090FCCBF0748A90FCCCF09061
:10057300FCCDE054E0F0E490FCCEF090FCCDF074C0
:100583001A90FCD0F0741090FCCFF074DF90FCD381
:10059300F074F990FCD4F090FCD5E054E0F0E490D2
:1005A300FCD6F090FCD5F0744A90FCD8F07410900F
:1005B300FCD7F074DF90FCD9F074D990FCDAF074B6
:1005C300E090FCDBF074D190FCDCF090FCDDE054B7
:1005D300E0F0E490FCDEF090FCDDF0741A90FCE0B7
:1005E300F0741390FCDFF090FCE5E0541FF07452BC
:1005F30090FCE8F0742090FCE7F0D2B8020A3DC00A
:10060300E0C0D0E8C0E0E9C0E0EAC0E0EBC0E0EC65
:10061300C0E0EDC0E0C082C083C0F0C2C0E5D1A29B
:10062300E350297CCC7DE090E0D0E0F8747F58F86B
:100633007900740528FA7B0012029E75E9DF759B29
:1006430000859191439A0175D1F7804FE5D1A2E2DC
:10065300503AAA148A82A88290E084C3E098F0A357
:10066300E09400F090E082E028F0A3E03400F09002
:10067300E082E064587004A3E0641B700790E0829A
:10068300E4F0A3F0439A1075D1FB800FE5D1A2E10A
:1006930050091207F2439A1075D1FD020B0674013B
:1006A30069701143FE0153F4FE43FD0253F3FDC28F
:1006B30090D28122740269700F43FE09E5FE53F460
:1006C300F6E5F4D290C29322740369701143FE07D6
:1006D300E5FE53F4F8E5F4C292D290C291220022CF
:1006E30075C600E5BEA2E650FA43BE04741C55C6A7
:1006F3004428F5C6751202740490DF17F0E0A2E4F3
:1007030040FB90DF02E0C2E3F0C2BA75C30075A4F8
:100713000075A58075080775090078081202527CD8
:10072300007D007A807BE0120E23740212017B129B
:100733000C2E12051DA2A0400CA2925028A2935089
:10074300247E018022A290500CA2815018A29250C4
:10075300147E028012A290400CA2824008A2834021
:10076300047E0380027EFFEEF91206A1758AEF0074
:10077300C2EBD2AFE490E087F08009ECFAEA90E1B3
:100783005EF0D2AF74FF6E603F90E087E0601CE4E0
:10079300F090E088F0A37480F074016E70047A0125
:1007A30080027A00EAA2E09290801D90E088E070D7
:1007B30002A3E0700774016E70E480E690E088E0C5
:1007C30024FFF0A3E034FFF07401651270B6C2AFEA
:1007D30090E15EE0FCF83395E0F990DF07E0FAC3BF
:1007E300E89AE99400A2D265D033508FE0808D74EB
:1007F300F11201BA90E08AE01202630009BA091605
:10080300081F0828088D08EC0804093B09A309AB55
:1008130009B30990E08CE0F5130209BA90E08CE08B
:10082300F5120209BA90E08CE0F508750900750A23
:1008330000750B0090E08DE0F50C750D00750E0052
:10084300750F007408780C12010B7808790C1201EB
:100853003D90E08EE0F50C750D007410780C1201DC
:100863000B7808790C12013D90E08FE0F50C750EC2
:10087300007418780C12010B7808790C12013D9062
:10088300E150780812015F0209BA90E08CE0F508A4
:10089300750900750A00750B0090E08DE0F50C7585
:1008A3000D00750E00750F007408780C12010B789B
:1008B30008790C12013D90E08EE0F50C750D007483
:1008C30010780C12010B7808790C12013D90E08F1F
:1008D300E0F50C750E007418780C12010B7808798A
:1008E3000C12013D90E155809990FCC5E054E0F075
:1008F30090E08BE090FCC6F075D60175D701020934
:10090300BA90FCC5E054E0F090E08BE090FCC6F0B8
:1009130075D60175D70175D688C2C075D1F775E153
:10092300E675E1E675E99F439140759B00859191DA
:10093300439A0175E1E3807F90E08CE090DF4BF018
:1009430090E08DE090DF4CF090E08EE090DF4DF092
:1009530090E08FE090DF4EF090E090E090DF4AF07F
:1009630090E091E090DF49F090E092E090DF48F072
:1009730090E093E090DF47F090E094E090DF46F062
:1009830090E095E090DF45F090E096E090DF44F052
:1009930090E097E090DF43F090DF02E0D2E380162F
:1009A30090DF02E0C2E3800E90DF03E0C2E4800642
:1009B30090DF03E0D2E4F07F0802021A74F7120119
:1009C300BA75080775090078081202527C007D0089
:1009D3007A807BE0120E23740212017B120D6EE506
:1009E3001212026300013A0AEF09150A744190DFFB
:1009F30010F075F005E513A4242E90DF11F075E9CE
:100A030000759130759B00859191439A0175E1E2E0
:100A1300802553E4F3E5E475DAE875DB0353E4EF8B
:100A2300C2C1740190E15FF0E51390E15DF0740BD6
:100A330090E154F0120B23020299D083D08222C09A
:100A4300E0C0D0E8C0E0E9C0E0EAC0E0EBC0E0EC21
:100A5300C0E0EDC0E0EEC0E0C082C083C0F0E5E9D5
:100A6300A2E45049E5A4FAE5A5FBE59CFCE59DFD60
:100A7300E59EFEEA90E0CCF0ECA2E05004EBD2E776
:100A8300FBEB90E0CDF0ECC313FCEDA2E05004ECE3
:100A9300D2E7FCEC90E0CEF0EDC313FDEEA2E05004
:100AA30004EDD2E7FDED90E0CFF075E9EFE5E9A2C3
:100AB300E55029740190E087F0E5D990E0D0F090FB
:100AC300FCDDE054E0F090E0D0E0547F90FCDEF0F9
:100AD30075D60875D70875E9DF539AFEE5E9A2E6EE
:100AE30050107CCC7DE07A047B00790A12029E755B
:100AF300E9BF759B00859191D0F0D083D082D0E07F
:100B0300FE8006D0F0D083D082D0E0FDD0E0FCD0D0
:100B1300E0FBD0E0FAD0E0F9D0E0F8D0D0D0E0327A
:100B230074F51201BAC2B953E4FCE5E4539AFE75B5
:100B3300E1E575D68875E1E675E1E67C5E7DE17AEF
:100B4300017B00790512029E90E15FE0600890E16D
:100B53005DE0F5138066748090E15EF090E154E00F
:100B6300641A7004740B8002E004F090E161780869
:100B730012015090E159780812015F90E154E0F5B9
:100B830013744190DF10F075F005E513A4242E9043
:100B9300DF11F075E900759130759B0085919143E4
:100BA3009A0175E1E27C547DE17A017B00790412BC
:100BB300029E75E200D2DED2B943E402020518C0F8
:100BC300E0C0D0E8C0E0E9C0E0EAC0E0EBC0E0ECA0
:100BD300C0E0EDC0E0C008C009C00AC00BC082C0BD
:100BE30083C0F090E15FE0702990E165780812011D
:100BF3005090E159780812012A90E159C08290E19E
:100C03005578081201507583E1D08278081200FBF1
:100C13004003120B2353E4EFC2C1D0F0D083D08240
:100C2300D00BD00AD009D008020B0C43F10243F4D5
:100C3300F0E5F475F82075FC20438C02758D107572
:100C43008AEF00C2EB439A1075F90022C0E0C0D0CE
:100C5300E8C0E0E9C0E0EAC0E0EBC0E0ECC0E0EDF2
:100C6300C0E0EEC0E0EFC0E0C082C083C0F075F921
:100C730000758AEF00C2EB90E082E0FCA3E0FD7414
:100C830058C39CFA741B9DFB90E084E0F8A3E0F941
:100C9300C3E89AE99B5005E8FEE98003EAFEEBFF0F
:100CA300C3EE9441EF940040047A408009C3E89A6C
:100CB300E99B5002E8FAC2FAA2A250FC75F9FFA21E
:100CC300945003020D62A2FA50FCE5F9120263008C
:100CD30003620DDE0CFF0C040D310D75F900A2FA51
:100CE30050FCE5F9FA90FCCDE054E0F0EA90FCCE3C
:100CF300F075D60275F9FF539AEF80631209BF802E
:100D03005EE51212026300012A0D110D220D539AA2
:100D1300FE75E1E575D68875E1E675E1E680087450
:100D23000190E15FF0D2C1C2BA75C3008031EA60BD
:100D33002C90E082E02469A3E034E190FCD1F090B0
:100D4300E082E0246990FCD2F090FCD5E054E0F01E
:100D5300EA90FCD6F075D604539AEF8A148AF9D038
:100D6300F0D083D082D0E0FF020B0175A60075A7F7
:100D73000075A10075A20075A3007515087516000E
:100D8300751700759C00759D08759E0075C300C29C
:100D9300C2439E20D2BA43C30122C0E0C0D0E8C000
:100DA300E0E9C0E0EAC0E0EBC0E0ECC0E0EDC0E0A9
:100DB300C082C083C0F0E517601475150075160076
:100DC300751700759C00759D00759E208047A815BA
:100DD300A916E9C313E81390E160F07815E6240837
:100DE300F608E93400F6C39410400E751701759C9C
:100DF300FF759DFF759E2F800F759C00A815E8F564
:100E03009DA916E94420F59E7C607DE17A017B0073
:100E1300790112029E741F55C344C0F5C3020B0629
:100E230074F81201BA74081201B0E0F8A3E0F98A69
:100E3300828B838003ECF0A3E8FEE9FF74FF2E1896
:0F0E430074FF3FF9EE7001EF70EB7F0102021AAE
:04000005000000E116
:00000001FF
