:020000040000FA
:060000000200B8021D041D
:030043000221CFC8
:03004B00021A2175
:03005300021D6526
:10008300021BB100000080FB1200C7B9000302008D
:10009300B2E479217850B800028004F709D8FCE46F
:1000A300900100783179028002F0A3D8FCD9FA12CA
:1000B3001DE012008675D0007581BF7510007511A3
:1000C3000102008B790122E76670100809E7667068
:1000D3000A0809E76670040809E76622601608083B
:1000E30008C6C313C618C613C618C613C618C61344
:1000F300C6D5E0EA22700908080822601618181805
:10010300C6C333C608C633C608C633C608C633C615
:10011300D5E0EA22E627F60809E637F60809E637C6
:10012300F60809E637F622E026F608A3E036F608D5
:10013300A3E036F608A3E036F622E647F60809E61A
:1001430047F60809E647F60809E647F622C9C0E07C
:10015300E7F60809E7F60809E7F60809E7F6D0E045
:10016300F922C3E498F8E499F91201A68026C3E4BE
:100173009AFAE49BFBE920E7E91201A6E498F8E484
:1001830099F922C3E498F8E499F91201A6E498F8DE
:10019300E499F9C3E49AFAE49BFB22EB20E7CFE965
:1001A30020E7E0B90010BB0008E88AF084F8AAF061
:1001B30022E4FBC8FA22EB70227B10C833C8C93390
:1001C300C9335007C39AC3DBF280069A50012ADB76
:1001D300EAC833F4C8C933F4C9FA2275F008E4C88D
:1001E30033C8C933C933C99AC99B5004C92AC93B07
:1001F300D5F0ECFBC833F4C8E4C9FA22600C08C696
:10020300C313C618C613C6D5E0F422700422600DCA
:1002130018C6C333C608C633C6D5E0F41822251062
:1002230010AF08F510400215118008F510400215B3
:1002330011D2AF22C0D0251010AF08F5105002051F
:10024300118008F51050020511D2AFD0D02225102D
:10025300C582C0E0E51134FFC583C0E0E510C39556
:100263008224F910AF088583118582108008858365
:1002730011858210D2AFCEF0A3E520F0A37808E673
:1002830008F0A3DEFAEFF0A3E58124FBF8E608F01B
:10029300A3E608F0A30808E608F0A3E608F0A31510
:1002A300811581D0E0FED0E0F815811581E8C0E02A
:1002B300EEC0E022851183851082E0A3FEE0A3F562
:1002C300207808E0A3F608DFFAE0A3FFE0A3C0E08C
:1002D300E0A3C0E0E0A3C0E0E0A3C0E010AF088566
:1002E30082108583118008858210858311D2AFD057
:1002F30083D08222033F0000030004280D98089056
:1003030007900194011B0195111B08F00939821F05
:100313000EA4FECD82210622FB381818162118F0F0
:10032300EF3818F2ED3828F2EB3868F003392A1F5A
:10033300E73F08F00428C33868F0393C08F1053C6E
:1003430088F1173CA8F10E3CE09F2C1F0128104AAE
:10035300291FD63F15D0033827D009380090042829
:10036300A83F0128154101980128014A25D01F38CB
:10037300041F831F0EA4FECD042205381421202858
:1003830007A0083F0628711527D0E939202807D090
:10039300F238832178F10238042188F1083D0628D8
:1003A300A14001F004288D38042807A0052856151C
:1003B30028F1163C68F1143D77CF1240599202D8C8
:1003C3000F3912D00739699222D00439799242D079
:1003D30004380528F8151E3FC09F0428753F08F10F
:1003E300233C88F1203D094028F1103D4540F7C7E3
:1003F30059F2083D9303131183E1B9F00F3C23E055
:100403000D3F09D8EA38F9C30B3F68F1033D59F2B0
:10041300F23C09D8F9390528C6150528F9150190C4
:100423000128214A051F48F00C3C08F10A3868F1FD
:10043300033C98F106390C96062802150228843FDE
:1004430047A00C960528FC15531F0528EC15072813
:100453008CED0528F51501280195711B01280CE485
:100463000528EE15511F88F10B3808F1073868F19C
:1004730009390128214201F00B3947D009383521C8
:10048300063F28F1033838F10339351F341F042898
:100493000CE047D0033903280CE80528D115571F72
:1004A30028F00638561F811F021F38F00639302105
:1004B3005B9005284415FD3F88F1033D0528001591
:1004C30005288A1547D0133808F10F392C470CF04B
:1004D3000C38C403B4125C110C3E04F00A38C10397
:1004E300802801A0411B063F3021043F07284CED23
:1004F3004C1B5B9047D0173827D00328F1390EA443
:10050300FECD02220D39002208381021002914E003
:100513000328E63C4C1BF13F0528A715EE3F461880
:100523001221033F05280B1588F1303905281A15C8
:100533000128FB41302100291BE00A3D0428FF1557
:1005430005281015F6C35192166A3B906B080428D0
:10055300F615052807150BF0FB3917D004382D1FA6
:100563000128C43F0328214701F0083903283147F4
:1005730001F00439A2958090033FC29500920328AD
:10058300BF15201B54900128B33F08F105390521FD
:1005930011900128214A38F103390021023F30210B
:1005A30010216A030428CB156B033141224128F142
:1005B300093D02F00239F29101F00B39FF28F19164
:1005C300083F02F00239529201F00339FF28F193F8
:1005D300F7CB1B06023907A4B20C073D47D003280B
:1005E3007738249003287E3F1690B6080428BA155E
:1005F300A6030428B7153BE0F7CE28F1703C012889
:1006030007A0F090A00668F1323D149030F0053950
:1006130038F103286738073F50F00328633958F14E
:100623000328603838F104380328B415033F03283E
:10063300921503287E15012807D0033907A1563FD9
:10064300424130F00C3907A112D0033807D84E3895
:1006530087A0C14041D04A38F7CE483F38F103382C
:1006630022D0443807D8423907A1403F78F11238E5
:1006730047D02D3800F0033860F00639C14011D05F
:10068300073887A0113F10F0033820F0AB3977CF3C
:100693000B3F00F0033810F0A539414181D00439F4
:1006A30003285915093F0328751568F10539414198
:1006B30041D0023907B810F0063903283A1501284A
:1006C30007D0033807D8123907A1103F40F0032899
:1006D300053903281D1507D8F838083FA1038340BF
:1006E3003112310511D0023907A14BF0063C042821
:1006F300261504283715FA3F042821151BF0FD3D64
:1007030038F103380328AA15F7CD0328214701F050
:1007130005390328314701F0033807A2F7CE2240F9
:1007230082D00A38060304281D150693760626117F
:1007330096040428171571034112002871C021077C
:100743000438E7CF4198043F17D00439519807285C
:10075300214817D00538F295202800901D3F07D275
:100763000438C2950092183F07D10438D2950094FB
:10077300133F07D40438E29500980E3F809028F188
:100783000A3D3190A10631F0063903A4B29502283F
:10079300B31500A1A2950228AF15201B28F1633DD4
:1007A30008F10A39012807D00739072851411128D0
:1007B300C14A012807A017D20539E3CF8AD00238EE
:1007C30013A007D20539B3CF4AD0023843A083D050
:1007D3001E3931031112310521D007393199072808
:1007E3002148002915E0133F5295022885154540FD
:1007F30003D10D39429502287F15281F2199072817
:10080300214803D2043862950228761573CF8348B2
:1008130008F1093977CF17D0063907D203390AD13E
:10082300023887A0349007D2073807D803383090AE
:10083300543F07A8023FF7C718F15A3927D04C395C
:10084300314011D0493987D0073917D0453907D2FC
:1008530003390AD1413805F04B39414001F048389A
:1008630050903B3F68F1153878F13938149017D020
:100873003D3907D23D3987D003383490393F07D10A
:10088300373911900128214A409003287715253FD5
:1008930047D01C38249007D30C3911900128214AE2
:1008A30087D008385144002911E0043A514C0238EA
:1008B30077CF17D01B3987D003383490193F07D32C
:1008C3001739C14021D01438073F17D00F3907D348
:1008D30003383090023F009044900A3F249017D091
:1008E300053907D305393490033FA09F4490022173
:1008F300C190511B8121342124F0083927D00439B8
:100903000C9CFD2BAE3F10904490B7CF34F00E39C2
:1009130053210328E195711B541F0F28CC950628FA
:100923002141F1C081111C09143F0190511B07287B
:10093300F19F711B802114F001288F3854F0FD2B97
:100943000A380128B63F541F03286D151028CCED33
:100953000328761576217821501F0128A29A217049
:1009630001B2218001B221802CE30328691574218F
:100973000128ACE408F1073C88F1033D0228A015E7
:1009830003282A15011F0128349D03285915201F08
:10099300002168F0093D069058F0033907283641D5
:1009A30002289C15FA3F0728504078F10439331F79
:1009B300321F0421500000DC0128853828F1103D46
:1009C3008340F7CB31031112310521D0033903D111
:1009D300033900D8103807A41B901A90163F00D88B
:1009E3000128713998F107394B700128E2412B082E
:1009F30000288E3F102807A04B701BF0FC2BED3C0A
:100A03004A70224128F1303D02F00239F29112E09E
:100A1300B20CFC2BE23C419031061111FF2BE29FFB
:100A23003204520022111A042A043240002862C000
:100A330018F1033927D00D3922F00939072801416C
:100A4300B109002921E0093A0AA1073F42F003391D
:100A5300FACE033F62F0F93818F1253977CF0AD17E
:100A6300223887A0203F02F00239529212E0B20CE2
:100A7300FC2BB33C68F1123D38F1153887D013399C
:100A83000128314201F00F38402807A0072891427E
:100A930031C0C1A00728914A063F02280190710680
:100AA30021121A04FF2BF29FB2084BE0A60302287F
:100AB300151526030228121568F1293CFBF0273C83
:100AC3006290467002280A15D23704286096629015
:100AD3004670062D02280215C23778F11839D04026
:100AE30000D81538DBF0133C829046700128F615C8
:100AF300D237764400D40338060E023F060D417008
:100B03000128EC15417086120128E8153290B20CC9
:100B1300053D46700128E215FB3F08F10639417295
:100B23001128C14A012807A0EF28F7CF28F11E3D5D
:100B330083403090A00631031112310521D00339CF
:100B43008295043F30F0043972950028D51553C8B7
:100B530043D0023823A007D4023803A130F002396E
:100B630003A2834892950028C71506900BF0053819
:100B73000128B415591FFB3F0EA4FECD01220439F1
:100B830002287315FA3F551F1121031F249008F102
:100B93000F390AD1033987D02438314011D0213994
:100BA30005F02139414001F01E3850901B3F48F1B8
:100BB300073828F1033858F1063987D0143877CF2E
:100BC3001490113F78F1053911900128214A093F0A
:100BD30098F10939829500289315281F5490033FF3
:100BE300009044900EA4FECD0322043902283D1543
:100BF300FA3F13212C1801210321741FD190000007
:100C0300F13724F0093800000190511B0728F19FA8
:100C1300711B8021063F4190511B0328E195711BF5
:100C230032210728914231C00728914ABF28F7CFC4
:100C330028F1063C88F1043D92955E15281F44F087
:100C4300383814F00A3854F0FB2B853801280CE4AB
:100C53000128F615FB2BF93F01289015009027D0AA
:100C6300283902D8083838F12439329001289215EE
:100C7300E237193F19E089F2043C38F11A395992E5
:100C830038F103390128861512409103002951E2F6
:100C9300120E12D0F038012886150128B91512401A
:100CA300012891153199072821482C18FE2B4C3F18
:100CB3000128104A0028A915FB2B223FF09F043F6F
:100CC300D09F023FB09F0028D0152C1FF23F28F180
:100CD300053C68F1033D1490053F2090023F1090BE
:100CE300449041980728214838F1FE2B0138002809
:100CF300B515FD2BFD3F217011E021800200012875
:100D0300214107282148217811E021880200F7C7F3
:100D1300761571033112A10501D4023907A80428FD
:100D2300649631150238F7C70428C4F6FB3C020069
:100D3300FE28F7CF641551417111A10501D803397C
:100D4300012807A064911F150338FE28F7CFC4F1CB
:100D5300FB3C0200F7C753155141022807A00AD4F0
:100D63000339FD28F7CF5111A10501D4023907A892
:100D7300C4910428659607150238F7C7563124F243
:100D8300FB3C02000028DB150028EC15412D160C56
:100D93000200F7C73415D032D332234268F1093940
:100DA3004141904041D0043850000306023F030301
:100DB3003142022807A00AD404395100FD28F7CF95
:100DC30013064492042865960028B9150028CA150D
:100DD3005631FF28E19F4070060C023813068EA09F
:100DE300810064E044F5F83C0029F4E2A4F2ED3C10
:100DF30003F0023807A8D32FD02F02009BF0023C48
:100E0300020007A12DE0020098F10938102807D04D
:100E1300033908F1043831990728214808F10C39BE
:100E2300012807D00938072851411128C042010C75
:100E33000338072850491190082807D00538062899
:100E4300B148F728F7CF042807D005380628A1486A
:100E5300FB28F7CF3021291F0200311FFF28F19F04
:100E6300411B301F312102000221012103215323A1
:100E730009380628D14001D1123841980728214862
:100E83000B3F54230C385021F1910000F137741FAC
:100E9300F1900000F13768F0023C2B1F0190511BC9
:100EA30081210728F19F711B80210728914231C0BE
:100EB3000728914ABF28F7CF32213421020008289E
:100EC30007D007390628B14001F00438082807A0E5
:100ED300020004280D98FE2BF43F402807D00D395B
:100EE3000EA4FECD012204390028BF15FA3F661B6C
:100EF300112100291BE002000728A64A0EA4FECDFB
:100F0300012204390028B115FA3F01283142B10901
:100F130041E0053A08384BF00C38EA3D0728A14276
:100F2300611BE73F0728914271CF0728914AF73F9A
:100F33000728914281A20728914ADA3F0EA4FECDE9
:100F43000222043900289115FA3F4618122100297C
:100F53001BE01BF00639581F0628E0400128004A11
:100F6300020017D00A393122063817A04198072802
:100F73002148033F0728A6480200124038F10938E8
:100F830002D807399103002941E2120E120D1248CB
:100F9300020047A07B280C9C10215215FF2B5E15E5
:100FA300B7CF020059F203396391083F69F203395D
:100FB300E392043F79F203394396020004280D9823
:100FC300FA2B0B3F02D407389103002901E2117079
:100FD30006286148020088F10A3C012831410728AC
:100FE300814AB1460328314FA1460F3F0728894A5A
:100FF30028F1063D31440328314F5140053F552820
:1010030051950328314F81110328214F0200E3F347
:10101300033CF190033F23E051920628614A0628DE
:10102300434802007B21772141900000F137702172
:1010330075217A218CEE0415521F801F02004C1B70
:10104300001F47D0033827D009390EA4FECD002254
:1010530003390B15F73F1021020004280D9838F1CE
:10106300FE2B2738FE2B3C3FD232021801192106F2
:1010730001D41A381218162162F003392A1F2D3FA2
:1010830012F2153822F22838FE2BEF1568F0063CD1
:1010930061900128114AFE2BB8153021280304283A
:1010A3000D98F92B2E3F01D114381421202807D095
:1010B3000D3878F1123904231038714401F00239E4
:1010C3008144002911E0714C083F202807A0053F07
:1010D30001D20538152127A0D22F020011D00638DE
:1010E300102104280D98FD2BF33FF2CE5200121B62
:1010F300F43F74F71202518A828B83ECFEEDFFE515
:10110300651460091470030211990212EAE0540F86
:10111300640560030212EA900111E0606F9001120E
:10112300E0F88E828F83E06860030212EA90011375
:10113300E0F88E828F83A3E06860030212EA9001D5
:1011430014E0F88E828F83A3A3E06860030212EA9F
:10115300900115E0F88E828F83A3A3A3E068600358
:101163000212EA900116E0F88E828F83A3A3A3A351
:10117300E06860030212EA900117E0F88E828F8321
:10118300A3A3A3A3A3E06860030212EAEEFAEFFBB2
:101193001216250212EAE55A603785550885560965
:1011A300C2B975E40075E20075E40C75DA4075DBCD
:1011B3009C740478081201FFE50804F557F5587587
:1011C300AF00C2C175E544D2B943E402755A008049
:1011D3000675E2008557581218DDE0540364036076
:1011E300030212EA8E828F83E0600F1470030212EF
:1011F300881470030212E40212EAA3A882A983E00E
:1012030090010BF088828983A3E0FC88828983A301
:10121300A3E0FBEC90010CF0A3EBF088828983A39D
:10122300A3A3E0FC88828983A3A3A3A3E0FBEC90A0
:101233000109F0A3EBF088828983A3A3A3A3A3A34B
:10124300A3E0FC88828983A3A3A3A3A3A3A3A3E00E
:10125300FBEC90010EF0A3EBF088828983A3A3A398
:10126300A3A3A3A3A3A3E0FA88828983A3A3A3A32D
:10127300A3A3A3A3A3A3E0F9EA900107F0A3E9F0D2
:101283007559018062A3A882A983E0900102F088C6
:10129300828983A3E0900103F088828983A3A3E07A
:1012A300900104F088828983A3A3A3E0900105F051
:1012B30088828983A3A3A3A3E0900106F08882898F
:1012C30083A3A3A3A3A3E0FA88828983A3A3A3A3ED
:1012D300A3A3E0F9EA900100F0A3E9F0754D0180C2
:1012E3000675650375E4007F020202B7C082C083FE
:1012F30075E10175E1F19061947420F0A374D6F067
:10130300A374BEF0A37489F0A3748EF0E990011066
:10131300F08966C3940B50079061A67425801EE97B
:10132300C39412500D9061A67425F0E9C333241CB5
:101333008011E9C3942550109061A6740FF0E9C39E
:1013430033241A9061848034742569700D9061A6EA
:101353007425F090618474188022742669700D904E
:1013630061A67425F09061847430801074276970CD
:101373000C9061A6740FF09061847464F090605FC8
:10138300E4F090605104F0A37485F0744049A3F035
:10139300A3E4F0A37455F0A3F0A3F090605AE4F033
:1013A300A3F0A3F0A3F0756501F55B53A1DF53A789
:1013B300DF75E118021A8274F112025174FC1202F1
:1013C3002174026565600302160D85500885510975
:1013D3007403780812020E851082851183E508F0E4
:1013E300A3E509F0A3E4F0A3F075C300E5A2E5A328
:1013F300E5A6F50CE5A5F508E4F50DF50EF50F7476
:1014030008780C1200F8F509F50AF50B780C790841
:1014130012013D7408780C1200F8E5A4F508780C65
:10142300790812013D7861740C12015075E1017560
:10143300E1F1784EE62401F608E63400F6E54D6066
:1014430018900100E0654E7004A3E0654F700A7ABE
:10145300027B011219CA754D00E55970030215008C
:10146300900107E0654E7004A3E0654F6003021529
:1014730000900109E0F550A3E0F55190010BE0F570
:101483005290010CE0F553A3E0F55490010EE0F502
:1014930055A3E0F556755900755A018550088551D5
:1014A30009C2B975E40075E20075E40C75DA40759C
:1014B300DB9C740478081201FFE50804F557F5581E
:1014C30075AF00C2C175E544D2B943E402E55224C5
:1014D30001FAE43400FB7853E62AF50808E63BF505
:1014E300097403780812020E851082851183E508BA
:1014F300F0A3E509F0A3E4F0A3F0755C01E521FA9C
:10150300E522F8EA28F8E43400F97A257B00120191
:101513009EEAF98921131313541FFA7508017509FB
:101523000033333354F8F8E998780812020E742420
:101533002AF8E655086003E9800CE523F5F0E98411
:10154300E5F02429F8E6FE8E66EEC3940B5007906F
:1015530061A67425801EEEC39412500D9061A6748B
:1015630025F0EEC333241C8011EEC3942550109054
:1015730061A6740FF0EEC333241A9061848034742F
:10158300256E700D9061A67425F0906184741880A7
:101593002274266E700D9061A67425F09061847498
:1015A30030801074276E700C9061A6740FF09061F8
:1015B300847464F074404E906053F08510828511FA
:1015C30083785D12012A855D0C855E0D855F0E852E
:1015D300600F75C340E50C24FEF5A4850D09E509EC
:1015E30034FFF5A57508FE7509FF750AFF750BFF36
:1015F300780C79081201177410780C1200DFE50CCF
:10160300F5A6755B0175E118800E740365657008B6
:10161300900110E0F91212EF74041202377F0802EE
:1016230002B774F1120251EAFEEBFF75E10175E1B5
:10163300F175C300E5A2E5A3E5A6F508E5A5F50C5C
:10164300E4F509F50AF50B740878081200F8F50DAE
:10165300F50EF50F7808790C12013D74087808121D
:1016630000F8E5A4F50C7808790C12013D78617453
:1016730008120150754D00755900755A01EE240C7E
:10168300F582EF3400F583E0906195F0EE240DF5DB
:1016930082EF3400F583E0906196F0EE240EF5823C
:1016A300EF3400F583E0906197F0EE240FF582EFBD
:1016B3003400F583E0906198F0906054E4F0EE24F8
:1016C30010F582EF3400F583E0906055F0EE2411BD
:1016D300F582EF3400F583E0906056F0EE2412F5C6
:1016E30082EF3400F583E0906057F0EE2413F58227
:1016F300EF3400F583E0F552EE2414F582EF340065
:10170300F583E0FAEE2415F582EF3400F583E0F972
:10171300EAF888538954EE2416F582EF3400F583F2
:10172300E0F8790088508951EE2417F582EF3400F0
:10173300F583E0FB7850E446F608EB46F6EE241A10
:10174300F582EF3400F583E0FAEE241BF582EF34E3
:1017530000F583E0F9EAF888558956EE241CFAEF80
:101763003400FB1219CAEE2421F582EF3400F5830D
:10177300E0541FF522E52275F02584A9F08921E9BB
:10178300131313541FFA75080175090033333354C7
:10179300F8F8E998780812020E74242AF8E6550836
:1017A3006003E9800CE523F5F0E984E5F02429F8EA
:1017B300E6FA8A66EAC3940B50079061A674258003
:1017C3001EEAC39412500D9061A67425F0EAC33348
:1017D300241C8011EAC3942550109061A6740FF065
:1017E300EAC333241A906184803474256A700D909F
:1017F30061A67425F09061847418802274266A703F
:101803000D9061A67425F090618474308010742764
:101813006A700C9061A6740FF09061847464F07424
:10182300404A906053F0754E00754F0079537850DD
:10183300E627FC0809E637FDEC2401F508ED340042
:10184300F5097403780812020EF50A7461F9780831
:10185300120117785D7408120150855D0C855E0DC9
:10186300855F0E85600F75C340E50C24FEF5A4E586
:101873000934FFF5A57508FE7509FF750AFF750B99
:10188300FF780C79081201177410780C1200DFE549
:101893000CF5A6755C01755B01855008855109C27D
:1018A300B975E40075E20075E40C75DA4075DB9CEC
:1018B300740478081201FFE50804F557F55875AF6D
:1018C30000C2C175E544D2B943E40253A1DF43A783
:1018D3002075650275E11802162074F1120251E5B4
:1018E3005B70030219C7856108856209AC08AD09FD
:1018F30075C311E5A6F508E5A5F50CE4F509F50AA8
:10190300F50B740878081200F8F50DF50EF50F784D
:1019130008790C12013D740878081200F8E5A4F563
:101923000C7808790C12013D85090DAA0CAB0D85C5
:10193300500C85510D7403780C12020E7808790C43
:10194300120117755B00ED5480600EEC2400ED343A
:1019530080FDEA2400EB3480FB7401655C7005753F
:101963005C008018EC2404F8ED3400F9C3E89AE92C
:101973009B4051785D79081200CA604885085D85EF
:10198300095E850A5F850B60855D0C855E0D855F4D
:101993000E85600F75C340E50824FEF5A4E5093400
:1019A300FFF5A57508FE7509FF750AFF750BFF782E
:1019B3000C79081201177410780C1200DF850C08DB
:1019C300E508F5A6021620C082C0837C008C238A1A
:1019D300828B83E0F524A3E0F5258A828B83A3A37E
:1019E300E0F5268A828B83A3A3A3E0F5278A828B63
:1019F30083A3A3A3A3E0F5287824E6FB7A08EBA24C
:101A0300E0500974292523F9ECF705230CEBC313E4
:101A1300FB1AEA70E90874296870DF021A82C0E0D1
:101A2300C0D0E8C0E0E9C0E0EAC0E0EBC0E0ECC051
:101A3300E0EDC0E0C082C083C0F075AF00C2C174E6
:101A4300FF2558F558701075E500C2B975E400908C
:101A53000110E0F91212EFD0F0D083D0828009D0C8
:101A6300F0D083D082D0E0FED0E0FDD0E0FCD0E027
:101A7300FBD0E0FAD0E0F9D0E0F8D0D0D0E032D01B
:101A830083D08222C082C08375A90175B90175E92B
:101A930000759100759B0075BF00C28990618274C7
:101AA30005F0A3747FF0439A01D2A87567017418F7
:101AB3002497901D27F07401901D26F0E566F91216
:101AC30012EF021A8274F8120251E5676015756706
:101AD30000740B2418901D27F07401901D26F074D8
:101AE30001801275670174972418901D27F0740103
:101AF300901D26F0E475F08CA4F8A9F0741828FE64
:101B0300740139FFEEF8EFF975C311E5A2888289F4
:101B130083F0E5A3A3F0E5A488828983A3A3F0E57A
:101B2300A588828983A3A3A3F08E828F83A3A3A313
:101B3300A3A3A3A3A3A3A3E0FAEE2AF8EF3400F927
:101B4300E8240EF582E93400F583E0FCE8240FF580
:101B530082E93400F583E0A2E7E433F8742565668F
:101B63006006742765667012EC94054008EA24FA4F
:101B7300C394204005E8A2E0502CEE240BFCEF3484
:101B830000FDEE2409FAEF3400FB1210F5EEFCEF32
:101B9300FD8E828F83A3A3A3A3E02405FAE434007C
:101BA300FB7900121EAB7568007F010202B7C0E02B
:101BB300C0D0E8C0E0E9C0E0EAC0E0EBC0E0ECC0C0
:101BC300E0EDC0E0EEC0E0C082C083C0F0E5915418
:101BD300057003021CF8756801906195E0C0E0E5AB
:101BE3006775F08CA4F8A9F0741D28F58274013987
:101BF300F583D0E0F0906196E0C0E0E56775F08C86
:101C0300A4F8A9F0741E28F582740139F583D0E095
:101C1300F0906197E0C0E0E56775F08CA4F8A9F057
:101C2300741F28F582740139F583D0E0F090619830
:101C3300E0C0E0E56775F08CA4F8A9F0742028F5FE
:101C430082740139F583D0E0F0E5D9C0E0E567752A
:101C5300F08CA4F8A9F0742128F582740139F58376
:101C6300D0E0F0E5D9543FFE742228F5827401399F
:101C7300F583EEF08E82A882906060E0C0E0E567B5
:101C830075F08CA4FCADF0742628FA74013400FBC3
:101C9300EA2CF582EB3DF583D0E0F0E566C0E0E5A4
:101CA3006775F08CA4FCADF07427280A7401340026
:101CB300FBEA2CF582EB3DF583D0E0F0E591A2E25F
:101CC300E05004C2E78002D2E7F0740B2EC0E0E5D7
:101CD3006775F08CA4F8A9F0741C28F58274013997
:101CE300F583D0E0F074032E901D29F075D60175AD
:101CF300D70175910075E900759100759B00021A73
:101D030062C0E0E5BF601875E101E5E170FC75E1D3
:101D1300F175D681C2C075D1FE75E11875BF007526
:101D2300BF00C289D0E03275C30075A20075A3005D
:101D330075C30075A40075A50075A60075C302756B
:101D4300A28875A31375C33075A40075A54075A645
:101D53000053A1EF43A710C2C2D2BA7594097568A4
:101D63000022C0E0C0D0E8C0E0E9C0E0EAC0E0EB98
:101D7300C0E0ECC0E0EDC0E0EEC0E0C082C083C0D4
:101D8300F074FF120221E5A1A2E4503D75C330E5D2
:101D9300A4E5A5F8851082851183F0E5A6F975C33E
:101DA30030744025A5F5A574C068700574012980B9
:101DB30001E9FE8EA653A1EFE568700DAC82AD83F9
:101DC3007A017B007901121EABE5A1A2E550061250
:101DD30013BA53A1DF7401120237021A6275C68067
:101DE30000E59EA2E640F99061F2E4F0A3F078F7F3
:101DF300790288828983E4939061F0F088828983F1
:101E0300A3A882A983E864F57003E9641070E375FD
:101E13009C779061B17401F075E106E591A2E750FA
:101E2300FA75917F78697600087E71EE6870F71213
:101E330021669061807440F09061917448F09061E4
:101E43009A743FF0A3745AF09061A0747FF090618C
:101E5300BC7407F09061A6740FF09061B67416F02D
:101E630053F1FE43F30C75C48053FF3F85FFFF75A9
:101E7300C2D875C50E75C4027586C0756625906196
:101E8300A67425F09061847418F07869760008EEE2
:101E93006870F9121D2A121A87D2AF53F4FED2903A
:101EA30043FE0112211180FB74F312025174FF12DD
:101EB3000221A2AFE433851082851183F0C2AF788B
:101EC3006DE62AFE08E63BFFEE2403FEEF3400FF37
:101ED300C3EE94F1EF941A400302204B7869E62491
:101EE30030F58208E63402F583E9F018E62401F6BA
:101EF30008E63400F674F465697004741A656A7050
:101F030006756900756A00080808E62401F608E604
:101F13003400F67869E62430F58208E63402F58366
:101F2300EAF018E62401F608E63400F674F465696D
:101F33007004741A656A7006756900756A0008088A
:101F430008E62401F608E63400F67869E62430F55D
:101F53008208E63402F583EBF018E62401F608E67E
:101F63003400F674F465697004741A656A70067552
:101F73006900756A00080808E62401F608E63400DB
:101F8300F6786974F4C396FE741A0896FFC3EA9E42
:101F9300EB9F50068A0A8B0B80048E0A8F0BEAC3D1
:101FA300950AFEEB950BFF18E62430F50808E63496
:101FB30002F509ED901D2CF0ECA3F085090DE50D5C
:101FC300A3F0E508A3F0850B09E509541FF8A3E086
:101FD30054E048F8F0E50AA3F075D60275D702E598
:101FE300D6A2E140FAEE4F6035EC250AFCED350B45
:101FF300901D2CF0ECA3F07402A3F0A37430F0EF67
:10200300541FFC74E0584CA3F0EEA3F075D6027590
:10201300D702E5D6A2E140FA8E698F6A801B786900
:10202300E62AF608E63BF674F465697004741A65EB
:102033006A7006756900756A00786DE62AF608E627
:102043003BF6756F000220FBE56F60030220FB780F
:1020530069E62430F58208E63402F5837403F01848
:10206300E62401F608E63400F674F4656970047436
:102073001A656A7006756900756A00080808E6241F
:1020830001F608E63400F67869E62430F58208E6BE
:102093003402F583E4F018E62401F608E63400F68A
:1020A30074F465697004741A656A7006756900755D
:1020B3006A00080808E62401F608E63400F67869A1
:1020C300E62430F58208E63402F583E4F018E624CA
:1020D30001F608E63400F674F465697004741A6551
:1020E3006A7006756900756A00080808E62401F637
:1020F30008E63400F6756F01851082851183E0E0F0
:10210300A2E092AF74011202377F060202B7C082C7
:10211300C083A2AFE433F8C2AFE56D456E603C798E
:102123006BE72430F58209E73402F583E0F5C11942
:10213300E72401F709E73400F774F4656B7004745E
:102143001A656C7006756B00756C0009E724FFF760
:1021530009E734FFF7E586A2E040FAE8A2E092AF90
:10216300021A82C082C083741DF5D57A248AD4747E
:102173001DF5D374082424F5D2901D247470F0A3A4
:1021830074D9F0A3E4F0A3F0901D2BE0540CF044B9
:102193001AF0901D2AE0C2E7F0901D28E054E0F009
:1021A300A3E4F0901D28F0901D2BE0C2E2F0901DF7
:1021B3002A7420F0901D30E0541FF0901D337452A8
:1021C300F0901D327420F0D2B8021A82C0E0C0D061
:1021D300E8C0E0E9C0E0EAC0E0EBC0E0ECC0E0ED5D
:1021E300C0E0C0F0C2C0E5D1A2E05006121AC87523
:0721F300D1FED0F0021A6BCF
:04000005000000B83F
:00000001FF
