:020000040000FA
:060000000200D5020A72A5
:030033000219852A
:0300430002034075
:03005300020AA1FD
:10008300020A1700000080FBE479217817B8000208
:100093008004F709D8FCE4900200788F790280028B
:1000A300F0A3D8FCD9FA7A8E7B039000E478137915
:1000B300018015E493A3AD82AE838A828B83F0A380
:1000C300AA82AB838D828E83D8E9D9E71206AA125E
:1000D300008675D0007581BF75100075110202008E
:1000E3008BEA237F247F247F247F248324440507F2
:1000F300004425C3E7960809E7960809E796080927
:10010300E79622BB0102E722C082C08389828A83E9
:10011300BB0003E08002E493D083D08222BB000EB5
:10012300C082C0838A838982F0D083D08222BB01BC
:1001330001F7226016080808C6C313C618C613C6FB
:1001430018C613C618C613C6D5E0EA22E627F60872
:1001530009E637F60809E637F60809E637F622E036
:1001630026F008A3E036F008A3E036F008A3E03653
:10017300F022E0F608A3E0F608A3E0F608A3E0F611
:1001830022600C08C6C313C618C613C6D5E0F422F2
:10019300700422600D18C6C333C608C633C6D5E043
:1001A300F41822251010AF08F510400C1511800823
:1001B300F51040021511D2AF2200C0D0251010AFA8
:1001C30008F510500C05118008F51050020511D2E6
:1001D300AFD0D0222510F582E43511F58322E473E4
:1001E3002510C582C0E0E51134FFC583C0E0E510EA
:1001F300C3958224F910AF08858311858210800886
:10020300858311858210D2AFCEF0A3E520F0A378C9
:1002130008E608F0A3DEFAEFF0A3E58124FBF8E695
:1002230008F0A3E608F0A30808E608F0A3E608F040
:10023300A315811581D0E0FED0E0F815811581E882
:10024300C0E0EEC0E022851183851082E0A3FEE0CA
:10025300A3F5207808E0A3F608DFFAE0A3FFE0A304
:10026300C0E0E0A3C0E0E0A3C0E0E0A3C0E010AFC3
:10027300088582108583118008858210858311D2B9
:10028300AFD083D08222C0D02510C582C0E0E51153
:1002930034FFC583C0E0E510C3958224F310AF0893
:1002A3008583118582108008858311858210D2AFE2
:1002B300C8F0A3E9F0A3EAF0A3EBF0A37908E709F8
:1002C300F0A3D8FAECF0A3EDF0A3EEF0A3EFF0A3C4
:1002D300D0E0F0A3D0E0F0A3D0E0F0A3E520F0A3BA
:1002E300E5F0F0A322851183851082E0C0E0A3E04E
:1002F300F9A3E0FAA3E0FBA37808E0F608A3DFFA8A
:10030300E0FCA3E0FDA3E0FEA3E0FFA3E0C0E0A3C5
:10031300E0C0E0A3E0F5D0A3E0F520A3E0A3F5F06F
:1003230010AF08858311858210800885831185822B
:1003330010D2AFD082D083D0E0F8D0E032C0E074E6
:10034300EF12028974FF1201A6C2C0E5D1A2E040F8
:10035300030206297902E52F6017752F007405241F
:100363004F900597F0500109E9900596F0740180CC
:1003730014752F01748B244F900597F0500109E9F0
:10038300900596F0E475F086A4F8A9F0744F28F868
:10039300740239F9E8FAE9FB75C311E5A28A828B85
:1003A30083F0E5A3A3F0E5A48A828B83A3A3F0E5FE
:1003B300A58A828B83A3A3A3F0E8FCE9FD88828945
:1003C30083A3A3A3A3E02407FAE43400FBA2AFE4CE
:1003D30033851082851183F0C2AF7825E62AFE08A3
:1003E300E63BFFEE2403F8E43FF9C3E894F1E99414
:1003F30001400302056E7821E624A0F58208E63465
:1004030003F583E4F018E62401F608E436F674F401
:100413006521700474016522700675210075220040
:10042300080808E62401F608E436F67821E624A055
:10043300F58208E63403F583EAF018E62401F608AA
:10044300E436F674F4652170047401652270067550
:100453002100752200080808E62401F608E436F6B0
:100463007821E624A0F58208E63403F583EBF0183F
:10047300E62401F608E436F674F465217004740189
:1004830065227006752100752200080808E624011C
:10049300F608E436F6782174F4C396FE74010896E0
:1004A300FFC3EA9EEB9F50068A088B0980048E08DF
:1004B3008F09EAC39508FEEB9509FF18E624A0F51A
:1004C3000A08E63403F9E50845096033ED90059C15
:1004D300F0ECA3F0E9A3F0E50AA3F0E509541FF853
:1004E300A3E054E048F0E508A3F09005A3E054CF5F
:1004F3004410F075D60275D702E5D6A2E140FAEEB4
:100503004F603EEC2508F8ED350990059CF0E8A313
:10051300F07403A3F0A374A0F0EF541FF8A3E05406
:10052300E048F0EEA3F09005A3E054CF4410F0753B
:10053300D60275D702E5D6A2E140FA8E218F22803A
:100543001B7821E62AF608E63BF674F4652170046D
:100553007401652270067521007522007825E62A4C
:10056300F608E63BF6752700020618E52760030246
:1005730006187821E624A0F58208E63403F583748F
:1005830003F018E62401F608E436F674F4652170E6
:10059300047401652270067521007522000808089D
:1005A300E62401F608E436F67821E624A0F582086D
:1005B300E63403F583E4F018E62401F608E436F69E
:1005C30074F4652170047401652270067521007549
:1005D3002200080808E62401F608E436F67821E646
:1005E30024A0F58208E63403F583E4F018E6240139
:1005F300F608E436F674F46521700474016522701C
:1006030006752100752200080808E62401F608E4AF
:1006130036F6752701851082851183E0A2E092AF3B
:1006230075300075D1FE74011201BC7F040202E82B
:10063300C082C083900200E070579061C0E054F81C
:10064300F0E49060007880F0A3D8FC9061B1E0D230
:10065300E0F09061A0E0F8E4F0906184F0E5E170EF
:10066300FC75E1029061BFE060FAE0F5BC000000B8
:100673000000000000E0F5BCE89061A0F0E5E17047
:10068300FC75E1019061B1E0C2E0F09002007401F9
:10069300F090618FE0F9800AC082C0839003687490
:1006A30004F0D083D0822275C68000E59EA2E64086
:1006B300F9E5C654C74428F5C69023F4E493F874C7
:1006C3000193F974FF68700374FF69600302077391
:1006D30090020974C6F0A37416F0120633E9FE12F1
:1006E3000633E975F00A84A8F0EE75F00A84E5F0A4
:1006F300C454F028A3F0120633E9FE120633E97559
:10070300F00A84A8F0EE75F00A84E5F0C454F028EA
:10071300A3F07A04EAC3334400906272F074FD904C
:100723006271F07402900201F0A37409F0A3746281
:10073300F0A37473F0A3E054E0F0A37404F0900208
:1007430005E4F09002087442F09002077412F0740A
:1007530002F5D575D40175D601906270E0D2E1F04F
:10076300E5D6A2E040FA90627274FFF0906271F0F5
:10077300782176000874296870F8E5A8F8C2AF906C
:10078300620EE0F97403F09062117408F0E990626C
:100793000EF0E8A2E792AF7905E9F5D57A948AD409
:1007A300EA2408500109E9F5D374082AF5D2900523
:1007B300947470F0A374D9F0A3E4F0A3F090059BB4
:1007C300E0540CF0441AF090059AE0C2E7F090056B
:1007D30098E054E0F0A3E4F0900598F090059BE0D6
:1007E300C2E2F090059A7420F09005A0E0541FF047
:1007F3009005A37452F09005A27420F090059E74A6
:1008030062F0A37426F0A3E4F09005A37442F0D23F
:10081300B8752CFF90038EE0F8A3E0F990035FE82E
:10082300F0A3E9F0900390E0F8A3E0F9E8FAE9FB1C
:100833007C007D008005E8F0A3E9F090035FE0F819
:10084300A3E0F9EA687002EB696048E0F583888207
:10085300E493F890035FE028F8A3E03400F99003F1
:100863005FE0FEA3E0F5838E82A3E493640290032A
:100873005F70C3E0FCA3E0FD90035FE8F0A3E9F041
:10088300EC4D600F8C828D83A3A3A3A3A3E4936495
:1008930001709D8C828D83A3A3A3A3A3A3A3E4933D
:1008A300A2E6900374500474018001E4F090037392
:1008B300E4F090620F7403F0E0A2E750FB90620B48
:1008C300E0D2E1F090620FE0D2E3F07533007534CB
:1008D3000075350075361775370090620B7417F085
:1008E3009062077401F0906209E4F0758B00C2E82E
:1008F30043AC20439A0243FD06C281D282D2904385
:10090300FD10D2AF803EE52860067528007401F023
:10091300EF90620EF0EEA2E092AFE52DF8E52C68C1
:100923006022E824FC6003147017752AFF75290000
:100933009061C0E054F8F0E49060007880F0A3D8B0
:10094300FC852D2CE52C24FC60031470CD7401650B
:100953002970C7A2AFE433FEC2AF90620EE0FF740A
:1009630003F0906211E0A2E040A6A825A926E84979
:100973006094C3E89440E9940040077C40752801E3
:100983008005E8FC752800A823A9248C0874F4C307
:1009930098FA740199FBC3E5089AE49B4007E8FAC7
:1009A30074F4C39AFCECFA74A028F8740339F9EAD6
:1009B300602FE990059CF0E8A3F09005A0E054E0D7
:1009C300F0EAA3F090059E7462F0A37426F09005FC
:1009D300A3E054CFF075D60275D702E5D6A2E14065
:1009E300FA9062117401F07825C3E69CF608E69448
:1009F30000F6181818E62AF608E436F674F46523A8
:100A030070047401652460030209137523007524BF
:100A130000020913C0E0C0D0E8C0E0E9C0E0EAC0CA
:100A2300E0EBC0E0C082C083C0F0E5915405602DC7
:100A3300753001E5D9FBE52F75F086A4F8A9F074AC
:100A43005328F582740239F583EBF0900598E0544E
:100A5300E0F074022BA3F075D60175D70175E90098
:100A6300759100759B00D0F0D083D082021AF7C035
:100A7300E0C0D0E5BF601FE5E170FC75E10175E101
:100A830081E5D6A2E0500375D681C2C075D1FEE5DB
:100A9300E170FC75E10875BF00C289021B03C0E069
:100AA300C0D0E8C0E0E9C0E0EAC0E0EBC0E0C008C5
:100AB300C009C00AC00BC082C08374FF1201A6E53F
:100AC300A1A2E44003020C3890035B78081201757D
:100AD300A90990035B750800750904750A00750B75
:100AE300007808120162A2AFE43385108285118376
:100AF300F0C2AF75C33090035B7808120175E50847
:100B0300F5A490035B7808120175E509F5A5900338
:100B13005B780812017574107808120136E508F540
:100B2300A6851082851183E0E0A2E092AF53A1EF86
:100B3300E5306003020C38A2AFE433F0C2AF78258E
:100B4300E62404FA08E436FBC3EA94F1EB9401408B
:100B530003020C2D7821E624A0F58208E63403F580
:100B6300837401F018E62401F608E436F674F4659C
:100B73002170047401652270067521007522000836
:100B83000808E62401F608E436F67821E624A0F501
:100B93008208E63403F5837401F018E62401F608AD
:100BA300E436F674F46521700474016522700675E9
:100BB3002100752200080808E62401F608E436F649
:100BC3007821E624A0F58208E63403F583E4F018DF
:100BD300E62401F608E436F674F465217004740122
:100BE30065227006752100752200080808E62401B5
:100BF300F608E436F67821E624A0F58208E6340305
:100C0300F583E9F018E62401F608E436F674F46592
:100C13002170047401652270067521007522000895
:100C23000808E62401F608E436F685108285118368
:100C3300E0A2E092AF74011201BCD083D082D00B4A
:100C4300D00AD009D008021AF774F11201E374FE36
:100C53001201A690620EE0C0E074011201D7D0E049
:100C6300F090620EE4F0906211E0FE900368E0649D
:100C7300087026EEA2E0401C90037CE0F89062002E
:100C8300F0900361E0C39404500AE86004740380A5
:100C9300027402F0900368E4F0EEA2E2500990625D
:100CA30011E4F0900368F0EEA2E450239062117413
:100CB30080F09003687407F0E531453260098531AF
:100CC300828532831201E1900368E4F0020D7DE036
:100CD300F87402686003020D66EEA2E04003021698
:100CE3004C906216E0F8851082851183F0900375AD
:100CF300E0F9A3E0FAA3E0FB851082851183E060AD
:100D030019906220E0120120E9240109E43AFA85EE
:100D13001082851183E014F070E78808900378C38C
:100D2300E09508F0A3E09400F0900375E0F9A3E0E8
:100D3300FAA3E0FBE928F9E43AFA900375E9F0A392
:100D4300EAF0A3EBF0A3E0F8A3E0F9E8499062111D
:100D53006004744080027448F0E849600302164C52
:100D63000216287406687009853182853283120160
:100D7300E1900368E06003020E2CEEA2E040030260
:100D8300164C797A7A037B007808906220E012018E
:100D930020E9240109E43AFAD8F08B318B3290032D
:100DA3007AE054E0602624E070030215AE24E0707C
:100DB300030212AA24C0700302113124E07003025B
:100DC30015B724E070030214FC021128A3E0147089
:100DD30003020F1724FE7003020E5F24FE6011242A
:100DE300FC7003020FB524FE7003020FBB0211282F
:100DF30090037EE0F8A3E0F9E8496003021128A319
:100E0300E0F8A3E0F9E849600302112890037CE0CD
:100E13005480F8A3E0F9E8496003021128900368BD
:100E23007408F09062117448F0900368E0F874015C
:100E330068600302163E906211E0A2E150030216BD
:100E43004C7C02900378E0F8A3E0F9C3E89420E92E
:100E5300940040030215D57C0A0215D7900380E065
:100E6300F8A3E0F9E8496003021128900361E06404
:100E730004600F90037EE0F8A3E0F9E84960030201
:100E8300112890037AE0541F607824FE6003021156
:100E93002890037EE0547FF50890037CE060030212
:100EA3001128E508C394064003021128E50890625F
:100EB3000EF074612508FAE43403FB90037EE054DA
:100EC3008060139062117410F08A828B83A3A3A3B2
:100ED300A3A3A3A3800F9062147420F0EA240CF55B
:100EE30082E43BF5837403F090620EE4F0900368B0
:100EF300E0F874046860030215C090621174600224
:100F03000E2B90037CE064016003021128900373AD
:100F1300740180D8900380E0F8A3E0F9E849600306
:100F2300021128900361E06404600F90037EE0F8EF
:100F3300A3E0F9E849600302112890037AE0541F03
:100F4300605F24FE600302112890037EE0547FF566
:100F53000890037CE06003021128E508C39406406F
:100F630003021128E50890620EF074612508FAE483
:100F73003403FB90037EE05480601590621174404B
:100F8300F08A828B83A3A3A3A3A3A3A3E4020EEA01
:100F93009062147480F0EA240CF582E43BF58380BC
:100FA300EB90037CE0640160030211289003730259
:100FB3000EEE121FE5020EF0900361E0640460037D
:100FC30002112890037AE064016003021128900360
:100FD30080E0F8A3E0F9E849600302112890037C5C
:100FE300E0FAF50990037EE0F8A3E0F9E8F50A8B4F
:100FF30008900362E0F50B90038EE0FCA3E0FD9004
:10100300035FECF0A3EDF0900390E0F50CA3E0F5A3
:101013000D800890035FECF0A3EDF090035FE0FC1C
:10102300A3E0FDE50C6C7003E50D6D607CE0F583DA
:101033008C82E493FC90035FE02CFCA3E03400FD7E
:1010430090035FE0FEA3E0F5838E82A3E493640242
:1010530070C1900360E0FF90035FECF0A3EDF0EE4E
:101063004F6046E50B60118E828F83A3A3A3A3A3D6
:10107300E493650B70A58031E508602D1508809B0E
:1010830074026C700302112890035FE0FCA3E0F587
:10109300838C82E493FC90035FE02CFCA3E0340098
:1010A300FD90035FECF0A3EDF090035FE0FCA3E0A1
:1010B300FDE50C6C7003E50D6D606AE0F5838C82D1
:1010C300A3E493FC74046C70B790035FE0FEA3E0A9
:1010D300FF90035FE0FCA3E0F5838C82E493FC9034
:1010E300035FE02CFCA3E03400FD90035FECF0A36E
:1010F300EDF0EE4F602F8E828F83A3A3E493650AF6
:1011030070A78E828F83A3A3A3E4936509709A7457
:101113006328F582740339F583EAF0EEFAEFFB12E4
:101123001DF2020EF09003687404F0020EFDA3E0BA
:10113300601724FA700302121E24FE7003021224A5
:1011430024FE700302125680DCA3E0F8A3E0F9E862
:101153004970D2A3E0F8A3E070CBA3E0640270026D
:10116300A3E070C190037AE0248060671460511497
:1011730070B3E8547FF508900361E0640470A6E55A
:1011830008C39406509F74612508FAE43403FBE80E
:10119300548060128A828B83A3A3A3A3A3A3A3E097
:1011A30064037014800EEA240CF582E43BF583E0BB
:1011B30064037004780180027800900382E8803928
:1011C300900361E064046003021128900382E4F059
:1011D300A38029E86003021128900374E060047877
:1011E3000180027800900382E8F0A3E4F090037397
:1011F300E0600A900382E04402F0A3E4F090036805
:10120300E064047003020EFD9003757482F0A3740E
:1012130003F0A3E4F0A374020215A3121B08020E49
:10122300F0A3E0F8A3E0F9E8496003021128A3E082
:10123300F8A3E0F9E8496003021128A3E064017010
:1012430002A3E060030211289003757462F0A37493
:1012530003804B900361E064046003021128900350
:101263007AE06481600302112890037CE0F8A3E034
:10127300F9E8496003021128900380E064017002D9
:10128300A3E0600302112890037EE02463F508A322
:10129300E03403F509900375E508F0A3E509F0A32D
:1012A300E4F0A3040215A375311A753217A3E024E1
:1012B3003F603624FE6029147003020EF014604A66
:1012C30024FC7003020EF024FA7003020EF0147073
:1012D300030214341470030213FD1460380211283E
:1012E300900378E4F0A30215A6900368E06003027C
:1012F3000EF07402F0900378740AF0A3E4F0900304
:10130300757484F0A3740302153190037EE0540FC7
:10131300F52D020EF0900368E0F8703390037EE041
:1013230090020DF0900380E0F890020EF0900375A8
:10133300740FF0A37402F0A3E4F0900381E0F9903A
:101343000378E8F0A3E9F090036874020215AB7424
:1013530002686003020EF090020DE070030213F4C2
:101363001470030213EB24FD6003020EF08B088B51
:10137300098B0A8B0B7A0D7B02A3E0604B8A828B6D
:1013830083A3A3E0F98A828B83A3A3A3E0F8E96094
:101393000E8A828B83A3A3A3A3E088828983F0753B
:1013A3000C03750D00750E00750F007808790C128B
:1013B300014FEA2403FA50010B90020EE0F50C787A
:1013C3000C79081200F640B5906001E0D2E2F0A378
:1013D300E0D2E3F090607EE054FCF0E0D2E0F090E5
:1013E30061C6E0D2E0020EEF90020FE0F52A02158B
:1013F300CD90020FE0F52E0215CDE52A6003020E13
:10140300F075A90075B900539AFEC2A8E5E170FC16
:1014130075E10175E18175D681906188E0A2E250A2
:10142300F89061B1E4F0C2BA759400752902020E16
:10143300F0E52A6003020EF078217600087429682B
:1014430070F8E5A8F8C2AF90620EE0F97403F0906B
:1014530062117408F0E990620EF0E8A2E792AF75AA
:10146300C30075A20075A30075C30075A40075A51C
:101473000075A60075C30375A20075A30075C3307C
:1014830075A40075A50475A60090035BE4F0A3742E
:1014930004F0A3E4F0A3F053A1EF43A710C2C2D218
:1014A300BA75940975300075A90175B90175E9001C
:1014B300759100759B0075BF00C2899061827405A8
:1014C300F0A3747FF0439A01D2A8752F01744F24BF
:1014D3008B900597F07402900596F09061B17401BA
:1014E300F0906188E0A2E250F8E5E170FC75E10854
:1014F300752901020EF0021128753160753216A3A9
:10150300E02440602E24FE600924FC70030215963B
:1015130080E4900368E06003020EF07401F090032E
:10152300757484F0A37403F0A3E4F0A3740AF0A326
:10153300E48075797A7A03900375E9F0A3EAF0A35E
:10154300E4F0A37408F0A3E4F090036804F09003BC
:101553009EE0120120A3E0097A0312012090039A6E
:10156300E0097A03120120A3E0097A031201209013
:10157300039CE0097A03120120A3E0097A03120114
:1015830020097A037401120120097A03E41201206D
:10159300020EF0900375742CF0A3E4F0A304F0A3FF
:1015A300F0A3E4F090036804F0801F753182753274
:1015B3001902112875317F753219021128740168D7
:1015C30060087402686003020E2690621174400280
:1015D3000E2B7820E8FE900375E0F9A3E0FAA3E070
:1015E300FBEE6010120106906220F0E9240109E489
:1015F3003AFADEF08808900375E0F9A3E0FAE928E7
:10160300F9E43AFA900375E9F0A3EAF0A3EBF0A347
:10161300C3E09508F0A3E09400F0EC906211F0E8C9
:10162300C394205024E531453260098531828532E7
:10163300831201E1900368E4F0800E740568700979
:101643008531828532831201E174011201D7E09062
:10165300620EF074021201BC7F08020249C082C00C
:101663008390037BE02440602624FE70030216F37C
:1016730024FC6003021711900375742CF0A3E4F0AB
:10168300A304F0A3F0A3E4F090036804021716790F
:101693007A7A037B00900375E9F0A3EAF0A3E4F000
:1016A300A37408F0A3E4F090036804F090039EE0B1
:1016B300120120A3E0097A0312012090039AE009A2
:1016C3007A03120120A3E0097A0312012090039CFC
:1016D300E0097A03120120A3E0097A031201200929
:1016E3007A037401120120097A03E4120120802491
:1016F300900368E0701E7401F09003757484F0A386
:101703007403F0A3E4F0A3740AF0A3E48005900348
:10171300687404F00206A574F11201E390037BE000
:10172300243F700302194924FE70030219691470DF
:101733000302197C14700302193F24FC700302197D
:101743007C24FA700302197C14600F1470030218CE
:1017530022147003021859021976E52A600302194C
:101763007C782176000874296870F8E5A8F8C2AF80
:1017730090620EE0F97403F09062117408F0E9903E
:10178300620EF0E8A2E792AF75C30075A20075A3DD
:101793000075C30075A40075A50075A60075C30385
:1017A30075A20075A30075C33075A40075A50475F3
:1017B300A60090035BE4F0A37404F0A3E4F0A3F0A9
:1017C30053A1EF43A710C2C2D2BA75940975300072
:1017D30075A90175B90175E900759100759B0075CF
:1017E300BF00C2899061827405F0A3747FF0439AAD
:1017F30001D2A8752F01744F248B900597F07402C2
:10180300900596F09061B17401F0906188E0A2E2D6
:1018130050F8E5E170FC75E10875290102197CE5D2
:101823002A600302197C75A90075B900539AFEC298
:10183300A8E5E170FC75E10175E18175D6819061E0
:1018430088E0A2E250F89061B1E4F0C2BA75940066
:1018530075290202197C900368E0F8703390037EC7
:10186300E090020DF0900380E0F890020EF09003F8
:1018730075740FF0A37402F0A3E4F0900381E0F910
:10188300900378E8F0A3E9F0900368740202197BEF
:10189300740268600302197C90020DE07003021960
:1018A3003714700302192F24FD600302197C750895
:1018B30000750900750A00750B007A0D7B02A3E021
:1018C300604B8A828B83A3A3E0F98A828B83A3A3D1
:1018D300A3E0F8E9600E8A828B83A3A3A3A3E08825
:1018E300828983F0750C03750D00750E00750F006A
:1018F3007808790C12014FEA2403FA50010B900285
:101903000EE0F50C780C79081200F640B5906001F2
:10191300E0D2E2F0A3E0D2E3F090607EE054FCF08A
:10192300E0D2E0F09061C6E0D2E0804C90020FE09C
:10193300F52A804590020FE0F52E803D90037EE06E
:10194300540FF52D8033900368E0702D7402F090EE
:101953000378740AF0A3E4F09003757484F0A3741D
:1019630003F0A3E48012900378E4F0A3F0900368FB
:101973000480059003687404F002165B02069B0260
:10198300069BC0E0C0D0E8C0E0E9C0E0EAC0E0EBFD
:10199300C0E0ECC0E0EDC0E0C008C009C082C08375
:1019A300C0F0E59EA2E640FA7401653570139062BB
:1019B3004BE0C2E2F090620FE0D2E1F0E0A2E75028
:1019C300FB906206E0FAA2E25035A836E890620B7B
:1019D300F0F50885370974047808120184E5089046
:1019E3006207F0853608853709740978081201847F
:1019F300E508543E906209F0906201E0D2E0F0788D
:101A030033EA46F608E446F6906202E0F508750903
:101A130000740478081201937833E50846F608E564
:101A23000946F6906204E0F5087509007409780820
:101A3300120193783346F608E50946F6EAA2E05028
:101A43000375350174065A6003753500E58BA2E50D
:101A53005006758BDF753500A833A934E85404604C
:101A6300677833E654FBF608E654FFF69003617497
:101A730002F0A3E4F0900368F07861790388828927
:101A830083A3A3A3A3A3A3A3A37403F0888289833B
:101A9300A3A882A983E864667003E9640370DE780F
:101AA300617903E8240DF582E439F5837403F08842
:101AB300828983A3A882A983E864667003E9640327
:101AC30070E1753100753200A833A934E854106011
:101AD3000E7833E654EFF608E654FFF6120C4C7515
:101AE3008B00C2E8D0F0D083D082D009D008D0E0F8
:101AF300FDD0E0FCD0E0FBD0E0FAD0E0F9D0E0F894
:101B0300D0D0D0E03274F61201E390037CE0F8A366
:101B1300E014600C146078147003021C46021CE18C
:101B230090038EE0F8A3E0F990035FE8F0A3E9F0F7
:101B3300750800750900900390E0FAA3E0FB8005A7
:101B4300E8F0A3E9F090035FE0F8A3E0F9EA687036
:101B530002EB696037E0F5838882E493F890035FD2
:101B6300E028F8A3E03400F990035FE0FCA3E0F57C
:101B7300838C82A3E493640190035F70C3E0F50850
:101B8300A3E0F50990035FE8F0A3E9F0021CBDE8C8
:101B9300FC90038EE0F8A3E0F990035FE8F0A3E97B
:101BA300F0900390E0FAA3E0FB80011C7508007538
:101BB30009008005E8F0A3E9F090035FE0F8A3E0F3
:101BC300F9EA687002EB69603FE0F5838882E49389
:101BD300F890035FE028F8A3E03400F990035FE096
:101BE300FDA3E0F5838D82A3E493640290035F7009
:101BF300C3E0F508A3E0F50990035FE8F0A3E9F07B
:101C0300ED45096003EC70A3900375E508F0A3E5C7
:101C130009F0A37480F0900375E0F9A3E0FA7B80E8
:101C2300E92402F9E43AFA120106FC1919E0FAA3CD
:101C3300E92403F9E43AFA120106F9ECA3F0A3E963
:101C4300021CDDE8FD90038EE0F8A3E0F990035F4A
:101C5300E8F0A3E9F0900390E0FAA3E0FB75080035
:101C63007509008005E8F0A3E9F090035FE0F8A3AD
:101C7300E0F9EA687002EB696037E0F5838882E493
:101C830093F890035FE028F8A3E03400F990035F32
:101C9300E0FCA3E0F5838C82A3E493640390035FE9
:101CA30070C3E0F508A3E0F50990035FE8F0A3E94A
:101CB300F0EDFC74FF2C1D0470A3900375E508F090
:101CC300A3E509F0A37480F0900375E0F9A3E0FAAB
:101CD300A37B80120106A3F0A3E4F0021DAA9003E4
:101CE30075E4F0A3F0A3F0900392E0F8A3E0F9A366
:101CF300E0FAA3E0FBEAC398F508EB99F509E508D8
:101D030054F8AB094B7003021DB9E8FAE9FB7403FD
:101D13007808120184A808A90990037CE0F508A3B8
:101D2300E0F5098A828B83E493AE096E7063A3E4C2
:101D3300936508705C90037EE0F508A3E0F5098ADB
:101D4300828B83A3A3E493AE096E70458A828B834F
:101D5300A3A3A3E493650870388A828B83A3A3A308
:101D6300A3E493F508740193F509900375E508F06E
:101D7300A3E509F0A37480F08A828B83A3A3A3A3B2
:101D8300A3A3E493FE740193FF900378EEF0A3EF13
:101D9300F0EA2408FA50010BE824FF18E934FFF9AC
:101DA300E8496003021D1C900375E0F9A3E0FA8A79
:101DB30009E9450970079003687404802C9003684F
:101DC300E064046025900380E0FAA3E0FB900378CD
:101DD300E0F8A3E0F9C3EA98EB995008900378EA96
:101DE300F0A3EBF09003687401F07F0302024974DF
:101DF300F11201E3EA2404F50EE43BF50F850E82AC
:101E0300F583E493FC6035900396E0FEA3E0FF8E38
:101E1300828F83E493F8740193F9EA687002EB69A3
:101E2300601AEE2404FE50010F8E828F83E493F830
:101E3300740193F9EA687002EB6970E67900EC705B
:101E430003021FE28005EAF0A3EBF090035FE0FAE0
:101E5300A3E0FB900390E06A7003A3E06B700302BE
:101E63001FD090035FE0F8A3E0F5838882E493FA40
:101E730090035FE02AFAA3E03400FBE0F583888255
:101E8300A3E493640590035F70BCE0FCA3E0FD90C2
:101E9300035FEAF0A3EBF0EC4D7003021FD0EC24D8
:101EA30002F50CE43DF50D850C82F583E493540FA4
:101EB300F50A90620EF0750B008C828D83A3A3A3A9
:101EC300A3E4932407F508A3E4933400F50974030A
:101ED3007808120184AA08850C82850D8393A2E7F2
:101EE30050729062117448F0906211E0A2E35008BE
:101EF30090620EE0650A60F09062117408F09062DF
:101F030011E0A2E3500890620EE0650A60F08C8253
:101F13008D83A3A3A3E493540364017003750B405F
:101F2300750801750900E50A78081201938E828FFE
:101F330083A3A39355086006E50BD2E0F50BE50BED
:101F4300906212F0EA906210F07468250AF582E458
:101F5300340380719062147490F0906214E0A2E3F1
:101F6300500890620EE0650A60F09062147410F0FD
:101F7300906214E0A2E3500890620EE0650A60F0FC
:101F83008C828D83A3A3A3E493540364017003752C
:101F93000B40750801750900E50A78081201938E54
:101FA300828F83A3A3A39355086006E50BD2E0F5C4
:101FB3000BE50B906215F0EA906213F0746D250A3D
:101FC300F582E43403F583E4F090620EF009850EA4
:101FD30082850F83E493F8E9C3985003021E4E02EF
:101FE300165B74F21201E374FE1201A6900361E022
:101FF3006402700302238090037EE0F8A3E0F9E813
:10200300496003022380A3E0F8A3E0F9E8496003F1
:1020130002238090037CE0F8A3E06003022380E8BE
:102023007003022388FE90038EE0FAA3E0FB900383
:102033005FEAF0A3EBF0900390E0FAA3E0FBEAFC85
:10204300EBFD800890035FEAF0A3EBF090035FE001
:10205300FAA3E0FBEC6A7002ED6B7003022380E0ED
:10206300F5838A82E493FA90035FE02AFAA3E034CB
:1020730000FB90035FE0FFA3E0F5838F82A3E4936B
:10208300640270C0900360E0F509851082851183B6
:10209300EFF0A3E509F090035FEAF0A3EBF08510FE
:1020A30082851183E0FAA3E0FBEA4B7003022380ED
:1020B300851082851183A3E0F5838A82A3A3A3A35A
:1020C300A3E4936E70869003617404F0E8A3F07543
:1020D3000B00851082851183E0F8A3E0F5838882E5
:1020E300A3A3A3A3E49370030223DB850B08746308
:1020F3002508F582E43403F583E4F0900390E0F8D7
:10210300A3E0F9E8FAE9FB7C007D008005E8F0A391
:10211300E9F090035FE0F8A3E0F9EA687002EB6985
:102123006035E0F5838882E493F890035FE028F854
:10213300A3E03400F990035FE0FEA3E0F5838E8211
:10214300A3E493640490035F70C3E0FCA3E0FD90F9
:10215300035FE8F0A3E9F08C828D83A3A3A3E49348
:1021630070A58C828D83A3A3A3A3E493603590030E
:1021730096E0FEA3E0FF8E828F83E493F8740193CD
:10218300F9EC687002ED69601AEE2404FE50010F49
:102193008E828F83E493F8740193F9EC687002EDF7
:1021A3006970E6750E008C828D83A3A3A3A3E493C9
:1021B3007003022360900390E0F508A3E0F5098023
:1021C30005EAF0A3EBF090035FE0F8A3E0F9E5087C
:1021D300687003E50969700302234AE0F583888286
:1021E300E493F890035FE028FAA3E03400FB900344
:1021F3005FE0F8A3E0F5838882A3E493640590038A
:102203005F70BEE0F50CA3E0F50DEAF8EBF990037F
:102213005FE8F0A3E9F0E50C450D700302234A855E
:102223000C82850D83A3A3E493540FF990620EF0FF
:10223300750A00850C82850D83A3A3A3A3E49324CD
:1022430007F508A3E4933400F50974037808120131
:1022530084AA08850C82850D83A3A393A2E75070FB
:102263009062117448F0906211E0A2E3500790620B
:102273000EE06960F19062117408F0906211E0A2BF
:10228300E3500790620EE06960F1850C82850D834F
:10229300A3A3A3E493540364017003750A40750870
:1022A30001750900E978081201938E828F83A3A335
:1022B3009355086006E50AD2E0F50AE50A90621232
:1022C300F0EA906210F0746829F582E43403806FB9
:1022D3009062147490F0906214E0A2E3500790624D
:1022E3000EE06960F19062147410F0906214E0A241
:1022F300E3500790620EE06960F1850C82850D83DF
:10230300A3A3A3E493540364017003750A407508FF
:1023130001750900E978081201938E828F83A3A3C4
:10232300A39355086006E50AD2E0F50AE50A906230
:1023330015F0EA906213F0746D29F582E43403F525
:1023430083E4F090620EF0050E8C828D83A3A3A329
:10235300A3E493F8E50EC39850030221B8050B8557
:102363001082851183E0F8A3E0F5838882A3A3A3F9
:10237300A3E493F8E50BC398505E0220EE90036844
:102383007404F08053900362F09003617403F07857
:1023930061790388828983A3A3A3A3A3A3A3A374BB
:1023A30003F088828983A3A882A983E86466700303
:1023B300E9640370DE78617903E8240DF582E4397A
:1023C300F5837403F088828983A3A882A983E864D0
:1023D300667003E9640370E174021201BC7F0702B3
:1023E3000249000000AAAA120100020000002051C5
:1023F30004FFFFFFFF0102000109021900010100B0
:1024030080320904000001FFFFFF0007058302403B
:1024130000050403090424035400650078006100E7
:102423007300200049006E00730074007200750091
:102433006D0065006E0074007300240343004300C5
:1024430032003500340034002000550053004200B0
:10245300200044006F006E0067006C0065001203EB
:1024630030003000300030003000300030003700E2
:102473000C0343004500420041004C0005240000CA
:04000005000000D522
:00000001FF
