:020000040000FA
:060000000200D502227F80
:0300330002382D63
:0300430002122482
:03004B00021B7E17
:030053000222AADC
:1000830002213600000080FBE47921785CB800028D
:100093008004F709D8FCE490012178AF790280024B
:1000A300F0A3D8FCD9FA7ACF7B029000E4781379D5
:1000B300018015E493A3AD82AE838A828B83F0A380
:1000C300AA82AB838D828E83D8E9D9E7121C6D1285
:1000D300008675D0007581BF75102175110102006E
:1000E3008B5E42F342F342F342F342F7424005068A
:1000F300004025E76670100809E766700A0809E7FB
:100103006670040809E76622BB0102E722C082C0C9
:100113008389828A83BB0003E08002E493D083D087
:100123008222BB000EC082C0838A838982F0D0837F
:10013300D08222BB0101F7226016080808C6C31348
:10014300C618C613C618C613C618C613C6D5E0EA22
:10015300227009080808226016181818C6C333C687
:1001630008C633C608C633C608C633C6D5E0EA2276
:10017300E627F60809E637F60809E637F60809E63A
:1001830037F622E026F608A3E036F608A3E036F6B3
:1001930008A3E036F622E647F60809E647F608091B
:1001A300E647F60809E647F622C9C0E0E7F608097C
:1001B300E7F60809E7F60809E7F6D0E0F922E8F0E0
:1001C300A3E9F0A3EAF0A3EBF022C3E498F8E499DF
:1001D300F912020E8026C3E49AFAE49BFBE920E7B6
:1001E300E912020EE498F8E499F922C3E498F8E4DA
:1001F30099F912020EE498F8E499F9C3E49AFAE43F
:100203009BFB22EB20E7CFE920E7E0B90010BB001E
:1002130008E88AF084F8AAF022E4FBC8FA22EB701B
:10022300227B10C833C8C933C9335007C39AC3DB11
:10023300F280069A50012ADBEAC833F4C8C933F4C2
:10024300C9FA2275F008E4C833C8C933C933C99A57
:10025300C99B5004C92AC93BD5F0ECFBC833F4C889
:10026300E4C9FA22600C08C6C313C618C613C6D560
:10027300E0F422700422600D18C6C333C608C633E7
:10028300C6D5E0F41822251010AF08F510400C1560
:10029300118008F51040021511D2AF2200C0D025FD
:1002A3001010AF08F510500C05118008F51050021E
:1002B3000511D2AFD0D0222510F582E43511F58394
:1002C30022E4732510C582C0E0E51134FFC583C065
:1002D300E0E510C3958224F910AF08858311858268
:1002E300108008858311858210D2AFCEF0A3E5205C
:1002F300F0A37808E608F0A3DEFAEFF0A3E5812483
:10030300FBF8E608F0A3E608F0A30808E608F0A364
:10031300E608F0A315811581D0E0FED0E0F8158141
:100323001581E8C0E0EEC0E022851183851082E0EC
:10033300A3FEE0A3F5207808E0A3F608DFFAE0A324
:10034300FFE0A3C0E0E0A3C0E0E0A3C0E0E0A3C0FF
:10035300E010AF088582108583118008858210859F
:100363008311D2AFD083D08222C0D02510C582C0E2
:10037300E0E51134FFC583C0E0E510C3958224F3A3
:1003830010AF0885831185821080088583118582CB
:1003930010D2AFC8F0A3E9F0A3EAF0A3EBF0A3797E
:1003A30008E709F0A3D8FAECF0A3EDF0A3EEF0A36D
:1003B300EFF0A3D0E0F0A3D0E0F0A3D0E0F0A3E50A
:1003C30020F0A3E5F0F0A322851183851082E0C01D
:1003D300E0A3E0F9A3E0FAA3E0FBA37808E0F608C2
:1003E300A3DFFAE0FCA3E0FDA3E0FEA3E0FFA3E0AC
:1003F300C0E0A3E0C0E0A3E0F5D0A3E0F520A3E0D4
:10040300A3F5F010AF0885831185821080088583DA
:1004130011858210D2AFD082D083D0E0F8D0E03201
:10042300033F0000030004280D98089007900194EF
:10043300011B0195111B08F00939821F0EA4FECD83
:1004430082210622FB381818162118F0EF3818F20B
:10045300ED3828F2EB3868F003392A1FE73F08F03C
:100463000428C33868F0393C08F1053C88F1173C8F
:10047300A8F10E3CE09F2C1F0128104A291FD63FEC
:1004830015D0033827D0093800900428A83F012845
:10049300154101980128014A25D01F38041F831FE5
:1004A3000EA4FECD042205381421202807A0083FFE
:1004B3000628711527D0E939202807D0F23883217F
:1004C30078F10238042188F1083D0628A14001F0A3
:1004D30004288D38042807A00528561528F1163C52
:1004E30068F1143D77CF1240599202D80F3912D0D8
:1004F3000739699222D00439799242D00438052809
:10050300F8151E3FC09F0428753F08F1233C88F16E
:10051300203D094028F1103D4540F7C759F2083DF9
:100523009303131183E1B9F00F3C23E00D3F09D886
:10053300EA38F9C30B3F68F1033D59F2F23C09D89D
:10054300F9390528C6150528F91501900128214A0E
:10055300051F48F00C3C08F10A3868F1033C98F198
:1005630006390C96062802150228843F47A00C96EC
:100573000528FC15531F0528EC1507288CED0528C5
:10058300F51501280195711B01280CE40528EE15CA
:10059300511F88F10B3808F1073868F10939012830
:1005A300214201F00B3947D009383521063F28F1A4
:1005B300033838F10339351F341F04280CE047D0C2
:1005C300033903280CE80528D115571F28F00638EE
:1005D300561F811F021F38F0063930215B90052812
:1005E3004415FD3F88F1033D0528001505288A15AC
:1005F30047D0133808F10F392C470CF00C38C403DB
:10060300B4125C110C3E04F00A38C103802801A027
:10061300411B063F3021043F07284CED4C1B5B90E8
:1006230047D0173827D00328F1390EA4FECD022274
:100633000D39002208381021002914E00328E63C74
:100643004C1BF13F0528A715EE3F46181221033F27
:1006530005280B1588F1303905281A150128FB41A7
:10066300302100291BE00A3D0428FF150528101539
:10067300F6C35192166A3B906B080428F6150528B9
:1006830007150BF0FB3917D004382D1F0128C43F81
:100693000328214701F008390328314701F00439C1
:1006A300A2958090033FC29500920328BF15201B9B
:1006B30054900128B33F08F1053905211190012811
:1006C300214A38F103390021023F302110216A0306
:1006D3000428CB156B033141224128F1093D02F077
:1006E3000239F29101F00B39FF28F191083F02F032
:1006F3000239529201F00339FF28F193F7CB1B061D
:10070300023907A4B20C073D47D003287738249059
:1007130003287E3F1690B6080428BA15A6030428BA
:10072300B7153BE0F7CE28F1703C012807A0F09005
:10073300A00668F1323D149030F0053938F10328F2
:100743006738073F50F00328633958F103286038AE
:1007530038F104380328B415033F032892150328FE
:100763007E15012807D0033907A1563F424130F0D7
:100773000C3907A112D0033807D84E3887A0C140DF
:1007830041D04A38F7CE483F38F1033822D04438B5
:1007930007D8423907A1403F78F1123847D02D38A6
:1007A30000F0033860F00639C14011D0073887A044
:1007B300113F10F0033820F0AB3977CF0B3F00F037
:1007C300033810F0A539414181D004390328591564
:1007D300093F0328751568F10539414141D00239B4
:1007E30007B810F0063903283A15012807D0033853
:1007F30007D8123907A1103F40F003280539032811
:100803001D1507D8F838083FA1038340311231057D
:1008130011D0023907A14BF0063C04282615042801
:100823003715FA3F042821151BF0FD3D38F1033835
:100833000328AA15F7CD0328214701F0053903281A
:10084300314701F0033807A2F7CE224082D00A389D
:10085300060304281D15069376062611960404281C
:10086300171571034112002871C021070438E7CF1F
:100873004198043F17D0043951980728214817D0CD
:100883000538F295202800901D3F07D20438C29501
:100893000092183F07D10438D2950094133F07D430
:1008A3000438E29500980E3F809028F10A3D31907C
:1008B300A10631F0063903A4B2950228B31500A1AD
:1008C300A2950228AF15201B28F1633D08F10A39D0
:1008D300012807D00739072851411128C14A0128A7
:1008E30007A017D20539E3CF8AD0023813A007D265
:1008F3000539B3CF4AD0023843A083D01E39310320
:100903001112310521D007393199072821480029CF
:1009130015E0133F529502288515454003D10D3943
:10092300429502287F15281F21990728214803D2C1
:10093300043862950228761573CF834808F1093984
:1009430077CF17D0063907D203390AD1023887A0E7
:10095300349007D2073807D803383090543F07A89C
:10096300023FF7C718F15A3927D04C39314011D01B
:10097300493987D0073917D0453907D203390AD106
:10098300413805F04B39414001F0483850903B3F26
:1009930068F1153878F13938149017D03D3907D2FA
:1009A3003D3987D003383490393F07D13739119017
:1009B3000128214A409003287715253F47D01C384A
:1009C300249007D30C3911900128214A87D0083885
:1009D3005144002911E0043A514C023877CF17D023
:1009E3001B3987D003383490193F07D31739C140D7
:1009F30021D01438073F17D00F3907D3033830906D
:100A0300023F009044900A3F249017D0053907D342
:100A130005393490033FA09F44900221C190511B9C
:100A23008121342124F0083927D004390C9CFD2B73
:100A3300AE3F10904490B7CF34F00E3953210328C2
:100A4300E195711B541F0F28CC9506282141F1C055
:100A530081111C09143F0190511B0728F19F711B41
:100A6300802114F001288F3854F0FD2B0A38012817
:100A7300B63F541F03286D151028CCED03287615B7
:100A830076217821501F0128A29A217001B221807A
:100A930001B221802CE30328691574210128ACE4F9
:100AA30008F1073C88F1033D0228A01503282A1505
:100AB300011F0128349D03285915201F002168F0C8
:100AC300093D069058F003390728364102289C1542
:100AD300FA3F0728504078F10439331F321F0421AD
:100AE300500000DC0128853828F1103D8340F7CB06
:100AF30031031112310521D0033903D1033900D851
:100B0300103807A41B901A90163F00D8012871399A
:100B130098F107394B700128E2412B0800288E3FDA
:100B2300102807A04B701BF0FC2BED3C4A702241B0
:100B330028F1303D02F00239F29112E0B20CFC2BA5
:100B4300E23C419031061111FF2BE29F3204520027
:100B530022111A042A043240002862C018F1033912
:100B630027D00D3922F0093907280141B10900299D
:100B730021E0093A0AA1073F42F00339FACE033FC5
:100B830062F0F93818F1253977CF0AD1223887A0D6
:100B9300203F02F00239529212E0B20CFC2BB33C1C
:100BA30068F1123D38F1153887D0133901283142E5
:100BB30001F00F38402807A00728914231C0C1A097
:100BC3000728914A063F02280190710621121A0450
:100BD300FF2BF29FB2084BE0A6030228151526034C
:100BE3000228121568F1293CFBF0273C62904670FD
:100BF30002280A15D2370428609662904670062DA3
:100C030002280215C23778F11839D04000D81538B8
:100C1300DBF0133C829046700128F615D2377644F8
:100C230000D40338060E023F060D41700128EC156F
:100C3300417086120128E8153290B20C053D4670CA
:100C43000128E215FB3F08F1063941721128C14A18
:100C5300012807A0EF28F7CF28F11E3D83403090ED
:100C6300A00631031112310521D003398295043FC7
:100C730030F0043972950028D51553C843D0023893
:100C830023A007D4023803A130F0023903A283481A
:100C930092950028C71506900BF005380128B41566
:100CA300591FFB3F0EA4FECD012204390228731500
:100CB300FA3F551F1121031F249008F10F390AD160
:100CC300033987D02438314011D0213905F0213937
:100CD300414001F01E3850901B3F48F1073828F17E
:100CE300033858F1063987D0143877CF1490113F61
:100CF30078F1053911900128214A093F98F1093902
:100D0300829500289315281F5490033F0090449028
:100D13000EA4FECD0322043902283D15FA3F132108
:100D23002C1801210321741FD1900000F13724F006
:100D3300093800000190511B0728F19F711B802186
:100D4300063F4190511B0328E195711B322107286F
:100D5300914231C00728914ABF28F7CF28F1063CBA
:100D630088F1043D92955E15281F44F0383814F03D
:100D73000A3854F0FB2B853801280CE40128F615BA
:100D8300FB2BF93F01289015009027D0283902D872
:100D9300083838F12439329001289215E237193F87
:100DA30019E089F2043C38F11A39599238F10339C0
:100DB3000128861512409103002951E2120E12D028
:100DC300F038012886150128B9151240012891151C
:100DD3003199072821482C18FE2B4C3F0128104A33
:100DE3000028A915FB2B223FF09F043FD09F023F11
:100DF300B09F0028D0152C1FF23F28F1053C68F165
:100E0300033D1490053F2090023F10904490419879
:100E13000728214838F1FE2B01380028B515FD2B92
:100E2300FD3F217011E021800200012821410728A4
:100E33002148217811E021880200F7C77615710354
:100E43003112A10501D4023907A80428649631158B
:100E53000238F7C70428C4F6FB3C0200FE28F7CF8C
:100E6300641551417111A10501D80339012807A067
:100E730064911F150338FE28F7CFC4F1FB3C020031
:100E8300F7C753155141022807A00AD40339FD2897
:100E9300F7CF5111A10501D4023907A8C491042841
:100EA300659607150238F7C7563124F2FB3C02005A
:100EB3000028DB150028EC15412D160C0200F7C79E
:100EC3003415D032D332234268F10939414190407D
:100ED30041D0043850000306023F03033142022885
:100EE30007A00AD404395100FD28F7CF1306449212
:100EF300042865960028B9150028CA155631FF281D
:100F0300E19F4070060C023813068EA0810064E056
:100F130044F5F83C0029F4E2A4F2ED3C03F0023876
:100F230007A8D32FD02F02009BF0023C020007A199
:100F33002DE0020098F10938102807D0033908F191
:100F4300043831990728214808F10C39012807D0C2
:100F53000938072851411128C042010C03380728DA
:100F630050491190082807D005380628B148F728BA
:100F7300F7CF042807D005380628A148FB28F7CF68
:100F83003021291F0200311FFF28F19F411B301F11
:100F930031210200022101210321532309380628AC
:100FA300D14001D112384198072821480B3F5423DF
:100FB3000C385021F1910000F137741FF1900000BB
:100FC300F13768F0023C2B1F0190511B8121072848
:100FD300F19F711B80210728914231C00728914A54
:100FE300BF28F7CF322134210200082807D0073960
:100FF3000628B14001F00438082807A0020004289D
:101003000D98FE2BF43F402807D00D390EA4FECDDA
:10101300012204390028BF15FA3F661B112100295C
:101023001BE002000728A64A0EA4FECD01220439C4
:101033000028B115FA3F01283142B10941E0053AD0
:1010430008384BF00C38EA3D0728A142611BE73F03
:101053000728914271CF0728914AF73F0728914209
:1010630081A20728914ADA3F0EA4FECD0222043959
:1010730000289115FA3F4618122100291BE01BF0A6
:101083000639581F0628E0400128004A020017D0FD
:101093000A393122063817A0419807282148033F0F
:1010A3000728A6480200124038F1093802D8073948
:1010B3009103002941E2120E120D1248020047A0CB
:1010C3007B280C9C10215215FF2B5E15B7CF020015
:1010D30059F203396391083F69F20339E392043FFC
:1010E30079F203394396020004280D98FA2B0B3F3B
:1010F30002D407389103002901E2117006286148E0
:10110300020088F10A3C012831410728814AB1468F
:101113000328314FA1460F3F0728894A28F1063D8E
:1011230031440328314F5140053F55285195032839
:10113300314F81110328214F0200E3F3033CF19067
:10114300033F23E051920628614A062843480200E0
:101153007B21772141900000F137702175217A219D
:101163008CEE0415521F801F02004C1B001F47D03A
:10117300033827D009390EA4FECD002203390B15FD
:10118300F73F1021020004280D9838F1FE2B273871
:10119300FE2B3C3FD23202180119210601D41A3822
:1011A3001218162162F003392A1F2D3F12F2153847
:1011B30022F22838FE2BEF1568F0063C61900128D7
:1011C300114AFE2BB8153021280304280D98F92B5A
:1011D3002E3F01D114381421202807D00D3878F17F
:1011E300123904231038714401F002398144002973
:1011F30011E0714C083F202807A0053F01D20538B4
:10120300152127A0D22F020011D00638102104285F
:0E1213000D98FD2BF33FF2CE5200121BF43F5C
:10122400C0E074EF12036C74FF120289C2C0E5D1EE
:10123400A2E0400302155D7901E57460177574003E
:10124400740B2488901DD8F0500109E9901DD7F043
:101254007401801475740174972488901DD8F0501B
:101264000109E9901DD7F0E475F08CA4F8A9F07495
:101274008828FE740139FFEEF8EFF975C311E5A271
:1012840088828983F0E5A3A3F0E5A488828983A3F7
:10129400A3F0E5A588828983A3A3A3F08E828F831C
:1012A400A3A3A3A3A3A3A3A3A3A3E0FAEE2AF8E40E
:1012B4003FF9E8240EF582E439F583E0FCE8240FD5
:1012C400F582E439F583E0A2E7E433F87425657325
:1012D4006006742765737015EC94054008EA24FAD7
:1012E400C394204008E8A2E04003021557EE240B03
:1012F400FCE43FFDEE2409FAE43FFB1215B9EEFCD1
:10130400EFFD8E828F83A3A3A3A3E02405FAE43424
:1013140000FBA2AFE433851082851183F0C2AF785D
:1013240025E62AFE08E63BFFEE2403F8E43FF9C372
:10133400E894F1E9941A40030214A27821E624E126
:10134400F58208E63402F583E4F018E62401F60891
:10135400E436F674F465217004741A652270067517
:101364002100752200080808E62401F608E436F690
:101374007821E624E1F58208E63402F583EAF018E0
:10138400E62401F608E436F674F465217004741A50
:1013940065227006752100752200080808E62401FC
:1013A400F608E436F67821E624E1F58208E634020C
:1013B400F583EBF018E62401F608E436F674F465D8
:1013C400217004741A6522700675210075220008C4
:1013D4000808E62401F608E436F6782174F4C39686
:1013E400FE741A0896FFC3EA9EEB9F50068A088B88
:1013F4000980048E088F09EAC39508FEEB9509FF5E
:1014040018E624E1F50A08E63402F9E5084509601E
:101414002AED901DDDF0ECA3F0E9A3F0E50AA3F0BA
:10142400E509541FF8A3E054E048F0E508A3F0757B
:10143400D60275D702E5D6A2E140FAEE4F6035EC4C
:101444002508F8ED3509901DDDF0E8A3F07402A33A
:10145400F0A374E1F0EF541FF8A3E054E048F0EE79
:10146400A3F075D60275D702E5D6A2E140FA8E2123
:101474008F22801B7821E62AF608E63BF674F46591
:10148400217004741A652270067521007522007893
:1014940025E62AF608E63BF675270002154CE527F3
:1014A400600302154C7821E624E1F58208E6340253
:1014B400F5837403F018E62401F608E436F674F4B0
:1014C40065217004741A6522700675210075220066
:1014D400080808E62401F608E436F67821E624E153
:1014E400F58208E63402F583E4F018E62401F608F0
:1014F400E436F674F465217004741A652270067576
:101504002100752200080808E62401F608E436F6EE
:101514007821E624E1F58208E63402F583E4F01844
:10152400E62401F608E436F674F465217004741AAE
:1015340065227006752100752200080808E624015A
:10154400F608E436F6752701851082851183E0A23A
:10155400E092AF75750075D1FE740112029F7F048D
:101564000203CBEBC313FBEA13FAEAF8EBF9E82422
:10157400FFFAE934FFFBE8496013000000000000B3
:10158400000000000000000000000080DD2274F86C
:101594001202C6EAFEEBFFEEF8EFF9E824FFFEE9DB
:1015A40034FFFFE84960097AE87B0312156780E796
:1015B4007F0102032C74F11202C68A828B83ECFA37
:1015C400EDFBE56D14600914700302165902188CC2
:1015D400E0540F6405600302188C900132E0606FE0
:1015E400900133E0F88A828B83E068600302188CF0
:1015F400900134E0F88A828B83A3E06860030218C8
:101604008C900135E0F88A828B83A3A3E0686003A1
:1016140002188C900136E0F88A828B83A3A3A3E09E
:1016240068600302188C900137E0F88A828B83A3E8
:10163400A3A3A3E068600302188C900138E0F88A41
:10164400828B83A3A3A3A3A3E068600302188C1274
:10165400188F02188CE5626037855D08855E09C2C3
:10166400B975E40075E20075E40C75DA4075DB9C2D
:1016740074047808120267E50804F55FF56075AF35
:1016840000C2C175E544D2B943E402756200800624
:1016940075E200855F60E563700302177FAC69AD96
:1016A4006A8C088D09AE08AF0975C311E5A6F50863
:1016B400E5A5F50CE4F509F50AF50B7408780812AC
:1016C4000154F50DF50EF50F7808790C1201997493
:1016D400087808120154E5A4F50C7808790C120175
:1016E4009985090DAC0CAD0D85580C85590D740305
:1016F400780C1202767808790C120173756300EF86
:101704005480600EEE2400EF3480FFEC2400ED34AE
:1017140080FD7401656470057564008017EE240211
:10172400F8E43FF9C3E89CE99D40507865790812D4
:1017340000F66047850865850966850A67850B6834
:10174400AC65AD66AE67AF688C0C8D0D8E0E8F0FD9
:1017540075C340EC24FEF5A4ED34FFF5A57508FE31
:101764007509FF750AFF750BFF780C790812017370
:101774007410780C12013BE50CF5A6E054036403E5
:10178400600302188C8A828B83E0600F147003025A
:10179400182A14700302188602188CA3A882A9833D
:1017A400E090012CF088828983A3E0FC88828983FD
:1017B400A3A3E0FBEC90012DF0A3EBF088828983D6
:1017C400A3A3A3E0FC88828983A3A3A3A3E0FBECE7
:1017D40090012AF0A3EBF088828983A3A3A3A3A397
:1017E400A3A3E0FC88828983A3A3A3A3A3A3A3A3A5
:1017F400E0FBEC90012FF0A3EBF088828983A3A394
:10180400A3A3A3A3A3A3A3E0FA88828983A3A3A386
:10181400A3A3A3A3A3A3A3E0F9EA900128F0A3E957
:10182400F07561018062A3A882A983E0900123F08E
:1018340088828983A3E0900124F088828983A3A30A
:10184400E0900125F088828983A3A3A3E090012678
:10185400F088828983A3A3A3A3E0900127F0888260
:101864008983A3A3A3A3A3E0FA88828983A3A3A360
:10187400A3A3A3E0F9EA900121F0A3E9F0755501CF
:101884008006756D0375E400021B7974F11202C6BB
:1018940075E10175E1F175C300E5A2E5A3E5A6F5DF
:1018A4000CE5A5F508E4F50DF50EF50F7408780CB4
:1018B400120154F509F50AF50B780C79081201990F
:1018C4007408780C120154E5A4F508780C79081210
:1018D40001997869740C1201AC7555007561007535
:1018E4006201EA240CF582E43BF583E0906195F013
:1018F400EA240DF582E43BF583E0906196F0EA2456
:101904000EF582E43BF583E0906197F0EA240FF54D
:1019140082E43BF583E0906198F0906054E4F0EA4F
:101924002410F582E43BF583E0906055F0EA24113D
:10193400F582E43BF583E0906056F0EA2412F582E8
:10194400E43BF583E0906057F0EA2413F582E43B2E
:10195400F583E0F55AEA2414F582E43BF583E0FCD0
:10196400EA2415F582E43BF583E0F9ECF8885B8919
:101974005CEA2416F582E43BF583E0F879008858A4
:101984008959EA2417F582E43BF583E0FD7858E4AD
:1019940046F608ED46F6EA241AF582E43BF583E0C0
:1019A400FCEA241BF582E43BF583E0F9ECF8885D5E
:1019B400895EEA241CF8E43BF97C008C2B8882893C
:1019C40083E0F52CA3E0F52D88828983A3A3E0F5B9
:1019D4002E88828983A3A3A3E0F52F88828983A319
:1019E400A3A3A3E0F530782CE6FE7D08EEA2E05038
:1019F400097431252BF9ECF7052B0CEEC313FE1DEE
:101A0400ED70E90874316870DFEA2421F582E43B63
:101A1400F583E0541FF52AE52A75F02584A9F08999
:101A240029E9131313541FFA75080133333354F897
:101A3400F8E9987808120276742C2AF8E6550860BA
:101A440003E9800CE52BF5F0E984E5F02431F8E6B0
:101A5400FA8A73EAC3940B50079061A67425801E1A
:101A6400EAC39412500D9061A67425F0EAC333249E
:101A74001C8011EAC3942550109061A6740FF0EAFB
:101A8400C333241A906184803474256A700D906184
:101A9400A67425F09061847418802274266A700DEF
:101AA4009061A67425F09061847430801074276A64
:101AB400700C9061A6740FF09061847464F07440AB
:101AC4004A906053F0755600755700795B7858E674
:101AD40027FC0809E637FDEC2401F508E43DF50987
:101AE400740378081202767469F97808120173781D
:101AF4006574081201ACAC65AD66AE67AF688C0C5A
:101B04008D0D8E0E8F0F75C340EC24FEF5A4ED34BD
:101B1400FFF5A57508FE7509FF750AFF750BFF78BB
:101B24000C79081201737410780C12013BE50CF562
:101B3400A6756401756301855808855909C2B9758C
:101B4400E40075E20075E40C75DA4075DB9C7404FE
:101B54007808120267E50804F55FF56075AF00C206
:101B6400C175E544D2B943E40253A1DF43A720750C
:101B74006D0275E1187F0802032CC0E0C0D0E8C0F4
:101B8400E0C082C08375AF00C2C174FF2560F560F8
:101B94006003021C6675E500C2B975E4009001316A
:101BA400E0F875E10175E1F19061947420F0A3749B
:101BB400D6F0A374BEF0A37489F0A3748EF0887376
:101BC400E8C3940B50079061A67425801EE8C39463
:101BD40012500D9061A67425F0E8C333241C8011C3
:101BE400E8C3942550109061A6740FF0E8C3332421
:101BF4001A9061848034742568700D9061A67425F0
:101C0400F090618474188022742668700D9061A627
:101C14007425F090618474308010742768700C907F
:101C240061A6740FF09061847464F090605FE4F0D6
:101C340090605104F0A37485F0744048A3F0A3E4C9
:101C4400F0A37455F0A3F0A3F090605AE4F0A3F06D
:101C5400A3F0A3F0756D01F56353A1DF53A7DF75FE
:101C6400E118D083D08202227775C68000E59EA257
:101C7400E640F9904268E493F8740193F974FF68BC
:101C8400700374FF696003021E0490014274B3F090
:101C9400A37416F0900139E0702975B60EE5B4A26C
:101CA400E750FAE5BAF8E5BB540328F5BC75B60E5F
:101CB400E5B4A2E750FAE5BAF8E5BB540328F5BC4D
:101CC4007401F043B404E5B4A2E240FAE5BCF9E0DF
:101CD400702975B60EE5B4A2E750FAE5BAF8E5BB8B
:101CE400540328F5BC75B60EE5B4A2E750FAE5BA7C
:101CF400F8E5BB540328F5BC7401F043B404E5B41F
:101D0400A2E240FAE5BC75F00A84A8F0E975F00A8D
:101D140084E5F0C454F028900144F0900139E07057
:101D24002975B60EE5B4A2E750FAE5BAF8E5BB5456
:101D34000328F5BC75B60EE5B4A2E750FAE5BAF887
:101D4400E5BB540328F5BC7401F043B404E5B4A224
:101D5400E240FAE5BCF9E0702975B60EE5B4A2E7F5
:101D640050FAE5BAF8E5BB540328F5BC75B60EE5A0
:101D7400B4A2E750FAE5BAF8E5BB540328F5BC74FD
:101D840001F043B404E5B4A2E240FAE5BC75F00AFC
:101D940084A8F0E975F00A84E5F0C454F0289001B1
:101DA40045F07A08EAC3334400906272F0749A9062
:101DB4006271F0740190013AF0A37442F0A374626A
:101DC400F0A37473F0A3E054E0F0A37404F0900162
:101DD4003EE4F09001417442F09001407412F074BA
:101DE40001F5D575D43A75D601906270E0D2E1F070
:101DF400E5D6A2E040FA90627274FFF0906271F04E
:101E04009061F2E4F0A3F07823790488828983E472
:101E1400939061F0F088828983A3A882A983E864FF
:101E2400217003E9641270E3759C779061B17401C9
:101E3400F075E106E591A2E750FA75917F756FFFA1
:101E4400756E009061807440F09061917448F090D8
:101E5400619A743FF0A3745AF09061A0747FF0907B
:101E640061BC7407F09061A6740FF09061B67416AB
:101E7400F0782176000874296870F8E5A8F8C2AFF4
:101E840090620EE0F97403F09062117408F0E99026
:101E9400620EF0E8A2E792AF791DE9F5D57AD58A0A
:101EA400D4EA2408500109E9F5D374082AF5D2903C
:101EB4001DD57470F0A374D9F0A3E4F0A3F0901DC1
:101EC400DCE0540CF0441AF0901DDBE0C2E7F09023
:101ED4001DD9E054E0F0A3E4F0901DD9F0901DDC8E
:101EE400E0C2E2F0901DDB7420F0901DE1E0541F8D
:101EF400F0901DE47452F0901DE37420F0901DE7FF
:101F04007462F0A37426F0A3E4F0901DEC7442F024
:101F1400901DEB7420F0D2B87571FF9002CFE0F8F9
:101F2400A3E0F99002A0E8F0A3E9F09002D1E0F870
:101F3400A3E0F9E8FAE9FB7C007D008005E8F0A362
:101F4400E9F09002A0E0F8A3E0F9EA687002EB6916
:101F54006048E0F5838882E493F89002A0E028F8D2
:101F6400A3E03400F99002A0E0FEA3E0F5838E82A2
:101F7400A3E49364029002A070C3E0FCA3E0FD908C
:101F840002A0E8F0A3E9F0EC4D600F8C828D83A3EE
:101F9400A3A3A3A3E4936401709D8C828D83A3A364
:101FA400A3A3A3A3A3E493A2E69002B550047401EF
:101FB4008001E4F09002B4E4F090620F7403F0E066
:101FC400A2E750FB90620BE0D2E1F07578007579DE
:101FD40000757A00757B17757C007417F0906207A2
:101FE4007401F0906209E4F0758B00C2E843AC2000
:101FF400439A0253F3FEC28043FD01D29043FE0193
:10200400D2AF80567A0A7B00121592E57165726030
:1020140049E57124FC600314702EE56F702A75A9DC
:102024000075B900539AFEC2A875E101E5E170FCA0
:1020340075E1F175D681C2BA759400C2B975E40030
:10204400900132E4F0756E02E57224FC60031470B2
:1020540006756FFF756E00857271E57124FC60036F
:102064001470A17401656E70A2A2AFE433FEC2AF16
:1020740090620EE0FF7403F0906211E0A2E050035E
:10208400022129A825A926E849700302211FC3E8D3
:102094009440E9940040077C407528018005E8FCE1
:1020A400752800A823A9248C0874F4C398FA741A18
:1020B40099FBC3E5089AE49B4007E8FA74F4C39AD1
:1020C400FCECFA74E128F8740239F9EA601EE9902C
:1020D4001DE5F0E8A3F0901DE9E054E0F0EAA3F078
:1020E40075D60475D704E5D6A2E240FA906211745D
:1020F40001F07825C3E69CF608E69400F618181853
:10210400E62AF608E436F674F465237004741A6556
:10211400247012752300752400800AE52860067572
:1021240028007401F0EF90620EF0EEA2E092AF028C
:10213400200FC0E0C0D0E8C0E0E9C0E0EAC0E0EBB6
:10214400C0E0ECC0E0EDC0E0C008C009C00AC00BAC
:10215400C082C083C0F0E5915405700302225190FF
:1021640061C8E0FDC39405500675E1F102224E7585
:102174007501E57475F08CA4F8A9F0748828F874D6
:102184000139F9E8FAE9FB906195E08A828B83A32F
:10219400A3A3A3A3F0906196E08A828B83A3A3A355
:1021A400A3A3A3F0906197E08A828B83A3A3A3A344
:1021B400A3A3A3F0906198E08A828B83A3A3A3A333
:1021C400A3A3A3A3F0E5D98A828B83A3A3A3A3A388
:1021D400A3A3A3A3F0E5D9543FFC1D1D8A828B83DE
:1021E400A3A3A3A3A3A3A3A3A3A3F08C08ED24FDFB
:1021F400F8E434FFF9E865087001E9600474FD2D22
:10220400FCEA2CF8E43BF9906060E0C0E0E8240EBE
:10221400F582E439F583D0E0F0E8240FF582E4395F
:10222400F583E573F0E591A2E2E05004C2E7800291
:10223400D2E7F0740B2C8A828B83A3A3A3A3F0EDC3
:10224400901DDAF075D60175D70175910075E90016
:10225400759100759B00D0F0D083D082D00BD00A4A
:10226400D009D008D0E0FDD0E0FCD0E0FBD0E0FA0B
:10227400D0E0F9D0E0F8D0D0D0E032C0E0E5BF60E3
:102284001875E101E5E170FC75E1F175D681C2C014
:1022940075D1FE75E11875BF0075BF00C289D0E025
:1022A40032D083D08222C0E074EB12036C74FA1231
:1022B4000289E5A1A2E4400302240DA2AFE433C0E5
:1022C400E074011202BAD0E0F0C2AF75C330E5A4E5
:1022D400E5A5F9E5A6F8744029F5A574C06970056B
:1022E4007401288001E8851082851183F0E0F5A649
:1022F40074011202BAE0E0A2E092AF53A1EFE575D7
:10230400600302240DA2AFE433851082851183F0AB
:10231400C2AF7825E62404FA08E436FBC3EA94F154
:10232400EB941A40030224027821E624E1F58208A2
:10233400E63402F5837401F018E62401F608E43665
:10234400F674F465217004741A6522700675210010
:10235400752200080808E62401F608E436F6782118
:10236400E624E1F58208E63402F5837401F018E608
:102374002401F608E436F674F465217004741A65D1
:10238400227006752100752200080808E62401F66B
:1023940008E436F67821E624E1F58208E63402F50D
:1023A40083E4F018E62401F608E436F674F46521B3
:1023B4007004741A652270067521007522000808DD
:1023C40008E62401F608E436F67821E624E1F582ED
:1023D40008E63402F583E9F018E62401F608E43649
:1023E400F674F465217004741A6522700675210070
:1023F400752200080808E62401F608E436F685107C
:1024040082851183E0A2E092AFE5A1A2E540030238
:10241400275A7402656D6003022689855808855918
:102424000974037808120276A808A909FAFB740251
:102434001202BA1201C175C300E5A2E5A3E5A6F52F
:102444000CE5A5F508E4F50DF50EF50F7408780C08
:10245400120154F509F50AF50B780C790812019963
:102464007408780C120154E5A4F508780C79081264
:1024740001997869740C1201AC75E10175E1F17888
:1024840056E62401F608E436F6E555604C90012141
:10249400E065567004A3E06557703E8A2B900123D3
:1024A400E0F52CA3E0F52DA3E0F52EA3E0F52FA392
:1024B400E0F530782CE6FC7B08ECA2E0500974319E
:1024C400252BF9EAF7052B0AECC313FC1BEB70E987
:1024D4000874316870DF755500E561700302257D6D
:1024E400900128E065567004A3E065576003022557
:1024F4007D90012AE0F558A3E0F55990012CE0F510
:102504005A90012DE0F55BA3E0F55C90012FE0F516
:102514005DA3E0F55E756100756201855808855913
:1025240009C2B975E40075E20075E40C75DA40750A
:10253400DB9C74047808120267E50804F55FF56013
:1025440075AF00C2C175E544D2B943E402E55A242B
:1025540001FAE43400FB785BE62AF50808E63BF56B
:102564000974037808120276A808A909FAFB740210
:102574001202BA1201C1756401E529FAE52AF8EAE2
:1025840028F8E43400F97A257B00120206EAF98976
:1025940029131313541FFA750801750900333333D3
:1025A40054F8F8E9987808120276742C2AF8E6555B
:1025B400086003E9800CE52BF5F0E984E5F02431AB
:1025C400F8E6FA8A73EAC3940B50079061A674255F
:1025D400801EEAC39412500D9061A67425F0EAC3DC
:1025E40033241C8011EAC3942550109061A6740F03
:1025F400F0EAC333241A906184803474256A700D20
:102604009061A67425F09061847418802274266AFF
:10261400700D9061A67425F09061847430801074FC
:10262400276A700C9061A6740FF09061847464F052
:1026340074404A906053F074021202BA7865120131
:1026440086AC65AD66AE67AF688C0C8D0D8E0E8F53
:102654000F75C340EC24FEF5A4ED34FFF5A5750811
:10266400FE7509FF750AFF750BFF780C79081201D6
:10267400737410780C12013B850C08E508F5A675F7
:1026840063010227547403656D60030227579001A8
:1026940031E0F875E10175E1F19061947420F0A3E3
:1026A40074D6F0A374BEF0A37489F0A3748EF0887A
:1026B40073E8C3940B50079061A67425801EE8C389
:1026C4009412500D9061A67425F0E8C333241C8045
:1026D40011E8C3942550109061A6740FF0E8C33339
:1026E400241A9061848034742568700D9061A674F6
:1026F40025F090618474188022742668700D9061AE
:10270400A67425F090618474308010742768700C6E
:102714009061A6740FF09061847464F090605FE43B
:10272400F090605104F0A37485F0744048A3F0A3C2
:10273400E4F0A37455F0A3F0A3F090605AE4F0A37E
:10274400F0A3F0A3F0756D01F56353A1DF53A7DF88
:1027540075E11853A1DF740612029F7F080203CBB0
:1027640074F11202C690620EE0F50FE4F09062116B
:10277400E0FE9002A9E064087026EEA2E0401C90FE
:1027840002BDE0F8906200F09002A2E0C39404500D
:102794000AE86004740380027402F09002A9E4F071
:1027A400EEA2E25009906211E4F09002A9F0EEA2C8
:1027B400E450239062117480F09002A97407F0E54C
:1027C40076457760098576828577831202C4900204
:1027D400A9E4F0022872E0F8740268707AEEA2E0CC
:1027E4004003023318906216E0F8880E9002B6E0B7
:1027F400F9A3E0FAA3E0FBE86014906220E0120180
:1028040025E9240109E43AFA150EE50E70EC88086E
:102814009002B9C3E09508F0A3E09400F09002B6EA
:10282400E0F9A3E0FAA3E0FBE928F9E43AFA90021C
:10283400B6E9F0A3EAF0A3EBF0A3E0F8A3E0F9E82B
:10284400499062116004744080027448F0E8496061
:10285400030233180232F47406687009857682859F
:1028640077831202C49002A9E06003023270EEA2E0
:10287400E0400302331879BB7A027B007808906247
:1028840020E0120125E9240109E43AFAD8F08B7614
:102894008B779002BBE054E0602624E070030232A0
:1028A4004724E07003022D7224C07003022BF3242A
:1028B400E0700302325024E0700302319E022BEADE
:1028C400A3E01470030229D324FE605D24FE60118A
:1028D40024FC7003022A7124FE7003022A77022B5F
:1028E400EA9002BFE0F8A3E0F9E8496003022CF49F
:1028F400A3E0F8A3E0F9E8496003022CF49002BDD8
:10290400E05480F8A3E0F9E8496003022CF4900253
:10291400A97408F09002A9E0F87404686003023214
:1029240059906211746002326F9002C1E0F8A3E022
:10293400F9E8496003022CF49002A2E06404600FF9
:102944009002BFE0F8A3E0F9E8496003022CF49098
:1029540002BBE0541F606524FE6003022CF4900265
:10296400BFE0547FF5089002BDE06003022CF4E55B
:1029740008C394064003022CF4E50890620EF07438
:10298400A22508FAE43402FB9002BFE054806013ED
:102994009062117410F08A828B83A3A3A3A3A3A3D0
:1029A400A3800F9062147420F0EA240CF582E43BB7
:1029B400F5837403F090620EE40229179002BDE0DF
:1029C40064016003022CF49002B47401022917908C
:1029D40002C1E0F8A3E0F9E8496003022CF4900294
:1029E400A2E06404600F9002BFE0F8A3E0F9E849B4
:1029F4006003022CF49002BBE0541F605F24FE606D
:102A040003022CF49002BFE0547FF5089002BDE06D
:102A14006003022CF4E508C394064003022CF4E599
:102A24000890620EF074A22508FAE43402FB9002C6
:102A3400BFE0548060159062117440F08A828B83E9
:102A4400A3A3A3A3A3A3A3E40229B890621474804C
:102A5400F0EA240CF582E43BF58380EB9002BDE0C0
:102A640064016003022CF49002B40229BC123E5C9F
:102A74000229189002A2E064046003022CF490027C
:102A8400BBE064016003022CF49002C1E0F8A3E00F
:102A9400F9E8496003022CF49002BDE0FAF50990CC
:102AA40002BFE0F8A3E0F9E8F50A9002A3E0F50B11
:102AB4008B089002CFE0FCA3E0FD9002A0ECF0A311
:102AC400EDF09002D1E0F50CA3E0F50D8008900242
:102AD400A0ECF0A3EDF09002A0E0FCA3E0FDE50C77
:102AE4006C7003E50D6D607CE0F5838C82E493FCEF
:102AF4009002A0E02CFCA3E03400FD9002A0E0FED4
:102B0400A3E0F5838E82A3E493640270C19002A1D2
:102B1400E0FF9002A0ECF0A3EDF0EE4F6046E50B71
:102B240060118E828F83A3A3A3A3A3E493650B7088
:102B3400A58031E508602D1508809B74026C700334
:102B4400022CF49002A0E0FCA3E0F5838C82E493D1
:102B5400FC9002A0E02CFCA3E03400FD9002A0EC69
:102B6400F0A3EDF09002A0E0FCA3E0FDE50C6C7096
:102B740003E50D6D7003022CF4E0F5838C82A3E46D
:102B840093FC74046C70B49002A0E0FEA3E0FF9088
:102B940002A0E0FCA3E0F5838C82E493FC9002A005
:102BA400E02CFCA3E03400FD9002A0ECF0A3EDF0D7
:102BB400EE4F7003022CF48E828F83A3A3E49365FB
:102BC4000A70A18E828F83A3A3A3E49365097094F2
:102BD40074A428F582740239F583EAF0EEFAEFFB67
:102BE400123C690229189002A97404F0022925A351
:102BF400E0601724FA7003022CFC24FE7003022DFB
:102C04000224FE7003022D3180DCA3E0F8A3E0F976
:102C1400E8496003022CF4A3E0F8A3E06003022C6B
:102C2400F4A3E064027002A3E06003022CF49002B7
:102C3400BBE02480606D14605A146003022CF4E835
:102C4400547FF5089002A2E064046003022CF4E5CA
:102C540008C394064003022CF474A22508FAE43451
:102C640002FBE8548060128A828B83A3A3A3A3A3EC
:102C7400A3A3E064037014800EEA240CF582E43B01
:102C8400F583E0640370047801800278009002C345
:102C9400E880339002A2E0640470559002C3E4F02B
:102CA400A38026E8704A9002B5E0600478018002AF
:102CB40078009002C3E8F0A3E4F09002B4E0600A64
:102CC4009002C3E04402F0A3E4F09002A9E064049B
:102CD40070030229189002B674C3F0A37402F0A31F
:102CE400E4F0A37402F0A3E4F09002A9040229170B
:102CF4009002A9740402291712397F022918A3E04B
:102D0400F8A3E0F9E84970E8A3E0F8A3E0F9E8499A
:102D140070DEA3E064017002A3E070D49002B67484
:102D2400A3F0A37402F0A3E4F0A30480B89002A279
:102D3400E0640470BB9002BBE0648170B39002BD98
:102D4400E0F8A3E0F9E84970A79002C1E0640170DB
:102D540002A3E0709B9002BFE024A4F508A3E03432
:102D640002F5099002B6E508F0A3E50980B7757687
:102D7400DB757733A3E0243F603624FE60291470AA
:102D84000302291814604C24FC700302291824FA45
:102D940070030229181470030230371470030230D0
:102DA4000314603A022CF49002B9E4F0A3022CEC70
:102DB4009002A9E060030229187402F09002B97429
:102DC4000AF0A3E4F09002B674C5F0A37402F0A371
:102DD4000229BC9002BFE0540FF572022918900238
:102DE400A9E0F870339002BFE0900146F09002C170
:102DF400E0F8900147F09002B67448F0A37401F033
:102E0400A3E4F09002C2E0F99002B9E8F0A3E9F07B
:102E14009002A97402022917740268600302291837
:102E2400900146E0604914603D24FB6003022918C8
:102E3400900148E0900133F0900149E0900134F0B2
:102E440090014AE0900135F090014BE0900136F09A
:102E540090014CE0900137F090014DE0900138F082
:102E64009001320229CE900148E0F56F02291890B2
:102E74000148E0F88873C3940B50079061A6742549
:102E8400801EE8C39412500D9061A67425F0E8C327
:102E940033241C8011E8C3942550109061A6740F4C
:102EA400F0E8C333241A9061848034742568700D6B
:102EB4009061A67425F09061847418802274266849
:102EC400700D9061A67425F0906184743080107444
:102ED4002768700C9061A6740FF09061847464F09C
:102EE4007401656E600302291875A90075B9005351
:102EF4009AFEC2A875E101E5E170FC75E1F175D6B1
:102F040081C2B975E40075A90175B90175E9007547
:102F14009100759B0075BF00C2899061827405F0B1
:102F2400A3747FF0439A01D2A8757401748824971E
:102F3400901DD8F07402901DD7F075E10175E1F190
:102F44009061947420F0A374D6F0A374BEF0A374BB
:102F540089F0A3748EF0E8900131F0C3940B50070C
:102F64009061A67425801EE8C39412500D9061A64A
:102F74007425F0E8C333241C8011E8C39425501051
:102F84009061A6740FF0E8C333241A9061848034EE
:102F9400742568700D9061A67425F090618474188E
:102FA4008022742668700D9061A67425F090618467
:102FB40074308010742768700C9061A6740FF090C0
:102FC40061847464F090605FE4F090605104F0A355
:102FD4007485F0744048A3F0A3E4F0A37455F0A3FF
:102FE400F0A3F090605AE4F0A3F0A3F0A3F0756DA1
:102FF40001F56353A1DF53A7DF75E118022918E532
:103004006F600302291875A90075B900539AFEC2AE
:10301400A875E101E5E170FC75E1F175D681C2BAEC
:10302400759400C2B975E400900132E4F0756E0243
:10303400022918E56F6003022918782176000874C4
:10304400296870F8E5A8F8C2AF90620EE0F974033D
:10305400F09062117408F0E990620EF0E8A2E79231
:10306400AF75C30075A20075A30075C30075A400F5
:1030740075A50075A60075C30275A28875A313759E
:10308400C33075A40075A54075A60053A1EF43A7EE
:1030940010C2C2D2BA75940975750075A90175B9C3
:1030A4000175E900759100759B0075BF00C2899098
:1030B40061827405F0A3747FF0439A01D2A87574F9
:1030C4000174882497901DD8F07402901DD7F0E500
:1030D40073F875E10175E1F19061947420F0A374C3
:1030E400D6F0A374BEF0A37489F0A3748EF0E890B4
:1030F4000131F0C3940B50079061A67425801EE83B
:10310400C39412500D9061A67425F0E8C333241CB7
:103114008011E8C3942550109061A6740FF0E8C3A1
:1031240033241A9061848034742568700D9061A6EC
:103134007425F090618474188022742668700D9050
:1031440061A67425F09061847430801074276870CF
:103154000C9061A6740FF09061847464F090605FC9
:10316400E4F090605104F0A37485F0744048A3F037
:10317400A3E4F0A37455F0A3F0A3F090605AE4F034
:10318400A3F0A3F0A3F0756D01F56353A1DF53A77A
:10319400DF75E118756E010229187576217577338C
:1031A400A3E02440602D24FE600A24FC7003023254
:1031B40037022CF49002A9E060030229187401F08C
:1031C4009002B674C5F0A37402F0A3E4F0A3740AE9
:1031D400022DD279BB7A029002B6E9F0A3EAF0A3F9
:1031E400E4F0A37408F0A3E4F09002A904F09002C0
:1031F400DFE0120125A3E0097A021201259002DB27
:10320400E0097A02120125A3E0097A02120125904D
:1032140002DDE0097A02120125A3E0097A02120113
:1032240025097A027401120125097A02E4120125A2
:103234000229189002B67471F0A3E4F0A304F0A379
:10324400022CE9757620757738022BEA75761A75A3
:103254007738022BEA74016860057402687007907D
:103264006211744080059062117448F09002A9E0E4
:10327400F8740168600302330A906211E0A2E1501D
:103284000302331878029002B9E0FAA3E0FBC3EA20
:103294009420EB94005006EAFC780A80027C20EC2F
:1032A400FE9002B6E0F9A3E0FAA3E0FBEE60101290
:1032B400010B906220F0E9240109E43AFADEF08C73
:1032C400089002B6E0F9A3E0FAE92CF9E43AFA909E
:1032D40002B6E9F0A3EAF0A3EBF0A3C3E09508F08B
:1032E400A3E09400F0E8906211F0ECC39420502421
:1032F400E576457760098576828577831202C490E6
:1033040002A9E4F0800E74056870098576828577D9
:10331400831202C4E50F90620EF0021B79C082C0D2
:10332400839002BCE02440602624FE70030233B480
:1033340024FC60030233D29002B67471F0A3E4F06B
:10334400A304F0A3F0A3E4F09002A9040233D77914
:10335400BB7A027B009002B6E9F0A3EAF0A3E4F0A2
:10336400A37408F0A3E4F09002A904F09002DFE053
:10337400120125A3E0097A021201259002DBE0097B
:103384007A02120125A3E0097A021201259002DDD6
:10339400E0097A02120125A3E0097A021201250943
:1033A4007A027401120125097A02E41201258024AB
:1033B4009002A9E0701E7401F09002B674C5F0A3E7
:1033C4007402F0A3E4F0A3740AF0A3E4800590026D
:1033D400A97404F00222A5C082C0839002BCE02438
:1033E4003F70030237E424FE7003023804147003B0
:1033F4000238171470030237DA24FC7003023817FA
:1034040024FA700302381714600F14700302358411
:103414001470030235B8023811E56F6003023817DF
:10342400782176000874296870F8E5A8F8C2AF908E
:10343400620EE0F97403F09062117408F0E990628E
:103444000EF0E8A2E792AF75C30075A20075A30061
:1034540075C30075A40075A50075A60075C3027533
:10346400A28875A31375C33075A40075A54075A60D
:103474000053A1EF43A710C2C2D2BA75940975755F
:103484000075A90175B90175E900759100759B0076
:1034940075BF00C2899061827405F0A3747FF04304
:1034A4009A01D2A875740174882497901DD8F07479
:1034B40002901DD7F0E573F875E10175E1F19061B3
:1034C400947420F0A374D6F0A374BEF0A37489F0AE
:1034D400A3748EF0E8900131F0C3940B500790610F
:1034E400A67425801EE8C39412500D9061A674251D
:1034F400F0E8C333241C8011E8C394255010906174
:10350400A6740FF0E8C333241A90618480347425C0
:1035140068700D9061A67425F090618474188022FF
:10352400742668700D9061A67425F09061847430DF
:103534008010742768700C9061A6740FF0906184F9
:103544007464F090605FE4F090605104F0A37485BB
:10355400F0744048A3F0A3E4F0A37455F0A3F0A3DF
:10356400F090605AE4F0A3F0A3F0A3F0756D01F5B8
:103574006353A1DF53A7DF75E118756E0102381795
:10358400E56F600302381775A90075B900539AFEF8
:10359400C2A875E101E5E170FC75E1F175D681C25F
:1035A400BA759400C2B975E400900132E4F0756E06
:1035B400020238179002A9E0F870339002BFE0903D
:1035C4000146F09002C1E0F8900147F09002B67411
:1035D40048F0A37401F0A3E4F09002C2E0F9900271
:1035E400B9E8F0A3E9F09002A97402023816740253
:1035F400686003023817900146E0604B14603F2472
:10360400FB6003023817900148E0900133F0900109
:1036140049E0900134F090014AE0900135F09001C6
:103624004BE0900136F090014CE0900137F09001AE
:103634004DE0900138F09001327401023816900187
:1036440048E0F56F023817900148E0F88873C39496
:103654000B50079061A67425801EE8C39412500D88
:103664009061A67425F0E8C333241C8011E8C39448
:103674002550109061A6740FF0E8C333241A9061AA
:10368400848034742568700D9061A67425F090616F
:103694008474188022742668700D9061A67425F0D5
:1036A40090618474308010742768700C9061A674E3
:1036B4000FF09061847464F07401656E60030238E5
:1036C4001775A90075B900539AFEC2A875E101E502
:1036D400E170FC75E1F175D681C2B975E40075A994
:1036E4000175B90175E900759100759B0075BF00FE
:1036F400C2899061827405F0A3747FF0439A01D269
:10370400A875740174882497901DD8F07402901DD4
:10371400D7F075E10175E1F19061947420F0A37420
:10372400D6F0A374BEF0A37489F0A3748EF0E8906D
:103734000131F0C3940B50079061A67425801EE8F4
:10374400C39412500D9061A67425F0E8C333241C71
:103754008011E8C3942550109061A6740FF0E8C35B
:1037640033241A9061848034742568700D9061A6A6
:103774007425F090618474188022742668700D900A
:1037840061A67425F0906184743080107427687089
:103794000C9061A6740FF09061847464F090605F83
:1037A400E4F090605104F0A37485F0744048A3F0F1
:1037B400A3E4F0A37455F0A3F0A3F090605AE4F0EE
:1037C400A3F0A3F0A3F0756D01F56353A1DF53A734
:1037D400DF75E118803D9002BFE0540FF57280332D
:1037E4009002A9E0702D7402F09002B9740AF0A35B
:1037F400E4F09002B674C5F0A37402F0A3E480125E
:103804009002B9E4F0A3F09002A90480059002A903
:103814007404F00222A58006F00222A58000C08272
:10382400C0839002A9740480EFC0E0C0D0E8C0E077
:10383400E9C0E0EAC0E0EBC0E0ECC0E0EDC0E0C00D
:1038440008C009C082C083C0F0E59EA2E640FA9099
:103854006206E0FAA2E25035A87BE890620BF0F52C
:1038640008857C0974047808120267E508906207E9
:10387400F0857B08857C0974097808120267E508DD
:10388400543E906209F0906201E0D2E0F07878EA68
:1038940046F608E446F6906202E0F50875090074FD
:1038A4000478081202767878E50846F608E50946B1
:1038B400F6906204E0F508750900740978081202AC
:1038C40076787846F608E50946F6EAA2E0500375EC
:1038D4007A0174065A6003757A00E58BA2E55006F6
:1038E400758BDF757A00A878A979E8540460677845
:1038F40078E654FBF608E654FFF69002A27402F050
:10390400A3E4F09002A9F078A2790288828983A3C3
:10391400A3A3A3A3A3A3A37403F088828983A3A866
:1039240082A983E864A77003E9640270DE78A2794F
:1039340002E8240DF582E439F5837403F088828962
:1039440083A3A882A983E864A77003E9640270E1F1
:10395400757600757700A878A979E85410600E7818
:1039640078E654EFF608E654FFF6122764758B00E8
:10397400C2E8D0F0D083D08202226474F61202C668
:103984009002BDE0F8A3E014600C14607814700396
:10399400023ABD023B589002CFE0F8A3E0F990024E
:1039A400A0E8F0A3E9F07508007509009002D1E0E1
:1039B400FAA3E0FB8005E8F0A3E9F09002A0E0F8A8
:1039C400A3E0F9EA687002EB696037E0F583888266
:1039D400E493F89002A0E028F8A3E03400F9900200
:1039E400A0E0FCA3E0F5838C82A3E493640190023D
:1039F400A070C3E0F508A3E0F5099002A0E8F0A3E5
:103A0400E9F0023B34E8FC9002CFE0F8A3E0F9903F
:103A140002A0E8F0A3E9F09002D1E0FAA3E0FB8071
:103A2400011C7508007509008005E8F0A3E9F09011
:103A340002A0E0F8A3E0F9EA687002EB69603FE0F5
:103A4400F5838882E493F89002A0E028F8A3E03498
:103A540000F99002A0E0FDA3E0F5838D82A3E49336
:103A640064029002A070C3E0F508A3E0F509900297
:103A7400A0E8F0A3E9F0ED45096003EC70A390021F
:103A8400B6E508F0A3E509F0A37480F09002B6E06F
:103A9400F9A3E0FA7B80E92402F9E43AFA12010B73
:103AA400FC1919E0FAA3E92403F9E43AFA12010B28
:103AB400F9ECA3F0A3E9023B54E8FD9002CFE0F84F
:103AC400A3E0F99002A0E8F0A3E9F09002D1E0FAB3
:103AD400A3E0FB7508007509008005E8F0A3E9F090
:103AE4009002A0E0F8A3E0F9EA687002EB6960379D
:103AF400E0F5838882E493F89002A0E028F8A3E03C
:103B04003400F99002A0E0FCA3E0F5838C82A3E4E6
:103B14009364039002A070C3E0F508A3E0F5099054
:103B240002A0E8F0A3E9F0EDFC74FF2C1D0470A3DF
:103B34009002B6E508F0A3E509F0A37480F09002C2
:103B4400B6E0F9A3E0FAA37B8012010BA3F0A3E48F
:103B5400F0023C219002B6E4F0A3F0A3F09002D36B
:103B6400E0F8A3E0F9A3E0FAA3E0FBEAC398F508C0
:103B7400EB99F509E50854F8AB094B7003023C30A6
:103B8400E8FAE9FB74037808120267A808A9099007
:103B940002BDE0F508A3E0F5098A828B83E493AEC5
:103BA400096E7063A3E4936508705C9002BFE0F54E
:103BB40008A3E0F5098A828B83A3A3E493AE096E7C
:103BC40070458A828B83A3A3A3E493650870388A23
:103BD400828B83A3A3A3A3E493F508740193F5094B
:103BE4009002B6E508F0A3E509F0A37480F08A8298
:103BF4008B83A3A3A3A3A3A3E493FE740193FF90D5
:103C040002B9EEF0A3EFF0EA2408FA50010BE8241D
:103C1400FF18E934FFF9E8496003023B939002B6C8
:103C2400E0F9A3E0FA8A09E9450970079002A9744A
:103C340004802C9002A9E0640460259002C1E0FA9B
:103C4400A3E0FB9002B9E0F8A3E0F9C3EA98EB998A
:103C540050089002B9EAF0A3EBF09002A97401F0C5
:103C64007F0302032C74F11202C6EA2404F50EE465
:103C74003BF50F850E82F583E493FC60359002D703
:103C8400E0FEA3E0FF8E828F83E493F8740193F93E
:103C9400EA687002EB69601AEE2404FE50010F8E8C
:103CA400828F83E493F8740193F9EA687002EB69F4
:103CB40070E67900EC7003023E598005EAF0A3EB4C
:103CC400F09002A0E0FAA3E0FB9002D1E06A700356
:103CD400A3E06B7003023E479002A0E0F8A3E0F576
:103CE400838882E493FA9002A0E02AFAA3E03400E5
:103CF400FBE0F5838882A3E49364059002A070BC82
:103D0400E0FCA3E0FD9002A0EAF0A3EBF0EC4D7020
:103D140003023E47EC2402F50CE43DF50D850C82CC
:103D2400F583E493540FF50A90620EF0750B008C42
:103D3400828D83A3A3A3A3E4932407F508A3E493A8
:103D44003400F50974037808120267AA08850C8206
:103D5400850D8393A2E750729062117448F09062CB
:103D640011E0A2E3500890620EE0650A60F09062F0
:103D7400117408F0906211E0A2E3500890620EE022
:103D8400650A60F08C828D83A3A3A3E49354036437
:103D9400017003750B40750801750900E50A780880
:103DA4001202768E828F83A3A39355086006E50BD7
:103DB400D2E0F50BE50B906212F0EA906210F07419
:103DC400A9250AF582E4340280719062147490F09B
:103DD400906214E0A2E3500890620EE0650A60F07D
:103DE4009062147410F0906214E0A2E350089062A0
:103DF4000EE0650A60F08C828D83A3A3A3E4935440
:103E04000364017003750B40750801750900E50A28
:103E140078081202768E828F83A3A3A39355086039
:103E240006E50BD2E0F50BE50B906215F0EA906223
:103E340013F074AE250AF582E43402F583E4F090BD
:103E4400620EF009850E82850F83E493F8E9C39826
:103E54005003023CC5021B7974F21202C674FE12AE
:103E640002899002A2E0640270030241F79002BF4B
:103E7400E0F8A3E0F9E84960030241F7A3E0F8A3FE
:103E8400E0F9E84960030241F79002BDE0F8A3E0DD
:103E940060030241F7E870030241FFFE9002CFE0A5
:103EA400FAA3E0FB9002A0EAF0A3EBF09002D1E0C9
:103EB400FAA3E0FBEAFCEBFD80089002A0EAF0A381
:103EC400EBF09002A0E0FAA3E0FBEC6A7002ED6B69
:103ED40070030241F7E0F5838A82E493FA9002A02A
:103EE400E02AFAA3E03400FB9002A0E0FFA3E0F58F
:103EF400838F82A3E493640270C09002A1E0F50969
:103F0400851082851183EFF0A3E509F09002A0EA01
:103F1400F0A3EBF0851082851183E0FAA3E0FBEABD
:103F24004B70030241F7851082851183A3E0F5836A
:103F34008A82A3A3A3A3A3E4936E70869002A274BF
:103F440004F0E8A3F0750B00851082851183E0F876
:103F5400A3E0F5838882A3A3A3A3E493700302429E
:103F640052850B0874A42508F582E43402F583E431
:103F7400F09002D1E0F8A3E0F9E8FAE9FB7C007DD7
:103F8400008005E8F0A3E9F09002A0E0F8A3E0F9CE
:103F9400EA687002EB696035E0F5838882E493F89F
:103FA4009002A0E028F8A3E03400F99002A0E0FE1B
:103FB400A3E0F5838E82A3E49364049002A070C30B
:103FC400E0FCA3E0FD9002A0E8F0A3E9F08C828D70
:103FD40083A3A3A3E49370A58C828D83A3A3A3A33B
:103FE400E49360359002D7E0FEA3E0FF8E828F83D6
:103FF400E493F8740193F9EC687002ED69601AEEC9
:104004002404FE50010F8E828F83E493F87401938D
:10401400F9EC687002ED6970E6750E008C828D8390
:10402400A3A3A3A3E49370030241D79002D1E0F5C4
:1040340008A3E0F5098005EAF0A3EBF09002A0E004
:10404400F8A3E0F9E508687003E509697003024123
:10405400C1E0F5838882E493F89002A0E028FAA3F3
:10406400E03400FB9002A0E0F8A3E0F5838882A38B
:10407400E49364059002A070BEE0F50CA3E0F50D96
:10408400EAF8EBF99002A0E8F0A3E9F0E50C450D9D
:1040940070030241C1850C82850D83A3A3E493546C
:1040A4000FF990620EF0750A00850C82850D83A3CA
:1040B400A3A3A3E4932407F508A3E4933400F50928
:1040C40074037808120267AA08850C82850D83A3FD
:1040D400A393A2E750709062117448F0906211E0CB
:1040E400A2E3500790620EE06960F19062117408D7
:1040F400F0906211E0A2E3500790620EE06960F173
:10410400850C82850D83A3A3A3E4935403640170F7
:1041140003750A40750801750900E97808120276EA
:104124008E828F83A3A39355086006E50AD2E0F537
:104134000AE50A906212F0EA906210F074A929F577
:1041440082E43402806F9062147490F0906214E000
:10415400A2E3500790620EE06960F190621474105B
:10416400F0906214E0A2E3500790620EE06960F1FF
:10417400850C82850D83A3A3A3E493540364017087
:1041840003750A40750801750900E978081202767A
:104194008E828F83A3A3A39355086006E50AD2E019
:1041A400F50AE50A906215F0EA906213F074AE29FC
:1041B400F582E43402F583E4F090620EF0050E8C8F
:1041C400828D83A3A3A3A3E493F8E50EC3985003BD
:1041D40002402F050B851082851183E0F8A3E0F5DA
:1041E400838882A3A3A3A3E493F8E50BC398505E4A
:1041F400023F659002A97404F080539002A3F090EA
:1042040002A27403F078A2790288828983A3A3A30B
:10421400A3A3A3A3A37403F088828983A3A882A978
:1042240083E864A77003E9640270DE78A27902E887
:10423400240DF582E439F5837403F088828983A31D
:10424400A882A983E864A77003E9640270E1740298
:1042540012029F7F0702032CAAAA12010002000087
:1042640000205104FFFFFFFF0102000109021900B1
:1042740001010080320904000001FFFFFF0007056F
:1042840083024000050403090424035400650078F4
:104294000061007300200049006E00730074007216
:1042A4000075006D0065006E007400730024034304
:1042B4000043003200350034003000200055005324
:1042C400004200200044006F006E0067006C00652F
:1042D4000012033000300030003000300030003075
:1042E4000037000C0343004500420041004C0079B4
:0342F4004208007D
:04000005000000D522
:00000001FF
