:020000040000FA
:030000000200B843
:0300430002075F52
:03004B0002037538
:03007B00020895E3
:100083000202F200000080FB1200C7B90003020065
:10009300B2E479217816B800028004F709D8FCE4A9
:1000A30090F200784F79038002F0A3D8FCD9FA12BA
:1000B30001A012008675D0007581BF7510007511FF
:1000C300F202008B790122251010AF08F5104002CF
:1000D30015118008F51040021511D2AF22C0D025AA
:1000E3001010AF08F510500205118008F5105002EA
:1000F3000511D2AFD0D0222510C582C0E0E511345E
:10010300FFC583C0E0E510C3958224F910AF0885CD
:1001130083118582108008858311858210D2AFCE2A
:10012300F0A3E520F0A37808E608F0A3DEFAEFF0E9
:10013300A3E58124FBF8E608F0A3E608F0A308088A
:10014300E608F0A3E608F0A315811581D0E0FED000
:10015300E0F815811581E8C0E0EEC0E02285118347
:10016300851082E0A3FEE0A3F5207808E0A3F6085B
:10017300DFFAE0A3FFE0A3C0E0E0A3C0E0E0A3C098
:10018300E0E0A3C0E010AF088582108583118008EA
:10019300858210858311D2AFD083D08222E5C654E5
:1001A30080F853BEFB53C6BFE5C6A2E640FA88C635
:1001B300E5C66870FB43BE047522FF7521007524F4
:1001C3000075E9BE75914175E400D2DE75E5C17530
:1001D300E60075E700782E76000874366870F8122A
:1001E30008761206A5D2AFE52280FCC082C083E563
:1001F3002490DF06F090DF04E05403700474018060
:1002030001E4F52690FE7AE054E0FAE526A2E050F8
:100213002090DF02E02402E434004A90FE7AF0905A
:10022300DF02E0240290FE7BF090FE7AE0541F8010
:100233000D74014AF0A37402F090FE7A7481F07594
:100243002501E52690FE796007744DF074F380056F
:10025300744CF074F390FE78F075E900759B0043DD
:100263009A0175D60175E102D083D08222C082C083
:1002730083E525FA74016A7003E480027401F525AD
:10028300F875F006A4C8ABF02BF9744228F874F2A1
:1002930039F9E5266005E824058003E82404F8E934
:1002A3003400F9E890FE79F0E990FE78F075D60114
:1002B300EAF875F006A4C8AAF02AF9744228FC7477
:1002C300F239FDEC2404F8ED3400F9E526600990D9
:1002D300DF02E088828983F088828983E02407FA39
:1002E300E43400FB790012043E75230002026BC064
:1002F300E0C0D0E8C0E0E9C0E0EAC0E0EBC0E0C0A5
:1003030082C083C0F0E5E9A2E0503BE525F875F033
:1003130006A4C8AAF02AF9744228F874F239F9E558
:100323002B88828983F0E52CA3F0AA29AB2AEA88DB
:10033300828983A3A3F0AA29AB2AEB88828983A3AA
:10034300A3A3F075E9FEE5E9A2E6501775E104758C
:10035300D681C2C075D1FE75230075D60175E10241
:1003630075E9BF75E900759B00D0F0D083D0820298
:100373000865C0E0C0D0E8C0E0E9C0E0EAC0E0EB57
:10038300C0E0ECC0E0EDC0E0EEC0E0C082C083C0DE
:10039300F074FF1200CAE5E454F0FE74305E64307A
:1003A300703685DA2B85DB2CE5E2E5E3C3952C502B
:1003B3000885272985282A800F7827E62401FA084B
:1003C300E63400FB8A298B2A7827E62401F608E61F
:1003D3003400F6752301804FEEA2E5500E85DA2B2B
:1003E30085DB2C85272985282A80E8A2E4503878E4
:1003F30027E62401F608E63400F618E6FA08E65480
:1004030003FBEA4B7021A827A928E98510828511EF
:1004130083F0E5237011C2AFAC82AD837A017B0018
:10042300790112043ED2AFEEF454F1F5E4740112F3
:1004330000E0D0F0D083D08202085C74F11200FA9D
:10044300E9FEA2AFE433F9C2AF7832E62AF5080831
:10045300E63BF509E5082403F508E5093400F50949
:10046300C3E5089425E509940A40030205EB782EB9
:10047300E6244EF58208E634F4F583EEF018E6241C
:1004830001F608E63400F67428652E7004740A65D4
:100493002F7006752E00752F00080808E62401F654
:1004A30008E63400F6782EE6244EF58208E634F4A6
:1004B300F583EAF018E62401F608E63400F674281A
:1004C300652E7004740A652F7006752E00752F0053
:1004D300080808E62401F608E63400F6782EE62438
:1004E3004EF58208E634F4F583EBF018E62401F6C2
:1004F30008E63400F67428652E7004740A652F70BC
:1005030006752E00752F00080808E62401F608E694
:100513003400F6782E7428C396F508740A0896F505
:1005230009C3EA9508EB950950068A0A8B0B8006E6
:1005330085080A85090BEAC3950AF508EB950BF5BF
:100543000918E6244EF50C08E634F4F50DED90FE9B
:100553008EF0ECA3F0850D0FE50FA3F0E50CA3F0EF
:10056300850B0DE50D541FF8A3E054E048F8F0E5C2
:100573000AA3F075D60875D708E5D6A2E340FAE5D5
:100583000845096039EC250AFCED350B90FE8EF029
:10059300ECA3F074F4A3F0A3744EF0E509541FFC2C
:1005A30074E0584CA3F0E508A3F075D60875D70896
:1005B300E5D6A2E340FA85082E85092F801B782E05
:1005C300E62AF608E63BF67428652E7004740A657D
:1005D3002F7006752E00752F007832E62AF608E68E
:1005E3003BF675340002069BE534600302069B78F4
:1005F3002EE6244EF58208E634F4F5837403F018EE
:10060300E62401F608E63400F67428652E700474B7
:100613000A652F7006752E00752F00080808E6245A
:1006230001F608E63400F6782EE6244EF58208E655
:1006330034F4F583E4F018E62401F608E63400F612
:100643007428652E7004740A652F7006752E007564
:100653002F00080808E62401F608E63400F6782E91
:10066300E6244EF58208E634F4F583E4F018E62434
:1006730001F608E63400F67428652E7004740A65E2
:100683002F7006752E00752F00080808E62401F662
:1006930008E63400F6753401E9A2E092AF7F080260
:1006A3000160C082C08374FEF5D57A768AD474FE65
:1006B300F5D374082476F5D290FE7674DFF0A37434
:1006C300D9F0A3E4F0A3F090FE7DE0540CF0441ABB
:1006D300F090FE7CE0C2E7F090FE7AE054E0440143
:1006E300F0A37402F090FE7A7481F090FE7DE0C274
:1006F300E2F090FE7C7413F090FE92E0541FF090B1
:10070300FE957452F090FE947420F090FE8674DF90
:10071300F0A374F9F074F2A3F0A37400F0A3E0540F
:10072300E0F0A3E4F090FE8AF090FE8D741AF0904E
:10073300FE8C7410F090FE8074DFF0A374F9F0A3C4
:10074300E054E0F0A3E4F090FE82F090FE85744A5A
:10075300F090FE847410F0D2B802026BC0E0C0D0F7
:10076300E8C0E0E9C0E0EAC0E0EBC0E0ECC0E0EDE7
:10077300C0E0C008C009C082C083C0F0C2C0E5D1D8
:10078300A2E0500912027075D1FE020850E5D1A211
:10079300E15037A8368882AA827832C3E69AF608EF
:1007A300E69400F6181818E62AF608E63400F674FC
:1007B3002865307004740A65317006753000753130
:1007C30000439A1075D1FD020850E5D1A2E2507D95
:1007D30090F200E0606B14606024FD706A7A00A3FD
:1007E300E060338A0874002508F874F23400F9884D
:1007F300828983A3A3A3E0C0E088828983A3A3E0C3
:10080300F8E428F5827583DFD0E0F00A0A90F2015C
:10081300E0F8EA9840CD90DF13740CF090DF04E029
:10082300D2E2F090DF03E0D2E2F090DF31E4F09027
:10083300DF30F090DF2FF0800E90F202E0F522809F
:100843000690F202E0F524439A1075D1FBD0F0D064
:1008530083D082D009D0088003D0E0FED0E0FDD061
:10086300E0FCD0E0FBD0E0FAD0E0F9D0E0F8D0D063
:10087300D0E03243F10243F4F075F82075FC2043D5
:100883008C02758D10758A0000C2EB439A1075F9BE
:100893000022C0E0C0D0E8C0E0E9C0E0EAC0E0EB7D
:1008A300C0E0ECC0E0EDC0E0EEC0E0EFC0E0C0822D
:1008B300C083C0F0758A0000C2EB75F900A29450A2
:1008C300030209CDC2FAA2A250FC75F9FFA2FA50A5
:1008D300FCE5F9600F14602C1460681470030209BE
:1008E300690209CD75F900A2FA50FCE5F9F890FE0A
:1008F3008AE054E0F0E8A3F075D604539AEF75F953
:10090300FF0209CDE52260030209CD752300782E8D
:1009130076000874366870F875E20075270075284C
:1009230000752900752A00752B00752C0085B92DDB
:1009330043B902C2C1D2B975E4011201EE752101B6
:100943000209CDE52260030209CD752300539AFE07
:1009530075E10475D681752300C2B975E400852D50
:10096300B97521028064AC30AD317428C39CFA742C
:100973000A9DFBA832A933C3E89AE99B5005E8FE18
:10098300E98003EAFEEBFFC3EE9441EF94004004D9
:100993007E408014C3E89AE99B5003E88006ECF894
:1009A3007428C398FEEE6020744E2CF874F43D90C6
:1009B300FE7EF0E8A3F090FE82E054E0F0EEA3F0B8
:1009C30075D602539AEF8E368EF9D0F0D083D0824B
:0609D300D0E0FF02085C09
:04000005000000B83F
:00000001FF
