:020000040000FA
:060000000200AF0207E25E
:030043000204EBC9
:0300530002099807
:03007B0002082652
:1000830002073E00000080FBE47910780EB80002FE
:100093008004F709D8FCE4900100784F79028002CC
:1000A300F0A3D8FCD9FA12058C12008675D000751E
:1000B30081BF750E00750F0102008B6016080808DA
:1000C300C6C313C618C613C618C613C618C613C6A6
:1000D300D5E0EA22E026F008A3E036F008A3E036F4
:1000E300F008A3E036F022E0F608A3E0F608A3E068
:1000F300F608A3E0F622250E10AF08F50E400C1506
:100103000F8008F50E4002150FD2AF2200C0D02594
:100113000E10AF08F50E500C050F8008F50E5002B7
:10012300050FD2AFD0D022250EC582C0E0E50F3433
:10013300FFC583C0E0E50EC3958224F910AF08859F
:10014300830F85820E800885830F85820ED2AFCE02
:10015300F0A3E520F0A37808E608F0A3DEFAEFF0B9
:10016300A3E58124FBF8E608F0A3E608F0A308085A
:10017300E608F0A3E608F0A315811581D0E0FED0D0
:10018300E0F815811581E8C0E0EEC0E022850F8319
:10019300850E82E0A3FEE0A3F5207808E0A3F6082D
:1001A300DFFAE0A3FFE0A3C0E0E0A3C0E0E0A3C068
:1001B300E0E0A3C0E010AF0885820E85830F8008BE
:1001C30085820E85830FD2AFD083D0822274F3123F
:1001D300012A74FF1200F9A2AFE433850E82850F62
:1001E30083F0C2AF7814E62AFE08E63BFFEE240351
:1001F30050010FC39425EF940A400302036C781057
:10020300E6244EF58208E63402F583E9F018E62485
:1002130001F608E436F6742865107004740A651153
:100223007006751000751100080808E62401F60829
:10023300E436F67810E6244EF58208E63402F583B8
:10024300EAF018E62401F608E436F674286510701F
:1002530004740A651170067510007511000808080A
:10026300E62401F608E436F67810E6244EF5820813
:10027300E63402F583EBF018E62401F608E436F6DB
:10028300742865107004740A651170067510007582
:100293001100080808E62401F608E436F67810741D
:1002A30028C396FE740A0896FFC3EA9EEB9F500686
:1002B3008A0A8B0B80048E0A8F0BEAC3950AFEEB26
:1002C300950BFF18E6244EF50808E63402F509E518
:1002D3000A450B6031ED900C7EF0ECA3F085090D1F
:1002E300E50DA3F0E508A3F0850B09E509541FF814
:1002F300A3E054E048F0E50AA3F075D60275D702EF
:10030300E5D6A2E140FAEE4F6035EC250AFCED3567
:100313000B900C7EF0ECA3F07402A3F0A3744EF0E8
:10032300EF541FF8A3E054E048F0EEA3F075D602B3
:1003330075D702E5D6A2E140FA8E108F11801B78A3
:1003430010E62AF608E63BF6742865107004740A72
:10035300651170067510007511007814E62AF60809
:10036300E63BF6751600020416E516600302041652
:100373007810E6244EF58208E63402F5837403F020
:1003830018E62401F608E436F67428651070047440
:100393000A65117006751000751100080808E62437
:1003A30001F608E436F67810E6244EF58208E634C2
:1003B30002F583E4F018E62401F608E436F674281F
:1003C30065107004740A65117006751000751100CC
:1003D300080808E62401F608E436F67810E6244E09
:1003E300F58208E63402F583E4F018E62401F60802
:1003F300E436F6742865107004740A651170067586
:100403001000751100080808E62401F608E436F622
:10041300751601850E82850F83E0E0A2E092AF742A
:100423000112010F7F06020190C082C083790CE99B
:10043300F5D57A768AD4EA2408500109E9F5D3740C
:10044300082AF5D2900C767470F0A374D9F0A3E463
:10045300F0A3F0900C7DE0540CF0441AF0900C7C67
:10046300E0C2E7F0900C7AE054E0F0A3E4F0900CE3
:100473007AF0900C7DE0C2E2F0900C7C7413F09063
:100483000C82E0541FF0900C857452F0900C84742D
:1004930020F0900C8E7470F0A374F9F07401A3F043
:1004A300A37400F0A3E054E0F0A3E4F0900C92F006
:1004B300900C95741AF0900C947410F0900C88744E
:1004C30070F0A374F9F0A3E054E0F0A3E4F0900C0F
:1004D3008AF0900C8D744AF0900C8C7410F0D2B8A2
:1004E3000206AC7F01020190C0E0C0D0E8C0E0E9A1
:1004F300C0E0EAC0E0EBC0E0ECC0E0EDC0E0C082E9
:10050300C083C0F0C2C0E5D1A2E0502D120705E9B7
:1005130075F084A4F8A9F0744228FC740139FD8CA9
:10052300828D83A3A3A3A3E02405FAE43400FB791B
:10053300001201D075D1FE8047E5D1A2E25032E529
:100543001DFA7814C3E69AF608E69400F61818180C
:10055300E62AF608E436F6742865127004740A6510
:10056300137006751200751300439A1075D1FB8042
:100573000FE5D1A2E350091205EC439A1075D1F7A8
:10058300D0F0D083D082020B3E75C68000E59EA2D8
:10059300E640F9E5C654C74428F5C67519FF751832
:1005A3000090619074F5F09061FA7409F09061B273
:1005B3007415F09061AEE4F0906265740FF0906191
:1005C300AC7455F0906180E0C2E0F07810760008DA
:1005D30074186870F812080712042CD2AF53F4FE93
:1005E300D29043FE01E51980FCC082C083900100D4
:1005F300E0601C14602224FB60271470030206933E
:1006030014700302069B1470030206A30206AA9049
:100613000102E0F51B0206AA900102E0F5190206A9
:10062300AA900102E0906173F0900103E09061727F
:10063300F0900104E0906175F0900105E090617421
:10064300F0900106E0906171F0900107E090617015
:10065300F0900108E090616FF0900109E090616E05
:10066300F090010AE090616DF090010BE090616CF5
:10067300F090010CE090616BF090010DE090616AE5
:10068300F0906180E0D2E0F0906182E0D2E08016E9
:10069300906180E0C2E0800E906189E0C2E580064F
:1006A300906189E0D2E5F08000D083D08222C082BD
:1006B300C08375F005E51BA424D4F890618FE05442
:1006C3008048F075E1ED75A90175B90175E900750B
:1006D3009100759B0075BF00C2899061A37406F0F9
:1006E3009061A5747FF0439A01D2A8751C017442EE
:1006F3002489900C79F07401900C78F075E1E30291
:1007030006ACC082C0837901E51C6017751C0074B8
:10071300052442900C79F0500109E9900C78F079A6
:10072300018015751C0174892442900C79F05001E5
:1007330009E9900C78F079000206ACC0E0C0D0E87B
:10074300C0E0E9C0E0EAC0E0EBC0E0C082C083C023
:10075300F0E5E9A2E15035E51C75F084A4F8A9F0B1
:10076300744228F8740139F975C311E5A2888289A6
:1007730083F0E5A3A3F0E5A488828983A3A3F0E52E
:10078300A588828983A3A3A3F075E9FDE5E9A2E225
:10079300503BE5D9FBC39480400B75E1EF75E1ED68
:1007A30075E1E38025E51C75F084A4F8A9F074468F
:1007B30028F582740139F583EBF0900C7AE054E06C
:1007C300F0EBA3F075D60175D70175E9FB75E90068
:1007D300759100759B00D0F0D083D082020B44C08A
:1007E300E0C0D0E5BF601575E1EF75E1EDE5D6A298
:1007F300E0500375D68175E1E375BF0075BF00C294
:1008030089020B5043F10243F4F075F82075FC2084
:10081300438C04758D10758A0000C2EB439A1075E2
:10082300F90022C0E0C0D0E8C0E0E9C0E0EAC0E0DF
:10083300EBC0E0ECC0E0EDC0E0EEC0E0EFC0E0C034
:1008430082C083C0F0758A0000C2EB75F900A294E0
:10085300500302093CC2FAA2A250FC75F9FFA2FAA6
:1008630050FCE5F9600C14602914604314606502C0
:10087300093C75F900A2FA50FCE5F9F8900C92E0F6
:1008830054E0F0E8A3F075D608539AEF75F9FF0228
:10089300093CE519600302093C78107600087418D6
:1008A3006870F812094B1206B175180102093CE58C
:1008B30019600302093C75A90075B900539AFEC279
:1008C300A875E1EF75E1ED75D681C2BA759400752F
:1008D30018028065AC12AD137428C39CFA740A9D88
:1008E300FBA814A915C3E89AE99B5005E8FEE98023
:1008F30003EAFEEBFFC3EE9441EF940040047E4015
:100903008014C3E89AE99B5003E88006ECF8742846
:10091300C398FEEE6021744E2C74023D900C86F059
:10092300EC244EA3F0900C8AE054E0F0EEA3F075B3
:10093300D604539AEF8E1D8EF9D0F0D083D082D097
:10094300E0FFD0E0FE020B3E74F812012A75C300EB
:1009530075A20075A30075C30075A40075A5007585
:10096300A60075C30375A20075A30075C33075A4F3
:100973000075A50475A60090024AE4F0A37404F080
:10098300A3E4F0A3F053A1EF43A710C2C2D2BA75F8
:1009930094090204E6C0E0C0D0E8C0E0E9C0E0EAA0
:1009A300C0E0EBC0E0ECC0E0C008C009C00AC00B67
:1009B300C082C08374FF1200F9E5A1A2E4400302E0
:1009C3000B2B90024A78081200EAA90990024A7593
:1009D3000800750904750A00750B0078081200D722
:1009E300A2AFE433850E82850F83F0C2AF75C330A7
:1009F30090024A78081200EAE508F5A490024A78C2
:100A0300081200EAE509F5A590024A78081200EAFF
:100A1300741078081200BEE508F5A6850E82850FCE
:100A230083E0E0A2E092AF53A1EFA2AFE433F0C2C0
:100A3300AF7814E62404FA08E436FBC3EA9425EB02
:100A4300940A4003020B207810E6244EF58208E650
:100A53003402F5837401F018E62401F608E436F64F
:100A6300742865107004740A65117006751000759A
:100A73001100080808E62401F608E436F67810E6C3
:100A8300244EF58208E63402F5837401F018E62457
:100A930001F608E436F6742865107004740A6511CB
:100AA3007006751000751100080808E62401F608A1
:100AB300E436F67810E6244EF58208E63402F58330
:100AC300E4F018E62401F608E436F674286510709D
:100AD30004740A6511700675100075110008080882
:100AE300E62401F608E436F67810E6244EF582088B
:100AF300E63402F583E9F018E62401F608E436F655
:100B0300742865107004740A6511700675100075F9
:100B13001100080808E62401F608E436F6850E827B
:100B2300850F83E0A2E092AF740112010FD083D04E
:100B330082D00BD00AD009D0088003D0E0FDD0E0EA
:100B4300FCD0E0FBD0E0FAD0E0F9D0E0F8D0D0D090
:020B5300E0328E
:04000005000000AF48
:00000001FF
