:020000040000FA
:030000000200E11A
:03003300020E8B2F
:03004300020E3B6F
:03004B0002044B61
:03006B00020FEA97
:100083000203C800000080FB1200F0B90003020065
:10009300DBE47921781EB800028004F709D8FCE478
:1000A30090F0FF789B79038002F0A3D8FCD9FA90F3
:1000B300F399AA82AB839000F3781179018015E458
:1000C30093A3AC82AD838A828B83F0A3AA82AB8392
:1000D3008C828D83D8E9D9E712069C12008675D0ED
:1000E300007581BF7510FF7511F002008B79012235
:1000F3006A1DFF1DFF1DFF1DFF1D031E11050200CD
:10010300A2E792D65002F40430F70663F0FF05F03D
:10011300B3400384800384F40430D60563F0FF0501
:10012300F022BB0102E722C082C08389828A83BB9B
:100133000003E08002E493D083D08222BB000EC090
:1001430082C0838A838982F0D083D08222BB01015B
:10015300F722600C08C6C313C618C613C6D5E0F44D
:1001630022700422600D18C6C333C608C633C6D531
:10017300E0F41822251010AF08F510400215118085
:1001830008F51040021511D2AF22C0D0251010AFD0
:1001930008F510500205118008F51050020511D220
:1001A300AFD0D022E4732510C582C0E0E51134FF3F
:1001B300C583C0E0E510C3958224F910AF08858399
:1001C300118582108008858311858210D2AFCEF00D
:1001D300A3E520F0A37808E608F0A3DEFAEFF0A386
:1001E300E58124FBF8E608F0A3E608F0A30808E697
:1001F30008F0A3E608F0A315811581D0E0FED0E056
:10020300F815811581E8C0E0EEC0E02285118385F1
:100213001082E0A3FEE0A3F5207808E0A3F608DF50
:10022300FAE0A3FFE0A3C0E0E0A3C0E0E0A3C0E0E6
:10023300E0A3C0E010AF0885821085831180088594
:0C0243008210858311D2AFD083D08222BC
:1002500043AE0222C082C083E52270597523007824
:100260002E76000874366870F8A2AFE433F8C2AF97
:1002700090DE0EE0F97403F090DE117408F0E0A255
:10028000E340FBE990DE0EF0E8A2E092AF75E200F9
:10029000752700752800752900752A00752B0075D3
:1002A0002C0085B92D43B902C2C1D2B975E401123F
:1002B00002B8752101020341C082C083E52490DFAA
:1002C00006F090DF04E05403700474018001E4F54B
:1002D0002690FDD5E054E0FAE526A2E0502090DF1C
:1002E00002E02402E434004A90FDD5F090DF02E001
:1002F000240290FDD6F090FDD5E0541F800D7401CE
:100300004AF0A37402F090FDD57481F0752501E5E3
:100310002690FDD46007744CF074F28005744BF0A5
:1003200074F290FDD3F075E900759B00439A017556
:10033000D60175E102800AC082C08390F37D740407
:10034000F0D083D08222C082C083E525FA74016A8E
:100350007003E480027401F525F875F006A4C8ABBB
:10036000F02BF9744128F874F139F9E5266005E8B5
:1003700024058003E82404F8E93400F9E890FDD46A
:10038000F0E990FDD3F075D601EAF875F006A4C83F
:10039000AAF02AF9744128FC74F139FDEC2404F820
:1003A000ED3400F9E526600990DF02E08882898358
:1003B000F088828983E02407FAE43400FB79001294
:1003C0000A7F752300020341C0E0C0D0E8C0E0E925
:1003D000C0E0EAC0E0EBC0E0C082C083C0F0E5E965
:1003E000A2E0503BE525F875F006A4C8AAF02AF96A
:1003F000744128F874F139F9E52B88828983F0E596
:100400002CA3F0AA29AB2AEA88828983A3A3F0AAA5
:1004100029AB2AEB88828983A3A3A3F075E9FEE5C3
:10042000E9A2E6501775E10475D681C2C075D1FE08
:1004300075230075D60175E10275E9BF75E9007590
:100440009B00D0F0D083D082020FD9C0E0C0D0E8AA
:10045000C0E0E9C0E0EAC0E0EBC0E0ECC0E0EDC025
:10046000E0EEC0E0C082C083C0F074FF120177E507
:10047000E454F0FE74305E6430703685DA2B85DB30
:100480002CE5E2E5E3C3952C500885272985282A29
:10049000800F7827E62401FA08E63400FB8A298BCE
:1004A0002A7827E62401F608E63400F67523018051
:1004B0004FEEA2E5500E85DA2B85DB2C85272985AA
:1004C000282A80E8A2E450387827E62401F608E6D6
:1004D0003400F618E6FA08E65403FBEA4B7021A84C
:1004E00027A928E9851082851183F0E5237011C2C0
:1004F000AFAC82AD837A017B007901120A7FD2AF63
:10050000EEF454F1F5E4740112018DD0F0D083D0F3
:1005100082D0E0FE020FD374F71201A990DF36E01B
:100520006491700E90F34D7411F0A37425F078ABC4
:10053000800FE06411700C90F34D7411F0A3F0780B
:10054000AD7916901D74E493FA740193FB74FF6AFD
:10055000700374FF6B6003020699E890F358F0E9AA
:10056000A3F090F34FE0701F75B60EE5B4A2E7500C
:10057000FAE5BAF975B60EE5B4A2E750FAE5BAF5B0
:10058000BCE9F5BC7401F043B404E5BCFAE0701FAB
:1005900075B60EE5B4A2E750FAE5BAF975B60EE500
:1005A000B4A2E750FAE5BAF5BCE9F5BC7401F04332
:1005B000B404E5BCC4540F75F00A120103A8F0EAB4
:1005C000C4540F75F00A120103E5F0C454F02890EA
:1005D000F35AF090F34FE0701F75B60EE5B4A2E742
:1005E00050FAE5BAF975B60EE5B4A2E750FAE5BAE5
:1005F000F5BCE9F5BC7401F043B404E5BCFAE07065
:100600001F75B60EE5B4A2E750FAE5BAF975B60E55
:10061000E5B4A2E750FAE5BAF5BCE9F5BC7401F01F
:1006200043B404E5BCC4540F75F00A120103A8F0EA
:10063000EAC4540F75F00A120103E5F0C454F0281F
:1006400090F35BF07A07EAC3334400F5AD74BAF572
:10065000AC75AB2074F390F350F0A37458F0A3740E
:10066000DFF0A374AFF0A3E054E0F0A37404F090C3
:10067000F354E4F090F3577442F090F3567412F090
:1006800074F3F5D575D45075D601120250E5D6A293
:10069000E040FA75ADFF75ACFF020DAF53BEFBE550
:1006A000BEA2E650FA75C680748065C670FA43BE75
:1006B000041205177522FF75210075240075E9BE27
:1006C00075914175E400D2DE75E5C175E60075E708
:1006D00000782E76000874366870F8A2AFE433F81C
:1006E000C2AF90DE0EE0F97403F090DE117408F0F2
:1006F000E0A2E340FBE990DE0EF0E8A2E092AF1248
:100700000DB47536FF90F399E0F8A3E0F990F37417
:10071000E8F0A3E9F090F39BE0F8A3E0F97A007B1E
:1007200000801E90F375E0F5838C82E493FC90F3D7
:1007300074E02CFCA3E03400FD90F374ECF0A3ED26
:10074000F090F374E0FCA3E0FDE86C7002E96D60EA
:1007500041E0F5838C82A3E493640270C690F37445
:10076000E0FAA3E0FBF5838C82E493FC90F374E061
:100770002CFCA3E03400FD90F374ECF0A3EDF0EA60
:100780004B600F8A828B83A3A3A3A3A3E49364018A
:10079000708B8A828B83A3A3A3A3A3A3A3E493A2B6
:1007A000E65004D2F08002C2F0A2F0E43390F38964
:1007B000F090F388E4F043BE80D2BD7538007539FF
:1007C00000753A00753B17F53C90DE0B7417F090FE
:1007D000DE077401F090DE09E4F0438C10758900A7
:1007E000C2C5758B00C2E8439A0253F4FDD291430F
:1007F000FE02D29043FE01D2AF804C7EFA7AE87BB3
:1008000003120E661EEE70F5E53665376039E53683
:1008100024FC600314701EE522701A752300539A9D
:10082000FE75E10475D681752300C2B975E40085B3
:100830002DB9752102E53724FC600314700675227A
:10084000FF752100853736E53624FC60031470AB54
:100850007401652170B2120CE680ADC082C0839035
:10086000F390E02440602624FE70030208EE24FC8E
:10087000600302090C90F38A7436F0A3E4F0A30439
:10088000F0A3F0A3E4F090F37D04020911798F7ACC
:10089000F37B0090F38AE9F0A3EAF0A3E4F0A374F9
:1008A00008F0A3E4F090F37D04F090F34DE0120122
:1008B0003FA3E0097AF312013F90F3A5E0097AF330
:1008C00012013FA3E0097AF312013F90F3A7E00978
:1008D0007AF312013FA3E0097AF312013F097AF398
:1008E000740112013F097AF3E412013F802490F36E
:1008F0007DE0701E7401F090F38A745CF0A374F3D1
:10090000F0A3E4F0A3740AF0A3E4800590F37D74EF
:1009100004F002034174F71201A990F390E0243F20
:100920007003020A4324FE7003020A631470030278
:100930000A76147003020A3924FC7003020A762432
:10094000FA7003020A7614600914600C14602D0218
:100950000A70120254020A76E5226003020A7675D2
:100960002300539AFE75E10475D681752300C2B940
:1009700075E400852DB9752102020A7690F37DE0B9
:10098000F8703390F393E090F0FFF090F395E0F877
:1009900090F100F090F38A7401F0A374F1F0A3E4F5
:1009A000F090F396E0F990F38DE8F0A3E9F090F37E
:1009B0007D7402020A757402686003020A7690F080
:1009C000FFE0606D14606224FD6003020A767A0025
:1009D000A3E060338A0874FF2508F874F03400F946
:1009E00088828983A3A3A3E0C0E088828983A3A32C
:1009F000E0F8E428F5827583DFD0E0F00A0A90F190
:100A000000E0F8EA9840CD90DF13740CF090DF041A
:100A1000E0D2E2F090DF03E0D2E2F090DF31E4F0E8
:100A200090DF30F090DF2F804C90F101E0F52280D4
:100A30004590F101E0F524803D90F393E0540FF5EB
:100A400037803390F37DE0702D7402F090F38D7455
:100A50000AF0A3E4F090F38A745CF0A374F3F0A3BB
:100A6000E4801290F38DE4F0A3F090F37D04800510
:100A700090F37D7404F0020DAF0203370203377464
:100A8000F11201A9E9FEA2AFE433F9C2AF7832E670
:100A90002AF50808E63BF509E5082403F508E50909
:100AA0003400F509C3E5089425E509940A400302DA
:100AB0000C2C782EE624A9F58208E634F3F583EEB3
:100AC000F018E62401F608E63400F67428652E7066
:100AD00004740A652F7006752E00752F000808082B
:100AE000E62401F608E63400F6782EE624A9F5821D
:100AF00008E634F3F583EAF018E62401F608E63454
:100B000000F67428652E7004740A652F7006752E21
:100B100000752F00080808E62401F608E63400F600
:100B2000782EE624A9F58208E634F3F583EBF01875
:100B3000E62401F608E63400F67428652E70047485
:100B40000A652F7006752E00752F00080808E62428
:100B500001F608E63400F6782E7428C396F508747A
:100B60000A0896F509C3EA9508EB950950068A0A22
:100B70008B0B800685080A85090BEAC3950AF508E0
:100B8000EB950BF50918E624A9F50C08E634F3F506
:100B90000DED90FDE1F0ECA3F0850D0FE50FA3F056
:100BA000E50CA3F0850B0DE50D541FF8A3E054E010
:100BB00048F8F0E50AA3F075D60475D704E5D6A287
:100BC000E240FAE50845096039EC250AFCED350BF1
:100BD00090FDE1F0ECA3F074F3A3F0A374A9F0E5A9
:100BE00009541FFC74E0584CA3F0E508A3F075D637
:100BF0000475D704E5D6A2E240FA85082E85092FB0
:100C0000801B782EE62AF608E63BF67428652E70DF
:100C100004740A652F7006752E00752F007832E671
:100C20002AF608E63BF6753400020CDCE534600376
:100C3000020CDC782EE624A9F58208E634F3F5836D
:100C40007403F018E62401F608E63400F67428650B
:100C50002E7004740A652F7006752E00752F00081B
:100C60000808E62401F608E63400F6782EE624A902
:100C7000F58208E634F3F583E4F018E62401F6087B
:100C8000E63400F67428652E7004740A652F700629
:100C9000752E00752F00080808E62401F608E634D2
:100CA00000F6782EE624A9F58208E634F3F583E40D
:100CB000F018E62401F608E63400F67428652E7074
:100CC00004740A652F7006752E00752F0008080839
:100CD000E62401F608E63400F6753401E9A2E09254
:100CE000AF7F0802020F74F71201A9A2AFE433FC30
:100CF000C2AF90DE0EE0FD7403F090DE11E0A2E0E2
:100D00005003020DA5A832A933E8497003020D9BD8
:100D1000C3E89440E9940040077E407535018005A2
:100D2000E8FE753500A830A9318E087428C398FAFA
:100D3000740A99FBC3E5089AE49B4007E8FA742813
:100D4000C39AFE74A928F874F33990FDD9F0E8A38A
:100D5000F090FDDDE054E0F0EEA3F075D60275D71B
:100D600002E5D6A2E140FA90DE117401F08E82AA6B
:100D7000827832C3E69AF608E69400F6181818E668
:100D80002AF608E93400F6742865307004740A65A0
:100D9000317012753000753100800AE535600675D6
:100DA00035007401F0ED90DE0EF0ECA2E092AF7F22
:100DB0000202020FC082C08374FDF5D57AD18AD4B5
:100DC00074FDF5D3740824D1F5D290FDD174DFF011
:100DD000A374D9F0A3E4F0A3F090FDD8E0540CF094
:100DE000441AF090FDD7E0C2E7F090FDD5E054E062
:100DF0004401F0A37402F090FDD57481F090FDD809
:100E0000E0C2E2F090FDD77413F090FDE5E0541FCE
:100E1000F090FDE87452F090FDE77420F090FDDB57
:100E200074DEF0A37426F0A3E4F090FDE07440F0CB
:100E300090FDDF7420F0D2B8020341C0E0C0D0E8DA
:100E4000C0E0E9C0E0EAC0E0EBC0E0ECC0E0EDC02B
:100E5000E0C0F0C2C0E5D1A2E0500612034675D151
:100E6000FED0F0020FD3EBC313FBEA13FAC3EA94EC
:100E700002EB94004014000000000000000000009D
:100E8000EA24FFFAEB34FFFB80E322C0E0C0D0E8A5
:100E9000C0E0E9C0E0EAC0E0EBC0E0ECC0E0EDC0DB
:100EA000E0C008C009C082C083C0F0E5BEA2E65021
:100EB000FA90DE06E0FAA2E25035A83BE890DE0B9D
:100EC000F0F508853C0974047808120155E508908E
:100ED000DE07F0853B08853C097409780812015546
:100EE000E508543E90DE09F090DE01E0D2E0F078B3
:100EF00038EA46F608E446F690DE02E0F5087509A1
:100F000000740478081201647838E50846F608E5AC
:100F10000946F690DE04E0F50875090074097808C2
:100F2000120164783846F608E50946F6EAA2E05070
:100F300003753A0174065A6003753A00A838A93956
:100F4000E8540460687838E654FBF608E654FFF687
:100F500090F3767402F0A3E4F090F37DF078767964
:100F6000F388828983A3A3A3A3A3A3A3A37403F0F9
:100F700088828983A3A882A983E8647B7003E964DB
:100F8000F370DE787679F3E8240DF582E93400F524
:100F9000837403F088828983A3A882A983E8647B91
:100FA0007003E964F370E0753D00753E00A838A950
:100FB00039E85410600E7838E654EFF608E654FF2E
:100FC000F6121157758B00C2E8D0F0D083D082D0D2
:100FD00009D008D0E0FDD0E0FCD0E0FBD0E0FAD0B2
:100FE000E0F9D0E0F8D0D0D0E032C0E0C0D0C0828C
:100FF000C083E5BEA2E650FAE589A2E7500DC2BD66
:1010000090F36BE4F0A3F0A3F0A3F0758900C2C5E0
:10101000D083D08280CF74F51201A9E9FFEAFE8B5C
:10102000087B0090F399E0F8A3E0F990F374E8F0FE
:10103000A3E9F090F39BE0FCA3E0FD801E90F37524
:10104000E0F5838882E493F890F374E028F8A3E055
:101050003400F990F374E8F0A3E9F090F374E0F849
:10106000A3E0F9EC687002ED696048E0F5838882DE
:10107000A3E493640270C690F374E0FAA3E0F583EE
:101080008A82E493F50A90F374E0250AF50AA3E056
:101090003400F50B90F374E50AF0A3E50BF0E84992
:1010A0006011EF601488828983A3A3A3A3A3E493B0
:1010B0006F70A87A007B00802EEB60F71B809CE4A9
:1010C00093640270030211521890F375E0F583885F
:1010D00082E493F890F374E028F8A3E03400F990E8
:1010E000F374E8F0A3E9F090F374E0F8A3E0F9EC0E
:1010F000687002ED69605B90F374E0240108A3E07E
:101100003400F988828983E493640470B290F374A4
:10111000E0FAA3E0FB18F5838882E493F890F37477
:10112000E028F8A3E03400F990F374E8F0A3E9F0C4
:10113000EA4B601E8A828B83A3A3E4936E60030252
:1011400010B38A828B83A3A3A3E493650860030290
:1011500010B37F0402020F74F21201A990DE0EE0B8
:10116000F50BE4F090DE11E0FFA2E4501D7480F076
:1011700090F37D7407F0E53D453E6009853D82852D
:101180003E831201A790F37DE4F0EFA2E2500C90B1
:10119000DE11E4F090F37DF002124D90F37DE0F863
:1011A000740268600302123690DE16E0F8880A9036
:1011B000F38AE0F9A3E0FAA3E0FBE8601590DE20F3
:1011C000E012013FE9240109EA3400FA150AE50AB0
:1011D00070EB880890F38DC3E09508F0A3E09400CD
:1011E000F090F38AE0F9A3E0FAA3E0FBE92508F91F
:1011F000EA3400FA90F38AE9F0A3EAF0A3EBF0A353
:10120000E0F8A3E0F9E84960047440800274489073
:10121000DE11F0E8497014E53D453E6009853D82E8
:10122000853E831201A790F37DE4F0E50B90DE0E7E
:10123000F07F0702020F7406687009853D82853EC3
:10124000831201A790F37DE060030213D8EFA2E0C0
:1012500050D9798F7AF37B00780890DE20E0120174
:101260003FE9240109EA3400FA18E870ED8B3D8B60
:101270003E90F38FE054E0602524E0700302146296
:1012800024E0700302144A24C0700302137524E0A2
:10129000700302146B24E070030214568072A3E002
:1012A00014607524FE606124FE600A24FC607324CF
:1012B000FE6074805B90F393E0F8A3E0F9E8497076
:1012C0004FA3E0F8A3E0F9E849704590F391E0FE00
:1012D000A3E0FFEE5480F8EFF9E8497033EE90DEBA
:1012E00000F090F3766018E0640270037403F090ED
:1012F000F37DE0640460030213D274600213D4E04F
:10130000640370EB740280E679011215C9E970DF9D
:1013100090F37D7404F080E279001215C9E970CF72
:1013200080EE121B8D80C890F376E0640470E1902B
:10133000F38FE0640170D990F395E0F8A3E0F9E849
:101340004970CD90F393E0F508A3E0F50990F3918F
:10135000E0FEFBAA0890F377E0F9121016EA4B6062
:10136000AF74782508F58274F33509F583EEF01231
:1013700019C00212EFA3E0600E24FA601024FE6090
:101380001224FE607780891214E60212EF12168E84
:101390000212EFA3E0F8A3E0F9E84960030213109A
:1013A000A3E0F8A3E0F9E8496003021310A3E064A6
:1013B000017002A3E0600302131090F38A7477F0C7
:1013C000A374F3F0A3E4F0A304F0A3E4F090F37D9E
:1013D00004F0744090DE11F090F37DE0F874016841
:1013E00060030214D27F0290F38DE0F8A3E0F9C30A
:1013F000E89420E99400507C7F0A807A90F376E0AC
:101400006404600302131090F38FE06481600302B0
:10141000131090F391E0F8A3E0F9E8496003021398
:101420001090F395E064017002A3E06003021310D2
:1014300090F393E02478F50CA3E034F3F50D90F3EA
:101440008AE50CF0A3E50D0213C3753D15753E0941
:101450001209150212EF753D5B753E0812085B021A
:1014600012EF753D7C753E0A021310753D79753E8D
:101470000A0213107820E8FE90F38AE0F9A3E0FA5C
:10148000A3E0FBEE601312012590DE20F0E92401B9
:1014900009EA3400FA1EEE70ED880890F38AE0F94C
:1014A000A3E0FAE92508F9EA3400FA90F38AE9F0B2
:1014B000A3EAF0A3EBF0A3C3E09508F0A3E0940047
:1014C000F0EF90DE11F0E8C39420400302122B02EB
:1014D0001217740568600302122B853D82853E83D6
:1014E0001201A702122B74F71201A990F391E0F8F0
:1014F000A3E0F9E8497011A3E0F8A3E0700AA3E0C3
:1015000064027002A3E0600890F37D74040215C5C4
:1015100090F38FE02480600814602A14603780E81C
:10152000E870E590F389E06004780180027800902B
:10153000F397E8F0A3E4F090F388E0606890F39705
:10154000E04402805C90F376E0640470BB90F39713
:10155000E4F0A3804FE8547FF50890F376E064044C
:1015600070A6E508C39406509F74762508F582742A
:10157000F33400F583E854806010A3A3A3A3A3A3CE
:10158000A3E06403701578018013E582240CF582D2
:10159000E5833400F583E0640360EB780090F39713
:1015A000E8F0A3E4F090F37DE06404601990F38A1E
:1015B0007497F0A374F3F0A3E4F0A37402F0A3E42F
:1015C000F090F37D04F0020DAF74F71201A9E9FA6F
:1015D00090F395E0F8A3E0F9E849701490F376E011
:1015E0006404601490F393E0F8A3E0F9E84960081C
:1015F00090F37D740402168890F38FE0541F600806
:1016000014600D14601480E890F391E064016004AC
:1016100079008077EA90F388806E90F393E0547FAE
:10162000F50890F391E070E8E508C3940650C1E531
:101630000890DE0EF090F393E054806021EA60049D
:1016400074108002744090DE11F0EA60047403802C
:1016500001E4C0E0747D2508F58274F3801FEA6020
:101660000474208002748090DE14F0EA6004740335
:101670008001E4C0E074822508F58274F33400F53B
:1016800083D0E0F090DE0EE4F07901020DAF74F645
:101690001201A990F391E0F8A3E014600F14700315
:1016A0000217551470030218210218AD90F399E047
:1016B000F8A3E0F990F374E8F0A3E9F07508007579
:1016C000090090F39BE0F8A3E0F9801E90F375E029
:1016D000F5838A82E493FA90F374E02AFAA3E03463
:1016E00000FB90F374EAF0A3EBF090F374E0FAA33C
:1016F000E0FBE86A7002E96B6037E0F5838A82A359
:10170000E493640170C690F374E0F508A3E0F50972
:1017100090F374E0F8A3E0F5838882E493F890F303
:1017200074E028F8A3E03400F990F374E8F0A3E93A
:10173000F090F38AE508F0A3E509F0A37480F09037
:10174000F38AE0F9A3E0FAA37B80120125A3F0A3BA
:10175000E4F0021977E8FC90F399E0F8A3E0F9903F
:10176000F374E8F0A3E9F090F39BE0F8A3E0F980CC
:10177000011C750800750900801E90F375E0F58363
:101780008A82E493FA90F374E02AFAA3E03400FB2F
:1017900090F374EAF0A3EBF090F374E0FAA3E0FBAB
:1017A000E86A7002E96B6039E0F5838A82A3E4930A
:1017B000640270C690F374E0F508A3E0F509F583C0
:1017C0008A82E493FA90F374E02AFAA3E03400FBEF
:1017D00090F374EAF0A3EBF0E50845096003EC70C0
:1017E0009090F38AE508F0A3E509F0A37480F090E7
:1017F000F38AE0F9A3E0FA7B80E924020909EA34DC
:1018000000FA120125FC1919E0FAA3E924030909D9
:1018100009EA3400FA120125F9ECA3F0A3E9021752
:1018200051E8FC90F399E0F8A3E0F990F374E8F044
:10183000A3E9F090F39BE0F8A3E0F97508007509BF
:1018400000801E90F375E0F5838A82E493FA90F3AA
:1018500074E02AFAA3E03400FB90F374EAF0A3EBFF
:10186000F090F374E0FAA3E0FBE86A7002E96B60C1
:1018700030E0F5838A82A3E493640370C690F37426
:10188000E0F508A3E0F509F5838A82E493FA90F382
:1018900074E02AFAA3E03400FB90F374EAF0A3EBBF
:1018A000F0ECFF74FF2F1C04709102173190F38A43
:1018B000E4F0A3F0A3F090F39DE0F8A3E0F9A3E037
:1018C000FAA3E0FBEAC398F508EB99F509E508549B
:1018D000F8AB094B7003021987E8FAE9FB74037847
:1018E00008120155A808A90990F391E0F508A3E0B2
:1018F000F5098A828B83E493AC096C7063A3E4934B
:101900006508705C90F393E0F508A3E0F5098A821E
:101910008B83A3A3E493AC096C70458A828B83A369
:10192000A3A3E493650870388A828B83A3A3A3A33F
:10193000E493F508740193F50990F38AE508F0A3A0
:10194000E509F0A37480F08A828B83A3A3A3A3A3E9
:10195000A3E493FC740193FD90F38DECF0A3EDF000
:10196000EA2408FAEB3400FBE824FF18E934FFF915
:10197000E84960030218E890F38AE0FCA3E0FDA3C5
:10198000E0FEEC4D4E700790F37D7404802C90F3D4
:101990007DE06404602590F395E0FAA3E0FB90F30A
:1019A0008DE0F8A3E0F9C3EA98EB99500890F38D25
:1019B000EAF0A3EBF090F37D7401F07F0302020FD5
:1019C00074F11201A9EA2404F50EEB3400F50F8539
:1019D0000E82F583E493FC603690F3A1E0FEA3E071
:1019E000FF8E828F83E493F8740193F9EA687002A2
:1019F000EB69601BEE2404FEEF3400FF8E828F83C0
:101A0000E493F8740193F9EA687002EB6970E57980
:101A100000EC7003021B8A801E90F375E0F583884A
:101A200082E493FA90F374E02AFAA3E03400FB9086
:101A3000F374EAF0A3EBF090F374E0FAA3E0FB9008
:101A4000F39BE06A7003A3E06B7003021B7890F3D2
:101A500074E0F8A3E0F5838882A3E493640570B989
:101A600090F374E0FCA3E0FDF5838882E493FA90A0
:101A7000F374E02AFAA3E03400FB90F374EAF0A3D5
:101A8000EBF0EC4D7003021B78EC2402F50CED3406
:101A900000F50D850C82F583E493540FF50A90DE72
:101AA0000EF0750B008C828D83A3A3A3A3E4932473
:101AB00007F508A3E4933400F509740378081201CC
:101AC00055AA08EC24030C0C0CED3400FD850C82A7
:101AD000850D83E493A2E7504B90DE117448F074B7
:101AE00008F08C828D83E493540364017003750BBA
:101AF00040750801750900E50A78081201648E82B4
:101B00008F83A3A39355086006E50BD2E0F50BE5A0
:101B10000B90DE12F0EA90DE10F0747D250AF5825B
:101B200074F3804A90DE147490F07410F08C828DFF
:101B300083E493540364017003750B4075080175C9
:101B40000900E50A78081201648E828F83A3A3A39B
:101B50009355086006E50BD2E0F50BE50B90DE151A
:101B6000F0EA90DE13F07482250AF58274F33400F3
:101B7000F583E4F090DE0EF009850E82850F83E494
:101B800093F8E9C3985003021A37020CE174F51276
:101B900001A990F376E06402601F90F393E0F8A34C
:101BA000E0F9E8497013A3E0F8A3E0F9E849700907
:101BB00090F391E0F8A3E0600990F37D7404F002E3
:101BC0001D67E87003021D13F50890F399E0FAA36E
:101BD000E0FB90F374EAF0A3EBF090F39BE0FAA340
:101BE000E0FBEAFCEBFD801E90F375E0F5838A8252
:101BF000E493FA90F374E02AFAA3E03400FB90F344
:101C000074EAF0A3EBF090F374E0FAA3E0FBEC6A63
:101C10007002ED6B60A3E0F5838A82A3E493640213
:101C200070C690F374E0FEA3E0F5838E82E493FE29
:101C300090F374E02EFEA3E03400FF90F374EEF016
:101C4000A3EFF0EA4B7003021BB98A828B83A3A334
:101C5000A3A3A3E493650870AD90F3767404F0E851
:101C6000A3F0750800EA2404FEEB3400FF8E828F97
:101C700083E4937003021D6785080A7478250AF5CA
:101C80008274F33400F583E4F090F39BE0F8A3E072
:101C9000F97A007B00801E90F375E0F5838C82E476
:101CA00093FC90F374E02CFCA3E03400FD90F374FB
:101CB000ECF0A3EDF090F374E0FCA3E0FDE86C70B1
:101CC00002E96D602EE0F5838C82A3E493640470D6
:101CD000C690F374E0FAA3E0FBF5838C82E493FCF6
:101CE00090F374E02CFCA3E03400FD90F374ECF06E
:101CF000A3EDF08A828B83A3A3A3E49370931219BC
:101D0000C005088E828F83E493F8E508C398505786
:101D1000021C7890F377F090F3767403F07876797C
:101D2000F388828983A3A3A3A3A3A3A3A37403F02B
:101D300088828983A3A882A983E8647B7003E9640D
:101D4000F370DE787679F3E8240DF582E93400F556
:101D5000837403F088828983A3A882A983E8647BC3
:101D60007003E964F370E0021152120100020000F6
:101D700000205104FFFFFFFF0102000109021900CA
:101D800001010080320904000001FFFFFF00070588
:101D9000830240000504030904240354006500780D
:101DA0000061007300200049006E0073007400722F
:101DB0000075006D0065006E00740073002403431D
:101DC00000430078007800310031002000550053B6
:101DD000004200200044006F006E0067006C006548
:101DE000001203300030003000300030003000308E
:101DF0000037000C0343004500420041004C0085C1
:031E00001D0000C2
:04000005000000E116
:00000001FF
