:020000040000FA
:030000000200B843
:0300430002075F52
:03004B0002037538
:03006B00020895F3
:100083000202F200000080FB1200C7B90003020065
:10009300B2E479217816B800028004F709D8FCE4A9
:1000A30090F0FF784F79038002F0A3D8FCD9FA12BD
:1000B30001A012008675D0007581BF7510FF751100
:1000C300F002008B790122251010AF08F5104002D1
:1000D30015118008F51040021511D2AF22C0D025AA
:1000E3001010AF08F510500205118008F5105002EA
:1000F3000511D2AFD0D0222510C582C0E0E511345E
:10010300FFC583C0E0E510C3958224F910AF0885CD
:1001130083118582108008858311858210D2AFCE2A
:10012300F0A3E520F0A37808E608F0A3DEFAEFF0E9
:10013300A3E58124FBF8E608F0A3E608F0A308088A
:10014300E608F0A3E608F0A315811581D0E0FED000
:10015300E0F815811581E8C0E0EEC0E02285118347
:10016300851082E0A3FEE0A3F5207808E0A3F6085B
:10017300DFFAE0A3FFE0A3C0E0E0A3C0E0E0A3C098
:10018300E0E0A3C0E010AF088582108583118008EA
:10019300858210858311D2AFD083D08222E5C654E5
:1001A30080F853BEFB53C6BFE5C6A2E640FA88C635
:1001B300E5C66870FB43BE047522FF7521007524F4
:1001C3000075E9BE75914175E400D2DE75E5C17530
:1001D300E60075E700782E76000874366870F8122A
:1001E30008741206A5D2AFE52280FCC082C083E565
:1001F3002490DF06F090DF04E05403700474018060
:1002030001E4F52690FD79E054E0FAE526A2E050FA
:100213002090DF02E02402E434004A90FD79F0905C
:10022300DF02E0240290FD7AF090FD79E0541F8014
:100233000D74014AF0A37402F090FD797481F07596
:100243002501E52690FD786007744CF074F2800573
:10025300744BF074F290FD77F075E900759B0043E1
:100263009A0175D60175E102D083D08222C082C083
:1002730083E525FA74016A7003E480027401F525AD
:10028300F875F006A4C8ABF02BF9744128F874F1A3
:1002930039F9E5266005E824058003E82404F8E934
:1002A3003400F9E890FD78F0E990FD77F075D60118
:1002B300EAF875F006A4C8AAF02AF9744128FC7478
:1002C300F139FDEC2404F8ED3400F9E526600990DA
:1002D300DF02E088828983F088828983E02407FA39
:1002E300E43400FB790012043E75230002026BC064
:1002F300E0C0D0E8C0E0E9C0E0EAC0E0EBC0E0C0A5
:1003030082C083C0F0E5E9A2E0503BE525F875F033
:1003130006A4C8AAF02AF9744128F874F139F9E55A
:100323002B88828983F0E52CA3F0AA29AB2AEA88DB
:10033300828983A3A3F0AA29AB2AEB88828983A3AA
:10034300A3A3F075E9FEE5E9A2E6501775E104758C
:10035300D681C2C075D1FE75230075D60175E10241
:1003630075E9BF75E900759B00D0F0D083D0820298
:100373000863C0E0C0D0E8C0E0E9C0E0EAC0E0EB59
:10038300C0E0ECC0E0EDC0E0EEC0E0C082C083C0DE
:10039300F074FF1200CAE5E454F0FE74305E64307A
:1003A300703685DA2B85DB2CE5E2E5E3C3952C502B
:1003B3000885272985282A800F7827E62401FA084B
:1003C300E63400FB8A298B2A7827E62401F608E61F
:1003D3003400F6752301804FEEA2E5500E85DA2B2B
:1003E30085DB2C85272985282A80E8A2E4503878E4
:1003F30027E62401F608E63400F618E6FA08E65480
:1004030003FBEA4B7021A827A928E98510828511EF
:1004130083F0E5237011C2AFAC82AD837A017B0018
:10042300790112043ED2AFEEF454F1F5E4740112F3
:1004330000E0D0F0D083D08202085A74F11200FA9F
:10044300E9FEA2AFE433F9C2AF7832E62AF5080831
:10045300E63BF509E5082403F508E5093400F50949
:10046300C3E5089425E509940A40030205EB782EB9
:10047300E6244DF58208E634F3F583EEF018E6241E
:1004830001F608E63400F67428652E7004740A65D4
:100493002F7006752E00752F00080808E62401F654
:1004A30008E63400F6782EE6244DF58208E634F3A8
:1004B300F583EAF018E62401F608E63400F674281A
:1004C300652E7004740A652F7006752E00752F0053
:1004D300080808E62401F608E63400F6782EE62438
:1004E3004DF58208E634F3F583EBF018E62401F6C4
:1004F30008E63400F67428652E7004740A652F70BC
:1005030006752E00752F00080808E62401F608E694
:100513003400F6782E7428C396F508740A0896F505
:1005230009C3EA9508EB950950068A0A8B0B8006E6
:1005330085080A85090BEAC3950AF508EB950BF5BF
:100543000918E6244DF50C08E634F3F50DED90FD9E
:100553008DF0ECA3F0850D0FE50FA3F0E50CA3F0F0
:10056300850B0DE50D541FF8A3E054E048F8F0E5C2
:100573000AA3F075D60875D708E5D6A2E340FAE5D5
:100583000845096039EC250AFCED350B90FD8DF02B
:10059300ECA3F074F3A3F0A3744DF0E509541FFC2E
:1005A30074E0584CA3F0E508A3F075D60875D70896
:1005B300E5D6A2E340FA85082E85092F801B782E05
:1005C300E62AF608E63BF67428652E7004740A657D
:1005D3002F7006752E00752F007832E62AF608E68E
:1005E3003BF675340002069BE534600302069B78F4
:1005F3002EE6244DF58208E634F3F5837403F018F0
:10060300E62401F608E63400F67428652E700474B7
:100613000A652F7006752E00752F00080808E6245A
:1006230001F608E63400F6782EE6244DF58208E656
:1006330034F3F583E4F018E62401F608E63400F613
:100643007428652E7004740A652F7006752E007564
:100653002F00080808E62401F608E63400F6782E91
:10066300E6244DF58208E634F3F583E4F018E62436
:1006730001F608E63400F67428652E7004740A65E2
:100683002F7006752E00752F00080808E62401F662
:1006930008E63400F6753401E9A2E092AF7F080260
:1006A3000160C082C08374FDF5D57A758AD474FD68
:1006B300F5D374082475F5D290FD7574DFF0A37437
:1006C300D9F0A3E4F0A3F090FD7CE0540CF0441ABD
:1006D300F090FD7BE0C2E7F090FD79E054E0440147
:1006E300F0A37402F090FD797481F090FD7CE0C278
:1006F300E2F090FD7B7413F090FD91E0541FF090B5
:10070300FD947452F090FD937420F090FD8574DF96
:10071300F0A374C1F074F0A3F0A374FFF0A3E0544A
:10072300E0F0A3E4F090FD89F090FD8C741AF09052
:10073300FD8B740EF090FD7F74DFF0A374C1F0A302
:10074300E054E0F0A3E4F090FD81F090FD84744A5E
:10075300F090FD83740EF0D2B802026BC0E0C0D0FB
:10076300E8C0E0E9C0E0EAC0E0EBC0E0ECC0E0EDE7
:10077300C0E0C008C009C082C083C0F0C2C0E5D1D8
:10078300A2E0500912027075D1FE02084EE5D1A213
:10079300E15036A8368882AA827832C3E69AF608F0
:1007A300E69400F6181818E62AF608E63400F674FC
:1007B3002865307004740A65317006753000753130
:1007C30000D2BD75D1FD02084EE5D1A2E2507C9066
:1007D300F0FFE0606B14606024FD706A7A00A3E0B0
:1007E30060338A0874FF2508F874F03400F98882AE
:1007F3008983A3A3A3E0C0E088828983A3A3E0F84D
:10080300E428F5827583DFD0E0F00A0A90F100E076
:10081300F8EA9840CD90DF13740CF090DF04E0D237
:10082300E2F090DF03E0D2E2F090DF31E4F090DF1A
:1008330030F090DF2FF0800E90F101E0F52280067A
:1008430090F101E0F524D2BD75D1FBD0F0D083D077
:1008530082D009D0088003D0E0FED0E0FDD0E0FCD8
:10086300D0E0FBD0E0FAD0E0F9D0E0F8D0D0D0E08F
:100873003243F10275FF0043F33C75862075C520B2
:10088300438C01438C1075890000C2C5D2BD75C16C
:100893000022C0E0C0D0E8C0E0E9C0E0EAC0E0EB7D
:1008A300C0E0ECC0E0EDC0E0EEC0E0EFC0E0C0822D
:1008B300C083C0F075890000C2C575C100A2845011
:1008C300030209CD5386FBA2A250FC75C1FFE58646
:1008D300A2E250FAE5C1600F14602D146069147030
:1008E3000302096A0209CD75C100E586A2E250FA46
:1008F300E5C1F890FD89E054E0F0E8A3F075D60473
:10090300C2BD75C1FF0209CDE52260030209CD75A1
:100913002300782E76000874366870F875E2007547
:100923002700752800752900752A00752B00752C82
:100933000085B92D43B902C2C1D2B975E4011201D0
:10094300EE7521010209CDE522707F752300539ACC
:10095300FE75E10475D681752300C2B975E400857F
:100963002DB97521028063AC30AD317428C39CFA74
:10097300740A9DFBA832A933C3E89AE99B5005E8A2
:10098300FEE98003EAFEEBFFC3EE9441EF940040DF
:10099300047E408014C3E89AE99B5003E88006EC88
:1009A300F87428C398FEEE601F744D2CF874F33D61
:1009B30090FD7DF0E8A3F090FD81E054E0F0EEA31C
:1009C300F075D602C2BD8E368EC1D0F0D083D082F0
:0609D300D0E0FF02085A0B
:04000005000000B83F
:00000001FF
