:020000040000FA
:060000000200AF02092717
:030043000203C5F0
:03005300020A7B23
:03007B0002096A0D
:1000830002087000000080FBE47910780EB80002CB
:100093008004F709D8FCE4900100784F79028002CC
:1000A300F0A3D8FCD9FA12067412008675D0007535
:1000B30081BF750E00750F0102008B6016080808DA
:1000C300C6C313C618C613C618C613C618C613C6A6
:1000D300D5E0EA22E026F008A3E036F008A3E036F4
:1000E300F008A3E036F022E0F608A3E0F608A3E068
:1000F300F608A3E0F622CAC0E0E6F0A308DAFAD0D5
:10010300E0FA22250E10AF08F50E400C150F8008FB
:10011300F50E4002150FD2AF2200C0D0250E10AF4E
:1001230008F50E500C050F8008F50E5002050FD28E
:10013300AFD0D022250EF58210AF08F50E400C1576
:100143000F8008F50E4002150FD2AF850F832225CD
:100153000EF582E4350FF58322250EC582C0E0E556
:100163000F34FFC583C0E0E50EC3958224F910AFB9
:100173000885830F85820E800885830F85820ED2C2
:10018300AFCEF0A3E520F0A37808E608F0A3DEFAEB
:10019300EFF0A3E58124FBF8E608F0A3E608F0A35B
:1001A3000808E608F0A3E608F0A315811581D0E05E
:1001B300FED0E0F815811581E8C0E0EEC0E02285AD
:1001C3000F83850E82E0A3FEE0A3F5207808E0A369
:1001D300F608DFFAE0A3FFE0A3C0E0E0A3C0E0E09D
:1001E300A3C0E0E0A3C0E010AF0885820E85830FB3
:1001F300800885820E85830FD2AFD083D08222C040
:10020300D0250EC582C0E0E50F34FFC583C0E0E50D
:100213000EC3958224F310AF0885830F85820E8069
:100223000885830F85820ED2AFC8F0A3E9F0A3EA55
:10023300F0A3EBF0A37908E709F0A3D8FAECF0A355
:10024300EDF0A3EEF0A3EFF0A3D0E0F0A3D0E0F045
:10025300A3D0E0F0A3E520F0A3E5F0F0A322850FFF
:1002630083850E82E0C0E0A3E0F9A3E0FAA3E0FBFC
:10027300A37808E0F608A3DFFAE0FCA3E0FDA3E01F
:10028300FEA3E0FFA3E0C0E0A3E0C0E0A3E0F5D05D
:10029300A3E0F520A3E0A3F5F010AF0885830F8555
:1002A300820E800885830F85820ED2AFD082D083E1
:1002B300D0E0F8D0E03274028000C0E0F404120110
:1002C30037D0E01200F922C082C083791DE9F5D549
:1002D3007A428AD4EA2408500109E9F5D374082A3A
:1002E300F5D2901D427470F0A374D9F0A3E4F0A387
:1002F300F0901D49E0540CF0441AF0901D48E0C200
:10030300E7F0901D46E054E0F0A3E4F0901D46F0C2
:10031300901D49E0C2E2F0901D487413F0901D4E09
:10032300E0541FF0901D517452F0901D507420F052
:10033300901D5A7470F0A374F9F07401A3F0A374C0
:1003430000F0A3E054E0F0A3E4F0901D5EF0901DF4
:1003530061741AF0901D607410F0901D547470F065
:10036300A374F9F0A3E054E0F0A3E4F0901D56F079
:10037300901D59744AF0901D587410F0D2B8D08370
:10038300D0822274F812015C7408120152E0F8A3BF
:10039300E0F9E8496027ED901D4AF0ECA3F0EBA3E8
:1003A300F0EAA3F0E9541FFAA3E054E04AF0E8A30B
:1003B300F075D60275D702E5D6A2E140FA7F0102B5
:1003C30001C2C0E074ED12020274FF120106C2C042
:1003D300E5D1A2E04003020623120837E9850E8225
:1003E300850F83F075F084A4F8A9F0744228F58290
:1003F300740139F583858208858309A3A3A3A3E048
:100403002405FEE43400FFA2AFE433850E82850F9A
:1004130083F0C2AF7814E62EFA08E63FFBEA240322
:10042300F8E43BF9C3E894F1E9941A40030205693F
:100433007810E6244EF58208E63402F583E4F018DA
:10044300E62401F608E436F674F465107004741AB1
:1004530065117006751000751100080808E624017F
:10046300F608E436F67810E6244EF58208E6340200
:10047300F583EEF018E62401F608E436F674F46525
:10048300107004741A651170067510007511000858
:100493000808E62401F608E436F67810E6244EF55B
:1004A3008208E63402F583EFF018E62401F608E447
:1004B30036F674F465107004741A651170067510BD
:1004C30000751100080808E62401F608E436F678FA
:1004D3001074F4C396FA741A0896FBC3EE9AEF9B52
:1004E30050068E0A8F0B80048A0A8B0BEEC3950A83
:1004F300F50CEF950BF50D780A1202B9AC08AD09AE
:100503007810E6244EFA08E63402FB1203867402DE
:1005130012011CE50C450D6023780C1202B9E508A5
:10052300250AFCE509350BFD7A4E7B02120386741E
:100533000212011C850C10850D11801B7810E62E0C
:10054300F608E63FF674F465107004741A651170CA
:10055300067510007511007814E62EF608E63FF6CE
:10056300751600020613E51660030206137810E6FB
:10057300244EF58208E63402F5837403F018E6246A
:1005830001F608E436F674F465107004741A651104
:100593007006751000751100080808E62401F608B6
:1005A300E436F67810E6244EF58208E63402F58345
:1005B300E4F018E62401F608E436F674F4651070E6
:1005C30004741A6511700675100075110008080887
:1005D300E62401F608E436F67810E6244EF58208A0
:1005E300E63402F583E4F018E62401F608E436F66F
:1005F30074F465107004741A651170067510007533
:100603001100080808E62401F608E436F675160119
:10061300850E82850F83E0A2E092AF75D1FE8047FD
:10062300E5D1A2E25032E51DFA7814C3E69AF60842
:10063300E69400F6181818E62AF608E436F674F479
:1006430065127004741A6513700675120075130031
:10065300439A1075D1FB800FE5D1A2E3500912062E
:10066300C8439A1075D1F7740112011C7F06020268
:100673006175C68000E59EA2E640F9E5C654C7440D
:1006830028F5C67519FF75180090619074F5F09000
:1006930061FA7409F09061B27415F09061AEE4F000
:1006A300906180E0C2E0F0781076000874186870FA
:1006B300F812094B1202CAD2AF53F4FED29043FE92
:1006C30001E51980FCC082C083900100E0601C1426
:1006D300602224FB602714700302076F1470030267
:1006E300077714700302077F020786900102E0F583
:1006F3001B020786900102E0F519020786900102AA
:10070300E0906173F0900103E0906172F090010456
:10071300E0906175F0900105E0906174F09001063E
:10072300E0906171F0900107E0906170F090010832
:10073300E090616FF0900109E090616EF090010A22
:10074300E090616DF090010BE090616CF090010C12
:10075300E090616BF090010DE090616AF090618030
:10076300E0D2E0F0906182E0D2E08016906180E018
:10077300C2E0800E906189E0C2E58006906189E065
:10078300D2E5F002038174F812015CE519600302FB
:100793000834781076000874186870F875C300750B
:1007A300A20075A30075C30075A40075A50075A606
:1007B3000075C30375A20075A30075C33075A4004B
:1007C30075A50475A60090024AE4F0A37404F0A38F
:1007D300E4F0A3F053A1EF43A710C2C2D2BA7594B9
:1007E3000975F005E51BA424D4F890618FE05480CB
:1007F30048F075E1ED75A90175B90175E9007591C9
:1008030000759B0075BF00C2899061A37406F090C8
:1008130061A5747FF0439A01D2A8751C0174422428
:1008230089901D45F07401901D44F075E1E375183E
:10083300010203C0C082C0837901E51C6017751CE7
:100843000074052442901D45F0500109E9901D44B0
:10085300F079018015751C0174892442901D45F0BF
:10086300500109E9901D44F07900020381C0E0C002
:10087300D0E8C0E0E9C0E0EAC0E0EBC0E0C082C07D
:1008830083C0F0E5E9A2E15035E51C75F084A4F8D6
:10089300A9F0744228F8740139F975C311E5A288E7
:1008A300828983F0E5A3A3F0E5A488828983A3A3C7
:1008B300F0E5A588828983A3A3A3F075E9FDE5E9A3
:1008C300A2E2503BE5D9FBC39480400B75E1EF7581
:1008D300E1ED75E1E38025E51C75F084A4F8A9F04A
:1008E300744628F582740139F583EBF0901D46E0D8
:1008F30054E0F0EBA3F075D60175D70175E9FB75EC
:10090300E900759100759B00D0F0D083D0828003FD
:10091300D0E0FCD0E0FBD0E0FAD0E0F9D0E0F8D0B2
:10092300D0D0E032C0E0C0D0E5BF601575E1EF750F
:10093300E1EDE5D6A2E0500375D68175E1E375BF1D
:100943000075BF00C28980D743F10243F4F075F804
:100953002075FC20438C04758D10758A0000C2EB52
:10096300439A1075F90022C0E0C0D0E8C0E0E9C0A6
:10097300E0EAC0E0EBC0E0ECC0E0EDC0E0EEC0E0D8
:10098300EFC0E0C082C083C0F0758A0000C2EB757F
:10099300F900A2945003020A69C2FAA2A250FC759C
:1009A300F9FFA2FA50FCE5F9600C14602914602CDD
:1009B30014604E020A6975F900A2FA50FCE5F9F8D1
:1009C300901D5EE054E0F0E8A3F075D608539AEF6B
:1009D30075F9FF020A69120789020A69E5196003BA
:1009E300020A6975A90075B900539AFEC2A875E198
:1009F300EF75E1ED75D681C2BA7594007518028062
:100A030065AC12AD1374F4C39CFA741A9DFBA8145D
:100A1300A915C3E89AE99B5005E8FEE98003EAFEBD
:100A2300EBFFC3EE9441EF940040047E408014C377
:100A3300E89AE99B5003E88006ECF874F4C398FE47
:100A4300EE6021744E2C74023D901D52F0EC244E46
:100A5300A3F0901D56E054E0F0EEA3F075D60453D6
:100A63009AEF8E1D8EF9D0F0D083D082D0E0FFD0E4
:100A7300E0FED0E0FD020913C0E0C0D0E8C0E0E929
:100A8300C0E0EAC0E0EBC0E0ECC0E0C008C009C0D1
:100A93000AC00BC082C08374FF120106E5A1A2E461
:100AA3004003020C0E90024A78081200EAA909904A
:100AB300024A750800750904750A00750B00780869
:100AC3001200D7A2AFE433850E82850F83F0C2AF45
:100AD30075C33090024A78081200EAE508F5A4903D
:100AE300024A78081200EAE509F5A590024A780857
:100AF3001200EA741078081200BEE508F5A6850E08
:100B030082850F83E0E0A2E092AF53A1EFA2AFE4AE
:100B130033F0C2AF7814E62404FA08E436FBC3EAE0
:100B230094F1EB941A4003020C037810E6244EF57B
:100B33008208E63402F5837401F018E62401F6080E
:100B4300E436F674F465107004741A651170067552
:100B53001000751100080808E62401F608E436F6CB
:100B63007810E6244EF58208E63402F5837401F02A
:100B730018E62401F608E436F674F465107004747C
:100B83001A65117006751000751100080808E6242F
:100B930001F608E436F67810E6244EF58208E634CA
:100BA30002F583E4F018E62401F608E436F674F45B
:100BB30065107004741A65117006751000751100C4
:100BC300080808E62401F608E436F67810E6244E11
:100BD300F58208E63402F583E9F018E62401F60805
:100BE300E436F674F465107004741A6511700675B2
:100BF3001000751100080808E62401F608E436F62B
:100C0300850E82850F83E0A2E092AF740112011C6E
:0F0C1300D083D082D00BD00AD009D008020913A9
:04000005000000AF48
:00000001FF
