:020000040000FA
:060000000200AF02206EB9
:0300430002127333
:03004B00021DA5EE
:0300530002231570
:03007B000220B3AD
:10008300021F2500000080FBE479217854B80002A8
:100093008004F709D8FCE4900100787379028002A8
:1000A300F0A3D8FCD9FA121E9412008675D00075FD
:1000B30081BF75100075110102008BE7667010088F
:1000C30009E766700A0809E76670040809E766220B
:1000D3006016080808C6C313C618C613C618C61385
:1000E300C618C613C6D5E0EA2270090808082260BC
:1000F30016181818C6C333C608C633C608C633C68F
:1001030008C633C6D5E0EA22E627F60809E637F63D
:100113000809E637F60809E637F622E026F608A3CB
:10012300E036F608A3E036F608A3E036F622E64703
:10013300F60809E647F60809E647F60809E647F62A
:1001430022C9C0E0E7F60809E7F60809E7F6080957
:10015300E7F6D0E0F922E8F0A3E9F0A3EAF0A3EB95
:10016300F022C3E498F8E499F91201A68026C3E4C7
:100173009AFAE49BFBE920E7E91201A6E498F8E484
:1001830099F922C3E498F8E499F91201A6E498F8DE
:10019300E499F9C3E49AFAE49BFB22EB20E7CFE965
:1001A30020E7E0B90010BB0008E88AF084F8AAF061
:1001B30022E4FBC8FA22EB70227B10C833C8C93390
:1001C300C9335007C39AC3DBF280069A50012ADB76
:1001D300EAC833F4C8C933F4C9FA2275F008E4C88D
:1001E30033C8C933C933C99AC99B5004C92AC93B07
:1001F300D5F0ECFBC833F4C8E4C9FA22600C08C696
:10020300C313C618C613C6D5E0F422700422600DCA
:1002130018C6C333C608C633C6D5E0F41822251062
:1002230010AF08F510400C15118008F510400215A9
:1002330011D2AF2200C0D0251010AF08F510500C1A
:1002430005118008F51050020511D2AFD0D0222538
:1002530010F582E43511F583222510C582C0E0E54F
:100263001134FFC583C0E0E510C3958224F910AFB4
:10027300088583118582108008858311858210D2B9
:10028300AFCEF0A3E520F0A37808E608F0A3DEFAEA
:10029300EFF0A3E58124FBF8E608F0A3E608F0A35A
:1002A3000808E608F0A3E608F0A315811581D0E05D
:1002B300FED0E0F815811581E8C0E0EEC0E02285AC
:1002C3001183851082E0A3FEE0A3F5207808E0A364
:1002D300F608DFFAE0A3FFE0A3C0E0E0A3C0E0E09C
:1002E300A3C0E0E0A3C0E010AF08858210858311AE
:1002F3008008858210858311D2AFD083D08222C03B
:10030300D02510C582C0E0E51134FFC583C0E0E508
:1003130010C3958224F310AF088583118582108062
:1003230008858311858210D2AFC8F0A3E9F0A3EA50
:10033300F0A3EBF0A37908E709F0A3D8FAECF0A354
:10034300EDF0A3EEF0A3EFF0A3D0E0F0A3D0E0F044
:10035300A3D0E0F0A3E520F0A3E5F0F0A3228511FC
:1003630083851082E0C0E0A3E0F9A3E0FAA3E0FBF9
:10037300A37808E0F608A3DFFAE0FCA3E0FDA3E01E
:10038300FEA3E0FFA3E0C0E0A3E0C0E0A3E0F5D05C
:10039300A3E0F520A3E0A3F5F010AF088583118552
:1003A30082108008858311858210D2AFD082D083DA
:1003B300D0E0F8D0E032033F0000030004280D989A
:1003C300089007900194011B0195111B08F009394E
:1003D300821F0EA4FECD82210622FB381818162197
:1003E30018F0EF3818F2ED3828F2EB3868F00339DB
:1003F3002A1FE73F08F00428C33868F0393C08F1A6
:10040300053C88F1173CA8F10E3CE09F2C1F012806
:10041300104A291FD63F15D0033827D0093800903A
:100423000428A83F0128154101980128014A25D035
:100433001F38041F831F0EA4FECD04220538142188
:10044300202807A0083F0628711527D0E93920285E
:1004530007D0F238832178F10238042188F1083D6E
:100463000628A14001F004288D38042807A0052898
:10047300561528F1163C68F1143D77CF1240599276
:1004830002D80F3912D00739699222D004397992F0
:1004930042D004380528F8151E3FC09F0428753F35
:1004A30008F1233C88F1203D094028F1103D4540E7
:1004B300F7C759F2083D9303131183E1B9F00F3CD9
:1004C30023E00D3F09D8EA38F9C30B3F68F1033D38
:1004D30059F2F23C09D8F9390528C6150528F9154A
:1004E30001900128214A051F48F00C3C08F10A3805
:1004F30068F1033C98F106390C9606280215022888
:10050300843F47A00C960528FC15531F0528EC15BE
:1005130007288CED0528F51501280195711B012885
:100523000CE40528EE15511F88F10B3808F1073844
:1005330068F109390128214201F00B3947D0093804
:100543003521063F28F1033838F10339351F341FAD
:1005530004280CE047D0033903280CE80528D115FB
:10056300571F28F00638561F811F021F38F006391F
:1005730030215B9005284415FD3F88F1033D052894
:10058300001505288A1547D0133808F10F392C4771
:100593000CF00C38C403B4125C110C3E04F00A389E
:1005A300C103802801A0411B063F3021043F0728D7
:1005B3004CED4C1B5B9047D0173827D00328F139FB
:1005C3000EA4FECD02220D39002208381021002985
:1005D30014E00328E63C4C1BF13F0528A715EE3F2A
:1005E30046181221033F05280B1588F130390528D9
:1005F3001A150128FB41302100291BE00A3D04287C
:10060300FF1505281015F6C35192166A3B906B0827
:100613000428F615052807150BF0FB3917D0043805
:100623002D1F0128C43F0328214701F0083903285F
:10063300314701F00439A2958090033FC29500929F
:100643000328BF15201B54900128B33F08F1053937
:10065300052111900128214A38F103390021023F75
:10066300302110216A030428CB156B033141224149
:1006730028F1093D02F00239F29101F00B39FF280C
:10068300F191083F02F00239529201F00339FF2839
:10069300F193F7CB1B06023907A4B20C073D47D0F1
:1006A30003287738249003287E3F1690B608042841
:1006B300BA15A6030428B7153BE0F7CE28F1703C22
:1006C300012807A0F090A00668F1323D149030F0A5
:1006D300053938F103286738073F50F00328633999
:1006E30058F10328603838F104380328B415033F60
:1006F3000328921503287E15012807D0033907A183
:10070300563F424130F00C3907A112D0033807D8C5
:100713004E3887A0C14041D04A38F7CE483F38F120
:10072300033822D0443807D8423907A1403F78F133
:10073300123847D02D3800F0033860F00639C14035
:1007430011D0073887A0113F10F0033820F0AB39E0
:1007530077CF0B3F00F0033810F0A539414181D02A
:10076300043903285915093F0328751568F105391C
:10077300414141D0023907B810F0063903283A1530
:10078300012807D0033807D8123907A1103F40F0DA
:100793000328053903281D1507D8F838083FA10396
:1007A30083403112310511D0023907A14BF0063CC9
:1007B3000428261504283715FA3F042821151BF0B1
:1007C300FD3D38F103380328AA15F7CD0328214747
:1007D30001F005390328314701F0033807A2F7CEAA
:1007E300224082D00A38060304281D150693760694
:1007F300261196040428171571034112002871C0AD
:1008030021070438E7CF4198043F17D004395198A2
:100813000728214817D00538F295202800901D3F5E
:1008230007D20438C2950092183F07D10438D295F5
:100833000094133F07D40438E29500980E3F80904C
:1008430028F10A3D3190A10631F0063903A4B2958F
:100853000228B31500A1A2950228AF15201B28F189
:10086300633D08F10A39012807D0073907285141A8
:100873001128C14A012807A017D20539E3CF8AD02E
:10088300023813A007D20539B3CF4AD0023843A0A8
:1008930083D01E3931031112310521D00739319923
:1008A30007282148002915E0133F52950228851592
:1008B300454003D10D39429502287F15281F219900
:1008C3000728214803D2043862950228761573CF8E
:1008D300834808F1093977CF17D0063907D203398E
:1008E3000AD1023887A0349007D2073807D80338D3
:1008F3003090543F07A8023FF7C718F15A3927D061
:100903004C39314011D0493987D0073917D045398F
:1009130007D203390AD1413805F04B39414001F080
:10092300483850903B3F68F1153878F139381490C6
:1009330017D03D3907D23D3987D003383490393F3A
:1009430007D1373911900128214A409003287715A0
:10095300253F47D01C38249007D30C391190012828
:10096300214A87D008385144002911E0043A514CF8
:10097300023877CF17D01B3987D003383490193F0B
:1009830007D31739C14021D01438073F17D00F3987
:1009930007D303383090023F009044900A3F2490DD
:1009A30017D0053907D305393490033FA09F4490EE
:1009B3000221C190511B8121342124F0083927D011
:1009C30004390C9CFD2BAE3F10904490B7CF34F00C
:1009D3000E3953210328E195711B541F0F28CC9521
:1009E30006282141F1C081111C09143F0190511BBC
:1009F3000728F19F711B802114F001288F3854F0D0
:100A0300FD2B0A380128B63F541F03286D15102803
:100A1300CCED0328761576217821501F0128A29A60
:100A2300217001B2218001B221802CE303286915D2
:100A330074210128ACE408F1073C88F1033D022846
:100A4300A01503282A15011F0128349D03285915D1
:100A5300201F002168F0093D069058F0033907284C
:100A6300364102289C15FA3F0728504078F1043993
:100A7300331F321F0421500000DC0128853828F180
:100A8300103D8340F7CB31031112310521D00339D7
:100A930003D1033900D8103807A41B901A90163FCE
:100AA30000D80128713998F107394B700128E241C8
:100AB3002B0800288E3F102807A04B701BF0FC2B3F
:100AC300ED3C4A70224128F1303D02F00239F291A7
:100AD30012E0B20CFC2BE23C419031061111FF2BCA
:100AE300E29F3204520022111A042A0432400028E1
:100AF30062C018F1033927D00D3922F009390728CC
:100B03000141B109002921E0093A0AA1073F42F056
:100B13000339FACE033F62F0F93818F1253977CF5C
:100B23000AD1223887A0203F02F00239529212E004
:100B3300B20CFC2BB33C68F1123D38F1153887D069
:100B430013390128314201F00F38402807A0072844
:100B5300914231C0C1A00728914A063F0228019063
:100B6300710621121A04FF2BF29FB2084BE0A60371
:100B73000228151526030228121568F1293CFBF0FB
:100B8300273C6290467002280A15D23704286096E3
:100B930062904670062D02280215C23778F1183983
:100BA300D04000D81538DBF0133C82904670012802
:100BB300F615D237764400D40338060E023F060DED
:100BC30041700128EC15417086120128E815329016
:100BD300B20C053D46700128E215FB3F08F10639CA
:100BE30041721128C14A012807A0EF28F7CF28F145
:100BF3001E3D83403090A00631031112310521D0F0
:100C030003398295043F30F0043972950028D515D5
:100C130053C843D0023823A007D4023803A130F0CD
:100C2300023903A2834892950028C71506900BF05A
:100C330005380128B415591FFB3F0EA4FECD012230
:100C4300043902287315FA3F551F1121031F2490FD
:100C530008F10F390AD1033987D02438314011D034
:100C6300213905F02139414001F01E3850901B3FD6
:100C730048F1073828F1033858F1063987D014387A
:100C830077CF1490113F78F1053911900128214A4B
:100C9300093F98F10939829500289315281F54902C
:100CA300033F009044900EA4FECD03220439022892
:100CB3003D15FA3F13212C1801210321741FD190F4
:100CC3000000F13724F0093800000190511B072878
:100CD300F19F711B8021063F4190511B0328E19531
:100CE300711B32210728914231C00728914ABF283E
:100CF300F7CF28F1063C88F1043D92955E15281F35
:100D030044F0383814F00A3854F0FB2B85380128A6
:100D13000CE40128F615FB2BF93F012890150090F0
:100D230027D0283902D8083838F1243932900128DD
:100D33009215E237193F19E089F2043C38F11A3968
:100D4300599238F10339012886151240910300297D
:100D530051E2120E12D0F038012886150128B91578
:100D63001240012891153199072821482C18FE2B90
:100D73004C3F0128104A0028A915FB2B223FF09F66
:100D8300043FD09F023FB09F0028D0152C1FF23F95
:100D930028F1053C68F1033D1490053F2090023F84
:100DA3001090449041980728214838F1FE2B0138D0
:100DB3000028B515FD2BFD3F217011E021800200B5
:100DC3000128214107282148217811E021880200C8
:100DD300F7C7761571033112A10501D4023907A8AB
:100DE3000428649631150238F7C70428C4F6FB3C7F
:100DF3000200FE28F7CF641551417111A10501D8F6
:100E03000339012807A064911F150338FE28F7CF83
:100E1300C4F1FB3C0200F7C753155141022807A058
:100E23000AD40339FD28F7CF5111A10501D40239A2
:100E330007A8C4910428659607150238F7C75631E9
:100E430024F2FB3C02000028DB150028EC15412DA1
:100E5300160C0200F7C73415D032D332234268F19F
:100E630009394141904041D0043850000306023F04
:100E730003033142022807A00AD404395100FD2894
:100E8300F7CF13064492042865960028B915002865
:100E9300CA155631FF28E19F4070060C023813062D
:100EA3008EA0810064E044F5F83C0029F4E2A4F24A
:100EB300ED3C03F0023807A8D32FD02F02009BF09C
:100EC300023C020007A12DE0020098F10938102826
:100ED30007D0033908F1043831990728214808F16C
:100EE3000C39012807D00938072851411128C0427D
:100EF300010C0338072850491190082807D00538FA
:100F03000628B148F728F7CF042807D00538062864
:100F1300A148FB28F7CF3021291F0200311FFF28EA
:100F2300F19F411B301F31210200022101210321C6
:100F3300532309380628D14001D112384198072894
:100F430021480B3F54230C385021F1910000F13715
:100F5300741FF1900000F13768F0023C2B1F0190E1
:100F6300511B81210728F19F711B80210728914282
:100F730031C00728914ABF28F7CF3221342102001C
:100F8300082807D007390628B14001F0043808289B
:100F930007A0020004280D98FE2BF43F402807D039
:100FA3000D390EA4FECD012204390028BF15FA3FE6
:100FB300661B112100291BE002000728A64A0EA484
:100FC300FECD012204390028B115FA3F0128314230
:100FD300B10941E0053A08384BF00C38EA3D0728DF
:100FE300A142611BE73F0728914271CF0728914A2D
:100FF300F73F0728914281A20728914ADA3F0EA4BE
:10100300FECD0222043900289115FA3F4618122119
:1010130000291BE01BF00639581F0628E040012871
:10102300004A020017D00A393122063817A0419826
:1010330007282148033F0728A6480200124038F139
:10104300093802D807399103002941E2120E120D23
:101053001248020047A07B280C9C10215215FF2B3D
:101063005E15B7CF020059F203396391083F69F265
:101073000339E392043F79F20339439602000428CB
:101083000D98FA2B0B3F02D407389103002901E294
:10109300117006286148020088F10A3C0128314199
:1010A3000728814AB1460328314FA1460F3F07283D
:1010B300894A28F1063D31440328314F5140053F09
:1010C300552851950328314F81110328214F0200E0
:1010D300E3F3033CF190033F23E051920628614A76
:1010E3000628434802007B21772141900000F13715
:1010F300702175217A218CEE0415521F801F020086
:101103004C1B001F47D0033827D009390EA4FECD4E
:10111300002203390B15F73F1021020004280D9814
:1011230038F1FE2B2738FE2B3C3FD232021801192F
:10113300210601D41A381218162162F003392A1F26
:101143002D3F12F2153822F22838FE2BEF1568F0E6
:10115300063C61900128114AFE2BB8153021280363
:1011630004280D98F92B2E3F01D11438142120287F
:1011730007D00D3878F1123904231038714401F087
:1011830002398144002911E0714C083F202807A04F
:10119300053F01D20538152127A0D22F020011D017
:1011A3000638102104280D98FD2BF33FF2CE520090
:1011B300121BF43FC082C083791DE9F5D57A668A94
:1011C300D4EA2408500109E9F5D374082AF5D2902A
:1011D3001D667470F0A374D9F0A3E4F0A3F0901D1E
:1011E3006DE0540CF0441AF0901D6CE0C2E7F090EF
:1011F3001D6AE054E0F0A3E4F0901D6AF0901D6DC9
:10120300E0C2E2F0901D6C7420F0901D72E0541F58
:10121300F0901D757452F0901D747420F0901D7E33
:101223007470F0A374F9F07401A3F0A37418F0A31D
:10123300E054E0F0A3E4F0901D82F0901D85741A51
:10124300F0901D847410F0901D787470F0A374F9FD
:10125300F0A3E054E0F0A3E4F0901D7AF0901D7D3C
:10126300744AF0901D7C7410F0D2B8D083D08222DF
:10127300C0E074EF12030274FF120221C2C0E5D171
:10128300A2E040030215AF7901E5726017757200A1
:10129300740B245A901D69F0500109E9901D68F000
:1012A300740180147572017497245A901D69F0506B
:1012B3000109E9901D68F0E475F08CA4F8A9F074B5
:1012C3005A28FE740139FFEEF8EFF975C311E5A250
:1012D30088828983F0E5A3A3F0E5A488828983A3A8
:1012E300A3F0E5A588828983A3A3A3F08E828F83CD
:1012F300A3A3A3A3A3A3A3A3A3A3E0FAEE2AF8E4BF
:101303003FF9E8240EF582E439F583E0FCE8240F85
:10131300F582E439F583E0A2E7E433F874256571D7
:101323006006742765717015EC94054008EA24FA89
:10133300C394204008E8A2E040030215A6EE240B64
:10134300FCE43FFDEE2409FAE43FFB1217E0EEFC58
:10135300EFFD8E828F83A3A3A3A3E02405FAE434D5
:1013630000FBA2AFE433851082851183F0C2AF780E
:1013730025E62AFE08E63BFFEE2403F8E43FF9C323
:10138300E894F1E9941A40030214F17821E62472F7
:10139300F58208E63402F583E4F018E62401F60842
:1013A300E436F674F465217004741A6522700675C8
:1013B3002100752200080808E62401F608E436F641
:1013C3007821E62472F58208E63402F583EAF01800
:1013D300E62401F608E436F674F465217004741A01
:1013E30065227006752100752200080808E62401AD
:1013F300F608E436F67821E62472F58208E634022C
:10140300F583EBF018E62401F608E436F674F46588
:10141300217004741A652270067521007522000874
:101423000808E62401F608E436F6782174F4C39636
:10143300FE741A0896FFC3EA9EEB9F50068A088B38
:101443000980048E088F09EAC39508FEEB9509FF0E
:1014530018E62472F50A08E63402F9E5084509603E
:101463002AED901D6EF0ECA3F0E9A3F0E50AA3F0DA
:10147300E509541FF8A3E054E048F0E508A3F0752C
:10148300D60275D702E5D6A2E140FAEE4F6035ECFD
:101493002508F8ED3509901D6EF0E8A3F07402A35A
:1014A300F0A37472F0EF541FF8A3E054E048F0EE99
:1014B300A3F075D60275D702E5D6A2E140FA8E21D4
:1014C3008F22801B7821E62AF608E63BF674F46542
:1014D300217004741A652270067521007522007844
:1014E30025E62AF608E63BF675270002159BE52755
:1014F300600302159B7821E62472F58208E6340224
:10150300F5837403F018E62401F608E436F674F460
:1015130065217004741A6522700675210075220016
:10152300080808E62401F608E436F67821E6247272
:10153300F58208E63402F583E4F018E62401F608A0
:10154300E436F674F465217004741A652270067526
:101553002100752200080808E62401F608E436F69F
:101563007821E62472F58208E63402F583E4F01864
:10157300E62401F608E436F674F465217004741A5F
:1015830065227006752100752200080808E624010B
:10159300F608E436F6752701851082851183E0A2EB
:1015A300E092AF75740075D1FE0217D6E5D1A2E2C1
:1015B3005033E573FA7825C3E69AF608E69400F605
:1015C300181818E62AF608E436F674F4652370044E
:1015D300741A65247006752300752400439A1075E8
:1015E300D1FB0217D6E5D1A2E340030217D690013F
:1015F30018E0604C14604024FB60030217D0900194
:101603001AE0900112F090011BE0900113F0900199
:101613001CE0900114F090011DE0900115F0900181
:101623001EE0900116F090011FE0900117F0900169
:10163300117401F00217D090011AE0F56F0217D070
:1016430090011AE0F88871C3940B50079061A67457
:1016530025801EE8C39412500D9061A67425F0E80E
:10166300C333241C8011E8C3942550109061A674E1
:101673000FF0E8C333241A906184803474256870B2
:101683000D9061A67425F0906184741880227426ED
:1016930068700D9061A67425F09061847430801099
:1016A300742768700C9061A6740FF0906184746461
:1016B300F07401656E60030217D075A90075B90057
:1016C300539AFEC2A875E101E5E170FC75E1F1757D
:1016D300D681C2B975E40075A90175B90175E90030
:1016E300759100759B0075BF00C289906182740576
:1016F300F0A3747FF0439A01D2A8757201745A243F
:1017030097901D69F07401901D68F075E10175E112
:10171300F19061947420F0A374D6F0A374BEF0A387
:101723007489F0A3748EF0E8900110F0C3940B5009
:10173300079061A67425801EE8C39412500D906132
:10174300A67425F0E8C333241C8011E8C394255004
:10175300109061A6740FF0E8C333241A906184805B
:1017630034742568700D9061A67425F090618474BB
:10177300188022742668700D9061A67425F090611C
:101783008474308010742768700C9061A6740FF015
:101793009061847464F090605FE4F090605104F0B1
:1017A300A37485F0744048A3F0A3E4F0A37455F048
:1017B300A3F0A3F090605AE4F0A3F0A3F0A3F075B4
:1017C3006D01F56353A1DF53A7DF75E118439A1049
:1017D30075D1F774011202377F0402036174F112A9
:1017E300025C8A828B83ECFAEDFBE56D14600914CD
:1017F3007003021880021AB3E0540F6405600302F9
:101803001AB3900111E0606F900112E0F88A828BA5
:1018130083E0686003021AB3900113E0F88A828BB5
:1018230083A3E0686003021AB3900114E0F88A828C
:101833008B83A3A3E0686003021AB3900115E0F859
:101843008A828B83A3A3A3E0686003021AB3900187
:1018530016E0F88A828B83A3A3A3A3E06860030244
:101863001AB3900117E0F88A828B83A3A3A3A3A3DF
:10187300E0686003021AB3121AB8021AB3E5626091
:1018830037855D08855E09C2B975E40075E20075A8
:10189300E40C75DA4075DB9C740478081201FFE5EB
:1018A3000804F55FF56075AF00C2C175E544D2B9B0
:1018B30043E402756200800675E200855F60E563BC
:1018C30070030219A6AC69AD6A8C088D09AE08AF26
:1018D3000975C311E5A6F508E5A5F50CE4F509F5C9
:1018E3000AF50B740878081200ECF50DF50EF50FE8
:1018F3007808790C120131740878081200ECE5A419
:10190300F50C7808790C12013185090DAC0CAD0D7D
:1019130085580C85590D7403780C12020E780879DA
:101923000C12010B756300EF5480600EEE2400EF80
:101933003480FFEC2400ED3480FD74016564700590
:101943007564008017EE2402F8E43FF9C3E89CE9CC
:101953009D4050786579081200BE6047850865850B
:101963000966850A67850B68AC65AD66AE67AF68C7
:101973008C0C8D0D8E0E8F0F75C340EC24FEF5A4D9
:10198300ED34FFF5A57508FE7509FF750AFF750BA4
:10199300FF780C790812010B7410780C1200D3E550
:1019A3000CF5A6E0540364036003021AB38A828B26
:1019B30083E0600F147003021A51147003021AAD0E
:1019C300021AB3A3A882A983E090010BF08882894D
:1019D30083A3E0FC88828983A3A3E0FBEC90010C42
:1019E300F0A3EBF088828983A3A3A3E0FC88828918
:1019F30083A3A3A3A3E0FBEC900109F0A3EBF0887E
:101A0300828983A3A3A3A3A3A3A3E0FC88828983DE
:101A1300A3A3A3A3A3A3A3A3E0FBEC90010EF0A3B2
:101A2300EBF088828983A3A3A3A3A3A3A3A3A3E027
:101A3300FA88828983A3A3A3A3A3A3A3A3A3A3E055
:101A4300F9EA900107F0A3E9F07561018062A3A8A8
:101A530082A983E0900102F088828983A3E0900148
:101A630003F088828983A3A3E0900104F08882892C
:101A730083A3A3A3E0900105F088828983A3A3A392
:101A8300A3E0900106F088828983A3A3A3A3A3E024
:101A9300FA88828983A3A3A3A3A3A3E0F9EA90010D
:101AA30000F0A3E9F07555018006756D0375E40038
:101AB3007F080202C274F112025C75E10175E1F163
:101AC30075C300E5A2E5A3E5A6F50CE5A5F508E4D5
:101AD300F50DF50EF50F7408780C1200ECF509F509
:101AE3000AF50B780C79081201317408780C12008E
:101AF300ECE5A4F508780C79081201317869740CC7
:101B0300120144755500756100756201EA240CF5F4
:101B130082E43BF583E0906195F0EA240DF582E4DD
:101B23003BF583E0906196F0EA240EF582E43BF501
:101B330083E0906197F0EA240FF582E43BF583E0BC
:101B4300906198F0906054E4F0EA2410F582E43B4D
:101B5300F583E0906055F0EA2411F582E43BF583C8
:101B6300E0906056F0EA2412F582E43BF583E090BE
:101B73006057F0EA2413F582E43BF583E0F55AEA73
:101B83002414F582E43BF583E0FCEA2415F582E4B2
:101B93003BF583E0F9ECF8885B895CEA2416F5826F
:101BA300E43BF583E0F8790088588959EA2417F56E
:101BB30082E43BF583E0FD7858E446F608ED46F60B
:101BC300EA241AF582E43BF583E0FCEA241BF58260
:101BD300E43BF583E0F9ECF8885D895EEA241CF8C0
:101BE300E43BF97C008C2B88828983E0F52CA3E00D
:101BF300F52D88828983A3A3E0F52E88828983A3A8
:101C0300A3A3E0F52F88828983A3A3A3A3E0F530E0
:101C1300782CE6FE7D08EEA2E050097431252BF9FD
:101C2300ECF7052B0CEEC313FE1DED70E9087431C0
:101C33006870DFEA2421F582E43BF583E0541FF565
:101C43002AE52A75F02584A9F08929E91313135489
:101C53001FFA75080133333354F8F8E998780812FA
:101C6300020E742C2AF8E655086003E9800CE52B74
:101C7300F5F0E984E5F02431F8E6FA8A71EAC394D1
:101C83000B50079061A67425801EEAC39412500D71
:101C93009061A67425F0EAC333241C8011EAC3942F
:101CA3002550109061A6740FF0EAC333241A906193
:101CB30084803474256A700D9061A67425F0906158
:101CC300847418802274266A700D9061A67425F0BE
:101CD3009061847430801074276A700C9061A674CC
:101CE3000FF09061847464F074404A906053F0750F
:101CF3005600755700795B7858E627FC0809E637E4
:101D0300FDEC2401F508E43DF5097403780812029B
:101D13000E7469F9780812010B786574081201448E
:101D2300AC65AD66AE67AF688C0C8D0D8E0E8F0FF4
:101D330075C340EC24FEF5A4ED34FFF5A57508FE4C
:101D43007509FF750AFF750BFF780C790812010BF3
:101D53007410780C1200D3E50CF5A6756401756355
:101D630001855808855909C2B975E40075E2007503
:101D7300E40C75DA4075DB9C740478081201FFE506
:101D83000804F55FF56075AF00C2C175E544D2B9CB
:101D930043E40253A1DF43A720756D0275E11802E6
:101DA3001AB3C0E0C0D0E8C0E0C082C08375AF0002
:101DB300C2C174FF2560F5606003021E8D75E500E6
:101DC300C2B975E400900110E0F875E10175E1F125
:101DD3009061947420F0A374D6F0A374BEF0A3743E
:101DE30089F0A3748EF08871E8C3940B5007906157
:101DF300A67425801EE8C39412500D9061A6742525
:101E0300F0E8C333241C8011E8C39425501090617B
:101E1300A6740FF0E8C333241A90618480347425C8
:101E230068700D9061A67425F09061847418802207
:101E3300742668700D9061A67425F09061847430E7
:101E43008010742768700C9061A6740FF090618401
:101E53007464F090605FE4F090605104F0A37485C3
:101E6300F0744048A3F0A3E4F0A37455F0A3F0A3E7
:101E7300F090605AE4F0A3F0A3F0A3F0756D01F5C0
:101E83006353A1DF53A7DF75E118D083D08202200B
:101E93006675C68000E59EA2E640F99061F2E4F023
:101EA300A3F078B9790388828983E4939061F0F091
:101EB30088828983A3A882A983E864B77003E9644D
:101EC3001170E3759C779061B17401F075E106E5DB
:101ED30091A2E750FA75917F7821760008742968FA
:101EE30070F81220941211B79061807440F09061E1
:101EF300917448F090619A743FF0A3745AF0906122
:101F0300A0747FF09061BC7407F09061A6740FF029
:101F13009061B67416F0D2AF53F4FED29043FE0133
:101F230080FEC0E0C0D0E8C0E0E9C0E0EAC0E0EB7A
:101F3300C0E0ECC0E0EDC0E0C008C009C00AC00BBF
:101F4300C082C083C0F0E591540570030220409025
:101F530061C8E0FDC39405500675E1F102203D75AB
:101F63007401E57275F08CA4F8A9F0745A28F8741A
:101F73000139F9E8FAE9FB906195E08A828B83A342
:101F8300A3A3A3A3F0906196E08A828B83A3A3A368
:101F9300A3A3A3F0906197E08A828B83A3A3A3A357
:101FA300A3A3A3F0906198E08A828B83A3A3A3A346
:101FB300A3A3A3A3F0E5D98A828B83A3A3A3A3A39B
:101FC300A3A3A3A3F0E5D9543FFC1D1D8A828B83F1
:101FD300A3A3A3A3A3A3A3A3A3A3F08C08ED24FD0E
:101FE300F8E434FFF9E865087001E9600474FD2D35
:101FF300FCEA2CF8E43BF9906060E0C0E0E8240ED2
:10200300F582E439F583D0E0F0E8240FF582E43972
:10201300F583E571F0E591A2E2E05004C2E78002A6
:10202300D2E7F0740B2C8A828B83A3A3A3A3F0EDD6
:10203300901D6BF075D60175D70175910075E90098
:10204300759100759B00D0F0D083D082D00BD00A5D
:10205300D009D008D0E0FDD0E0FCD0E0FBD0E0FA1E
:10206300D0E0F9D0E0F8D0D0D0E032C0E0E5BF60F6
:102073001875E101E5E170FC75E1F175D681C2C027
:1020830075D1FE75E11875BF0075BF00C289D0E038
:102093003243F10243F4F075F82075FC20438C04BD
:1020A300758D10758A0000C2EB439A1075F90022F2
:1020B300C0E0C0D0E8C0E0E9C0E0EAC0E0EBC0E0C7
:1020C300ECC0E0EDC0E0EEC0E0EFC0E0C082C08352
:1020D300758A0000C2EB75F900A29450030223082D
:1020E300C2FAA2A250FC75F9FFA2FA50FCE5F9600E
:1020F3001214602F1470030222701470030222A3BF
:1021030002230875F900A2FA50FCE5F9F8901D8244
:10211300E054E0F0E8A3F075D608539AEF75F9FFA1
:10212300022308E56F600302230878217600087410
:10213300296870F875C30075A20075A30075C30004
:1021430075A40075A50075A60075C30275A28875F0
:10215300A31375C33075A40075A54075A60053A1DC
:10216300EF43A710C2C2D2BA75940975740075A95A
:102173000175B90175E900759100759B0075BF0084
:10218300C2899061827405F0A3747FF0439A01D2EF
:10219300A8757201745A2497901D69F07401901DFB
:1021A30068F0E571F875E10175E1F19061947420CF
:1021B300F0A374D6F0A374BEF0A37489F0A3748E55
:1021C300F0E8900110F0C3940B50079061A67425BA
:1021D300801EE8C39412500D9061A67425F0E8C3E5
:1021E30033241C8011E8C3942550109061A6740F0A
:1021F300F0E8C333241A9061848034742568700D29
:102203009061A67425F09061847418802274266806
:10221300700D9061A67425F0906184743080107401
:102223002768700C9061A6740FF09061847464F059
:1022330090605FE4F090605104F0A37485F0744003
:1022430048A3F0A3E4F0A37455F0A3F0A3F09060C7
:102253005AE4F0A3F0A3F0A3F0756D01F56353A165
:10226300DF53A7DF75E118756E01022308E56F6080
:102273000302230875A90075B900539AFEC2A87515
:10228300E101E5E170FC75E1F175D681C2BA75949F
:1022930000C2B975E400900111E4F0756E02806527
:1022A300AC23AD2474F4C39CFA741A9DFBA825A92E
:1022B30026C3E89AE99B5005E8FEE98003EAFEEBB2
:1022C300FFC3EE9441EF940040047E408014C3E8C2
:1022D3009AE99B5003E88006ECF874F4C398FEEE89
:1022E300602174722C74023D901D76F0EC2472A36D
:1022F300F0901D7AE054E0F0EEA3F075D604539A03
:10230300EF8E738EF9D083D082D0E0FFD0E0FE024F
:102313002057C0E074EB12030274FA120221E5A104
:10232300A2E44003022478A2AFE433C0E0740112B4
:102333000252D0E0F0C2AF75C330E5A4E5A5F9E5DC
:10234300A6F8744029F5A574C06970057401288046
:1023530001E8851082851183F0E0F5A6740112026D
:1023630052E0E0A2E092AF53A1EFE57460030224D0
:1023730078A2AFE433851082851183F0C2AF78254C
:10238300E62404FA08E436FBC3EA94F1EB941A401A
:102393000302246D7821E62472F58208E63402F5FF
:1023A300837401F018E62401F608E436F674F46544
:1023B300217004741A6522700675210075220008C5
:1023C3000808E62401F608E436F67821E62472F5D7
:1023D3008208E63402F5837401F018E62401F60856
:1023E300E436F674F465217004741A652270067578
:1023F3002100752200080808E62401F608E436F6F1
:102403007821E62472F58208E63402F583E4F018B5
:10241300E62401F608E436F674F465217004741AB0
:1024230065227006752100752200080808E624015C
:10243300F608E436F67821E62472F58208E63402DB
:10244300F583E9F018E62401F608E436F674F4653A
:10245300217004741A652270067521007522000824
:102463000808E62401F608E436F685108285118310
:10247300E0A2E092AFE5A1A2E540030227C5740202
:10248300656D60030226F48558088559097403783D
:102493000812020EA808A909FAFB740212025212CA
:1024A300015975C300E5A2E5A3E5A6F50CE5A5F57D
:1024B30008E4F50DF50EF50F7408780C1200ECF531
:1024C30009F50AF50B780C79081201317408780CB8
:1024D3001200ECE5A4F508780C790812013178694B
:1024E300740C12014475E10175E1F17856E624019B
:1024F300F608E436F6E555604C900100E065567049
:1025030004A3E06557703E8A2B900102E0F52CA3EB
:10251300E0F52DA3E0F52EA3E0F52FA3E0F5307849
:102523002CE6FC7B08ECA2E050097431252BF9EA78
:10253300F7052B0AECC313FC1BEB70E90874316835
:1025430070DF755500E56170030225E8900107E02F
:1025530065567004A3E0655760030225E8900109FE
:10256300E0F558A3E0F55990010BE0F55A90010C02
:10257300E0F55BA3E0F55C90010EE0F55DA3E0F50B
:102583005E756100756201855808855909C2B97580
:10259300E40075E20075E40C75DA4075DB9C7404A5
:1025A30078081201FFE50804F55FF56075AF00C216
:1025B300C175E544D2B943E402E55A2401FAE4348F
:1025C30000FB785BE62AF50808E63BF50974037817
:1025D3000812020EA808A909FAFB74021202521289
:1025E3000159756401E529FAE52AF8EA28F8E43483
:1025F30000F97A257B0012019EEAF9892913131346
:10260300541FFA75080175090033333354F8F8E998
:1026130098780812020E742C2AF8E655086003E92C
:10262300800CE52BF5F0E984E5F02431F8E6FA8A2D
:1026330071EAC3940B50079061A67425801EEAC308
:102643009412500D9061A67425F0EAC333241C80C4
:1026530011EAC3942550109061A6740FF0EAC333B6
:10266300241A906184803474256A700D9061A67475
:1026730025F09061847418802274266A700D90612D
:10268300A67425F09061847430801074276A700CEE
:102693009061A6740FF09061847464F074404A9062
:1026A3006053F07402120252786512011EAC65ADDC
:1026B30066AE67AF688C0C8D0D8E0E8F0F75C340A1
:1026C300EC24FEF5A4ED34FFF5A57508FE7509FFAE
:1026D300750AFF750BFF780C790812010B741078DB
:1026E3000C1200D3850C08E508F5A67563010227D3
:1026F300BF7403656D60030227C2900110E0F87593
:10270300E10175E1F19061947420F0A374D6F0A314
:1027130074BEF0A37489F0A3748EF08871E8C39437
:102723000B50079061A67425801EE8C39412500DC8
:102733009061A67425F0E8C333241C8011E8C39488
:102743002550109061A6740FF0E8C333241A9061EA
:10275300848034742568700D9061A67425F09061AF
:102763008474188022742668700D9061A67425F015
:1027730090618474308010742768700C9061A67423
:102783000FF09061847464F090605FE4F0906051A6
:1027930004F0A37485F0744048A3F0A3E4F0A37499
:1027A30055F0A3F0A3F090605AE4F0A3F0A3F0A3D4
:1027B300F0756D01F56353A1DF53A7DF75E118537E
:0C27C300A1DF74061202377F08020361D8
:04000005000000AF48
:00000001FF
